{
	"contracts/test1/MasterChef.sol": {
		"MasterChef": {
			"abi": [
				{
					"inputs": [
						{
							"internalType": "contract RewardToken",
							"name": "_reward",
							"type": "address"
						}
					],
					"stateMutability": "nonpayable",
					"type": "constructor"
				},
				{
					"anonymous": false,
					"inputs": [
						{
							"indexed": true,
							"internalType": "address",
							"name": "user",
							"type": "address"
						},
						{
							"indexed": true,
							"internalType": "uint256",
							"name": "pid",
							"type": "uint256"
						},
						{
							"indexed": false,
							"internalType": "uint256",
							"name": "amount",
							"type": "uint256"
						}
					],
					"name": "Deposit",
					"type": "event"
				},
				{
					"anonymous": false,
					"inputs": [
						{
							"indexed": true,
							"internalType": "address",
							"name": "user",
							"type": "address"
						},
						{
							"indexed": true,
							"internalType": "uint256",
							"name": "pid",
							"type": "uint256"
						},
						{
							"indexed": false,
							"internalType": "uint256",
							"name": "amount",
							"type": "uint256"
						}
					],
					"name": "Withdraw",
					"type": "event"
				},
				{
					"inputs": [
						{
							"internalType": "contract IERC20",
							"name": "_lpToken",
							"type": "address"
						}
					],
					"name": "add",
					"outputs": [],
					"stateMutability": "nonpayable",
					"type": "function"
				},
				{
					"inputs": [],
					"name": "coconut",
					"outputs": [
						{
							"internalType": "contract RewardToken",
							"name": "",
							"type": "address"
						}
					],
					"stateMutability": "view",
					"type": "function"
				},
				{
					"inputs": [],
					"name": "coconutPerBlock",
					"outputs": [
						{
							"internalType": "uint256",
							"name": "",
							"type": "uint256"
						}
					],
					"stateMutability": "view",
					"type": "function"
				},
				{
					"inputs": [
						{
							"internalType": "uint256",
							"name": "_pid",
							"type": "uint256"
						},
						{
							"internalType": "uint256",
							"name": "_amount",
							"type": "uint256"
						}
					],
					"name": "deposit",
					"outputs": [],
					"stateMutability": "nonpayable",
					"type": "function"
				},
				{
					"inputs": [],
					"name": "owner",
					"outputs": [
						{
							"internalType": "address",
							"name": "",
							"type": "address"
						}
					],
					"stateMutability": "view",
					"type": "function"
				},
				{
					"inputs": [
						{
							"internalType": "uint256",
							"name": "",
							"type": "uint256"
						}
					],
					"name": "poolInfo",
					"outputs": [
						{
							"internalType": "contract IERC20",
							"name": "lpToken",
							"type": "address"
						},
						{
							"internalType": "uint256",
							"name": "allocPoint",
							"type": "uint256"
						},
						{
							"internalType": "uint256",
							"name": "lastRewardBlock",
							"type": "uint256"
						},
						{
							"internalType": "uint256",
							"name": "accCoconutPerShare",
							"type": "uint256"
						}
					],
					"stateMutability": "view",
					"type": "function"
				},
				{
					"inputs": [
						{
							"internalType": "uint256",
							"name": "_coconutPerBlock",
							"type": "uint256"
						}
					],
					"name": "setCoconutPerBlock",
					"outputs": [],
					"stateMutability": "nonpayable",
					"type": "function"
				},
				{
					"inputs": [],
					"name": "startBlock",
					"outputs": [
						{
							"internalType": "uint256",
							"name": "",
							"type": "uint256"
						}
					],
					"stateMutability": "view",
					"type": "function"
				},
				{
					"inputs": [],
					"name": "totalAllocPoint",
					"outputs": [
						{
							"internalType": "uint256",
							"name": "",
							"type": "uint256"
						}
					],
					"stateMutability": "view",
					"type": "function"
				},
				{
					"inputs": [
						{
							"internalType": "uint256",
							"name": "_pid",
							"type": "uint256"
						}
					],
					"name": "updatePool",
					"outputs": [],
					"stateMutability": "nonpayable",
					"type": "function"
				},
				{
					"inputs": [
						{
							"internalType": "uint256",
							"name": "",
							"type": "uint256"
						},
						{
							"internalType": "address",
							"name": "",
							"type": "address"
						}
					],
					"name": "userInfo",
					"outputs": [
						{
							"internalType": "uint256",
							"name": "amount",
							"type": "uint256"
						},
						{
							"internalType": "uint256",
							"name": "rewardDebt",
							"type": "uint256"
						}
					],
					"stateMutability": "view",
					"type": "function"
				},
				{
					"inputs": [
						{
							"internalType": "uint256",
							"name": "_pid",
							"type": "uint256"
						},
						{
							"internalType": "uint256",
							"name": "_amount",
							"type": "uint256"
						}
					],
					"name": "withdraw",
					"outputs": [],
					"stateMutability": "nonpayable",
					"type": "function"
				}
			],
			"devdoc": {
				"kind": "dev",
				"methods": {},
				"version": 1
			},
			"evm": {
				"assembly": "    /* \"contracts/test1/MasterChef.sol\":163:5138  contract MasterChef {... */\n  mstore(0x40, 0x80)\n    /* \"contracts/test1/MasterChef.sol\":305:306  1 */\n  0x01\n    /* \"contracts/test1/MasterChef.sol\":272:306  uint256 public coconutPerBlock = 1 */\n  dup1\n  sstore\n    /* \"contracts/test1/MasterChef.sol\":1287:1288  0 */\n  0x00\n    /* \"contracts/test1/MasterChef.sol\":1254:1288  uint256 public totalAllocPoint = 0 */\n  0x05\n  sstore\n    /* \"contracts/test1/MasterChef.sol\":1372:1373  0 */\n  0x00\n    /* \"contracts/test1/MasterChef.sol\":1344:1373  uint256 public startBlock = 0 */\n  0x06\n  sstore\n    /* \"contracts/test1/MasterChef.sol\":1538:1633  constructor(RewardToken _reward) {... */\n  callvalue\n  dup1\n  iszero\n  tag_1\n  jumpi\n  0x00\n  dup1\n  revert\ntag_1:\n  pop\n  mload(0x40)\n  sub(codesize, bytecodeSize)\n  dup1\n  bytecodeSize\n  dup4\n  codecopy\n  dup2\n  dup2\n  add\n  0x40\n  mstore\n  dup2\n  add\n  swap1\n  tag_2\n  swap2\n  swap1\n  tag_3\n  jump\t// in\ntag_2:\n    /* \"contracts/test1/MasterChef.sol\":1591:1598  _reward */\n  dup1\n    /* \"contracts/test1/MasterChef.sol\":1581:1588  coconut */\n  0x02\n  0x00\n    /* \"contracts/test1/MasterChef.sol\":1581:1598  coconut = _reward */\n  0x0100\n  exp\n  dup2\n  sload\n  dup2\n  0xffffffffffffffffffffffffffffffffffffffff\n  mul\n  not\n  and\n  swap1\n  dup4\n  0xffffffffffffffffffffffffffffffffffffffff\n  and\n  mul\n  or\n  swap1\n  sstore\n  pop\n    /* \"contracts/test1/MasterChef.sol\":1616:1626  msg.sender */\n  caller\n    /* \"contracts/test1/MasterChef.sol\":1608:1613  owner */\n  0x00\n  dup1\n    /* \"contracts/test1/MasterChef.sol\":1608:1626  owner = msg.sender */\n  0x0100\n  exp\n  dup2\n  sload\n  dup2\n  0xffffffffffffffffffffffffffffffffffffffff\n  mul\n  not\n  and\n  swap1\n  dup4\n  0xffffffffffffffffffffffffffffffffffffffff\n  and\n  mul\n  or\n  swap1\n  sstore\n  pop\n    /* \"contracts/test1/MasterChef.sol\":1538:1633  constructor(RewardToken _reward) {... */\n  pop\n    /* \"contracts/test1/MasterChef.sol\":163:5138  contract MasterChef {... */\n  jump(tag_6)\n    /* \"#utility.yul\":88:205   */\ntag_8:\n    /* \"#utility.yul\":197:198   */\n  0x00\n    /* \"#utility.yul\":194:195   */\n  dup1\n    /* \"#utility.yul\":187:199   */\n  revert\n    /* \"#utility.yul\":334:460   */\ntag_10:\n    /* \"#utility.yul\":371:378   */\n  0x00\n    /* \"#utility.yul\":411:453   */\n  0xffffffffffffffffffffffffffffffffffffffff\n    /* \"#utility.yul\":404:409   */\n  dup3\n    /* \"#utility.yul\":400:454   */\n  and\n    /* \"#utility.yul\":389:454   */\n  swap1\n  pop\n    /* \"#utility.yul\":334:460   */\n  swap2\n  swap1\n  pop\n  jump\t// out\n    /* \"#utility.yul\":466:562   */\ntag_11:\n    /* \"#utility.yul\":503:510   */\n  0x00\n    /* \"#utility.yul\":532:556   */\n  tag_21\n    /* \"#utility.yul\":550:555   */\n  dup3\n    /* \"#utility.yul\":532:556   */\n  tag_10\n  jump\t// in\ntag_21:\n    /* \"#utility.yul\":521:556   */\n  swap1\n  pop\n    /* \"#utility.yul\":466:562   */\n  swap2\n  swap1\n  pop\n  jump\t// out\n    /* \"#utility.yul\":568:683   */\ntag_12:\n    /* \"#utility.yul\":624:631   */\n  0x00\n    /* \"#utility.yul\":653:677   */\n  tag_23\n    /* \"#utility.yul\":671:676   */\n  dup3\n    /* \"#utility.yul\":653:677   */\n  tag_11\n  jump\t// in\ntag_23:\n    /* \"#utility.yul\":642:677   */\n  swap1\n  pop\n    /* \"#utility.yul\":568:683   */\n  swap2\n  swap1\n  pop\n  jump\t// out\n    /* \"#utility.yul\":689:849   */\ntag_13:\n    /* \"#utility.yul\":781:824   */\n  tag_25\n    /* \"#utility.yul\":818:823   */\n  dup2\n    /* \"#utility.yul\":781:824   */\n  tag_12\n  jump\t// in\ntag_25:\n    /* \"#utility.yul\":774:779   */\n  dup2\n    /* \"#utility.yul\":771:825   */\n  eq\n    /* \"#utility.yul\":761:843   */\n  tag_26\n  jumpi\n    /* \"#utility.yul\":839:840   */\n  0x00\n    /* \"#utility.yul\":836:837   */\n  dup1\n    /* \"#utility.yul\":829:841   */\n  revert\n    /* \"#utility.yul\":761:843   */\ntag_26:\n    /* \"#utility.yul\":689:849   */\n  pop\n  jump\t// out\n    /* \"#utility.yul\":855:1036   */\ntag_14:\n    /* \"#utility.yul\":931:936   */\n  0x00\n    /* \"#utility.yul\":962:968   */\n  dup2\n    /* \"#utility.yul\":956:969   */\n  mload\n    /* \"#utility.yul\":947:969   */\n  swap1\n  pop\n    /* \"#utility.yul\":978:1030   */\n  tag_28\n    /* \"#utility.yul\":1024:1029   */\n  dup2\n    /* \"#utility.yul\":978:1030   */\n  tag_13\n  jump\t// in\ntag_28:\n    /* \"#utility.yul\":855:1036   */\n  swap3\n  swap2\n  pop\n  pop\n  jump\t// out\n    /* \"#utility.yul\":1042:1431   */\ntag_3:\n    /* \"#utility.yul\":1131:1137   */\n  0x00\n    /* \"#utility.yul\":1180:1182   */\n  0x20\n    /* \"#utility.yul\":1168:1177   */\n  dup3\n    /* \"#utility.yul\":1159:1166   */\n  dup5\n    /* \"#utility.yul\":1155:1178   */\n  sub\n    /* \"#utility.yul\":1151:1183   */\n  slt\n    /* \"#utility.yul\":1148:1267   */\n  iszero\n  tag_30\n  jumpi\n    /* \"#utility.yul\":1186:1265   */\n  tag_31\n  tag_8\n  jump\t// in\ntag_31:\n    /* \"#utility.yul\":1148:1267   */\ntag_30:\n    /* \"#utility.yul\":1306:1307   */\n  0x00\n    /* \"#utility.yul\":1331:1414   */\n  tag_32\n    /* \"#utility.yul\":1406:1413   */\n  dup5\n    /* \"#utility.yul\":1397:1403   */\n  dup3\n    /* \"#utility.yul\":1386:1395   */\n  dup6\n    /* \"#utility.yul\":1382:1404   */\n  add\n    /* \"#utility.yul\":1331:1414   */\n  tag_14\n  jump\t// in\ntag_32:\n    /* \"#utility.yul\":1321:1414   */\n  swap2\n  pop\n    /* \"#utility.yul\":1277:1424   */\n  pop\n    /* \"#utility.yul\":1042:1431   */\n  swap3\n  swap2\n  pop\n  pop\n  jump\t// out\n    /* \"contracts/test1/MasterChef.sol\":163:5138  contract MasterChef {... */\ntag_6:\n  dataSize(sub_0)\n  dup1\n  dataOffset(sub_0)\n  0x00\n  codecopy\n  0x00\n  return\nstop\n\nsub_0: assembly {\n        /* \"contracts/test1/MasterChef.sol\":163:5138  contract MasterChef {... */\n      mstore(0x40, 0x80)\n      callvalue\n      dup1\n      iszero\n      tag_1\n      jumpi\n      0x00\n      dup1\n      revert\n    tag_1:\n      pop\n      jumpi(tag_2, lt(calldatasize, 0x04))\n      shr(0xe0, calldataload(0x00))\n      dup1\n      0x51eb05a6\n      gt\n      tag_15\n      jumpi\n      dup1\n      0x51eb05a6\n      eq\n      tag_9\n      jumpi\n      dup1\n      0x647d209a\n      eq\n      tag_10\n      jumpi\n      dup1\n      0x660325ec\n      eq\n      tag_11\n      jumpi\n      dup1\n      0x8da5cb5b\n      eq\n      tag_12\n      jumpi\n      dup1\n      0x93f1a40b\n      eq\n      tag_13\n      jumpi\n      dup1\n      0xe2bbb158\n      eq\n      tag_14\n      jumpi\n      jump(tag_2)\n    tag_15:\n      dup1\n      0x0a3b0a4f\n      eq\n      tag_3\n      jumpi\n      dup1\n      0x1526fe27\n      eq\n      tag_4\n      jumpi\n      dup1\n      0x17caf6f1\n      eq\n      tag_5\n      jumpi\n      dup1\n      0x441a3e70\n      eq\n      tag_6\n      jumpi\n      dup1\n      0x48ac86d0\n      eq\n      tag_7\n      jumpi\n      dup1\n      0x48cd4cb1\n      eq\n      tag_8\n      jumpi\n    tag_2:\n      0x00\n      dup1\n      revert\n        /* \"contracts/test1/MasterChef.sol\":1727:2266  function add(IERC20 _lpToken) public {... */\n    tag_3:\n      tag_16\n      0x04\n      dup1\n      calldatasize\n      sub\n      dup2\n      add\n      swap1\n      tag_17\n      swap2\n      swap1\n      tag_18\n      jump\t// in\n    tag_17:\n      tag_19\n      jump\t// in\n    tag_16:\n      stop\n        /* \"contracts/test1/MasterChef.sol\":1017:1043  PoolInfo[] public poolInfo */\n    tag_4:\n      tag_20\n      0x04\n      dup1\n      calldatasize\n      sub\n      dup2\n      add\n      swap1\n      tag_21\n      swap2\n      swap1\n      tag_22\n      jump\t// in\n    tag_21:\n      tag_23\n      jump\t// in\n    tag_20:\n      mload(0x40)\n      tag_24\n      swap5\n      swap4\n      swap3\n      swap2\n      swap1\n      tag_25\n      jump\t// in\n    tag_24:\n      mload(0x40)\n      dup1\n      swap2\n      sub\n      swap1\n      return\n        /* \"contracts/test1/MasterChef.sol\":1254:1288  uint256 public totalAllocPoint = 0 */\n    tag_5:\n      tag_26\n      tag_27\n      jump\t// in\n    tag_26:\n      mload(0x40)\n      tag_28\n      swap2\n      swap1\n      tag_29\n      jump\t// in\n    tag_28:\n      mload(0x40)\n      dup1\n      swap2\n      sub\n      swap1\n      return\n        /* \"contracts/test1/MasterChef.sol\":4573:5136  function withdraw(uint256 _pid, uint256 _amount) public {... */\n    tag_6:\n      tag_30\n      0x04\n      dup1\n      calldatasize\n      sub\n      dup2\n      add\n      swap1\n      tag_31\n      swap2\n      swap1\n      tag_32\n      jump\t// in\n    tag_31:\n      tag_33\n      jump\t// in\n    tag_30:\n      stop\n        /* \"contracts/test1/MasterChef.sol\":959:985  RewardToken public coconut */\n    tag_7:\n      tag_34\n      tag_35\n      jump\t// in\n    tag_34:\n      mload(0x40)\n      tag_36\n      swap2\n      swap1\n      tag_37\n      jump\t// in\n    tag_36:\n      mload(0x40)\n      dup1\n      swap2\n      sub\n      swap1\n      return\n        /* \"contracts/test1/MasterChef.sol\":1344:1373  uint256 public startBlock = 0 */\n    tag_8:\n      tag_38\n      tag_39\n      jump\t// in\n    tag_38:\n      mload(0x40)\n      tag_40\n      swap2\n      swap1\n      tag_29\n      jump\t// in\n    tag_40:\n      mload(0x40)\n      dup1\n      swap2\n      sub\n      swap1\n      return\n        /* \"contracts/test1/MasterChef.sol\":2636:3547  function updatePool(uint256 _pid) public {... */\n    tag_9:\n      tag_41\n      0x04\n      dup1\n      calldatasize\n      sub\n      dup2\n      add\n      swap1\n      tag_42\n      swap2\n      swap1\n      tag_22\n      jump\t// in\n    tag_42:\n      tag_43\n      jump\t// in\n    tag_41:\n      stop\n        /* \"contracts/test1/MasterChef.sol\":2391:2630  function setCoconutPerBlock(uint256 _coconutPerBlock) public onlyOwner {... */\n    tag_10:\n      tag_44\n      0x04\n      dup1\n      calldatasize\n      sub\n      dup2\n      add\n      swap1\n      tag_45\n      swap2\n      swap1\n      tag_22\n      jump\t// in\n    tag_45:\n      tag_46\n      jump\t// in\n    tag_44:\n      stop\n        /* \"contracts/test1/MasterChef.sol\":272:306  uint256 public coconutPerBlock = 1 */\n    tag_11:\n      tag_47\n      tag_48\n      jump\t// in\n    tag_47:\n      mload(0x40)\n      tag_49\n      swap2\n      swap1\n      tag_29\n      jump\t// in\n    tag_49:\n      mload(0x40)\n      dup1\n      swap2\n      sub\n      swap1\n      return\n        /* \"contracts/test1/MasterChef.sol\":250:270  address public owner */\n    tag_12:\n      tag_50\n      tag_51\n      jump\t// in\n    tag_50:\n      mload(0x40)\n      tag_52\n      swap2\n      swap1\n      tag_53\n      jump\t// in\n    tag_52:\n      mload(0x40)\n      dup1\n      swap2\n      sub\n      swap1\n      return\n        /* \"contracts/test1/MasterChef.sol\":1097:1161  mapping(uint256 => mapping(address => UserInfo)) public userInfo */\n    tag_13:\n      tag_54\n      0x04\n      dup1\n      calldatasize\n      sub\n      dup2\n      add\n      swap1\n      tag_55\n      swap2\n      swap1\n      tag_56\n      jump\t// in\n    tag_55:\n      tag_57\n      jump\t// in\n    tag_54:\n      mload(0x40)\n      tag_58\n      swap3\n      swap2\n      swap1\n      tag_59\n      jump\t// in\n    tag_58:\n      mload(0x40)\n      dup1\n      swap2\n      sub\n      swap1\n      return\n        /* \"contracts/test1/MasterChef.sol\":3616:4527  function deposit(uint256 _pid, uint256 _amount) public {... */\n    tag_14:\n      tag_60\n      0x04\n      dup1\n      calldatasize\n      sub\n      dup2\n      add\n      swap1\n      tag_61\n      swap2\n      swap1\n      tag_32\n      jump\t// in\n    tag_61:\n      tag_62\n      jump\t// in\n    tag_60:\n      stop\n        /* \"contracts/test1/MasterChef.sol\":1727:2266  function add(IERC20 _lpToken) public {... */\n    tag_19:\n        /* \"contracts/test1/MasterChef.sol\":1774:1797  uint256 lastRewardBlock */\n      0x00\n        /* \"contracts/test1/MasterChef.sol\":1815:1825  startBlock */\n      sload(0x06)\n        /* \"contracts/test1/MasterChef.sol\":1800:1812  block.number */\n      number\n        /* \"contracts/test1/MasterChef.sol\":1800:1825  block.number > startBlock */\n      gt\n        /* \"contracts/test1/MasterChef.sol\":1800:1877  block.number > startBlock... */\n      tag_64\n      jumpi\n        /* \"contracts/test1/MasterChef.sol\":1867:1877  startBlock */\n      sload(0x06)\n        /* \"contracts/test1/MasterChef.sol\":1800:1877  block.number > startBlock... */\n      jump(tag_65)\n    tag_64:\n        /* \"contracts/test1/MasterChef.sol\":1840:1852  block.number */\n      number\n        /* \"contracts/test1/MasterChef.sol\":1800:1877  block.number > startBlock... */\n    tag_65:\n        /* \"contracts/test1/MasterChef.sol\":1774:1877  uint256 lastRewardBlock = block.number > startBlock... */\n      swap1\n      pop\n        /* \"contracts/test1/MasterChef.sol\":1923:1926  100 */\n      0x64\n        /* \"contracts/test1/MasterChef.sol\":1905:1920  totalAllocPoint */\n      sload(0x05)\n        /* \"contracts/test1/MasterChef.sol\":1905:1926  totalAllocPoint + 100 */\n      tag_66\n      swap2\n      swap1\n      tag_67\n      jump\t// in\n    tag_66:\n        /* \"contracts/test1/MasterChef.sol\":1887:1902  totalAllocPoint */\n      0x05\n        /* \"contracts/test1/MasterChef.sol\":1887:1926  totalAllocPoint = totalAllocPoint + 100 */\n      dup2\n      swap1\n      sstore\n      pop\n        /* \"contracts/test1/MasterChef.sol\":1936:1944  poolInfo */\n      0x03\n        /* \"contracts/test1/MasterChef.sol\":1963:2249  PoolInfo({... */\n      mload(0x40)\n      dup1\n      0x80\n      add\n      0x40\n      mstore\n      dup1\n        /* \"contracts/test1/MasterChef.sol\":1999:2007  _lpToken */\n      dup5\n        /* \"contracts/test1/MasterChef.sol\":1963:2249  PoolInfo({... */\n      0xffffffffffffffffffffffffffffffffffffffff\n      and\n      dup2\n      mstore\n      0x20\n      add\n        /* \"contracts/test1/MasterChef.sol\":2037:2040  100 */\n      0x64\n        /* \"contracts/test1/MasterChef.sol\":1963:2249  PoolInfo({... */\n      dup2\n      mstore\n      0x20\n      add\n        /* \"contracts/test1/MasterChef.sol\":2125:2140  lastRewardBlock */\n      dup4\n        /* \"contracts/test1/MasterChef.sol\":1963:2249  PoolInfo({... */\n      dup2\n      mstore\n      0x20\n      add\n        /* \"contracts/test1/MasterChef.sol\":2233:2234  0 */\n      0x00\n        /* \"contracts/test1/MasterChef.sol\":1963:2249  PoolInfo({... */\n      dup2\n      mstore\n      pop\n        /* \"contracts/test1/MasterChef.sol\":1936:2259  poolInfo.push(... */\n      swap1\n      dup1\n      0x01\n      dup2\n      sload\n      add\n      dup1\n      dup3\n      sstore\n      dup1\n      swap2\n      pop\n      pop\n      0x01\n      swap1\n      sub\n      swap1\n      0x00\n      mstore\n      keccak256(0x00, 0x20)\n      swap1\n      0x04\n      mul\n      add\n      0x00\n      swap1\n      swap2\n      swap1\n      swap2\n      swap1\n      swap2\n      pop\n      0x00\n      dup3\n      add\n      mload\n      dup2\n      0x00\n      add\n      exp(0x0100, 0x00)\n      dup2\n      sload\n      dup2\n      0xffffffffffffffffffffffffffffffffffffffff\n      mul\n      not\n      and\n      swap1\n      dup4\n      0xffffffffffffffffffffffffffffffffffffffff\n      and\n      mul\n      or\n      swap1\n      sstore\n      pop\n      0x20\n      dup3\n      add\n      mload\n      dup2\n      0x01\n      add\n      sstore\n      0x40\n      dup3\n      add\n      mload\n      dup2\n      0x02\n      add\n      sstore\n      0x60\n      dup3\n      add\n      mload\n      dup2\n      0x03\n      add\n      sstore\n      pop\n      pop\n        /* \"contracts/test1/MasterChef.sol\":1764:2266  {... */\n      pop\n        /* \"contracts/test1/MasterChef.sol\":1727:2266  function add(IERC20 _lpToken) public {... */\n      pop\n      jump\t// out\n        /* \"contracts/test1/MasterChef.sol\":1017:1043  PoolInfo[] public poolInfo */\n    tag_23:\n      0x03\n      dup2\n      dup2\n      sload\n      dup2\n      lt\n      tag_69\n      jumpi\n      0x00\n      dup1\n      revert\n    tag_69:\n      swap1\n      0x00\n      mstore\n      keccak256(0x00, 0x20)\n      swap1\n      0x04\n      mul\n      add\n      0x00\n      swap2\n      pop\n      swap1\n      pop\n      dup1\n      0x00\n      add\n      0x00\n      swap1\n      sload\n      swap1\n      0x0100\n      exp\n      swap1\n      div\n      0xffffffffffffffffffffffffffffffffffffffff\n      and\n      swap1\n      dup1\n      0x01\n      add\n      sload\n      swap1\n      dup1\n      0x02\n      add\n      sload\n      swap1\n      dup1\n      0x03\n      add\n      sload\n      swap1\n      pop\n      dup5\n      jump\t// out\n        /* \"contracts/test1/MasterChef.sol\":1254:1288  uint256 public totalAllocPoint = 0 */\n    tag_27:\n      sload(0x05)\n      dup2\n      jump\t// out\n        /* \"contracts/test1/MasterChef.sol\":4573:5136  function withdraw(uint256 _pid, uint256 _amount) public {... */\n    tag_33:\n        /* \"contracts/test1/MasterChef.sol\":4631:4652  PoolInfo storage pool */\n      0x00\n        /* \"contracts/test1/MasterChef.sol\":4655:4663  poolInfo */\n      0x03\n        /* \"contracts/test1/MasterChef.sol\":4664:4668  _pid */\n      dup4\n        /* \"contracts/test1/MasterChef.sol\":4655:4669  poolInfo[_pid] */\n      dup2\n      sload\n      dup2\n      lt\n      tag_72\n      jumpi\n      tag_73\n      tag_74\n      jump\t// in\n    tag_73:\n    tag_72:\n      swap1\n      0x00\n      mstore\n      keccak256(0x00, 0x20)\n      swap1\n      0x04\n      mul\n      add\n        /* \"contracts/test1/MasterChef.sol\":4631:4669  PoolInfo storage pool = poolInfo[_pid] */\n      swap1\n      pop\n        /* \"contracts/test1/MasterChef.sol\":4671:4692  UserInfo storage user */\n      0x00\n        /* \"contracts/test1/MasterChef.sol\":4695:4703  userInfo */\n      0x04\n        /* \"contracts/test1/MasterChef.sol\":4695:4709  userInfo[_pid] */\n      0x00\n        /* \"contracts/test1/MasterChef.sol\":4704:4708  _pid */\n      dup6\n        /* \"contracts/test1/MasterChef.sol\":4695:4709  userInfo[_pid] */\n      dup2\n      mstore\n      0x20\n      add\n      swap1\n      dup2\n      mstore\n      0x20\n      add\n      0x00\n      keccak256\n        /* \"contracts/test1/MasterChef.sol\":4695:4721  userInfo[_pid][msg.sender] */\n      0x00\n        /* \"contracts/test1/MasterChef.sol\":4710:4720  msg.sender */\n      caller\n        /* \"contracts/test1/MasterChef.sol\":4695:4721  userInfo[_pid][msg.sender] */\n      0xffffffffffffffffffffffffffffffffffffffff\n      and\n      0xffffffffffffffffffffffffffffffffffffffff\n      and\n      dup2\n      mstore\n      0x20\n      add\n      swap1\n      dup2\n      mstore\n      0x20\n      add\n      0x00\n      keccak256\n        /* \"contracts/test1/MasterChef.sol\":4671:4721  UserInfo storage user = userInfo[_pid][msg.sender] */\n      swap1\n      pop\n        /* \"contracts/test1/MasterChef.sol\":4746:4753  _amount */\n      dup3\n        /* \"contracts/test1/MasterChef.sol\":4731:4735  user */\n      dup2\n        /* \"contracts/test1/MasterChef.sol\":4731:4742  user.amount */\n      0x00\n      add\n      sload\n        /* \"contracts/test1/MasterChef.sol\":4731:4753  user.amount >= _amount */\n      lt\n      iszero\n        /* \"contracts/test1/MasterChef.sol\":4723:4776  require(user.amount >= _amount, \"Withdraw: not good\") */\n      tag_76\n      jumpi\n      mload(0x40)\n      0x08c379a000000000000000000000000000000000000000000000000000000000\n      dup2\n      mstore\n      0x04\n      add\n      tag_77\n      swap1\n      tag_78\n      jump\t// in\n    tag_77:\n      mload(0x40)\n      dup1\n      swap2\n      sub\n      swap1\n      revert\n    tag_76:\n        /* \"contracts/test1/MasterChef.sol\":4778:4794  updatePool(_pid) */\n      tag_79\n        /* \"contracts/test1/MasterChef.sol\":4789:4793  _pid */\n      dup5\n        /* \"contracts/test1/MasterChef.sol\":4778:4788  updatePool */\n      tag_43\n        /* \"contracts/test1/MasterChef.sol\":4778:4794  updatePool(_pid) */\n      jump\t// in\n    tag_79:\n        /* \"contracts/test1/MasterChef.sol\":4796:4811  uint256 pending */\n      0x00\n        /* \"contracts/test1/MasterChef.sol\":4814:4885  user.amount.mul(pool.accCoconutPerShare).div(1e12).sub(user.rewardDebt) */\n      tag_80\n        /* \"contracts/test1/MasterChef.sol\":4869:4873  user */\n      dup3\n        /* \"contracts/test1/MasterChef.sol\":4869:4884  user.rewardDebt */\n      0x01\n      add\n      sload\n        /* \"contracts/test1/MasterChef.sol\":4814:4864  user.amount.mul(pool.accCoconutPerShare).div(1e12) */\n      tag_81\n        /* \"contracts/test1/MasterChef.sol\":4859:4863  1e12 */\n      0xe8d4a51000\n        /* \"contracts/test1/MasterChef.sol\":4814:4854  user.amount.mul(pool.accCoconutPerShare) */\n      tag_82\n        /* \"contracts/test1/MasterChef.sol\":4830:4834  pool */\n      dup8\n        /* \"contracts/test1/MasterChef.sol\":4830:4853  pool.accCoconutPerShare */\n      0x03\n      add\n      sload\n        /* \"contracts/test1/MasterChef.sol\":4814:4818  user */\n      dup8\n        /* \"contracts/test1/MasterChef.sol\":4814:4825  user.amount */\n      0x00\n      add\n      sload\n        /* \"contracts/test1/MasterChef.sol\":4814:4829  user.amount.mul */\n      tag_83\n      swap1\n        /* \"contracts/test1/MasterChef.sol\":4814:4854  user.amount.mul(pool.accCoconutPerShare) */\n      swap2\n      swap1\n      0xffffffff\n      and\n      jump\t// in\n    tag_82:\n        /* \"contracts/test1/MasterChef.sol\":4814:4858  user.amount.mul(pool.accCoconutPerShare).div */\n      tag_84\n      swap1\n        /* \"contracts/test1/MasterChef.sol\":4814:4864  user.amount.mul(pool.accCoconutPerShare).div(1e12) */\n      swap2\n      swap1\n      0xffffffff\n      and\n      jump\t// in\n    tag_81:\n        /* \"contracts/test1/MasterChef.sol\":4814:4868  user.amount.mul(pool.accCoconutPerShare).div(1e12).sub */\n      tag_85\n      swap1\n        /* \"contracts/test1/MasterChef.sol\":4814:4885  user.amount.mul(pool.accCoconutPerShare).div(1e12).sub(user.rewardDebt) */\n      swap2\n      swap1\n      0xffffffff\n      and\n      jump\t// in\n    tag_80:\n        /* \"contracts/test1/MasterChef.sol\":4796:4885  uint256 pending = user.amount.mul(pool.accCoconutPerShare).div(1e12).sub(user.rewardDebt) */\n      swap1\n      pop\n        /* \"contracts/test1/MasterChef.sol\":4887:4894  coconut */\n      0x02\n      0x00\n      swap1\n      sload\n      swap1\n      0x0100\n      exp\n      swap1\n      div\n      0xffffffffffffffffffffffffffffffffffffffff\n      and\n        /* \"contracts/test1/MasterChef.sol\":4887:4903  coconut.transfer */\n      0xffffffffffffffffffffffffffffffffffffffff\n      and\n      0xa9059cbb\n        /* \"contracts/test1/MasterChef.sol\":4904:4914  msg.sender */\n      caller\n        /* \"contracts/test1/MasterChef.sol\":4916:4923  pending */\n      dup4\n        /* \"contracts/test1/MasterChef.sol\":4887:4924  coconut.transfer(msg.sender, pending) */\n      mload(0x40)\n      dup4\n      0xffffffff\n      and\n      0xe0\n      shl\n      dup2\n      mstore\n      0x04\n      add\n      tag_86\n      swap3\n      swap2\n      swap1\n      tag_87\n      jump\t// in\n    tag_86:\n      0x20\n      mload(0x40)\n      dup1\n      dup4\n      sub\n      dup2\n      0x00\n      dup8\n      gas\n      call\n      iszero\n      dup1\n      iszero\n      tag_89\n      jumpi\n      returndatasize\n      0x00\n      dup1\n      returndatacopy\n      revert(0x00, returndatasize)\n    tag_89:\n      pop\n      pop\n      pop\n      pop\n      mload(0x40)\n      returndatasize\n      not(0x1f)\n      0x1f\n      dup3\n      add\n      and\n      dup3\n      add\n      dup1\n      0x40\n      mstore\n      pop\n      dup2\n      add\n      swap1\n      tag_90\n      swap2\n      swap1\n      tag_91\n      jump\t// in\n    tag_90:\n      pop\n        /* \"contracts/test1/MasterChef.sol\":4940:4964  user.amount.sub(_amount) */\n      tag_92\n        /* \"contracts/test1/MasterChef.sol\":4956:4963  _amount */\n      dup5\n        /* \"contracts/test1/MasterChef.sol\":4940:4944  user */\n      dup4\n        /* \"contracts/test1/MasterChef.sol\":4940:4951  user.amount */\n      0x00\n      add\n      sload\n        /* \"contracts/test1/MasterChef.sol\":4940:4955  user.amount.sub */\n      tag_85\n      swap1\n        /* \"contracts/test1/MasterChef.sol\":4940:4964  user.amount.sub(_amount) */\n      swap2\n      swap1\n      0xffffffff\n      and\n      jump\t// in\n    tag_92:\n        /* \"contracts/test1/MasterChef.sol\":4926:4930  user */\n      dup3\n        /* \"contracts/test1/MasterChef.sol\":4926:4937  user.amount */\n      0x00\n      add\n        /* \"contracts/test1/MasterChef.sol\":4926:4964  user.amount = user.amount.sub(_amount) */\n      dup2\n      swap1\n      sstore\n      pop\n        /* \"contracts/test1/MasterChef.sol\":4984:5034  user.amount.mul(pool.accCoconutPerShare).div(1e12) */\n      tag_93\n        /* \"contracts/test1/MasterChef.sol\":5029:5033  1e12 */\n      0xe8d4a51000\n        /* \"contracts/test1/MasterChef.sol\":4984:5024  user.amount.mul(pool.accCoconutPerShare) */\n      tag_94\n        /* \"contracts/test1/MasterChef.sol\":5000:5004  pool */\n      dup6\n        /* \"contracts/test1/MasterChef.sol\":5000:5023  pool.accCoconutPerShare */\n      0x03\n      add\n      sload\n        /* \"contracts/test1/MasterChef.sol\":4984:4988  user */\n      dup6\n        /* \"contracts/test1/MasterChef.sol\":4984:4995  user.amount */\n      0x00\n      add\n      sload\n        /* \"contracts/test1/MasterChef.sol\":4984:4999  user.amount.mul */\n      tag_83\n      swap1\n        /* \"contracts/test1/MasterChef.sol\":4984:5024  user.amount.mul(pool.accCoconutPerShare) */\n      swap2\n      swap1\n      0xffffffff\n      and\n      jump\t// in\n    tag_94:\n        /* \"contracts/test1/MasterChef.sol\":4984:5028  user.amount.mul(pool.accCoconutPerShare).div */\n      tag_84\n      swap1\n        /* \"contracts/test1/MasterChef.sol\":4984:5034  user.amount.mul(pool.accCoconutPerShare).div(1e12) */\n      swap2\n      swap1\n      0xffffffff\n      and\n      jump\t// in\n    tag_93:\n        /* \"contracts/test1/MasterChef.sol\":4966:4970  user */\n      dup3\n        /* \"contracts/test1/MasterChef.sol\":4966:4981  user.rewardDebt */\n      0x01\n      add\n        /* \"contracts/test1/MasterChef.sol\":4966:5034  user.rewardDebt = user.amount.mul(pool.accCoconutPerShare).div(1e12) */\n      dup2\n      swap1\n      sstore\n      pop\n        /* \"contracts/test1/MasterChef.sol\":5036:5091  pool.lpToken.safeTransfer(address(msg.sender), _amount) */\n      tag_95\n        /* \"contracts/test1/MasterChef.sol\":5070:5080  msg.sender */\n      caller\n        /* \"contracts/test1/MasterChef.sol\":5083:5090  _amount */\n      dup6\n        /* \"contracts/test1/MasterChef.sol\":5036:5040  pool */\n      dup6\n        /* \"contracts/test1/MasterChef.sol\":5036:5048  pool.lpToken */\n      0x00\n      add\n      0x00\n      swap1\n      sload\n      swap1\n      0x0100\n      exp\n      swap1\n      div\n      0xffffffffffffffffffffffffffffffffffffffff\n      and\n        /* \"contracts/test1/MasterChef.sol\":5036:5061  pool.lpToken.safeTransfer */\n      0xffffffffffffffffffffffffffffffffffffffff\n      and\n      tag_96\n      swap1\n        /* \"contracts/test1/MasterChef.sol\":5036:5091  pool.lpToken.safeTransfer(address(msg.sender), _amount) */\n      swap3\n      swap2\n      swap1\n      0xffffffff\n      and\n      jump\t// in\n    tag_95:\n        /* \"contracts/test1/MasterChef.sol\":5119:5123  _pid */\n      dup5\n        /* \"contracts/test1/MasterChef.sol\":5107:5117  msg.sender */\n      caller\n        /* \"contracts/test1/MasterChef.sol\":5098:5133  Withdraw(msg.sender, _pid, _amount) */\n      0xffffffffffffffffffffffffffffffffffffffff\n      and\n      0xf279e6a1f5e320cca91135676d9cb6e44ca8a08c0b88342bcdb1144f6511b568\n        /* \"contracts/test1/MasterChef.sol\":5125:5132  _amount */\n      dup7\n        /* \"contracts/test1/MasterChef.sol\":5098:5133  Withdraw(msg.sender, _pid, _amount) */\n      mload(0x40)\n      tag_97\n      swap2\n      swap1\n      tag_29\n      jump\t// in\n    tag_97:\n      mload(0x40)\n      dup1\n      swap2\n      sub\n      swap1\n      log3\n        /* \"contracts/test1/MasterChef.sol\":4629:5136  {... */\n      pop\n      pop\n      pop\n        /* \"contracts/test1/MasterChef.sol\":4573:5136  function withdraw(uint256 _pid, uint256 _amount) public {... */\n      pop\n      pop\n      jump\t// out\n        /* \"contracts/test1/MasterChef.sol\":959:985  RewardToken public coconut */\n    tag_35:\n      0x02\n      0x00\n      swap1\n      sload\n      swap1\n      0x0100\n      exp\n      swap1\n      div\n      0xffffffffffffffffffffffffffffffffffffffff\n      and\n      dup2\n      jump\t// out\n        /* \"contracts/test1/MasterChef.sol\":1344:1373  uint256 public startBlock = 0 */\n    tag_39:\n      sload(0x06)\n      dup2\n      jump\t// out\n        /* \"contracts/test1/MasterChef.sol\":2636:3547  function updatePool(uint256 _pid) public {... */\n    tag_43:\n        /* \"contracts/test1/MasterChef.sol\":2687:2708  PoolInfo storage pool */\n      0x00\n        /* \"contracts/test1/MasterChef.sol\":2711:2719  poolInfo */\n      0x03\n        /* \"contracts/test1/MasterChef.sol\":2720:2724  _pid */\n      dup3\n        /* \"contracts/test1/MasterChef.sol\":2711:2725  poolInfo[_pid] */\n      dup2\n      sload\n      dup2\n      lt\n      tag_99\n      jumpi\n      tag_100\n      tag_74\n      jump\t// in\n    tag_100:\n    tag_99:\n      swap1\n      0x00\n      mstore\n      keccak256(0x00, 0x20)\n      swap1\n      0x04\n      mul\n      add\n        /* \"contracts/test1/MasterChef.sol\":2687:2725  PoolInfo storage pool = poolInfo[_pid] */\n      swap1\n      pop\n        /* \"contracts/test1/MasterChef.sol\":2755:2759  pool */\n      dup1\n        /* \"contracts/test1/MasterChef.sol\":2755:2775  pool.lastRewardBlock */\n      0x02\n      add\n      sload\n        /* \"contracts/test1/MasterChef.sol\":2739:2751  block.number */\n      number\n        /* \"contracts/test1/MasterChef.sol\":2739:2775  block.number <= pool.lastRewardBlock */\n      gt\n        /* \"contracts/test1/MasterChef.sol\":2735:2808  if (block.number <= pool.lastRewardBlock) {... */\n      tag_102\n      jumpi\n        /* \"contracts/test1/MasterChef.sol\":2791:2798  return; */\n      pop\n      jump(tag_98)\n        /* \"contracts/test1/MasterChef.sol\":2735:2808  if (block.number <= pool.lastRewardBlock) {... */\n    tag_102:\n        /* \"contracts/test1/MasterChef.sol\":2817:2833  uint256 lpSupply */\n      0x00\n        /* \"contracts/test1/MasterChef.sol\":2836:2840  pool */\n      dup2\n        /* \"contracts/test1/MasterChef.sol\":2836:2848  pool.lpToken */\n      0x00\n      add\n      0x00\n      swap1\n      sload\n      swap1\n      0x0100\n      exp\n      swap1\n      div\n      0xffffffffffffffffffffffffffffffffffffffff\n      and\n        /* \"contracts/test1/MasterChef.sol\":2836:2858  pool.lpToken.balanceOf */\n      0xffffffffffffffffffffffffffffffffffffffff\n      and\n      0x70a08231\n        /* \"contracts/test1/MasterChef.sol\":2867:2871  this */\n      address\n        /* \"contracts/test1/MasterChef.sol\":2836:2873  pool.lpToken.balanceOf(address(this)) */\n      mload(0x40)\n      dup3\n      0xffffffff\n      and\n      0xe0\n      shl\n      dup2\n      mstore\n      0x04\n      add\n      tag_103\n      swap2\n      swap1\n      tag_53\n      jump\t// in\n    tag_103:\n      0x20\n      mload(0x40)\n      dup1\n      dup4\n      sub\n      dup2\n      dup7\n      gas\n      staticcall\n      iszero\n      dup1\n      iszero\n      tag_105\n      jumpi\n      returndatasize\n      0x00\n      dup1\n      returndatacopy\n      revert(0x00, returndatasize)\n    tag_105:\n      pop\n      pop\n      pop\n      pop\n      mload(0x40)\n      returndatasize\n      not(0x1f)\n      0x1f\n      dup3\n      add\n      and\n      dup3\n      add\n      dup1\n      0x40\n      mstore\n      pop\n      dup2\n      add\n      swap1\n      tag_106\n      swap2\n      swap1\n      tag_107\n      jump\t// in\n    tag_106:\n        /* \"contracts/test1/MasterChef.sol\":2817:2873  uint256 lpSupply = pool.lpToken.balanceOf(address(this)) */\n      swap1\n      pop\n        /* \"contracts/test1/MasterChef.sol\":2899:2900  0 */\n      0x00\n        /* \"contracts/test1/MasterChef.sol\":2887:2895  lpSupply */\n      dup2\n        /* \"contracts/test1/MasterChef.sol\":2887:2900  lpSupply == 0 */\n      sub\n        /* \"contracts/test1/MasterChef.sol\":2883:2982  if (lpSupply == 0) {... */\n      tag_108\n      jumpi\n        /* \"contracts/test1/MasterChef.sol\":2939:2951  block.number */\n      number\n        /* \"contracts/test1/MasterChef.sol\":2916:2920  pool */\n      dup3\n        /* \"contracts/test1/MasterChef.sol\":2916:2936  pool.lastRewardBlock */\n      0x02\n      add\n        /* \"contracts/test1/MasterChef.sol\":2916:2951  pool.lastRewardBlock = block.number */\n      dup2\n      swap1\n      sstore\n      pop\n        /* \"contracts/test1/MasterChef.sol\":2965:2972  return; */\n      pop\n      pop\n      jump(tag_98)\n        /* \"contracts/test1/MasterChef.sol\":2883:2982  if (lpSupply == 0) {... */\n    tag_108:\n        /* \"contracts/test1/MasterChef.sol\":2991:3009  uint256 multiplier */\n      0x00\n        /* \"contracts/test1/MasterChef.sol\":3012:3050  block.number.sub(pool.lastRewardBlock) */\n      tag_109\n        /* \"contracts/test1/MasterChef.sol\":3029:3033  pool */\n      dup4\n        /* \"contracts/test1/MasterChef.sol\":3029:3049  pool.lastRewardBlock */\n      0x02\n      add\n      sload\n        /* \"contracts/test1/MasterChef.sol\":3012:3024  block.number */\n      number\n        /* \"contracts/test1/MasterChef.sol\":3012:3028  block.number.sub */\n      tag_85\n      swap1\n        /* \"contracts/test1/MasterChef.sol\":3012:3050  block.number.sub(pool.lastRewardBlock) */\n      swap2\n      swap1\n      0xffffffff\n      and\n      jump\t// in\n    tag_109:\n        /* \"contracts/test1/MasterChef.sol\":2991:3050  uint256 multiplier = block.number.sub(pool.lastRewardBlock) */\n      swap1\n      pop\n        /* \"contracts/test1/MasterChef.sol\":3060:3081  uint256 coconutReward */\n      0x00\n        /* \"contracts/test1/MasterChef.sol\":3084:3196  multiplier... */\n      tag_110\n        /* \"contracts/test1/MasterChef.sol\":3180:3195  totalAllocPoint */\n      sload(0x05)\n        /* \"contracts/test1/MasterChef.sol\":3084:3162  multiplier... */\n      tag_111\n        /* \"contracts/test1/MasterChef.sol\":3146:3150  pool */\n      dup7\n        /* \"contracts/test1/MasterChef.sol\":3146:3161  pool.allocPoint */\n      0x01\n      add\n      sload\n        /* \"contracts/test1/MasterChef.sol\":3084:3128  multiplier... */\n      tag_112\n        /* \"contracts/test1/MasterChef.sol\":3112:3127  coconutPerBlock */\n      sload(0x01)\n        /* \"contracts/test1/MasterChef.sol\":3084:3094  multiplier */\n      dup8\n        /* \"contracts/test1/MasterChef.sol\":3084:3111  multiplier... */\n      tag_83\n      swap1\n        /* \"contracts/test1/MasterChef.sol\":3084:3128  multiplier... */\n      swap2\n      swap1\n      0xffffffff\n      and\n      jump\t// in\n    tag_112:\n        /* \"contracts/test1/MasterChef.sol\":3084:3145  multiplier... */\n      tag_83\n      swap1\n        /* \"contracts/test1/MasterChef.sol\":3084:3162  multiplier... */\n      swap2\n      swap1\n      0xffffffff\n      and\n      jump\t// in\n    tag_111:\n        /* \"contracts/test1/MasterChef.sol\":3084:3179  multiplier... */\n      tag_84\n      swap1\n        /* \"contracts/test1/MasterChef.sol\":3084:3196  multiplier... */\n      swap2\n      swap1\n      0xffffffff\n      and\n      jump\t// in\n    tag_110:\n        /* \"contracts/test1/MasterChef.sol\":3060:3196  uint256 coconutReward = multiplier... */\n      swap1\n      pop\n        /* \"contracts/test1/MasterChef.sol\":3206:3213  coconut */\n      0x02\n      0x00\n      swap1\n      sload\n      swap1\n      0x0100\n      exp\n      swap1\n      div\n      0xffffffffffffffffffffffffffffffffffffffff\n      and\n        /* \"contracts/test1/MasterChef.sol\":3206:3218  coconut.mint */\n      0xffffffffffffffffffffffffffffffffffffffff\n      and\n      0x40c10f19\n        /* \"contracts/test1/MasterChef.sol\":3232:3274  0x866A36025f852bBa70F2D857E9A9e5e290040610 */\n      0x866a36025f852bba70f2d857e9a9e5e290040610\n        /* \"contracts/test1/MasterChef.sol\":3288:3309  coconutReward.div(10) */\n      tag_113\n        /* \"contracts/test1/MasterChef.sol\":3306:3308  10 */\n      0x0a\n        /* \"contracts/test1/MasterChef.sol\":3288:3301  coconutReward */\n      dup6\n        /* \"contracts/test1/MasterChef.sol\":3288:3305  coconutReward.div */\n      tag_84\n      swap1\n        /* \"contracts/test1/MasterChef.sol\":3288:3309  coconutReward.div(10) */\n      swap2\n      swap1\n      0xffffffff\n      and\n      jump\t// in\n    tag_113:\n        /* \"contracts/test1/MasterChef.sol\":3206:3319  coconut.mint(... */\n      mload(0x40)\n      dup4\n      0xffffffff\n      and\n      0xe0\n      shl\n      dup2\n      mstore\n      0x04\n      add\n      tag_114\n      swap3\n      swap2\n      swap1\n      tag_87\n      jump\t// in\n    tag_114:\n      0x00\n      mload(0x40)\n      dup1\n      dup4\n      sub\n      dup2\n      0x00\n      dup8\n      dup1\n      extcodesize\n      iszero\n      dup1\n      iszero\n      tag_115\n      jumpi\n      0x00\n      dup1\n      revert\n    tag_115:\n      pop\n      gas\n      call\n      iszero\n      dup1\n      iszero\n      tag_117\n      jumpi\n      returndatasize\n      0x00\n      dup1\n      returndatacopy\n      revert(0x00, returndatasize)\n    tag_117:\n      pop\n      pop\n      pop\n      pop\n        /* \"contracts/test1/MasterChef.sol\":3329:3336  coconut */\n      0x02\n      0x00\n      swap1\n      sload\n      swap1\n      0x0100\n      exp\n      swap1\n      div\n      0xffffffffffffffffffffffffffffffffffffffff\n      and\n        /* \"contracts/test1/MasterChef.sol\":3329:3341  coconut.mint */\n      0xffffffffffffffffffffffffffffffffffffffff\n      and\n      0x40c10f19\n        /* \"contracts/test1/MasterChef.sol\":3350:3354  this */\n      address\n        /* \"contracts/test1/MasterChef.sol\":3357:3370  coconutReward */\n      dup4\n        /* \"contracts/test1/MasterChef.sol\":3329:3371  coconut.mint(address(this), coconutReward) */\n      mload(0x40)\n      dup4\n      0xffffffff\n      and\n      0xe0\n      shl\n      dup2\n      mstore\n      0x04\n      add\n      tag_118\n      swap3\n      swap2\n      swap1\n      tag_87\n      jump\t// in\n    tag_118:\n      0x00\n      mload(0x40)\n      dup1\n      dup4\n      sub\n      dup2\n      0x00\n      dup8\n      dup1\n      extcodesize\n      iszero\n      dup1\n      iszero\n      tag_119\n      jumpi\n      0x00\n      dup1\n      revert\n    tag_119:\n      pop\n      gas\n      call\n      iszero\n      dup1\n      iszero\n      tag_121\n      jumpi\n      returndatasize\n      0x00\n      dup1\n      returndatacopy\n      revert(0x00, returndatasize)\n    tag_121:\n      pop\n      pop\n      pop\n      pop\n        /* \"contracts/test1/MasterChef.sol\":3407:3495  pool.accCoconutPerShare.add(... */\n      tag_122\n        /* \"contracts/test1/MasterChef.sol\":3448:3485  coconutReward.mul(1e12).div(lpSupply) */\n      tag_123\n        /* \"contracts/test1/MasterChef.sol\":3476:3484  lpSupply */\n      dup5\n        /* \"contracts/test1/MasterChef.sol\":3448:3471  coconutReward.mul(1e12) */\n      tag_124\n        /* \"contracts/test1/MasterChef.sol\":3466:3470  1e12 */\n      0xe8d4a51000\n        /* \"contracts/test1/MasterChef.sol\":3448:3461  coconutReward */\n      dup6\n        /* \"contracts/test1/MasterChef.sol\":3448:3465  coconutReward.mul */\n      tag_83\n      swap1\n        /* \"contracts/test1/MasterChef.sol\":3448:3471  coconutReward.mul(1e12) */\n      swap2\n      swap1\n      0xffffffff\n      and\n      jump\t// in\n    tag_124:\n        /* \"contracts/test1/MasterChef.sol\":3448:3475  coconutReward.mul(1e12).div */\n      tag_84\n      swap1\n        /* \"contracts/test1/MasterChef.sol\":3448:3485  coconutReward.mul(1e12).div(lpSupply) */\n      swap2\n      swap1\n      0xffffffff\n      and\n      jump\t// in\n    tag_123:\n        /* \"contracts/test1/MasterChef.sol\":3407:3411  pool */\n      dup6\n        /* \"contracts/test1/MasterChef.sol\":3407:3430  pool.accCoconutPerShare */\n      0x03\n      add\n      sload\n        /* \"contracts/test1/MasterChef.sol\":3407:3434  pool.accCoconutPerShare.add */\n      tag_125\n      swap1\n        /* \"contracts/test1/MasterChef.sol\":3407:3495  pool.accCoconutPerShare.add(... */\n      swap2\n      swap1\n      0xffffffff\n      and\n      jump\t// in\n    tag_122:\n        /* \"contracts/test1/MasterChef.sol\":3381:3385  pool */\n      dup5\n        /* \"contracts/test1/MasterChef.sol\":3381:3404  pool.accCoconutPerShare */\n      0x03\n      add\n        /* \"contracts/test1/MasterChef.sol\":3381:3495  pool.accCoconutPerShare = pool.accCoconutPerShare.add(... */\n      dup2\n      swap1\n      sstore\n      pop\n        /* \"contracts/test1/MasterChef.sol\":3528:3540  block.number */\n      number\n        /* \"contracts/test1/MasterChef.sol\":3505:3509  pool */\n      dup5\n        /* \"contracts/test1/MasterChef.sol\":3505:3525  pool.lastRewardBlock */\n      0x02\n      add\n        /* \"contracts/test1/MasterChef.sol\":3505:3540  pool.lastRewardBlock = block.number */\n      dup2\n      swap1\n      sstore\n      pop\n        /* \"contracts/test1/MasterChef.sol\":2677:3547  {... */\n      pop\n      pop\n      pop\n      pop\n        /* \"contracts/test1/MasterChef.sol\":2636:3547  function updatePool(uint256 _pid) public {... */\n    tag_98:\n      pop\n      jump\t// out\n        /* \"contracts/test1/MasterChef.sol\":2391:2630  function setCoconutPerBlock(uint256 _coconutPerBlock) public onlyOwner {... */\n    tag_46:\n        /* \"contracts/test1/MasterChef.sol\":2318:2323  owner */\n      0x00\n      dup1\n      sload\n      swap1\n      0x0100\n      exp\n      swap1\n      div\n      0xffffffffffffffffffffffffffffffffffffffff\n      and\n        /* \"contracts/test1/MasterChef.sol\":2304:2323  msg.sender == owner */\n      0xffffffffffffffffffffffffffffffffffffffff\n      and\n        /* \"contracts/test1/MasterChef.sol\":2304:2314  msg.sender */\n      caller\n        /* \"contracts/test1/MasterChef.sol\":2304:2323  msg.sender == owner */\n      0xffffffffffffffffffffffffffffffffffffffff\n      and\n      eq\n        /* \"contracts/test1/MasterChef.sol\":2296:2374  require(msg.sender == owner, \"Only the contract owner can call this function\") */\n      tag_127\n      jumpi\n      mload(0x40)\n      0x08c379a000000000000000000000000000000000000000000000000000000000\n      dup2\n      mstore\n      0x04\n      add\n      tag_128\n      swap1\n      tag_129\n      jump\t// in\n    tag_128:\n      mload(0x40)\n      dup1\n      swap2\n      sub\n      swap1\n      revert\n    tag_127:\n        /* \"contracts/test1/MasterChef.sol\":2512:2513  0 */\n      0x00\n        /* \"contracts/test1/MasterChef.sol\":2493:2509  _coconutPerBlock */\n      dup2\n        /* \"contracts/test1/MasterChef.sol\":2493:2513  _coconutPerBlock > 0 */\n      gt\n        /* \"contracts/test1/MasterChef.sol\":2472:2579  require(... */\n      tag_131\n      jumpi\n      mload(0x40)\n      0x08c379a000000000000000000000000000000000000000000000000000000000\n      dup2\n      mstore\n      0x04\n      add\n      tag_132\n      swap1\n      tag_133\n      jump\t// in\n    tag_132:\n      mload(0x40)\n      dup1\n      swap2\n      sub\n      swap1\n      revert\n    tag_131:\n        /* \"contracts/test1/MasterChef.sol\":2607:2623  _coconutPerBlock */\n      dup1\n        /* \"contracts/test1/MasterChef.sol\":2589:2604  coconutPerBlock */\n      0x01\n        /* \"contracts/test1/MasterChef.sol\":2589:2623  coconutPerBlock = _coconutPerBlock */\n      dup2\n      swap1\n      sstore\n      pop\n        /* \"contracts/test1/MasterChef.sol\":2391:2630  function setCoconutPerBlock(uint256 _coconutPerBlock) public onlyOwner {... */\n      pop\n      jump\t// out\n        /* \"contracts/test1/MasterChef.sol\":272:306  uint256 public coconutPerBlock = 1 */\n    tag_48:\n      sload(0x01)\n      dup2\n      jump\t// out\n        /* \"contracts/test1/MasterChef.sol\":250:270  address public owner */\n    tag_51:\n      0x00\n      dup1\n      sload\n      swap1\n      0x0100\n      exp\n      swap1\n      div\n      0xffffffffffffffffffffffffffffffffffffffff\n      and\n      dup2\n      jump\t// out\n        /* \"contracts/test1/MasterChef.sol\":1097:1161  mapping(uint256 => mapping(address => UserInfo)) public userInfo */\n    tag_57:\n      mstore(0x20, 0x04)\n      dup2\n      0x00\n      mstore\n      mstore(0x20, keccak256(0x00, 0x40))\n      dup1\n      0x00\n      mstore\n      keccak256(0x00, 0x40)\n      0x00\n      swap2\n      pop\n      swap2\n      pop\n      pop\n      dup1\n      0x00\n      add\n      sload\n      swap1\n      dup1\n      0x01\n      add\n      sload\n      swap1\n      pop\n      dup3\n      jump\t// out\n        /* \"contracts/test1/MasterChef.sol\":3616:4527  function deposit(uint256 _pid, uint256 _amount) public {... */\n    tag_62:\n        /* \"contracts/test1/MasterChef.sol\":3681:3702  PoolInfo storage pool */\n      0x00\n        /* \"contracts/test1/MasterChef.sol\":3705:3713  poolInfo */\n      0x03\n        /* \"contracts/test1/MasterChef.sol\":3714:3718  _pid */\n      dup4\n        /* \"contracts/test1/MasterChef.sol\":3705:3719  poolInfo[_pid] */\n      dup2\n      sload\n      dup2\n      lt\n      tag_135\n      jumpi\n      tag_136\n      tag_74\n      jump\t// in\n    tag_136:\n    tag_135:\n      swap1\n      0x00\n      mstore\n      keccak256(0x00, 0x20)\n      swap1\n      0x04\n      mul\n      add\n        /* \"contracts/test1/MasterChef.sol\":3681:3719  PoolInfo storage pool = poolInfo[_pid] */\n      swap1\n      pop\n        /* \"contracts/test1/MasterChef.sol\":3729:3750  UserInfo storage user */\n      0x00\n        /* \"contracts/test1/MasterChef.sol\":3753:3761  userInfo */\n      0x04\n        /* \"contracts/test1/MasterChef.sol\":3753:3767  userInfo[_pid] */\n      0x00\n        /* \"contracts/test1/MasterChef.sol\":3762:3766  _pid */\n      dup6\n        /* \"contracts/test1/MasterChef.sol\":3753:3767  userInfo[_pid] */\n      dup2\n      mstore\n      0x20\n      add\n      swap1\n      dup2\n      mstore\n      0x20\n      add\n      0x00\n      keccak256\n        /* \"contracts/test1/MasterChef.sol\":3753:3779  userInfo[_pid][msg.sender] */\n      0x00\n        /* \"contracts/test1/MasterChef.sol\":3768:3778  msg.sender */\n      caller\n        /* \"contracts/test1/MasterChef.sol\":3753:3779  userInfo[_pid][msg.sender] */\n      0xffffffffffffffffffffffffffffffffffffffff\n      and\n      0xffffffffffffffffffffffffffffffffffffffff\n      and\n      dup2\n      mstore\n      0x20\n      add\n      swap1\n      dup2\n      mstore\n      0x20\n      add\n      0x00\n      keccak256\n        /* \"contracts/test1/MasterChef.sol\":3729:3779  UserInfo storage user = userInfo[_pid][msg.sender] */\n      swap1\n      pop\n        /* \"contracts/test1/MasterChef.sol\":3789:3805  updatePool(_pid) */\n      tag_138\n        /* \"contracts/test1/MasterChef.sol\":3800:3804  _pid */\n      dup5\n        /* \"contracts/test1/MasterChef.sol\":3789:3799  updatePool */\n      tag_43\n        /* \"contracts/test1/MasterChef.sol\":3789:3805  updatePool(_pid) */\n      jump\t// in\n    tag_138:\n        /* \"contracts/test1/MasterChef.sol\":3884:3885  0 */\n      0x00\n        /* \"contracts/test1/MasterChef.sol\":3870:3874  user */\n      dup2\n        /* \"contracts/test1/MasterChef.sol\":3870:3881  user.amount */\n      0x00\n      add\n      sload\n        /* \"contracts/test1/MasterChef.sol\":3870:3885  user.amount > 0 */\n      gt\n        /* \"contracts/test1/MasterChef.sol\":3866:4120  if (user.amount > 0) {... */\n      iszero\n      tag_139\n      jumpi\n        /* \"contracts/test1/MasterChef.sol\":3901:3916  uint256 pending */\n      0x00\n        /* \"contracts/test1/MasterChef.sol\":3919:4058  user... */\n      tag_140\n        /* \"contracts/test1/MasterChef.sol\":4042:4046  user */\n      dup3\n        /* \"contracts/test1/MasterChef.sol\":4042:4057  user.rewardDebt */\n      0x01\n      add\n      sload\n        /* \"contracts/test1/MasterChef.sol\":3919:4020  user... */\n      tag_141\n        /* \"contracts/test1/MasterChef.sol\":4015:4019  1e12 */\n      0xe8d4a51000\n        /* \"contracts/test1/MasterChef.sol\":3919:3993  user... */\n      tag_142\n        /* \"contracts/test1/MasterChef.sol\":3969:3973  pool */\n      dup8\n        /* \"contracts/test1/MasterChef.sol\":3969:3992  pool.accCoconutPerShare */\n      0x03\n      add\n      sload\n        /* \"contracts/test1/MasterChef.sol\":3919:3923  user */\n      dup8\n        /* \"contracts/test1/MasterChef.sol\":3919:3947  user... */\n      0x00\n      add\n      sload\n        /* \"contracts/test1/MasterChef.sol\":3919:3968  user... */\n      tag_83\n      swap1\n        /* \"contracts/test1/MasterChef.sol\":3919:3993  user... */\n      swap2\n      swap1\n      0xffffffff\n      and\n      jump\t// in\n    tag_142:\n        /* \"contracts/test1/MasterChef.sol\":3919:4014  user... */\n      tag_84\n      swap1\n        /* \"contracts/test1/MasterChef.sol\":3919:4020  user... */\n      swap2\n      swap1\n      0xffffffff\n      and\n      jump\t// in\n    tag_141:\n        /* \"contracts/test1/MasterChef.sol\":3919:4041  user... */\n      tag_85\n      swap1\n        /* \"contracts/test1/MasterChef.sol\":3919:4058  user... */\n      swap2\n      swap1\n      0xffffffff\n      and\n      jump\t// in\n    tag_140:\n        /* \"contracts/test1/MasterChef.sol\":3901:4058  uint256 pending = user... */\n      swap1\n      pop\n        /* \"contracts/test1/MasterChef.sol\":4072:4079  coconut */\n      0x02\n      0x00\n      swap1\n      sload\n      swap1\n      0x0100\n      exp\n      swap1\n      div\n      0xffffffffffffffffffffffffffffffffffffffff\n      and\n        /* \"contracts/test1/MasterChef.sol\":4072:4088  coconut.transfer */\n      0xffffffffffffffffffffffffffffffffffffffff\n      and\n      0xa9059cbb\n        /* \"contracts/test1/MasterChef.sol\":4089:4099  msg.sender */\n      caller\n        /* \"contracts/test1/MasterChef.sol\":4101:4108  pending */\n      dup4\n        /* \"contracts/test1/MasterChef.sol\":4072:4109  coconut.transfer(msg.sender, pending) */\n      mload(0x40)\n      dup4\n      0xffffffff\n      and\n      0xe0\n      shl\n      dup2\n      mstore\n      0x04\n      add\n      tag_143\n      swap3\n      swap2\n      swap1\n      tag_87\n      jump\t// in\n    tag_143:\n      0x20\n      mload(0x40)\n      dup1\n      dup4\n      sub\n      dup2\n      0x00\n      dup8\n      gas\n      call\n      iszero\n      dup1\n      iszero\n      tag_145\n      jumpi\n      returndatasize\n      0x00\n      dup1\n      returndatacopy\n      revert(0x00, returndatasize)\n    tag_145:\n      pop\n      pop\n      pop\n      pop\n      mload(0x40)\n      returndatasize\n      not(0x1f)\n      0x1f\n      dup3\n      add\n      and\n      dup3\n      add\n      dup1\n      0x40\n      mstore\n      pop\n      dup2\n      add\n      swap1\n      tag_146\n      swap2\n      swap1\n      tag_91\n      jump\t// in\n    tag_146:\n      pop\n        /* \"contracts/test1/MasterChef.sol\":3887:4120  {... */\n      pop\n        /* \"contracts/test1/MasterChef.sol\":3866:4120  if (user.amount > 0) {... */\n    tag_139:\n        /* \"contracts/test1/MasterChef.sol\":4189:4309  pool.lpToken.safeTransferFrom(... */\n      tag_147\n        /* \"contracts/test1/MasterChef.sol\":4240:4250  msg.sender */\n      caller\n        /* \"contracts/test1/MasterChef.sol\":4273:4277  this */\n      address\n        /* \"contracts/test1/MasterChef.sol\":4292:4299  _amount */\n      dup6\n        /* \"contracts/test1/MasterChef.sol\":4189:4193  pool */\n      dup6\n        /* \"contracts/test1/MasterChef.sol\":4189:4201  pool.lpToken */\n      0x00\n      add\n      0x00\n      swap1\n      sload\n      swap1\n      0x0100\n      exp\n      swap1\n      div\n      0xffffffffffffffffffffffffffffffffffffffff\n      and\n        /* \"contracts/test1/MasterChef.sol\":4189:4218  pool.lpToken.safeTransferFrom */\n      0xffffffffffffffffffffffffffffffffffffffff\n      and\n      tag_148\n      swap1\n        /* \"contracts/test1/MasterChef.sol\":4189:4309  pool.lpToken.safeTransferFrom(... */\n      swap4\n      swap3\n      swap2\n      swap1\n      0xffffffff\n      and\n      jump\t// in\n    tag_147:\n        /* \"contracts/test1/MasterChef.sol\":4333:4357  user.amount.add(_amount) */\n      tag_149\n        /* \"contracts/test1/MasterChef.sol\":4349:4356  _amount */\n      dup4\n        /* \"contracts/test1/MasterChef.sol\":4333:4337  user */\n      dup3\n        /* \"contracts/test1/MasterChef.sol\":4333:4344  user.amount */\n      0x00\n      add\n      sload\n        /* \"contracts/test1/MasterChef.sol\":4333:4348  user.amount.add */\n      tag_125\n      swap1\n        /* \"contracts/test1/MasterChef.sol\":4333:4357  user.amount.add(_amount) */\n      swap2\n      swap1\n      0xffffffff\n      and\n      jump\t// in\n    tag_149:\n        /* \"contracts/test1/MasterChef.sol\":4319:4323  user */\n      dup2\n        /* \"contracts/test1/MasterChef.sol\":4319:4330  user.amount */\n      0x00\n      add\n        /* \"contracts/test1/MasterChef.sol\":4319:4357  user.amount = user.amount.add(_amount) */\n      dup2\n      swap1\n      sstore\n      pop\n        /* \"contracts/test1/MasterChef.sol\":4421:4471  user.amount.mul(pool.accCoconutPerShare).div(1e12) */\n      tag_150\n        /* \"contracts/test1/MasterChef.sol\":4466:4470  1e12 */\n      0xe8d4a51000\n        /* \"contracts/test1/MasterChef.sol\":4421:4461  user.amount.mul(pool.accCoconutPerShare) */\n      tag_151\n        /* \"contracts/test1/MasterChef.sol\":4437:4441  pool */\n      dup5\n        /* \"contracts/test1/MasterChef.sol\":4437:4460  pool.accCoconutPerShare */\n      0x03\n      add\n      sload\n        /* \"contracts/test1/MasterChef.sol\":4421:4425  user */\n      dup5\n        /* \"contracts/test1/MasterChef.sol\":4421:4432  user.amount */\n      0x00\n      add\n      sload\n        /* \"contracts/test1/MasterChef.sol\":4421:4436  user.amount.mul */\n      tag_83\n      swap1\n        /* \"contracts/test1/MasterChef.sol\":4421:4461  user.amount.mul(pool.accCoconutPerShare) */\n      swap2\n      swap1\n      0xffffffff\n      and\n      jump\t// in\n    tag_151:\n        /* \"contracts/test1/MasterChef.sol\":4421:4465  user.amount.mul(pool.accCoconutPerShare).div */\n      tag_84\n      swap1\n        /* \"contracts/test1/MasterChef.sol\":4421:4471  user.amount.mul(pool.accCoconutPerShare).div(1e12) */\n      swap2\n      swap1\n      0xffffffff\n      and\n      jump\t// in\n    tag_150:\n        /* \"contracts/test1/MasterChef.sol\":4403:4407  user */\n      dup2\n        /* \"contracts/test1/MasterChef.sol\":4403:4418  user.rewardDebt */\n      0x01\n      add\n        /* \"contracts/test1/MasterChef.sol\":4403:4471  user.rewardDebt = user.amount.mul(pool.accCoconutPerShare).div(1e12) */\n      dup2\n      swap1\n      sstore\n      pop\n        /* \"contracts/test1/MasterChef.sol\":4506:4510  _pid */\n      dup4\n        /* \"contracts/test1/MasterChef.sol\":4494:4504  msg.sender */\n      caller\n        /* \"contracts/test1/MasterChef.sol\":4486:4520  Deposit(msg.sender, _pid, _amount) */\n      0xffffffffffffffffffffffffffffffffffffffff\n      and\n      0x90890809c654f11d6e72a28fa60149770a0d11ec6c92319d6ceb2bb0a4ea1a15\n        /* \"contracts/test1/MasterChef.sol\":4512:4519  _amount */\n      dup6\n        /* \"contracts/test1/MasterChef.sol\":4486:4520  Deposit(msg.sender, _pid, _amount) */\n      mload(0x40)\n      tag_152\n      swap2\n      swap1\n      tag_29\n      jump\t// in\n    tag_152:\n      mload(0x40)\n      dup1\n      swap2\n      sub\n      swap1\n      log3\n        /* \"contracts/test1/MasterChef.sol\":3671:4527  {... */\n      pop\n      pop\n        /* \"contracts/test1/MasterChef.sol\":3616:4527  function deposit(uint256 _pid, uint256 _amount) public {... */\n      pop\n      pop\n      jump\t// out\n        /* \"contracts/test1/interface.sol\":2345:2595  function mul(uint256 a, uint256 b) internal pure returns (uint256) {... */\n    tag_83:\n        /* \"contracts/test1/interface.sol\":2403:2410  uint256 */\n      0x00\n        /* \"contracts/test1/interface.sol\":2432:2433  0 */\n      dup1\n        /* \"contracts/test1/interface.sol\":2427:2428  a */\n      dup4\n        /* \"contracts/test1/interface.sol\":2427:2433  a == 0 */\n      sub\n        /* \"contracts/test1/interface.sol\":2423:2470  if (a == 0) {... */\n      tag_154\n      jumpi\n        /* \"contracts/test1/interface.sol\":2457:2458  0 */\n      0x00\n        /* \"contracts/test1/interface.sol\":2450:2458  return 0 */\n      swap1\n      pop\n      jump(tag_153)\n        /* \"contracts/test1/interface.sol\":2423:2470  if (a == 0) {... */\n    tag_154:\n        /* \"contracts/test1/interface.sol\":2482:2491  uint256 c */\n      0x00\n        /* \"contracts/test1/interface.sol\":2498:2499  b */\n      dup3\n        /* \"contracts/test1/interface.sol\":2494:2495  a */\n      dup5\n        /* \"contracts/test1/interface.sol\":2494:2499  a * b */\n      tag_155\n      swap2\n      swap1\n      tag_156\n      jump\t// in\n    tag_155:\n        /* \"contracts/test1/interface.sol\":2482:2499  uint256 c = a * b */\n      swap1\n      pop\n        /* \"contracts/test1/interface.sol\":2527:2528  b */\n      dup3\n        /* \"contracts/test1/interface.sol\":2522:2523  a */\n      dup5\n        /* \"contracts/test1/interface.sol\":2518:2519  c */\n      dup3\n        /* \"contracts/test1/interface.sol\":2518:2523  c / a */\n      tag_157\n      swap2\n      swap1\n      tag_158\n      jump\t// in\n    tag_157:\n        /* \"contracts/test1/interface.sol\":2518:2528  c / a == b */\n      eq\n        /* \"contracts/test1/interface.sol\":2510:2566  require(c / a == b, \"SafeMath: multiplication overflow\") */\n      tag_159\n      jumpi\n      mload(0x40)\n      0x08c379a000000000000000000000000000000000000000000000000000000000\n      dup2\n      mstore\n      0x04\n      add\n      tag_160\n      swap1\n      tag_161\n      jump\t// in\n    tag_160:\n      mload(0x40)\n      dup1\n      swap2\n      sub\n      swap1\n      revert\n    tag_159:\n        /* \"contracts/test1/interface.sol\":2586:2587  c */\n      dup1\n        /* \"contracts/test1/interface.sol\":2579:2587  return c */\n      swap2\n      pop\n      pop\n        /* \"contracts/test1/interface.sol\":2345:2595  function mul(uint256 a, uint256 b) internal pure returns (uint256) {... */\n    tag_153:\n      swap3\n      swap2\n      pop\n      pop\n      jump\t// out\n        /* \"contracts/test1/interface.sol\":2603:2782  function div(uint256 a, uint256 b) internal pure returns (uint256) {... */\n    tag_84:\n        /* \"contracts/test1/interface.sol\":2661:2668  uint256 */\n      0x00\n        /* \"contracts/test1/interface.sol\":2693:2694  0 */\n      dup1\n        /* \"contracts/test1/interface.sol\":2689:2690  b */\n      dup3\n        /* \"contracts/test1/interface.sol\":2689:2694  b > 0 */\n      gt\n        /* \"contracts/test1/interface.sol\":2681:2725  require(b > 0, \"SafeMath: division by zero\") */\n      tag_163\n      jumpi\n      mload(0x40)\n      0x08c379a000000000000000000000000000000000000000000000000000000000\n      dup2\n      mstore\n      0x04\n      add\n      tag_164\n      swap1\n      tag_165\n      jump\t// in\n    tag_164:\n      mload(0x40)\n      dup1\n      swap2\n      sub\n      swap1\n      revert\n    tag_163:\n        /* \"contracts/test1/interface.sol\":2736:2745  uint256 c */\n      0x00\n        /* \"contracts/test1/interface.sol\":2752:2753  b */\n      dup3\n        /* \"contracts/test1/interface.sol\":2748:2749  a */\n      dup5\n        /* \"contracts/test1/interface.sol\":2748:2753  a / b */\n      tag_166\n      swap2\n      swap1\n      tag_158\n      jump\t// in\n    tag_166:\n        /* \"contracts/test1/interface.sol\":2736:2753  uint256 c = a / b */\n      swap1\n      pop\n        /* \"contracts/test1/interface.sol\":2773:2774  c */\n      dup1\n        /* \"contracts/test1/interface.sol\":2766:2774  return c */\n      swap2\n      pop\n      pop\n        /* \"contracts/test1/interface.sol\":2603:2782  function div(uint256 a, uint256 b) internal pure returns (uint256) {... */\n      swap3\n      swap2\n      pop\n      pop\n      jump\t// out\n        /* \"contracts/test1/interface.sol\":2153:2337  function sub(uint256 a, uint256 b) internal pure returns (uint256) {... */\n    tag_85:\n        /* \"contracts/test1/interface.sol\":2211:2218  uint256 */\n      0x00\n        /* \"contracts/test1/interface.sol\":2244:2245  a */\n      dup3\n        /* \"contracts/test1/interface.sol\":2239:2240  b */\n      dup3\n        /* \"contracts/test1/interface.sol\":2239:2245  b <= a */\n      gt\n      iszero\n        /* \"contracts/test1/interface.sol\":2231:2280  require(b <= a, \"SafeMath: subtraction overflow\") */\n      tag_168\n      jumpi\n      mload(0x40)\n      0x08c379a000000000000000000000000000000000000000000000000000000000\n      dup2\n      mstore\n      0x04\n      add\n      tag_169\n      swap1\n      tag_170\n      jump\t// in\n    tag_169:\n      mload(0x40)\n      dup1\n      swap2\n      sub\n      swap1\n      revert\n    tag_168:\n        /* \"contracts/test1/interface.sol\":2291:2300  uint256 c */\n      0x00\n        /* \"contracts/test1/interface.sol\":2307:2308  b */\n      dup3\n        /* \"contracts/test1/interface.sol\":2303:2304  a */\n      dup5\n        /* \"contracts/test1/interface.sol\":2303:2308  a - b */\n      tag_171\n      swap2\n      swap1\n      tag_172\n      jump\t// in\n    tag_171:\n        /* \"contracts/test1/interface.sol\":2291:2308  uint256 c = a - b */\n      swap1\n      pop\n        /* \"contracts/test1/interface.sol\":2328:2329  c */\n      dup1\n        /* \"contracts/test1/interface.sol\":2321:2329  return c */\n      swap2\n      pop\n      pop\n        /* \"contracts/test1/interface.sol\":2153:2337  function sub(uint256 a, uint256 b) internal pure returns (uint256) {... */\n      swap3\n      swap2\n      pop\n      pop\n      jump\t// out\n        /* \"contracts/test1/SafeERC20.sol\":175:330  function safeTransfer(IERC20 token, address to, uint256 value) internal {... */\n    tag_96:\n        /* \"contracts/test1/SafeERC20.sol\":266:271  token */\n      dup3\n        /* \"contracts/test1/SafeERC20.sol\":266:280  token.transfer */\n      0xffffffffffffffffffffffffffffffffffffffff\n      and\n      0xa9059cbb\n        /* \"contracts/test1/SafeERC20.sol\":281:283  to */\n      dup4\n        /* \"contracts/test1/SafeERC20.sol\":285:290  value */\n      dup4\n        /* \"contracts/test1/SafeERC20.sol\":266:291  token.transfer(to, value) */\n      mload(0x40)\n      dup4\n      0xffffffff\n      and\n      0xe0\n      shl\n      dup2\n      mstore\n      0x04\n      add\n      tag_174\n      swap3\n      swap2\n      swap1\n      tag_87\n      jump\t// in\n    tag_174:\n      0x20\n      mload(0x40)\n      dup1\n      dup4\n      sub\n      dup2\n      0x00\n      dup8\n      gas\n      call\n      iszero\n      dup1\n      iszero\n      tag_176\n      jumpi\n      returndatasize\n      0x00\n      dup1\n      returndatacopy\n      revert(0x00, returndatasize)\n    tag_176:\n      pop\n      pop\n      pop\n      pop\n      mload(0x40)\n      returndatasize\n      not(0x1f)\n      0x1f\n      dup3\n      add\n      and\n      dup3\n      add\n      dup1\n      0x40\n      mstore\n      pop\n      dup2\n      add\n      swap1\n      tag_177\n      swap2\n      swap1\n      tag_91\n      jump\t// in\n    tag_177:\n        /* \"contracts/test1/SafeERC20.sol\":258:322  require(token.transfer(to, value), \"SafeERC20: transfer failed\") */\n      tag_178\n      jumpi\n      mload(0x40)\n      0x08c379a000000000000000000000000000000000000000000000000000000000\n      dup2\n      mstore\n      0x04\n      add\n      tag_179\n      swap1\n      tag_180\n      jump\t// in\n    tag_179:\n      mload(0x40)\n      dup1\n      swap2\n      sub\n      swap1\n      revert\n    tag_178:\n        /* \"contracts/test1/SafeERC20.sol\":175:330  function safeTransfer(IERC20 token, address to, uint256 value) internal {... */\n      pop\n      pop\n      pop\n      jump\t// out\n        /* \"contracts/test1/interface.sol\":1964:2145  function add(uint256 a, uint256 b) internal pure returns (uint256) {... */\n    tag_125:\n        /* \"contracts/test1/interface.sol\":2022:2029  uint256 */\n      0x00\n        /* \"contracts/test1/interface.sol\":2042:2051  uint256 c */\n      dup1\n        /* \"contracts/test1/interface.sol\":2058:2059  b */\n      dup3\n        /* \"contracts/test1/interface.sol\":2054:2055  a */\n      dup5\n        /* \"contracts/test1/interface.sol\":2054:2059  a + b */\n      tag_182\n      swap2\n      swap1\n      tag_67\n      jump\t// in\n    tag_182:\n        /* \"contracts/test1/interface.sol\":2042:2059  uint256 c = a + b */\n      swap1\n      pop\n        /* \"contracts/test1/interface.sol\":2083:2084  a */\n      dup4\n        /* \"contracts/test1/interface.sol\":2078:2079  c */\n      dup2\n        /* \"contracts/test1/interface.sol\":2078:2084  c >= a */\n      lt\n      iszero\n        /* \"contracts/test1/interface.sol\":2070:2116  require(c >= a, \"SafeMath: addition overflow\") */\n      tag_183\n      jumpi\n      mload(0x40)\n      0x08c379a000000000000000000000000000000000000000000000000000000000\n      dup2\n      mstore\n      0x04\n      add\n      tag_184\n      swap1\n      tag_185\n      jump\t// in\n    tag_184:\n      mload(0x40)\n      dup1\n      swap2\n      sub\n      swap1\n      revert\n    tag_183:\n        /* \"contracts/test1/interface.sol\":2136:2137  c */\n      dup1\n        /* \"contracts/test1/interface.sol\":2129:2137  return c */\n      swap2\n      pop\n      pop\n        /* \"contracts/test1/interface.sol\":1964:2145  function add(uint256 a, uint256 b) internal pure returns (uint256) {... */\n      swap3\n      swap2\n      pop\n      pop\n      jump\t// out\n        /* \"contracts/test1/SafeERC20.sol\":338:525  function safeTransferFrom(IERC20 token, address from, address to, uint256 value) internal {... */\n    tag_148:\n        /* \"contracts/test1/SafeERC20.sol\":447:452  token */\n      dup4\n        /* \"contracts/test1/SafeERC20.sol\":447:465  token.transferFrom */\n      0xffffffffffffffffffffffffffffffffffffffff\n      and\n      0x23b872dd\n        /* \"contracts/test1/SafeERC20.sol\":466:470  from */\n      dup5\n        /* \"contracts/test1/SafeERC20.sol\":472:474  to */\n      dup5\n        /* \"contracts/test1/SafeERC20.sol\":476:481  value */\n      dup5\n        /* \"contracts/test1/SafeERC20.sol\":447:482  token.transferFrom(from, to, value) */\n      mload(0x40)\n      dup5\n      0xffffffff\n      and\n      0xe0\n      shl\n      dup2\n      mstore\n      0x04\n      add\n      tag_187\n      swap4\n      swap3\n      swap2\n      swap1\n      tag_188\n      jump\t// in\n    tag_187:\n      0x20\n      mload(0x40)\n      dup1\n      dup4\n      sub\n      dup2\n      0x00\n      dup8\n      gas\n      call\n      iszero\n      dup1\n      iszero\n      tag_190\n      jumpi\n      returndatasize\n      0x00\n      dup1\n      returndatacopy\n      revert(0x00, returndatasize)\n    tag_190:\n      pop\n      pop\n      pop\n      pop\n      mload(0x40)\n      returndatasize\n      not(0x1f)\n      0x1f\n      dup3\n      add\n      and\n      dup3\n      add\n      dup1\n      0x40\n      mstore\n      pop\n      dup2\n      add\n      swap1\n      tag_191\n      swap2\n      swap1\n      tag_91\n      jump\t// in\n    tag_191:\n        /* \"contracts/test1/SafeERC20.sol\":439:517  require(token.transferFrom(from, to, value), \"SafeERC20: transferFrom failed\") */\n      tag_192\n      jumpi\n      mload(0x40)\n      0x08c379a000000000000000000000000000000000000000000000000000000000\n      dup2\n      mstore\n      0x04\n      add\n      tag_193\n      swap1\n      tag_194\n      jump\t// in\n    tag_193:\n      mload(0x40)\n      dup1\n      swap2\n      sub\n      swap1\n      revert\n    tag_192:\n        /* \"contracts/test1/SafeERC20.sol\":338:525  function safeTransferFrom(IERC20 token, address from, address to, uint256 value) internal {... */\n      pop\n      pop\n      pop\n      pop\n      jump\t// out\n        /* \"#utility.yul\":88:205   */\n    tag_196:\n        /* \"#utility.yul\":197:198   */\n      0x00\n        /* \"#utility.yul\":194:195   */\n      dup1\n        /* \"#utility.yul\":187:199   */\n      revert\n        /* \"#utility.yul\":334:460   */\n    tag_198:\n        /* \"#utility.yul\":371:378   */\n      0x00\n        /* \"#utility.yul\":411:453   */\n      0xffffffffffffffffffffffffffffffffffffffff\n        /* \"#utility.yul\":404:409   */\n      dup3\n        /* \"#utility.yul\":400:454   */\n      and\n        /* \"#utility.yul\":389:454   */\n      swap1\n      pop\n        /* \"#utility.yul\":334:460   */\n      swap2\n      swap1\n      pop\n      jump\t// out\n        /* \"#utility.yul\":466:562   */\n    tag_199:\n        /* \"#utility.yul\":503:510   */\n      0x00\n        /* \"#utility.yul\":532:556   */\n      tag_248\n        /* \"#utility.yul\":550:555   */\n      dup3\n        /* \"#utility.yul\":532:556   */\n      tag_198\n      jump\t// in\n    tag_248:\n        /* \"#utility.yul\":521:556   */\n      swap1\n      pop\n        /* \"#utility.yul\":466:562   */\n      swap2\n      swap1\n      pop\n      jump\t// out\n        /* \"#utility.yul\":568:678   */\n    tag_200:\n        /* \"#utility.yul\":619:626   */\n      0x00\n        /* \"#utility.yul\":648:672   */\n      tag_250\n        /* \"#utility.yul\":666:671   */\n      dup3\n        /* \"#utility.yul\":648:672   */\n      tag_199\n      jump\t// in\n    tag_250:\n        /* \"#utility.yul\":637:672   */\n      swap1\n      pop\n        /* \"#utility.yul\":568:678   */\n      swap2\n      swap1\n      pop\n      jump\t// out\n        /* \"#utility.yul\":684:834   */\n    tag_201:\n        /* \"#utility.yul\":771:809   */\n      tag_252\n        /* \"#utility.yul\":803:808   */\n      dup2\n        /* \"#utility.yul\":771:809   */\n      tag_200\n      jump\t// in\n    tag_252:\n        /* \"#utility.yul\":764:769   */\n      dup2\n        /* \"#utility.yul\":761:810   */\n      eq\n        /* \"#utility.yul\":751:828   */\n      tag_253\n      jumpi\n        /* \"#utility.yul\":824:825   */\n      0x00\n        /* \"#utility.yul\":821:822   */\n      dup1\n        /* \"#utility.yul\":814:826   */\n      revert\n        /* \"#utility.yul\":751:828   */\n    tag_253:\n        /* \"#utility.yul\":684:834   */\n      pop\n      jump\t// out\n        /* \"#utility.yul\":840:1007   */\n    tag_202:\n        /* \"#utility.yul\":900:905   */\n      0x00\n        /* \"#utility.yul\":938:944   */\n      dup2\n        /* \"#utility.yul\":925:945   */\n      calldataload\n        /* \"#utility.yul\":916:945   */\n      swap1\n      pop\n        /* \"#utility.yul\":954:1001   */\n      tag_255\n        /* \"#utility.yul\":995:1000   */\n      dup2\n        /* \"#utility.yul\":954:1001   */\n      tag_201\n      jump\t// in\n    tag_255:\n        /* \"#utility.yul\":840:1007   */\n      swap3\n      swap2\n      pop\n      pop\n      jump\t// out\n        /* \"#utility.yul\":1013:1370   */\n    tag_18:\n        /* \"#utility.yul\":1086:1092   */\n      0x00\n        /* \"#utility.yul\":1135:1137   */\n      0x20\n        /* \"#utility.yul\":1123:1132   */\n      dup3\n        /* \"#utility.yul\":1114:1121   */\n      dup5\n        /* \"#utility.yul\":1110:1133   */\n      sub\n        /* \"#utility.yul\":1106:1138   */\n      slt\n        /* \"#utility.yul\":1103:1222   */\n      iszero\n      tag_257\n      jumpi\n        /* \"#utility.yul\":1141:1220   */\n      tag_258\n      tag_196\n      jump\t// in\n    tag_258:\n        /* \"#utility.yul\":1103:1222   */\n    tag_257:\n        /* \"#utility.yul\":1261:1262   */\n      0x00\n        /* \"#utility.yul\":1286:1353   */\n      tag_259\n        /* \"#utility.yul\":1345:1352   */\n      dup5\n        /* \"#utility.yul\":1336:1342   */\n      dup3\n        /* \"#utility.yul\":1325:1334   */\n      dup6\n        /* \"#utility.yul\":1321:1343   */\n      add\n        /* \"#utility.yul\":1286:1353   */\n      tag_202\n      jump\t// in\n    tag_259:\n        /* \"#utility.yul\":1276:1353   */\n      swap2\n      pop\n        /* \"#utility.yul\":1232:1363   */\n      pop\n        /* \"#utility.yul\":1013:1370   */\n      swap3\n      swap2\n      pop\n      pop\n      jump\t// out\n        /* \"#utility.yul\":1376:1453   */\n    tag_203:\n        /* \"#utility.yul\":1413:1420   */\n      0x00\n        /* \"#utility.yul\":1442:1447   */\n      dup2\n        /* \"#utility.yul\":1431:1447   */\n      swap1\n      pop\n        /* \"#utility.yul\":1376:1453   */\n      swap2\n      swap1\n      pop\n      jump\t// out\n        /* \"#utility.yul\":1459:1581   */\n    tag_204:\n        /* \"#utility.yul\":1532:1556   */\n      tag_262\n        /* \"#utility.yul\":1550:1555   */\n      dup2\n        /* \"#utility.yul\":1532:1556   */\n      tag_203\n      jump\t// in\n    tag_262:\n        /* \"#utility.yul\":1525:1530   */\n      dup2\n        /* \"#utility.yul\":1522:1557   */\n      eq\n        /* \"#utility.yul\":1512:1575   */\n      tag_263\n      jumpi\n        /* \"#utility.yul\":1571:1572   */\n      0x00\n        /* \"#utility.yul\":1568:1569   */\n      dup1\n        /* \"#utility.yul\":1561:1573   */\n      revert\n        /* \"#utility.yul\":1512:1575   */\n    tag_263:\n        /* \"#utility.yul\":1459:1581   */\n      pop\n      jump\t// out\n        /* \"#utility.yul\":1587:1726   */\n    tag_205:\n        /* \"#utility.yul\":1633:1638   */\n      0x00\n        /* \"#utility.yul\":1671:1677   */\n      dup2\n        /* \"#utility.yul\":1658:1678   */\n      calldataload\n        /* \"#utility.yul\":1649:1678   */\n      swap1\n      pop\n        /* \"#utility.yul\":1687:1720   */\n      tag_265\n        /* \"#utility.yul\":1714:1719   */\n      dup2\n        /* \"#utility.yul\":1687:1720   */\n      tag_204\n      jump\t// in\n    tag_265:\n        /* \"#utility.yul\":1587:1726   */\n      swap3\n      swap2\n      pop\n      pop\n      jump\t// out\n        /* \"#utility.yul\":1732:2061   */\n    tag_22:\n        /* \"#utility.yul\":1791:1797   */\n      0x00\n        /* \"#utility.yul\":1840:1842   */\n      0x20\n        /* \"#utility.yul\":1828:1837   */\n      dup3\n        /* \"#utility.yul\":1819:1826   */\n      dup5\n        /* \"#utility.yul\":1815:1838   */\n      sub\n        /* \"#utility.yul\":1811:1843   */\n      slt\n        /* \"#utility.yul\":1808:1927   */\n      iszero\n      tag_267\n      jumpi\n        /* \"#utility.yul\":1846:1925   */\n      tag_268\n      tag_196\n      jump\t// in\n    tag_268:\n        /* \"#utility.yul\":1808:1927   */\n    tag_267:\n        /* \"#utility.yul\":1966:1967   */\n      0x00\n        /* \"#utility.yul\":1991:2044   */\n      tag_269\n        /* \"#utility.yul\":2036:2043   */\n      dup5\n        /* \"#utility.yul\":2027:2033   */\n      dup3\n        /* \"#utility.yul\":2016:2025   */\n      dup6\n        /* \"#utility.yul\":2012:2034   */\n      add\n        /* \"#utility.yul\":1991:2044   */\n      tag_205\n      jump\t// in\n    tag_269:\n        /* \"#utility.yul\":1981:2044   */\n      swap2\n      pop\n        /* \"#utility.yul\":1937:2054   */\n      pop\n        /* \"#utility.yul\":1732:2061   */\n      swap3\n      swap2\n      pop\n      pop\n      jump\t// out\n        /* \"#utility.yul\":2067:2127   */\n    tag_206:\n        /* \"#utility.yul\":2095:2098   */\n      0x00\n        /* \"#utility.yul\":2116:2121   */\n      dup2\n        /* \"#utility.yul\":2109:2121   */\n      swap1\n      pop\n        /* \"#utility.yul\":2067:2127   */\n      swap2\n      swap1\n      pop\n      jump\t// out\n        /* \"#utility.yul\":2133:2275   */\n    tag_207:\n        /* \"#utility.yul\":2183:2192   */\n      0x00\n        /* \"#utility.yul\":2216:2269   */\n      tag_272\n        /* \"#utility.yul\":2234:2268   */\n      tag_273\n        /* \"#utility.yul\":2243:2267   */\n      tag_274\n        /* \"#utility.yul\":2261:2266   */\n      dup5\n        /* \"#utility.yul\":2243:2267   */\n      tag_198\n      jump\t// in\n    tag_274:\n        /* \"#utility.yul\":2234:2268   */\n      tag_206\n      jump\t// in\n    tag_273:\n        /* \"#utility.yul\":2216:2269   */\n      tag_198\n      jump\t// in\n    tag_272:\n        /* \"#utility.yul\":2203:2269   */\n      swap1\n      pop\n        /* \"#utility.yul\":2133:2275   */\n      swap2\n      swap1\n      pop\n      jump\t// out\n        /* \"#utility.yul\":2281:2407   */\n    tag_208:\n        /* \"#utility.yul\":2331:2340   */\n      0x00\n        /* \"#utility.yul\":2364:2401   */\n      tag_276\n        /* \"#utility.yul\":2395:2400   */\n      dup3\n        /* \"#utility.yul\":2364:2401   */\n      tag_207\n      jump\t// in\n    tag_276:\n        /* \"#utility.yul\":2351:2401   */\n      swap1\n      pop\n        /* \"#utility.yul\":2281:2407   */\n      swap2\n      swap1\n      pop\n      jump\t// out\n        /* \"#utility.yul\":2413:2553   */\n    tag_209:\n        /* \"#utility.yul\":2477:2486   */\n      0x00\n        /* \"#utility.yul\":2510:2547   */\n      tag_278\n        /* \"#utility.yul\":2541:2546   */\n      dup3\n        /* \"#utility.yul\":2510:2547   */\n      tag_208\n      jump\t// in\n    tag_278:\n        /* \"#utility.yul\":2497:2547   */\n      swap1\n      pop\n        /* \"#utility.yul\":2413:2553   */\n      swap2\n      swap1\n      pop\n      jump\t// out\n        /* \"#utility.yul\":2559:2718   */\n    tag_210:\n        /* \"#utility.yul\":2660:2711   */\n      tag_280\n        /* \"#utility.yul\":2705:2710   */\n      dup2\n        /* \"#utility.yul\":2660:2711   */\n      tag_209\n      jump\t// in\n    tag_280:\n        /* \"#utility.yul\":2655:2658   */\n      dup3\n        /* \"#utility.yul\":2648:2712   */\n      mstore\n        /* \"#utility.yul\":2559:2718   */\n      pop\n      pop\n      jump\t// out\n        /* \"#utility.yul\":2724:2842   */\n    tag_211:\n        /* \"#utility.yul\":2811:2835   */\n      tag_282\n        /* \"#utility.yul\":2829:2834   */\n      dup2\n        /* \"#utility.yul\":2811:2835   */\n      tag_203\n      jump\t// in\n    tag_282:\n        /* \"#utility.yul\":2806:2809   */\n      dup3\n        /* \"#utility.yul\":2799:2836   */\n      mstore\n        /* \"#utility.yul\":2724:2842   */\n      pop\n      pop\n      jump\t// out\n        /* \"#utility.yul\":2848:3429   */\n    tag_25:\n        /* \"#utility.yul\":3039:3043   */\n      0x00\n        /* \"#utility.yul\":3077:3080   */\n      0x80\n        /* \"#utility.yul\":3066:3075   */\n      dup3\n        /* \"#utility.yul\":3062:3081   */\n      add\n        /* \"#utility.yul\":3054:3081   */\n      swap1\n      pop\n        /* \"#utility.yul\":3091:3176   */\n      tag_284\n        /* \"#utility.yul\":3173:3174   */\n      0x00\n        /* \"#utility.yul\":3162:3171   */\n      dup4\n        /* \"#utility.yul\":3158:3175   */\n      add\n        /* \"#utility.yul\":3149:3155   */\n      dup8\n        /* \"#utility.yul\":3091:3176   */\n      tag_210\n      jump\t// in\n    tag_284:\n        /* \"#utility.yul\":3186:3258   */\n      tag_285\n        /* \"#utility.yul\":3254:3256   */\n      0x20\n        /* \"#utility.yul\":3243:3252   */\n      dup4\n        /* \"#utility.yul\":3239:3257   */\n      add\n        /* \"#utility.yul\":3230:3236   */\n      dup7\n        /* \"#utility.yul\":3186:3258   */\n      tag_211\n      jump\t// in\n    tag_285:\n        /* \"#utility.yul\":3268:3340   */\n      tag_286\n        /* \"#utility.yul\":3336:3338   */\n      0x40\n        /* \"#utility.yul\":3325:3334   */\n      dup4\n        /* \"#utility.yul\":3321:3339   */\n      add\n        /* \"#utility.yul\":3312:3318   */\n      dup6\n        /* \"#utility.yul\":3268:3340   */\n      tag_211\n      jump\t// in\n    tag_286:\n        /* \"#utility.yul\":3350:3422   */\n      tag_287\n        /* \"#utility.yul\":3418:3420   */\n      0x60\n        /* \"#utility.yul\":3407:3416   */\n      dup4\n        /* \"#utility.yul\":3403:3421   */\n      add\n        /* \"#utility.yul\":3394:3400   */\n      dup5\n        /* \"#utility.yul\":3350:3422   */\n      tag_211\n      jump\t// in\n    tag_287:\n        /* \"#utility.yul\":2848:3429   */\n      swap6\n      swap5\n      pop\n      pop\n      pop\n      pop\n      pop\n      jump\t// out\n        /* \"#utility.yul\":3435:3657   */\n    tag_29:\n        /* \"#utility.yul\":3528:3532   */\n      0x00\n        /* \"#utility.yul\":3566:3568   */\n      0x20\n        /* \"#utility.yul\":3555:3564   */\n      dup3\n        /* \"#utility.yul\":3551:3569   */\n      add\n        /* \"#utility.yul\":3543:3569   */\n      swap1\n      pop\n        /* \"#utility.yul\":3579:3650   */\n      tag_289\n        /* \"#utility.yul\":3647:3648   */\n      0x00\n        /* \"#utility.yul\":3636:3645   */\n      dup4\n        /* \"#utility.yul\":3632:3649   */\n      add\n        /* \"#utility.yul\":3623:3629   */\n      dup5\n        /* \"#utility.yul\":3579:3650   */\n      tag_211\n      jump\t// in\n    tag_289:\n        /* \"#utility.yul\":3435:3657   */\n      swap3\n      swap2\n      pop\n      pop\n      jump\t// out\n        /* \"#utility.yul\":3663:4137   */\n    tag_32:\n        /* \"#utility.yul\":3731:3737   */\n      0x00\n        /* \"#utility.yul\":3739:3745   */\n      dup1\n        /* \"#utility.yul\":3788:3790   */\n      0x40\n        /* \"#utility.yul\":3776:3785   */\n      dup4\n        /* \"#utility.yul\":3767:3774   */\n      dup6\n        /* \"#utility.yul\":3763:3786   */\n      sub\n        /* \"#utility.yul\":3759:3791   */\n      slt\n        /* \"#utility.yul\":3756:3875   */\n      iszero\n      tag_291\n      jumpi\n        /* \"#utility.yul\":3794:3873   */\n      tag_292\n      tag_196\n      jump\t// in\n    tag_292:\n        /* \"#utility.yul\":3756:3875   */\n    tag_291:\n        /* \"#utility.yul\":3914:3915   */\n      0x00\n        /* \"#utility.yul\":3939:3992   */\n      tag_293\n        /* \"#utility.yul\":3984:3991   */\n      dup6\n        /* \"#utility.yul\":3975:3981   */\n      dup3\n        /* \"#utility.yul\":3964:3973   */\n      dup7\n        /* \"#utility.yul\":3960:3982   */\n      add\n        /* \"#utility.yul\":3939:3992   */\n      tag_205\n      jump\t// in\n    tag_293:\n        /* \"#utility.yul\":3929:3992   */\n      swap3\n      pop\n        /* \"#utility.yul\":3885:4002   */\n      pop\n        /* \"#utility.yul\":4041:4043   */\n      0x20\n        /* \"#utility.yul\":4067:4120   */\n      tag_294\n        /* \"#utility.yul\":4112:4119   */\n      dup6\n        /* \"#utility.yul\":4103:4109   */\n      dup3\n        /* \"#utility.yul\":4092:4101   */\n      dup7\n        /* \"#utility.yul\":4088:4110   */\n      add\n        /* \"#utility.yul\":4067:4120   */\n      tag_205\n      jump\t// in\n    tag_294:\n        /* \"#utility.yul\":4057:4120   */\n      swap2\n      pop\n        /* \"#utility.yul\":4012:4130   */\n      pop\n        /* \"#utility.yul\":3663:4137   */\n      swap3\n      pop\n      swap3\n      swap1\n      pop\n      jump\t// out\n        /* \"#utility.yul\":4143:4288   */\n    tag_212:\n        /* \"#utility.yul\":4212:4221   */\n      0x00\n        /* \"#utility.yul\":4245:4282   */\n      tag_296\n        /* \"#utility.yul\":4276:4281   */\n      dup3\n        /* \"#utility.yul\":4245:4282   */\n      tag_208\n      jump\t// in\n    tag_296:\n        /* \"#utility.yul\":4232:4282   */\n      swap1\n      pop\n        /* \"#utility.yul\":4143:4288   */\n      swap2\n      swap1\n      pop\n      jump\t// out\n        /* \"#utility.yul\":4294:4463   */\n    tag_213:\n        /* \"#utility.yul\":4400:4456   */\n      tag_298\n        /* \"#utility.yul\":4450:4455   */\n      dup2\n        /* \"#utility.yul\":4400:4456   */\n      tag_212\n      jump\t// in\n    tag_298:\n        /* \"#utility.yul\":4395:4398   */\n      dup3\n        /* \"#utility.yul\":4388:4457   */\n      mstore\n        /* \"#utility.yul\":4294:4463   */\n      pop\n      pop\n      jump\t// out\n        /* \"#utility.yul\":4469:4729   */\n    tag_37:\n        /* \"#utility.yul\":4581:4585   */\n      0x00\n        /* \"#utility.yul\":4619:4621   */\n      0x20\n        /* \"#utility.yul\":4608:4617   */\n      dup3\n        /* \"#utility.yul\":4604:4622   */\n      add\n        /* \"#utility.yul\":4596:4622   */\n      swap1\n      pop\n        /* \"#utility.yul\":4632:4722   */\n      tag_300\n        /* \"#utility.yul\":4719:4720   */\n      0x00\n        /* \"#utility.yul\":4708:4717   */\n      dup4\n        /* \"#utility.yul\":4704:4721   */\n      add\n        /* \"#utility.yul\":4695:4701   */\n      dup5\n        /* \"#utility.yul\":4632:4722   */\n      tag_213\n      jump\t// in\n    tag_300:\n        /* \"#utility.yul\":4469:4729   */\n      swap3\n      swap2\n      pop\n      pop\n      jump\t// out\n        /* \"#utility.yul\":4735:4853   */\n    tag_214:\n        /* \"#utility.yul\":4822:4846   */\n      tag_302\n        /* \"#utility.yul\":4840:4845   */\n      dup2\n        /* \"#utility.yul\":4822:4846   */\n      tag_199\n      jump\t// in\n    tag_302:\n        /* \"#utility.yul\":4817:4820   */\n      dup3\n        /* \"#utility.yul\":4810:4847   */\n      mstore\n        /* \"#utility.yul\":4735:4853   */\n      pop\n      pop\n      jump\t// out\n        /* \"#utility.yul\":4859:5081   */\n    tag_53:\n        /* \"#utility.yul\":4952:4956   */\n      0x00\n        /* \"#utility.yul\":4990:4992   */\n      0x20\n        /* \"#utility.yul\":4979:4988   */\n      dup3\n        /* \"#utility.yul\":4975:4993   */\n      add\n        /* \"#utility.yul\":4967:4993   */\n      swap1\n      pop\n        /* \"#utility.yul\":5003:5074   */\n      tag_304\n        /* \"#utility.yul\":5071:5072   */\n      0x00\n        /* \"#utility.yul\":5060:5069   */\n      dup4\n        /* \"#utility.yul\":5056:5073   */\n      add\n        /* \"#utility.yul\":5047:5053   */\n      dup5\n        /* \"#utility.yul\":5003:5074   */\n      tag_214\n      jump\t// in\n    tag_304:\n        /* \"#utility.yul\":4859:5081   */\n      swap3\n      swap2\n      pop\n      pop\n      jump\t// out\n        /* \"#utility.yul\":5087:5209   */\n    tag_215:\n        /* \"#utility.yul\":5160:5184   */\n      tag_306\n        /* \"#utility.yul\":5178:5183   */\n      dup2\n        /* \"#utility.yul\":5160:5184   */\n      tag_199\n      jump\t// in\n    tag_306:\n        /* \"#utility.yul\":5153:5158   */\n      dup2\n        /* \"#utility.yul\":5150:5185   */\n      eq\n        /* \"#utility.yul\":5140:5203   */\n      tag_307\n      jumpi\n        /* \"#utility.yul\":5199:5200   */\n      0x00\n        /* \"#utility.yul\":5196:5197   */\n      dup1\n        /* \"#utility.yul\":5189:5201   */\n      revert\n        /* \"#utility.yul\":5140:5203   */\n    tag_307:\n        /* \"#utility.yul\":5087:5209   */\n      pop\n      jump\t// out\n        /* \"#utility.yul\":5215:5354   */\n    tag_216:\n        /* \"#utility.yul\":5261:5266   */\n      0x00\n        /* \"#utility.yul\":5299:5305   */\n      dup2\n        /* \"#utility.yul\":5286:5306   */\n      calldataload\n        /* \"#utility.yul\":5277:5306   */\n      swap1\n      pop\n        /* \"#utility.yul\":5315:5348   */\n      tag_309\n        /* \"#utility.yul\":5342:5347   */\n      dup2\n        /* \"#utility.yul\":5315:5348   */\n      tag_215\n      jump\t// in\n    tag_309:\n        /* \"#utility.yul\":5215:5354   */\n      swap3\n      swap2\n      pop\n      pop\n      jump\t// out\n        /* \"#utility.yul\":5360:5834   */\n    tag_56:\n        /* \"#utility.yul\":5428:5434   */\n      0x00\n        /* \"#utility.yul\":5436:5442   */\n      dup1\n        /* \"#utility.yul\":5485:5487   */\n      0x40\n        /* \"#utility.yul\":5473:5482   */\n      dup4\n        /* \"#utility.yul\":5464:5471   */\n      dup6\n        /* \"#utility.yul\":5460:5483   */\n      sub\n        /* \"#utility.yul\":5456:5488   */\n      slt\n        /* \"#utility.yul\":5453:5572   */\n      iszero\n      tag_311\n      jumpi\n        /* \"#utility.yul\":5491:5570   */\n      tag_312\n      tag_196\n      jump\t// in\n    tag_312:\n        /* \"#utility.yul\":5453:5572   */\n    tag_311:\n        /* \"#utility.yul\":5611:5612   */\n      0x00\n        /* \"#utility.yul\":5636:5689   */\n      tag_313\n        /* \"#utility.yul\":5681:5688   */\n      dup6\n        /* \"#utility.yul\":5672:5678   */\n      dup3\n        /* \"#utility.yul\":5661:5670   */\n      dup7\n        /* \"#utility.yul\":5657:5679   */\n      add\n        /* \"#utility.yul\":5636:5689   */\n      tag_205\n      jump\t// in\n    tag_313:\n        /* \"#utility.yul\":5626:5689   */\n      swap3\n      pop\n        /* \"#utility.yul\":5582:5699   */\n      pop\n        /* \"#utility.yul\":5738:5740   */\n      0x20\n        /* \"#utility.yul\":5764:5817   */\n      tag_314\n        /* \"#utility.yul\":5809:5816   */\n      dup6\n        /* \"#utility.yul\":5800:5806   */\n      dup3\n        /* \"#utility.yul\":5789:5798   */\n      dup7\n        /* \"#utility.yul\":5785:5807   */\n      add\n        /* \"#utility.yul\":5764:5817   */\n      tag_216\n      jump\t// in\n    tag_314:\n        /* \"#utility.yul\":5754:5817   */\n      swap2\n      pop\n        /* \"#utility.yul\":5709:5827   */\n      pop\n        /* \"#utility.yul\":5360:5834   */\n      swap3\n      pop\n      swap3\n      swap1\n      pop\n      jump\t// out\n        /* \"#utility.yul\":5840:6172   */\n    tag_59:\n        /* \"#utility.yul\":5961:5965   */\n      0x00\n        /* \"#utility.yul\":5999:6001   */\n      0x40\n        /* \"#utility.yul\":5988:5997   */\n      dup3\n        /* \"#utility.yul\":5984:6002   */\n      add\n        /* \"#utility.yul\":5976:6002   */\n      swap1\n      pop\n        /* \"#utility.yul\":6012:6083   */\n      tag_316\n        /* \"#utility.yul\":6080:6081   */\n      0x00\n        /* \"#utility.yul\":6069:6078   */\n      dup4\n        /* \"#utility.yul\":6065:6082   */\n      add\n        /* \"#utility.yul\":6056:6062   */\n      dup6\n        /* \"#utility.yul\":6012:6083   */\n      tag_211\n      jump\t// in\n    tag_316:\n        /* \"#utility.yul\":6093:6165   */\n      tag_317\n        /* \"#utility.yul\":6161:6163   */\n      0x20\n        /* \"#utility.yul\":6150:6159   */\n      dup4\n        /* \"#utility.yul\":6146:6164   */\n      add\n        /* \"#utility.yul\":6137:6143   */\n      dup5\n        /* \"#utility.yul\":6093:6165   */\n      tag_211\n      jump\t// in\n    tag_317:\n        /* \"#utility.yul\":5840:6172   */\n      swap4\n      swap3\n      pop\n      pop\n      pop\n      jump\t// out\n        /* \"#utility.yul\":6178:6358   */\n    tag_217:\n        /* \"#utility.yul\":6226:6303   */\n      0x4e487b7100000000000000000000000000000000000000000000000000000000\n        /* \"#utility.yul\":6223:6224   */\n      0x00\n        /* \"#utility.yul\":6216:6304   */\n      mstore\n        /* \"#utility.yul\":6323:6327   */\n      0x11\n        /* \"#utility.yul\":6320:6321   */\n      0x04\n        /* \"#utility.yul\":6313:6328   */\n      mstore\n        /* \"#utility.yul\":6347:6351   */\n      0x24\n        /* \"#utility.yul\":6344:6345   */\n      0x00\n        /* \"#utility.yul\":6337:6352   */\n      revert\n        /* \"#utility.yul\":6364:6555   */\n    tag_67:\n        /* \"#utility.yul\":6404:6407   */\n      0x00\n        /* \"#utility.yul\":6423:6443   */\n      tag_320\n        /* \"#utility.yul\":6441:6442   */\n      dup3\n        /* \"#utility.yul\":6423:6443   */\n      tag_203\n      jump\t// in\n    tag_320:\n        /* \"#utility.yul\":6418:6443   */\n      swap2\n      pop\n        /* \"#utility.yul\":6457:6477   */\n      tag_321\n        /* \"#utility.yul\":6475:6476   */\n      dup4\n        /* \"#utility.yul\":6457:6477   */\n      tag_203\n      jump\t// in\n    tag_321:\n        /* \"#utility.yul\":6452:6477   */\n      swap3\n      pop\n        /* \"#utility.yul\":6500:6501   */\n      dup3\n        /* \"#utility.yul\":6497:6498   */\n      dup3\n        /* \"#utility.yul\":6493:6502   */\n      add\n        /* \"#utility.yul\":6486:6502   */\n      swap1\n      pop\n        /* \"#utility.yul\":6521:6524   */\n      dup1\n        /* \"#utility.yul\":6518:6519   */\n      dup3\n        /* \"#utility.yul\":6515:6525   */\n      gt\n        /* \"#utility.yul\":6512:6548   */\n      iszero\n      tag_322\n      jumpi\n        /* \"#utility.yul\":6528:6546   */\n      tag_323\n      tag_217\n      jump\t// in\n    tag_323:\n        /* \"#utility.yul\":6512:6548   */\n    tag_322:\n        /* \"#utility.yul\":6364:6555   */\n      swap3\n      swap2\n      pop\n      pop\n      jump\t// out\n        /* \"#utility.yul\":6561:6741   */\n    tag_74:\n        /* \"#utility.yul\":6609:6686   */\n      0x4e487b7100000000000000000000000000000000000000000000000000000000\n        /* \"#utility.yul\":6606:6607   */\n      0x00\n        /* \"#utility.yul\":6599:6687   */\n      mstore\n        /* \"#utility.yul\":6706:6710   */\n      0x32\n        /* \"#utility.yul\":6703:6704   */\n      0x04\n        /* \"#utility.yul\":6696:6711   */\n      mstore\n        /* \"#utility.yul\":6730:6734   */\n      0x24\n        /* \"#utility.yul\":6727:6728   */\n      0x00\n        /* \"#utility.yul\":6720:6735   */\n      revert\n        /* \"#utility.yul\":6747:6916   */\n    tag_218:\n        /* \"#utility.yul\":6831:6842   */\n      0x00\n        /* \"#utility.yul\":6865:6871   */\n      dup3\n        /* \"#utility.yul\":6860:6863   */\n      dup3\n        /* \"#utility.yul\":6853:6872   */\n      mstore\n        /* \"#utility.yul\":6905:6909   */\n      0x20\n        /* \"#utility.yul\":6900:6903   */\n      dup3\n        /* \"#utility.yul\":6896:6910   */\n      add\n        /* \"#utility.yul\":6881:6910   */\n      swap1\n      pop\n        /* \"#utility.yul\":6747:6916   */\n      swap3\n      swap2\n      pop\n      pop\n      jump\t// out\n        /* \"#utility.yul\":6922:7090   */\n    tag_219:\n        /* \"#utility.yul\":7062:7082   */\n      0x57697468647261773a206e6f7420676f6f640000000000000000000000000000\n        /* \"#utility.yul\":7058:7059   */\n      0x00\n        /* \"#utility.yul\":7050:7056   */\n      dup3\n        /* \"#utility.yul\":7046:7060   */\n      add\n        /* \"#utility.yul\":7039:7083   */\n      mstore\n        /* \"#utility.yul\":6922:7090   */\n      pop\n      jump\t// out\n        /* \"#utility.yul\":7096:7462   */\n    tag_220:\n        /* \"#utility.yul\":7238:7241   */\n      0x00\n        /* \"#utility.yul\":7259:7326   */\n      tag_328\n        /* \"#utility.yul\":7323:7325   */\n      0x12\n        /* \"#utility.yul\":7318:7321   */\n      dup4\n        /* \"#utility.yul\":7259:7326   */\n      tag_218\n      jump\t// in\n    tag_328:\n        /* \"#utility.yul\":7252:7326   */\n      swap2\n      pop\n        /* \"#utility.yul\":7335:7428   */\n      tag_329\n        /* \"#utility.yul\":7424:7427   */\n      dup3\n        /* \"#utility.yul\":7335:7428   */\n      tag_219\n      jump\t// in\n    tag_329:\n        /* \"#utility.yul\":7453:7455   */\n      0x20\n        /* \"#utility.yul\":7448:7451   */\n      dup3\n        /* \"#utility.yul\":7444:7456   */\n      add\n        /* \"#utility.yul\":7437:7456   */\n      swap1\n      pop\n        /* \"#utility.yul\":7096:7462   */\n      swap2\n      swap1\n      pop\n      jump\t// out\n        /* \"#utility.yul\":7468:7887   */\n    tag_78:\n        /* \"#utility.yul\":7634:7638   */\n      0x00\n        /* \"#utility.yul\":7672:7674   */\n      0x20\n        /* \"#utility.yul\":7661:7670   */\n      dup3\n        /* \"#utility.yul\":7657:7675   */\n      add\n        /* \"#utility.yul\":7649:7675   */\n      swap1\n      pop\n        /* \"#utility.yul\":7721:7730   */\n      dup2\n        /* \"#utility.yul\":7715:7719   */\n      dup2\n        /* \"#utility.yul\":7711:7731   */\n      sub\n        /* \"#utility.yul\":7707:7708   */\n      0x00\n        /* \"#utility.yul\":7696:7705   */\n      dup4\n        /* \"#utility.yul\":7692:7709   */\n      add\n        /* \"#utility.yul\":7685:7732   */\n      mstore\n        /* \"#utility.yul\":7749:7880   */\n      tag_331\n        /* \"#utility.yul\":7875:7879   */\n      dup2\n        /* \"#utility.yul\":7749:7880   */\n      tag_220\n      jump\t// in\n    tag_331:\n        /* \"#utility.yul\":7741:7880   */\n      swap1\n      pop\n        /* \"#utility.yul\":7468:7887   */\n      swap2\n      swap1\n      pop\n      jump\t// out\n        /* \"#utility.yul\":7893:8225   */\n    tag_87:\n        /* \"#utility.yul\":8014:8018   */\n      0x00\n        /* \"#utility.yul\":8052:8054   */\n      0x40\n        /* \"#utility.yul\":8041:8050   */\n      dup3\n        /* \"#utility.yul\":8037:8055   */\n      add\n        /* \"#utility.yul\":8029:8055   */\n      swap1\n      pop\n        /* \"#utility.yul\":8065:8136   */\n      tag_333\n        /* \"#utility.yul\":8133:8134   */\n      0x00\n        /* \"#utility.yul\":8122:8131   */\n      dup4\n        /* \"#utility.yul\":8118:8135   */\n      add\n        /* \"#utility.yul\":8109:8115   */\n      dup6\n        /* \"#utility.yul\":8065:8136   */\n      tag_214\n      jump\t// in\n    tag_333:\n        /* \"#utility.yul\":8146:8218   */\n      tag_334\n        /* \"#utility.yul\":8214:8216   */\n      0x20\n        /* \"#utility.yul\":8203:8212   */\n      dup4\n        /* \"#utility.yul\":8199:8217   */\n      add\n        /* \"#utility.yul\":8190:8196   */\n      dup5\n        /* \"#utility.yul\":8146:8218   */\n      tag_211\n      jump\t// in\n    tag_334:\n        /* \"#utility.yul\":7893:8225   */\n      swap4\n      swap3\n      pop\n      pop\n      pop\n      jump\t// out\n        /* \"#utility.yul\":8231:8321   */\n    tag_221:\n        /* \"#utility.yul\":8265:8272   */\n      0x00\n        /* \"#utility.yul\":8308:8313   */\n      dup2\n        /* \"#utility.yul\":8301:8314   */\n      iszero\n        /* \"#utility.yul\":8294:8315   */\n      iszero\n        /* \"#utility.yul\":8283:8315   */\n      swap1\n      pop\n        /* \"#utility.yul\":8231:8321   */\n      swap2\n      swap1\n      pop\n      jump\t// out\n        /* \"#utility.yul\":8327:8443   */\n    tag_222:\n        /* \"#utility.yul\":8397:8418   */\n      tag_337\n        /* \"#utility.yul\":8412:8417   */\n      dup2\n        /* \"#utility.yul\":8397:8418   */\n      tag_221\n      jump\t// in\n    tag_337:\n        /* \"#utility.yul\":8390:8395   */\n      dup2\n        /* \"#utility.yul\":8387:8419   */\n      eq\n        /* \"#utility.yul\":8377:8437   */\n      tag_338\n      jumpi\n        /* \"#utility.yul\":8433:8434   */\n      0x00\n        /* \"#utility.yul\":8430:8431   */\n      dup1\n        /* \"#utility.yul\":8423:8435   */\n      revert\n        /* \"#utility.yul\":8377:8437   */\n    tag_338:\n        /* \"#utility.yul\":8327:8443   */\n      pop\n      jump\t// out\n        /* \"#utility.yul\":8449:8586   */\n    tag_223:\n        /* \"#utility.yul\":8503:8508   */\n      0x00\n        /* \"#utility.yul\":8534:8540   */\n      dup2\n        /* \"#utility.yul\":8528:8541   */\n      mload\n        /* \"#utility.yul\":8519:8541   */\n      swap1\n      pop\n        /* \"#utility.yul\":8550:8580   */\n      tag_340\n        /* \"#utility.yul\":8574:8579   */\n      dup2\n        /* \"#utility.yul\":8550:8580   */\n      tag_222\n      jump\t// in\n    tag_340:\n        /* \"#utility.yul\":8449:8586   */\n      swap3\n      swap2\n      pop\n      pop\n      jump\t// out\n        /* \"#utility.yul\":8592:8937   */\n    tag_91:\n        /* \"#utility.yul\":8659:8665   */\n      0x00\n        /* \"#utility.yul\":8708:8710   */\n      0x20\n        /* \"#utility.yul\":8696:8705   */\n      dup3\n        /* \"#utility.yul\":8687:8694   */\n      dup5\n        /* \"#utility.yul\":8683:8706   */\n      sub\n        /* \"#utility.yul\":8679:8711   */\n      slt\n        /* \"#utility.yul\":8676:8795   */\n      iszero\n      tag_342\n      jumpi\n        /* \"#utility.yul\":8714:8793   */\n      tag_343\n      tag_196\n      jump\t// in\n    tag_343:\n        /* \"#utility.yul\":8676:8795   */\n    tag_342:\n        /* \"#utility.yul\":8834:8835   */\n      0x00\n        /* \"#utility.yul\":8859:8920   */\n      tag_344\n        /* \"#utility.yul\":8912:8919   */\n      dup5\n        /* \"#utility.yul\":8903:8909   */\n      dup3\n        /* \"#utility.yul\":8892:8901   */\n      dup6\n        /* \"#utility.yul\":8888:8910   */\n      add\n        /* \"#utility.yul\":8859:8920   */\n      tag_223\n      jump\t// in\n    tag_344:\n        /* \"#utility.yul\":8849:8920   */\n      swap2\n      pop\n        /* \"#utility.yul\":8805:8930   */\n      pop\n        /* \"#utility.yul\":8592:8937   */\n      swap3\n      swap2\n      pop\n      pop\n      jump\t// out\n        /* \"#utility.yul\":8943:9086   */\n    tag_224:\n        /* \"#utility.yul\":9000:9005   */\n      0x00\n        /* \"#utility.yul\":9031:9037   */\n      dup2\n        /* \"#utility.yul\":9025:9038   */\n      mload\n        /* \"#utility.yul\":9016:9038   */\n      swap1\n      pop\n        /* \"#utility.yul\":9047:9080   */\n      tag_346\n        /* \"#utility.yul\":9074:9079   */\n      dup2\n        /* \"#utility.yul\":9047:9080   */\n      tag_204\n      jump\t// in\n    tag_346:\n        /* \"#utility.yul\":8943:9086   */\n      swap3\n      swap2\n      pop\n      pop\n      jump\t// out\n        /* \"#utility.yul\":9092:9443   */\n    tag_107:\n        /* \"#utility.yul\":9162:9168   */\n      0x00\n        /* \"#utility.yul\":9211:9213   */\n      0x20\n        /* \"#utility.yul\":9199:9208   */\n      dup3\n        /* \"#utility.yul\":9190:9197   */\n      dup5\n        /* \"#utility.yul\":9186:9209   */\n      sub\n        /* \"#utility.yul\":9182:9214   */\n      slt\n        /* \"#utility.yul\":9179:9298   */\n      iszero\n      tag_348\n      jumpi\n        /* \"#utility.yul\":9217:9296   */\n      tag_349\n      tag_196\n      jump\t// in\n    tag_349:\n        /* \"#utility.yul\":9179:9298   */\n    tag_348:\n        /* \"#utility.yul\":9337:9338   */\n      0x00\n        /* \"#utility.yul\":9362:9426   */\n      tag_350\n        /* \"#utility.yul\":9418:9425   */\n      dup5\n        /* \"#utility.yul\":9409:9415   */\n      dup3\n        /* \"#utility.yul\":9398:9407   */\n      dup6\n        /* \"#utility.yul\":9394:9416   */\n      add\n        /* \"#utility.yul\":9362:9426   */\n      tag_224\n      jump\t// in\n    tag_350:\n        /* \"#utility.yul\":9352:9426   */\n      swap2\n      pop\n        /* \"#utility.yul\":9308:9436   */\n      pop\n        /* \"#utility.yul\":9092:9443   */\n      swap3\n      swap2\n      pop\n      pop\n      jump\t// out\n        /* \"#utility.yul\":9449:9682   */\n    tag_225:\n        /* \"#utility.yul\":9589:9623   */\n      0x4f6e6c792074686520636f6e7472616374206f776e65722063616e2063616c6c\n        /* \"#utility.yul\":9585:9586   */\n      0x00\n        /* \"#utility.yul\":9577:9583   */\n      dup3\n        /* \"#utility.yul\":9573:9587   */\n      add\n        /* \"#utility.yul\":9566:9624   */\n      mstore\n        /* \"#utility.yul\":9658:9674   */\n      0x20746869732066756e6374696f6e000000000000000000000000000000000000\n        /* \"#utility.yul\":9653:9655   */\n      0x20\n        /* \"#utility.yul\":9645:9651   */\n      dup3\n        /* \"#utility.yul\":9641:9656   */\n      add\n        /* \"#utility.yul\":9634:9675   */\n      mstore\n        /* \"#utility.yul\":9449:9682   */\n      pop\n      jump\t// out\n        /* \"#utility.yul\":9688:10054   */\n    tag_226:\n        /* \"#utility.yul\":9830:9833   */\n      0x00\n        /* \"#utility.yul\":9851:9918   */\n      tag_353\n        /* \"#utility.yul\":9915:9917   */\n      0x2e\n        /* \"#utility.yul\":9910:9913   */\n      dup4\n        /* \"#utility.yul\":9851:9918   */\n      tag_218\n      jump\t// in\n    tag_353:\n        /* \"#utility.yul\":9844:9918   */\n      swap2\n      pop\n        /* \"#utility.yul\":9927:10020   */\n      tag_354\n        /* \"#utility.yul\":10016:10019   */\n      dup3\n        /* \"#utility.yul\":9927:10020   */\n      tag_225\n      jump\t// in\n    tag_354:\n        /* \"#utility.yul\":10045:10047   */\n      0x40\n        /* \"#utility.yul\":10040:10043   */\n      dup3\n        /* \"#utility.yul\":10036:10048   */\n      add\n        /* \"#utility.yul\":10029:10048   */\n      swap1\n      pop\n        /* \"#utility.yul\":9688:10054   */\n      swap2\n      swap1\n      pop\n      jump\t// out\n        /* \"#utility.yul\":10060:10479   */\n    tag_129:\n        /* \"#utility.yul\":10226:10230   */\n      0x00\n        /* \"#utility.yul\":10264:10266   */\n      0x20\n        /* \"#utility.yul\":10253:10262   */\n      dup3\n        /* \"#utility.yul\":10249:10267   */\n      add\n        /* \"#utility.yul\":10241:10267   */\n      swap1\n      pop\n        /* \"#utility.yul\":10313:10322   */\n      dup2\n        /* \"#utility.yul\":10307:10311   */\n      dup2\n        /* \"#utility.yul\":10303:10323   */\n      sub\n        /* \"#utility.yul\":10299:10300   */\n      0x00\n        /* \"#utility.yul\":10288:10297   */\n      dup4\n        /* \"#utility.yul\":10284:10301   */\n      add\n        /* \"#utility.yul\":10277:10324   */\n      mstore\n        /* \"#utility.yul\":10341:10472   */\n      tag_356\n        /* \"#utility.yul\":10467:10471   */\n      dup2\n        /* \"#utility.yul\":10341:10472   */\n      tag_226\n      jump\t// in\n    tag_356:\n        /* \"#utility.yul\":10333:10472   */\n      swap1\n      pop\n        /* \"#utility.yul\":10060:10479   */\n      swap2\n      swap1\n      pop\n      jump\t// out\n        /* \"#utility.yul\":10485:10712   */\n    tag_227:\n        /* \"#utility.yul\":10625:10659   */\n      0x436f636f6e75742070657220626c6f636b206d75737420626520677265617465\n        /* \"#utility.yul\":10621:10622   */\n      0x00\n        /* \"#utility.yul\":10613:10619   */\n      dup3\n        /* \"#utility.yul\":10609:10623   */\n      add\n        /* \"#utility.yul\":10602:10660   */\n      mstore\n        /* \"#utility.yul\":10694:10704   */\n      0x72207468616e2030000000000000000000000000000000000000000000000000\n        /* \"#utility.yul\":10689:10691   */\n      0x20\n        /* \"#utility.yul\":10681:10687   */\n      dup3\n        /* \"#utility.yul\":10677:10692   */\n      add\n        /* \"#utility.yul\":10670:10705   */\n      mstore\n        /* \"#utility.yul\":10485:10712   */\n      pop\n      jump\t// out\n        /* \"#utility.yul\":10718:11084   */\n    tag_228:\n        /* \"#utility.yul\":10860:10863   */\n      0x00\n        /* \"#utility.yul\":10881:10948   */\n      tag_359\n        /* \"#utility.yul\":10945:10947   */\n      0x28\n        /* \"#utility.yul\":10940:10943   */\n      dup4\n        /* \"#utility.yul\":10881:10948   */\n      tag_218\n      jump\t// in\n    tag_359:\n        /* \"#utility.yul\":10874:10948   */\n      swap2\n      pop\n        /* \"#utility.yul\":10957:11050   */\n      tag_360\n        /* \"#utility.yul\":11046:11049   */\n      dup3\n        /* \"#utility.yul\":10957:11050   */\n      tag_227\n      jump\t// in\n    tag_360:\n        /* \"#utility.yul\":11075:11077   */\n      0x40\n        /* \"#utility.yul\":11070:11073   */\n      dup3\n        /* \"#utility.yul\":11066:11078   */\n      add\n        /* \"#utility.yul\":11059:11078   */\n      swap1\n      pop\n        /* \"#utility.yul\":10718:11084   */\n      swap2\n      swap1\n      pop\n      jump\t// out\n        /* \"#utility.yul\":11090:11509   */\n    tag_133:\n        /* \"#utility.yul\":11256:11260   */\n      0x00\n        /* \"#utility.yul\":11294:11296   */\n      0x20\n        /* \"#utility.yul\":11283:11292   */\n      dup3\n        /* \"#utility.yul\":11279:11297   */\n      add\n        /* \"#utility.yul\":11271:11297   */\n      swap1\n      pop\n        /* \"#utility.yul\":11343:11352   */\n      dup2\n        /* \"#utility.yul\":11337:11341   */\n      dup2\n        /* \"#utility.yul\":11333:11353   */\n      sub\n        /* \"#utility.yul\":11329:11330   */\n      0x00\n        /* \"#utility.yul\":11318:11327   */\n      dup4\n        /* \"#utility.yul\":11314:11331   */\n      add\n        /* \"#utility.yul\":11307:11354   */\n      mstore\n        /* \"#utility.yul\":11371:11502   */\n      tag_362\n        /* \"#utility.yul\":11497:11501   */\n      dup2\n        /* \"#utility.yul\":11371:11502   */\n      tag_228\n      jump\t// in\n    tag_362:\n        /* \"#utility.yul\":11363:11502   */\n      swap1\n      pop\n        /* \"#utility.yul\":11090:11509   */\n      swap2\n      swap1\n      pop\n      jump\t// out\n        /* \"#utility.yul\":11515:11925   */\n    tag_156:\n        /* \"#utility.yul\":11555:11562   */\n      0x00\n        /* \"#utility.yul\":11578:11598   */\n      tag_364\n        /* \"#utility.yul\":11596:11597   */\n      dup3\n        /* \"#utility.yul\":11578:11598   */\n      tag_203\n      jump\t// in\n    tag_364:\n        /* \"#utility.yul\":11573:11598   */\n      swap2\n      pop\n        /* \"#utility.yul\":11612:11632   */\n      tag_365\n        /* \"#utility.yul\":11630:11631   */\n      dup4\n        /* \"#utility.yul\":11612:11632   */\n      tag_203\n      jump\t// in\n    tag_365:\n        /* \"#utility.yul\":11607:11632   */\n      swap3\n      pop\n        /* \"#utility.yul\":11667:11668   */\n      dup3\n        /* \"#utility.yul\":11664:11665   */\n      dup3\n        /* \"#utility.yul\":11660:11669   */\n      mul\n        /* \"#utility.yul\":11689:11719   */\n      tag_366\n        /* \"#utility.yul\":11707:11718   */\n      dup2\n        /* \"#utility.yul\":11689:11719   */\n      tag_203\n      jump\t// in\n    tag_366:\n        /* \"#utility.yul\":11678:11719   */\n      swap2\n      pop\n        /* \"#utility.yul\":11868:11869   */\n      dup3\n        /* \"#utility.yul\":11859:11866   */\n      dup3\n        /* \"#utility.yul\":11855:11870   */\n      div\n        /* \"#utility.yul\":11852:11853   */\n      dup5\n        /* \"#utility.yul\":11849:11871   */\n      eq\n        /* \"#utility.yul\":11829:11830   */\n      dup4\n        /* \"#utility.yul\":11822:11831   */\n      iszero\n        /* \"#utility.yul\":11802:11885   */\n      or\n        /* \"#utility.yul\":11779:11918   */\n      tag_367\n      jumpi\n        /* \"#utility.yul\":11898:11916   */\n      tag_368\n      tag_217\n      jump\t// in\n    tag_368:\n        /* \"#utility.yul\":11779:11918   */\n    tag_367:\n        /* \"#utility.yul\":11563:11925   */\n      pop\n        /* \"#utility.yul\":11515:11925   */\n      swap3\n      swap2\n      pop\n      pop\n      jump\t// out\n        /* \"#utility.yul\":11931:12111   */\n    tag_229:\n        /* \"#utility.yul\":11979:12056   */\n      0x4e487b7100000000000000000000000000000000000000000000000000000000\n        /* \"#utility.yul\":11976:11977   */\n      0x00\n        /* \"#utility.yul\":11969:12057   */\n      mstore\n        /* \"#utility.yul\":12076:12080   */\n      0x12\n        /* \"#utility.yul\":12073:12074   */\n      0x04\n        /* \"#utility.yul\":12066:12081   */\n      mstore\n        /* \"#utility.yul\":12100:12104   */\n      0x24\n        /* \"#utility.yul\":12097:12098   */\n      0x00\n        /* \"#utility.yul\":12090:12105   */\n      revert\n        /* \"#utility.yul\":12117:12302   */\n    tag_158:\n        /* \"#utility.yul\":12157:12158   */\n      0x00\n        /* \"#utility.yul\":12174:12194   */\n      tag_371\n        /* \"#utility.yul\":12192:12193   */\n      dup3\n        /* \"#utility.yul\":12174:12194   */\n      tag_203\n      jump\t// in\n    tag_371:\n        /* \"#utility.yul\":12169:12194   */\n      swap2\n      pop\n        /* \"#utility.yul\":12208:12228   */\n      tag_372\n        /* \"#utility.yul\":12226:12227   */\n      dup4\n        /* \"#utility.yul\":12208:12228   */\n      tag_203\n      jump\t// in\n    tag_372:\n        /* \"#utility.yul\":12203:12228   */\n      swap3\n      pop\n        /* \"#utility.yul\":12247:12248   */\n      dup3\n        /* \"#utility.yul\":12237:12272   */\n      tag_373\n      jumpi\n        /* \"#utility.yul\":12252:12270   */\n      tag_374\n      tag_229\n      jump\t// in\n    tag_374:\n        /* \"#utility.yul\":12237:12272   */\n    tag_373:\n        /* \"#utility.yul\":12294:12295   */\n      dup3\n        /* \"#utility.yul\":12291:12292   */\n      dup3\n        /* \"#utility.yul\":12287:12296   */\n      div\n        /* \"#utility.yul\":12282:12296   */\n      swap1\n      pop\n        /* \"#utility.yul\":12117:12302   */\n      swap3\n      swap2\n      pop\n      pop\n      jump\t// out\n        /* \"#utility.yul\":12308:12528   */\n    tag_230:\n        /* \"#utility.yul\":12448:12482   */\n      0x536166654d6174683a206d756c7469706c69636174696f6e206f766572666c6f\n        /* \"#utility.yul\":12444:12445   */\n      0x00\n        /* \"#utility.yul\":12436:12442   */\n      dup3\n        /* \"#utility.yul\":12432:12446   */\n      add\n        /* \"#utility.yul\":12425:12483   */\n      mstore\n        /* \"#utility.yul\":12517:12520   */\n      0x7700000000000000000000000000000000000000000000000000000000000000\n        /* \"#utility.yul\":12512:12514   */\n      0x20\n        /* \"#utility.yul\":12504:12510   */\n      dup3\n        /* \"#utility.yul\":12500:12515   */\n      add\n        /* \"#utility.yul\":12493:12521   */\n      mstore\n        /* \"#utility.yul\":12308:12528   */\n      pop\n      jump\t// out\n        /* \"#utility.yul\":12534:12900   */\n    tag_231:\n        /* \"#utility.yul\":12676:12679   */\n      0x00\n        /* \"#utility.yul\":12697:12764   */\n      tag_377\n        /* \"#utility.yul\":12761:12763   */\n      0x21\n        /* \"#utility.yul\":12756:12759   */\n      dup4\n        /* \"#utility.yul\":12697:12764   */\n      tag_218\n      jump\t// in\n    tag_377:\n        /* \"#utility.yul\":12690:12764   */\n      swap2\n      pop\n        /* \"#utility.yul\":12773:12866   */\n      tag_378\n        /* \"#utility.yul\":12862:12865   */\n      dup3\n        /* \"#utility.yul\":12773:12866   */\n      tag_230\n      jump\t// in\n    tag_378:\n        /* \"#utility.yul\":12891:12893   */\n      0x40\n        /* \"#utility.yul\":12886:12889   */\n      dup3\n        /* \"#utility.yul\":12882:12894   */\n      add\n        /* \"#utility.yul\":12875:12894   */\n      swap1\n      pop\n        /* \"#utility.yul\":12534:12900   */\n      swap2\n      swap1\n      pop\n      jump\t// out\n        /* \"#utility.yul\":12906:13325   */\n    tag_161:\n        /* \"#utility.yul\":13072:13076   */\n      0x00\n        /* \"#utility.yul\":13110:13112   */\n      0x20\n        /* \"#utility.yul\":13099:13108   */\n      dup3\n        /* \"#utility.yul\":13095:13113   */\n      add\n        /* \"#utility.yul\":13087:13113   */\n      swap1\n      pop\n        /* \"#utility.yul\":13159:13168   */\n      dup2\n        /* \"#utility.yul\":13153:13157   */\n      dup2\n        /* \"#utility.yul\":13149:13169   */\n      sub\n        /* \"#utility.yul\":13145:13146   */\n      0x00\n        /* \"#utility.yul\":13134:13143   */\n      dup4\n        /* \"#utility.yul\":13130:13147   */\n      add\n        /* \"#utility.yul\":13123:13170   */\n      mstore\n        /* \"#utility.yul\":13187:13318   */\n      tag_380\n        /* \"#utility.yul\":13313:13317   */\n      dup2\n        /* \"#utility.yul\":13187:13318   */\n      tag_231\n      jump\t// in\n    tag_380:\n        /* \"#utility.yul\":13179:13318   */\n      swap1\n      pop\n        /* \"#utility.yul\":12906:13325   */\n      swap2\n      swap1\n      pop\n      jump\t// out\n        /* \"#utility.yul\":13331:13507   */\n    tag_232:\n        /* \"#utility.yul\":13471:13499   */\n      0x536166654d6174683a206469766973696f6e206279207a65726f000000000000\n        /* \"#utility.yul\":13467:13468   */\n      0x00\n        /* \"#utility.yul\":13459:13465   */\n      dup3\n        /* \"#utility.yul\":13455:13469   */\n      add\n        /* \"#utility.yul\":13448:13500   */\n      mstore\n        /* \"#utility.yul\":13331:13507   */\n      pop\n      jump\t// out\n        /* \"#utility.yul\":13513:13879   */\n    tag_233:\n        /* \"#utility.yul\":13655:13658   */\n      0x00\n        /* \"#utility.yul\":13676:13743   */\n      tag_383\n        /* \"#utility.yul\":13740:13742   */\n      0x1a\n        /* \"#utility.yul\":13735:13738   */\n      dup4\n        /* \"#utility.yul\":13676:13743   */\n      tag_218\n      jump\t// in\n    tag_383:\n        /* \"#utility.yul\":13669:13743   */\n      swap2\n      pop\n        /* \"#utility.yul\":13752:13845   */\n      tag_384\n        /* \"#utility.yul\":13841:13844   */\n      dup3\n        /* \"#utility.yul\":13752:13845   */\n      tag_232\n      jump\t// in\n    tag_384:\n        /* \"#utility.yul\":13870:13872   */\n      0x20\n        /* \"#utility.yul\":13865:13868   */\n      dup3\n        /* \"#utility.yul\":13861:13873   */\n      add\n        /* \"#utility.yul\":13854:13873   */\n      swap1\n      pop\n        /* \"#utility.yul\":13513:13879   */\n      swap2\n      swap1\n      pop\n      jump\t// out\n        /* \"#utility.yul\":13885:14304   */\n    tag_165:\n        /* \"#utility.yul\":14051:14055   */\n      0x00\n        /* \"#utility.yul\":14089:14091   */\n      0x20\n        /* \"#utility.yul\":14078:14087   */\n      dup3\n        /* \"#utility.yul\":14074:14092   */\n      add\n        /* \"#utility.yul\":14066:14092   */\n      swap1\n      pop\n        /* \"#utility.yul\":14138:14147   */\n      dup2\n        /* \"#utility.yul\":14132:14136   */\n      dup2\n        /* \"#utility.yul\":14128:14148   */\n      sub\n        /* \"#utility.yul\":14124:14125   */\n      0x00\n        /* \"#utility.yul\":14113:14122   */\n      dup4\n        /* \"#utility.yul\":14109:14126   */\n      add\n        /* \"#utility.yul\":14102:14149   */\n      mstore\n        /* \"#utility.yul\":14166:14297   */\n      tag_386\n        /* \"#utility.yul\":14292:14296   */\n      dup2\n        /* \"#utility.yul\":14166:14297   */\n      tag_233\n      jump\t// in\n    tag_386:\n        /* \"#utility.yul\":14158:14297   */\n      swap1\n      pop\n        /* \"#utility.yul\":13885:14304   */\n      swap2\n      swap1\n      pop\n      jump\t// out\n        /* \"#utility.yul\":14310:14490   */\n    tag_234:\n        /* \"#utility.yul\":14450:14482   */\n      0x536166654d6174683a207375627472616374696f6e206f766572666c6f770000\n        /* \"#utility.yul\":14446:14447   */\n      0x00\n        /* \"#utility.yul\":14438:14444   */\n      dup3\n        /* \"#utility.yul\":14434:14448   */\n      add\n        /* \"#utility.yul\":14427:14483   */\n      mstore\n        /* \"#utility.yul\":14310:14490   */\n      pop\n      jump\t// out\n        /* \"#utility.yul\":14496:14862   */\n    tag_235:\n        /* \"#utility.yul\":14638:14641   */\n      0x00\n        /* \"#utility.yul\":14659:14726   */\n      tag_389\n        /* \"#utility.yul\":14723:14725   */\n      0x1e\n        /* \"#utility.yul\":14718:14721   */\n      dup4\n        /* \"#utility.yul\":14659:14726   */\n      tag_218\n      jump\t// in\n    tag_389:\n        /* \"#utility.yul\":14652:14726   */\n      swap2\n      pop\n        /* \"#utility.yul\":14735:14828   */\n      tag_390\n        /* \"#utility.yul\":14824:14827   */\n      dup3\n        /* \"#utility.yul\":14735:14828   */\n      tag_234\n      jump\t// in\n    tag_390:\n        /* \"#utility.yul\":14853:14855   */\n      0x20\n        /* \"#utility.yul\":14848:14851   */\n      dup3\n        /* \"#utility.yul\":14844:14856   */\n      add\n        /* \"#utility.yul\":14837:14856   */\n      swap1\n      pop\n        /* \"#utility.yul\":14496:14862   */\n      swap2\n      swap1\n      pop\n      jump\t// out\n        /* \"#utility.yul\":14868:15287   */\n    tag_170:\n        /* \"#utility.yul\":15034:15038   */\n      0x00\n        /* \"#utility.yul\":15072:15074   */\n      0x20\n        /* \"#utility.yul\":15061:15070   */\n      dup3\n        /* \"#utility.yul\":15057:15075   */\n      add\n        /* \"#utility.yul\":15049:15075   */\n      swap1\n      pop\n        /* \"#utility.yul\":15121:15130   */\n      dup2\n        /* \"#utility.yul\":15115:15119   */\n      dup2\n        /* \"#utility.yul\":15111:15131   */\n      sub\n        /* \"#utility.yul\":15107:15108   */\n      0x00\n        /* \"#utility.yul\":15096:15105   */\n      dup4\n        /* \"#utility.yul\":15092:15109   */\n      add\n        /* \"#utility.yul\":15085:15132   */\n      mstore\n        /* \"#utility.yul\":15149:15280   */\n      tag_392\n        /* \"#utility.yul\":15275:15279   */\n      dup2\n        /* \"#utility.yul\":15149:15280   */\n      tag_235\n      jump\t// in\n    tag_392:\n        /* \"#utility.yul\":15141:15280   */\n      swap1\n      pop\n        /* \"#utility.yul\":14868:15287   */\n      swap2\n      swap1\n      pop\n      jump\t// out\n        /* \"#utility.yul\":15293:15487   */\n    tag_172:\n        /* \"#utility.yul\":15333:15337   */\n      0x00\n        /* \"#utility.yul\":15353:15373   */\n      tag_394\n        /* \"#utility.yul\":15371:15372   */\n      dup3\n        /* \"#utility.yul\":15353:15373   */\n      tag_203\n      jump\t// in\n    tag_394:\n        /* \"#utility.yul\":15348:15373   */\n      swap2\n      pop\n        /* \"#utility.yul\":15387:15407   */\n      tag_395\n        /* \"#utility.yul\":15405:15406   */\n      dup4\n        /* \"#utility.yul\":15387:15407   */\n      tag_203\n      jump\t// in\n    tag_395:\n        /* \"#utility.yul\":15382:15407   */\n      swap3\n      pop\n        /* \"#utility.yul\":15431:15432   */\n      dup3\n        /* \"#utility.yul\":15428:15429   */\n      dup3\n        /* \"#utility.yul\":15424:15433   */\n      sub\n        /* \"#utility.yul\":15416:15433   */\n      swap1\n      pop\n        /* \"#utility.yul\":15455:15456   */\n      dup2\n        /* \"#utility.yul\":15449:15453   */\n      dup2\n        /* \"#utility.yul\":15446:15457   */\n      gt\n        /* \"#utility.yul\":15443:15480   */\n      iszero\n      tag_396\n      jumpi\n        /* \"#utility.yul\":15460:15478   */\n      tag_397\n      tag_217\n      jump\t// in\n    tag_397:\n        /* \"#utility.yul\":15443:15480   */\n    tag_396:\n        /* \"#utility.yul\":15293:15487   */\n      swap3\n      swap2\n      pop\n      pop\n      jump\t// out\n        /* \"#utility.yul\":15493:15669   */\n    tag_236:\n        /* \"#utility.yul\":15633:15661   */\n      0x5361666545524332303a207472616e73666572206661696c6564000000000000\n        /* \"#utility.yul\":15629:15630   */\n      0x00\n        /* \"#utility.yul\":15621:15627   */\n      dup3\n        /* \"#utility.yul\":15617:15631   */\n      add\n        /* \"#utility.yul\":15610:15662   */\n      mstore\n        /* \"#utility.yul\":15493:15669   */\n      pop\n      jump\t// out\n        /* \"#utility.yul\":15675:16041   */\n    tag_237:\n        /* \"#utility.yul\":15817:15820   */\n      0x00\n        /* \"#utility.yul\":15838:15905   */\n      tag_400\n        /* \"#utility.yul\":15902:15904   */\n      0x1a\n        /* \"#utility.yul\":15897:15900   */\n      dup4\n        /* \"#utility.yul\":15838:15905   */\n      tag_218\n      jump\t// in\n    tag_400:\n        /* \"#utility.yul\":15831:15905   */\n      swap2\n      pop\n        /* \"#utility.yul\":15914:16007   */\n      tag_401\n        /* \"#utility.yul\":16003:16006   */\n      dup3\n        /* \"#utility.yul\":15914:16007   */\n      tag_236\n      jump\t// in\n    tag_401:\n        /* \"#utility.yul\":16032:16034   */\n      0x20\n        /* \"#utility.yul\":16027:16030   */\n      dup3\n        /* \"#utility.yul\":16023:16035   */\n      add\n        /* \"#utility.yul\":16016:16035   */\n      swap1\n      pop\n        /* \"#utility.yul\":15675:16041   */\n      swap2\n      swap1\n      pop\n      jump\t// out\n        /* \"#utility.yul\":16047:16466   */\n    tag_180:\n        /* \"#utility.yul\":16213:16217   */\n      0x00\n        /* \"#utility.yul\":16251:16253   */\n      0x20\n        /* \"#utility.yul\":16240:16249   */\n      dup3\n        /* \"#utility.yul\":16236:16254   */\n      add\n        /* \"#utility.yul\":16228:16254   */\n      swap1\n      pop\n        /* \"#utility.yul\":16300:16309   */\n      dup2\n        /* \"#utility.yul\":16294:16298   */\n      dup2\n        /* \"#utility.yul\":16290:16310   */\n      sub\n        /* \"#utility.yul\":16286:16287   */\n      0x00\n        /* \"#utility.yul\":16275:16284   */\n      dup4\n        /* \"#utility.yul\":16271:16288   */\n      add\n        /* \"#utility.yul\":16264:16311   */\n      mstore\n        /* \"#utility.yul\":16328:16459   */\n      tag_403\n        /* \"#utility.yul\":16454:16458   */\n      dup2\n        /* \"#utility.yul\":16328:16459   */\n      tag_237\n      jump\t// in\n    tag_403:\n        /* \"#utility.yul\":16320:16459   */\n      swap1\n      pop\n        /* \"#utility.yul\":16047:16466   */\n      swap2\n      swap1\n      pop\n      jump\t// out\n        /* \"#utility.yul\":16472:16649   */\n    tag_238:\n        /* \"#utility.yul\":16612:16641   */\n      0x536166654d6174683a206164646974696f6e206f766572666c6f770000000000\n        /* \"#utility.yul\":16608:16609   */\n      0x00\n        /* \"#utility.yul\":16600:16606   */\n      dup3\n        /* \"#utility.yul\":16596:16610   */\n      add\n        /* \"#utility.yul\":16589:16642   */\n      mstore\n        /* \"#utility.yul\":16472:16649   */\n      pop\n      jump\t// out\n        /* \"#utility.yul\":16655:17021   */\n    tag_239:\n        /* \"#utility.yul\":16797:16800   */\n      0x00\n        /* \"#utility.yul\":16818:16885   */\n      tag_406\n        /* \"#utility.yul\":16882:16884   */\n      0x1b\n        /* \"#utility.yul\":16877:16880   */\n      dup4\n        /* \"#utility.yul\":16818:16885   */\n      tag_218\n      jump\t// in\n    tag_406:\n        /* \"#utility.yul\":16811:16885   */\n      swap2\n      pop\n        /* \"#utility.yul\":16894:16987   */\n      tag_407\n        /* \"#utility.yul\":16983:16986   */\n      dup3\n        /* \"#utility.yul\":16894:16987   */\n      tag_238\n      jump\t// in\n    tag_407:\n        /* \"#utility.yul\":17012:17014   */\n      0x20\n        /* \"#utility.yul\":17007:17010   */\n      dup3\n        /* \"#utility.yul\":17003:17015   */\n      add\n        /* \"#utility.yul\":16996:17015   */\n      swap1\n      pop\n        /* \"#utility.yul\":16655:17021   */\n      swap2\n      swap1\n      pop\n      jump\t// out\n        /* \"#utility.yul\":17027:17446   */\n    tag_185:\n        /* \"#utility.yul\":17193:17197   */\n      0x00\n        /* \"#utility.yul\":17231:17233   */\n      0x20\n        /* \"#utility.yul\":17220:17229   */\n      dup3\n        /* \"#utility.yul\":17216:17234   */\n      add\n        /* \"#utility.yul\":17208:17234   */\n      swap1\n      pop\n        /* \"#utility.yul\":17280:17289   */\n      dup2\n        /* \"#utility.yul\":17274:17278   */\n      dup2\n        /* \"#utility.yul\":17270:17290   */\n      sub\n        /* \"#utility.yul\":17266:17267   */\n      0x00\n        /* \"#utility.yul\":17255:17264   */\n      dup4\n        /* \"#utility.yul\":17251:17268   */\n      add\n        /* \"#utility.yul\":17244:17291   */\n      mstore\n        /* \"#utility.yul\":17308:17439   */\n      tag_409\n        /* \"#utility.yul\":17434:17438   */\n      dup2\n        /* \"#utility.yul\":17308:17439   */\n      tag_239\n      jump\t// in\n    tag_409:\n        /* \"#utility.yul\":17300:17439   */\n      swap1\n      pop\n        /* \"#utility.yul\":17027:17446   */\n      swap2\n      swap1\n      pop\n      jump\t// out\n        /* \"#utility.yul\":17452:17894   */\n    tag_188:\n        /* \"#utility.yul\":17601:17605   */\n      0x00\n        /* \"#utility.yul\":17639:17641   */\n      0x60\n        /* \"#utility.yul\":17628:17637   */\n      dup3\n        /* \"#utility.yul\":17624:17642   */\n      add\n        /* \"#utility.yul\":17616:17642   */\n      swap1\n      pop\n        /* \"#utility.yul\":17652:17723   */\n      tag_411\n        /* \"#utility.yul\":17720:17721   */\n      0x00\n        /* \"#utility.yul\":17709:17718   */\n      dup4\n        /* \"#utility.yul\":17705:17722   */\n      add\n        /* \"#utility.yul\":17696:17702   */\n      dup7\n        /* \"#utility.yul\":17652:17723   */\n      tag_214\n      jump\t// in\n    tag_411:\n        /* \"#utility.yul\":17733:17805   */\n      tag_412\n        /* \"#utility.yul\":17801:17803   */\n      0x20\n        /* \"#utility.yul\":17790:17799   */\n      dup4\n        /* \"#utility.yul\":17786:17804   */\n      add\n        /* \"#utility.yul\":17777:17783   */\n      dup6\n        /* \"#utility.yul\":17733:17805   */\n      tag_214\n      jump\t// in\n    tag_412:\n        /* \"#utility.yul\":17815:17887   */\n      tag_413\n        /* \"#utility.yul\":17883:17885   */\n      0x40\n        /* \"#utility.yul\":17872:17881   */\n      dup4\n        /* \"#utility.yul\":17868:17886   */\n      add\n        /* \"#utility.yul\":17859:17865   */\n      dup5\n        /* \"#utility.yul\":17815:17887   */\n      tag_211\n      jump\t// in\n    tag_413:\n        /* \"#utility.yul\":17452:17894   */\n      swap5\n      swap4\n      pop\n      pop\n      pop\n      pop\n      jump\t// out\n        /* \"#utility.yul\":17900:18080   */\n    tag_240:\n        /* \"#utility.yul\":18040:18072   */\n      0x5361666545524332303a207472616e7366657246726f6d206661696c65640000\n        /* \"#utility.yul\":18036:18037   */\n      0x00\n        /* \"#utility.yul\":18028:18034   */\n      dup3\n        /* \"#utility.yul\":18024:18038   */\n      add\n        /* \"#utility.yul\":18017:18073   */\n      mstore\n        /* \"#utility.yul\":17900:18080   */\n      pop\n      jump\t// out\n        /* \"#utility.yul\":18086:18452   */\n    tag_241:\n        /* \"#utility.yul\":18228:18231   */\n      0x00\n        /* \"#utility.yul\":18249:18316   */\n      tag_416\n        /* \"#utility.yul\":18313:18315   */\n      0x1e\n        /* \"#utility.yul\":18308:18311   */\n      dup4\n        /* \"#utility.yul\":18249:18316   */\n      tag_218\n      jump\t// in\n    tag_416:\n        /* \"#utility.yul\":18242:18316   */\n      swap2\n      pop\n        /* \"#utility.yul\":18325:18418   */\n      tag_417\n        /* \"#utility.yul\":18414:18417   */\n      dup3\n        /* \"#utility.yul\":18325:18418   */\n      tag_240\n      jump\t// in\n    tag_417:\n        /* \"#utility.yul\":18443:18445   */\n      0x20\n        /* \"#utility.yul\":18438:18441   */\n      dup3\n        /* \"#utility.yul\":18434:18446   */\n      add\n        /* \"#utility.yul\":18427:18446   */\n      swap1\n      pop\n        /* \"#utility.yul\":18086:18452   */\n      swap2\n      swap1\n      pop\n      jump\t// out\n        /* \"#utility.yul\":18458:18877   */\n    tag_194:\n        /* \"#utility.yul\":18624:18628   */\n      0x00\n        /* \"#utility.yul\":18662:18664   */\n      0x20\n        /* \"#utility.yul\":18651:18660   */\n      dup3\n        /* \"#utility.yul\":18647:18665   */\n      add\n        /* \"#utility.yul\":18639:18665   */\n      swap1\n      pop\n        /* \"#utility.yul\":18711:18720   */\n      dup2\n        /* \"#utility.yul\":18705:18709   */\n      dup2\n        /* \"#utility.yul\":18701:18721   */\n      sub\n        /* \"#utility.yul\":18697:18698   */\n      0x00\n        /* \"#utility.yul\":18686:18695   */\n      dup4\n        /* \"#utility.yul\":18682:18699   */\n      add\n        /* \"#utility.yul\":18675:18722   */\n      mstore\n        /* \"#utility.yul\":18739:18870   */\n      tag_419\n        /* \"#utility.yul\":18865:18869   */\n      dup2\n        /* \"#utility.yul\":18739:18870   */\n      tag_241\n      jump\t// in\n    tag_419:\n        /* \"#utility.yul\":18731:18870   */\n      swap1\n      pop\n        /* \"#utility.yul\":18458:18877   */\n      swap2\n      swap1\n      pop\n      jump\t// out\n\n    auxdata: 0xa2646970667358221220e72aadb3e4f9809582e44ee27c8fb95862a0405087c61bebf343ffa282e5f0ed64736f6c63430008120033\n}\n",
				"bytecode": {
					"linkReferences": {},
					"object": "608060405260018055600060055560006006553480156200001f57600080fd5b5060405162001bcd38038062001bcd83398181016040528101906200004591906200014b565b80600260006101000a81548173ffffffffffffffffffffffffffffffffffffffff021916908373ffffffffffffffffffffffffffffffffffffffff160217905550336000806101000a81548173ffffffffffffffffffffffffffffffffffffffff021916908373ffffffffffffffffffffffffffffffffffffffff160217905550506200017d565b600080fd5b600073ffffffffffffffffffffffffffffffffffffffff82169050919050565b6000620000ff82620000d2565b9050919050565b60006200011382620000f2565b9050919050565b620001258162000106565b81146200013157600080fd5b50565b60008151905062000145816200011a565b92915050565b600060208284031215620001645762000163620000cd565b5b6000620001748482850162000134565b91505092915050565b611a40806200018d6000396000f3fe608060405234801561001057600080fd5b50600436106100b45760003560e01c806351eb05a61161007157806351eb05a61461017e578063647d209a1461019a578063660325ec146101b65780638da5cb5b146101d457806393f1a40b146101f2578063e2bbb15814610223576100b4565b80630a3b0a4f146100b95780631526fe27146100d557806317caf6f114610108578063441a3e701461012657806348ac86d01461014257806348cd4cb114610160575b600080fd5b6100d360048036038101906100ce91906110b3565b61023f565b005b6100ef60048036038101906100ea9190611116565b61033a565b6040516100ff94939291906111b1565b60405180910390f35b61011061039a565b60405161011d91906111f6565b60405180910390f35b610140600480360381019061013b9190611211565b6103a0565b005b61014a610655565b6040516101579190611272565b60405180910390f35b61016861067b565b60405161017591906111f6565b60405180910390f35b61019860048036038101906101939190611116565b610681565b005b6101b460048036038101906101af9190611116565b61096e565b005b6101be610a49565b6040516101cb91906111f6565b60405180910390f35b6101dc610a4f565b6040516101e9919061129c565b60405180910390f35b61020c600480360381019061020791906112e3565b610a73565b60405161021a929190611323565b60405180910390f35b61023d60048036038101906102389190611211565b610aa4565b005b6000600654431161025257600654610254565b435b90506064600554610265919061137b565b600581905550600360405180608001604052808473ffffffffffffffffffffffffffffffffffffffff168152602001606481526020018381526020016000815250908060018154018082558091505060019003906000526020600020906004020160009091909190915060008201518160000160006101000a81548173ffffffffffffffffffffffffffffffffffffffff021916908373ffffffffffffffffffffffffffffffffffffffff16021790555060208201518160010155604082015181600201556060820151816003015550505050565b6003818154811061034a57600080fd5b90600052602060002090600402016000915090508060000160009054906101000a900473ffffffffffffffffffffffffffffffffffffffff16908060010154908060020154908060030154905084565b60055481565b6000600383815481106103b6576103b56113af565b5b9060005260206000209060040201905060006004600085815260200190815260200160002060003373ffffffffffffffffffffffffffffffffffffffff1673ffffffffffffffffffffffffffffffffffffffff16815260200190815260200160002090508281600001541015610461576040517f08c379a00000000000000000000000000000000000000000000000000000000081526004016104589061143b565b60405180910390fd5b61046a84610681565b60006104b482600101546104a664e8d4a5100061049887600301548760000154610d2290919063ffffffff16565b610d9c90919063ffffffff16565b610dfa90919063ffffffff16565b9050600260009054906101000a900473ffffffffffffffffffffffffffffffffffffffff1673ffffffffffffffffffffffffffffffffffffffff1663a9059cbb33836040518363ffffffff1660e01b815260040161051392919061145b565b6020604051808303816000875af1158015610532573d6000803e3d6000fd5b505050506040513d601f19601f8201168201806040525081019061055691906114bc565b5061056e848360000154610dfa90919063ffffffff16565b82600001819055506105a864e8d4a5100061059a85600301548560000154610d2290919063ffffffff16565b610d9c90919063ffffffff16565b82600101819055506105ff33858560000160009054906101000a900473ffffffffffffffffffffffffffffffffffffffff1673ffffffffffffffffffffffffffffffffffffffff16610e599092919063ffffffff16565b843373ffffffffffffffffffffffffffffffffffffffff167ff279e6a1f5e320cca91135676d9cb6e44ca8a08c0b88342bcdb1144f6511b5688660405161064691906111f6565b60405180910390a35050505050565b600260009054906101000a900473ffffffffffffffffffffffffffffffffffffffff1681565b60065481565b600060038281548110610697576106966113af565b5b90600052602060002090600402019050806002015443116106b8575061096b565b60008160000160009054906101000a900473ffffffffffffffffffffffffffffffffffffffff1673ffffffffffffffffffffffffffffffffffffffff166370a08231306040518263ffffffff1660e01b8152600401610717919061129c565b602060405180830381865afa158015610734573d6000803e3d6000fd5b505050506040513d601f19601f8201168201806040525081019061075891906114fe565b90506000810361077257438260020181905550505061096b565b600061078b836002015443610dfa90919063ffffffff16565b905060006107ce6005546107c086600101546107b260015487610d2290919063ffffffff16565b610d2290919063ffffffff16565b610d9c90919063ffffffff16565b9050600260009054906101000a900473ffffffffffffffffffffffffffffffffffffffff1673ffffffffffffffffffffffffffffffffffffffff166340c10f1973866a36025f852bba70f2d857e9a9e5e290040610610837600a85610d9c90919063ffffffff16565b6040518363ffffffff1660e01b815260040161085492919061145b565b600060405180830381600087803b15801561086e57600080fd5b505af1158015610882573d6000803e3d6000fd5b50505050600260009054906101000a900473ffffffffffffffffffffffffffffffffffffffff1673ffffffffffffffffffffffffffffffffffffffff166340c10f1930836040518363ffffffff1660e01b81526004016108e392919061145b565b600060405180830381600087803b1580156108fd57600080fd5b505af1158015610911573d6000803e3d6000fd5b505050506109556109428461093464e8d4a5100085610d2290919063ffffffff16565b610d9c90919063ffffffff16565b8560030154610f1b90919063ffffffff16565b8460030181905550438460020181905550505050505b50565b60008054906101000a900473ffffffffffffffffffffffffffffffffffffffff1673ffffffffffffffffffffffffffffffffffffffff163373ffffffffffffffffffffffffffffffffffffffff16146109fc576040517f08c379a00000000000000000000000000000000000000000000000000000000081526004016109f39061159d565b60405180910390fd5b60008111610a3f576040517f08c379a0000000000000000000000000000000000000000000000000000000008152600401610a369061162f565b60405180910390fd5b8060018190555050565b60015481565b60008054906101000a900473ffffffffffffffffffffffffffffffffffffffff1681565b6004602052816000526040600020602052806000526040600020600091509150508060000154908060010154905082565b600060038381548110610aba57610ab96113af565b5b9060005260206000209060040201905060006004600085815260200190815260200160002060003373ffffffffffffffffffffffffffffffffffffffff1673ffffffffffffffffffffffffffffffffffffffff1681526020019081526020016000209050610b2784610681565b600081600001541115610c23576000610b7e8260010154610b7064e8d4a51000610b6287600301548760000154610d2290919063ffffffff16565b610d9c90919063ffffffff16565b610dfa90919063ffffffff16565b9050600260009054906101000a900473ffffffffffffffffffffffffffffffffffffffff1673ffffffffffffffffffffffffffffffffffffffff1663a9059cbb33836040518363ffffffff1660e01b8152600401610bdd92919061145b565b6020604051808303816000875af1158015610bfc573d6000803e3d6000fd5b505050506040513d601f19601f82011682018060405250810190610c2091906114bc565b50505b610c743330858560000160009054906101000a900473ffffffffffffffffffffffffffffffffffffffff1673ffffffffffffffffffffffffffffffffffffffff16610f79909392919063ffffffff16565b610c8b838260000154610f1b90919063ffffffff16565b8160000181905550610cc564e8d4a51000610cb784600301548460000154610d2290919063ffffffff16565b610d9c90919063ffffffff16565b8160010181905550833373ffffffffffffffffffffffffffffffffffffffff167f90890809c654f11d6e72a28fa60149770a0d11ec6c92319d6ceb2bb0a4ea1a1585604051610d1491906111f6565b60405180910390a350505050565b6000808303610d345760009050610d96565b60008284610d42919061164f565b9050828482610d5191906116c0565b14610d91576040517f08c379a0000000000000000000000000000000000000000000000000000000008152600401610d8890611763565b60405180910390fd5b809150505b92915050565b6000808211610de0576040517f08c379a0000000000000000000000000000000000000000000000000000000008152600401610dd7906117cf565b60405180910390fd5b60008284610dee91906116c0565b90508091505092915050565b600082821115610e3f576040517f08c379a0000000000000000000000000000000000000000000000000000000008152600401610e369061183b565b60405180910390fd5b60008284610e4d919061185b565b90508091505092915050565b8273ffffffffffffffffffffffffffffffffffffffff1663a9059cbb83836040518363ffffffff1660e01b8152600401610e9492919061145b565b6020604051808303816000875af1158015610eb3573d6000803e3d6000fd5b505050506040513d601f19601f82011682018060405250810190610ed791906114bc565b610f16576040517f08c379a0000000000000000000000000000000000000000000000000000000008152600401610f0d906118db565b60405180910390fd5b505050565b6000808284610f2a919061137b565b905083811015610f6f576040517f08c379a0000000000000000000000000000000000000000000000000000000008152600401610f6690611947565b60405180910390fd5b8091505092915050565b8373ffffffffffffffffffffffffffffffffffffffff166323b872dd8484846040518463ffffffff1660e01b8152600401610fb693929190611967565b6020604051808303816000875af1158015610fd5573d6000803e3d6000fd5b505050506040513d601f19601f82011682018060405250810190610ff991906114bc565b611038576040517f08c379a000000000000000000000000000000000000000000000000000000000815260040161102f906119ea565b60405180910390fd5b50505050565b600080fd5b600073ffffffffffffffffffffffffffffffffffffffff82169050919050565b600061106e82611043565b9050919050565b600061108082611063565b9050919050565b61109081611075565b811461109b57600080fd5b50565b6000813590506110ad81611087565b92915050565b6000602082840312156110c9576110c861103e565b5b60006110d78482850161109e565b91505092915050565b6000819050919050565b6110f3816110e0565b81146110fe57600080fd5b50565b600081359050611110816110ea565b92915050565b60006020828403121561112c5761112b61103e565b5b600061113a84828501611101565b91505092915050565b6000819050919050565b600061116861116361115e84611043565b611143565b611043565b9050919050565b600061117a8261114d565b9050919050565b600061118c8261116f565b9050919050565b61119c81611181565b82525050565b6111ab816110e0565b82525050565b60006080820190506111c66000830187611193565b6111d360208301866111a2565b6111e060408301856111a2565b6111ed60608301846111a2565b95945050505050565b600060208201905061120b60008301846111a2565b92915050565b600080604083850312156112285761122761103e565b5b600061123685828601611101565b925050602061124785828601611101565b9150509250929050565b600061125c8261116f565b9050919050565b61126c81611251565b82525050565b60006020820190506112876000830184611263565b92915050565b61129681611063565b82525050565b60006020820190506112b1600083018461128d565b92915050565b6112c081611063565b81146112cb57600080fd5b50565b6000813590506112dd816112b7565b92915050565b600080604083850312156112fa576112f961103e565b5b600061130885828601611101565b9250506020611319858286016112ce565b9150509250929050565b600060408201905061133860008301856111a2565b61134560208301846111a2565b9392505050565b7f4e487b7100000000000000000000000000000000000000000000000000000000600052601160045260246000fd5b6000611386826110e0565b9150611391836110e0565b92508282019050808211156113a9576113a861134c565b5b92915050565b7f4e487b7100000000000000000000000000000000000000000000000000000000600052603260045260246000fd5b600082825260208201905092915050565b7f57697468647261773a206e6f7420676f6f640000000000000000000000000000600082015250565b60006114256012836113de565b9150611430826113ef565b602082019050919050565b6000602082019050818103600083015261145481611418565b9050919050565b6000604082019050611470600083018561128d565b61147d60208301846111a2565b9392505050565b60008115159050919050565b61149981611484565b81146114a457600080fd5b50565b6000815190506114b681611490565b92915050565b6000602082840312156114d2576114d161103e565b5b60006114e0848285016114a7565b91505092915050565b6000815190506114f8816110ea565b92915050565b6000602082840312156115145761151361103e565b5b6000611522848285016114e9565b91505092915050565b7f4f6e6c792074686520636f6e7472616374206f776e65722063616e2063616c6c60008201527f20746869732066756e6374696f6e000000000000000000000000000000000000602082015250565b6000611587602e836113de565b91506115928261152b565b604082019050919050565b600060208201905081810360008301526115b68161157a565b9050919050565b7f436f636f6e75742070657220626c6f636b206d7573742062652067726561746560008201527f72207468616e2030000000000000000000000000000000000000000000000000602082015250565b60006116196028836113de565b9150611624826115bd565b604082019050919050565b600060208201905081810360008301526116488161160c565b9050919050565b600061165a826110e0565b9150611665836110e0565b9250828202611673816110e0565b9150828204841483151761168a5761168961134c565b5b5092915050565b7f4e487b7100000000000000000000000000000000000000000000000000000000600052601260045260246000fd5b60006116cb826110e0565b91506116d6836110e0565b9250826116e6576116e5611691565b5b828204905092915050565b7f536166654d6174683a206d756c7469706c69636174696f6e206f766572666c6f60008201527f7700000000000000000000000000000000000000000000000000000000000000602082015250565b600061174d6021836113de565b9150611758826116f1565b604082019050919050565b6000602082019050818103600083015261177c81611740565b9050919050565b7f536166654d6174683a206469766973696f6e206279207a65726f000000000000600082015250565b60006117b9601a836113de565b91506117c482611783565b602082019050919050565b600060208201905081810360008301526117e8816117ac565b9050919050565b7f536166654d6174683a207375627472616374696f6e206f766572666c6f770000600082015250565b6000611825601e836113de565b9150611830826117ef565b602082019050919050565b6000602082019050818103600083015261185481611818565b9050919050565b6000611866826110e0565b9150611871836110e0565b92508282039050818111156118895761188861134c565b5b92915050565b7f5361666545524332303a207472616e73666572206661696c6564000000000000600082015250565b60006118c5601a836113de565b91506118d08261188f565b602082019050919050565b600060208201905081810360008301526118f4816118b8565b9050919050565b7f536166654d6174683a206164646974696f6e206f766572666c6f770000000000600082015250565b6000611931601b836113de565b915061193c826118fb565b602082019050919050565b6000602082019050818103600083015261196081611924565b9050919050565b600060608201905061197c600083018661128d565b611989602083018561128d565b61199660408301846111a2565b949350505050565b7f5361666545524332303a207472616e7366657246726f6d206661696c65640000600082015250565b60006119d4601e836113de565b91506119df8261199e565b602082019050919050565b60006020820190508181036000830152611a03816119c7565b905091905056fea2646970667358221220e72aadb3e4f9809582e44ee27c8fb95862a0405087c61bebf343ffa282e5f0ed64736f6c63430008120033",
					"opcodes": "PUSH1 0x80 PUSH1 0x40 MSTORE PUSH1 0x1 DUP1 SSTORE PUSH1 0x0 PUSH1 0x5 SSTORE PUSH1 0x0 PUSH1 0x6 SSTORE CALLVALUE DUP1 ISZERO PUSH3 0x1F JUMPI PUSH1 0x0 DUP1 REVERT JUMPDEST POP PUSH1 0x40 MLOAD PUSH3 0x1BCD CODESIZE SUB DUP1 PUSH3 0x1BCD DUP4 CODECOPY DUP2 DUP2 ADD PUSH1 0x40 MSTORE DUP2 ADD SWAP1 PUSH3 0x45 SWAP2 SWAP1 PUSH3 0x14B JUMP JUMPDEST DUP1 PUSH1 0x2 PUSH1 0x0 PUSH2 0x100 EXP DUP2 SLOAD DUP2 PUSH20 0xFFFFFFFFFFFFFFFFFFFFFFFFFFFFFFFFFFFFFFFF MUL NOT AND SWAP1 DUP4 PUSH20 0xFFFFFFFFFFFFFFFFFFFFFFFFFFFFFFFFFFFFFFFF AND MUL OR SWAP1 SSTORE POP CALLER PUSH1 0x0 DUP1 PUSH2 0x100 EXP DUP2 SLOAD DUP2 PUSH20 0xFFFFFFFFFFFFFFFFFFFFFFFFFFFFFFFFFFFFFFFF MUL NOT AND SWAP1 DUP4 PUSH20 0xFFFFFFFFFFFFFFFFFFFFFFFFFFFFFFFFFFFFFFFF AND MUL OR SWAP1 SSTORE POP POP PUSH3 0x17D JUMP JUMPDEST PUSH1 0x0 DUP1 REVERT JUMPDEST PUSH1 0x0 PUSH20 0xFFFFFFFFFFFFFFFFFFFFFFFFFFFFFFFFFFFFFFFF DUP3 AND SWAP1 POP SWAP2 SWAP1 POP JUMP JUMPDEST PUSH1 0x0 PUSH3 0xFF DUP3 PUSH3 0xD2 JUMP JUMPDEST SWAP1 POP SWAP2 SWAP1 POP JUMP JUMPDEST PUSH1 0x0 PUSH3 0x113 DUP3 PUSH3 0xF2 JUMP JUMPDEST SWAP1 POP SWAP2 SWAP1 POP JUMP JUMPDEST PUSH3 0x125 DUP2 PUSH3 0x106 JUMP JUMPDEST DUP2 EQ PUSH3 0x131 JUMPI PUSH1 0x0 DUP1 REVERT JUMPDEST POP JUMP JUMPDEST PUSH1 0x0 DUP2 MLOAD SWAP1 POP PUSH3 0x145 DUP2 PUSH3 0x11A JUMP JUMPDEST SWAP3 SWAP2 POP POP JUMP JUMPDEST PUSH1 0x0 PUSH1 0x20 DUP3 DUP5 SUB SLT ISZERO PUSH3 0x164 JUMPI PUSH3 0x163 PUSH3 0xCD JUMP JUMPDEST JUMPDEST PUSH1 0x0 PUSH3 0x174 DUP5 DUP3 DUP6 ADD PUSH3 0x134 JUMP JUMPDEST SWAP2 POP POP SWAP3 SWAP2 POP POP JUMP JUMPDEST PUSH2 0x1A40 DUP1 PUSH3 0x18D PUSH1 0x0 CODECOPY PUSH1 0x0 RETURN INVALID PUSH1 0x80 PUSH1 0x40 MSTORE CALLVALUE DUP1 ISZERO PUSH2 0x10 JUMPI PUSH1 0x0 DUP1 REVERT JUMPDEST POP PUSH1 0x4 CALLDATASIZE LT PUSH2 0xB4 JUMPI PUSH1 0x0 CALLDATALOAD PUSH1 0xE0 SHR DUP1 PUSH4 0x51EB05A6 GT PUSH2 0x71 JUMPI DUP1 PUSH4 0x51EB05A6 EQ PUSH2 0x17E JUMPI DUP1 PUSH4 0x647D209A EQ PUSH2 0x19A JUMPI DUP1 PUSH4 0x660325EC EQ PUSH2 0x1B6 JUMPI DUP1 PUSH4 0x8DA5CB5B EQ PUSH2 0x1D4 JUMPI DUP1 PUSH4 0x93F1A40B EQ PUSH2 0x1F2 JUMPI DUP1 PUSH4 0xE2BBB158 EQ PUSH2 0x223 JUMPI PUSH2 0xB4 JUMP JUMPDEST DUP1 PUSH4 0xA3B0A4F EQ PUSH2 0xB9 JUMPI DUP1 PUSH4 0x1526FE27 EQ PUSH2 0xD5 JUMPI DUP1 PUSH4 0x17CAF6F1 EQ PUSH2 0x108 JUMPI DUP1 PUSH4 0x441A3E70 EQ PUSH2 0x126 JUMPI DUP1 PUSH4 0x48AC86D0 EQ PUSH2 0x142 JUMPI DUP1 PUSH4 0x48CD4CB1 EQ PUSH2 0x160 JUMPI JUMPDEST PUSH1 0x0 DUP1 REVERT JUMPDEST PUSH2 0xD3 PUSH1 0x4 DUP1 CALLDATASIZE SUB DUP2 ADD SWAP1 PUSH2 0xCE SWAP2 SWAP1 PUSH2 0x10B3 JUMP JUMPDEST PUSH2 0x23F JUMP JUMPDEST STOP JUMPDEST PUSH2 0xEF PUSH1 0x4 DUP1 CALLDATASIZE SUB DUP2 ADD SWAP1 PUSH2 0xEA SWAP2 SWAP1 PUSH2 0x1116 JUMP JUMPDEST PUSH2 0x33A JUMP JUMPDEST PUSH1 0x40 MLOAD PUSH2 0xFF SWAP5 SWAP4 SWAP3 SWAP2 SWAP1 PUSH2 0x11B1 JUMP JUMPDEST PUSH1 0x40 MLOAD DUP1 SWAP2 SUB SWAP1 RETURN JUMPDEST PUSH2 0x110 PUSH2 0x39A JUMP JUMPDEST PUSH1 0x40 MLOAD PUSH2 0x11D SWAP2 SWAP1 PUSH2 0x11F6 JUMP JUMPDEST PUSH1 0x40 MLOAD DUP1 SWAP2 SUB SWAP1 RETURN JUMPDEST PUSH2 0x140 PUSH1 0x4 DUP1 CALLDATASIZE SUB DUP2 ADD SWAP1 PUSH2 0x13B SWAP2 SWAP1 PUSH2 0x1211 JUMP JUMPDEST PUSH2 0x3A0 JUMP JUMPDEST STOP JUMPDEST PUSH2 0x14A PUSH2 0x655 JUMP JUMPDEST PUSH1 0x40 MLOAD PUSH2 0x157 SWAP2 SWAP1 PUSH2 0x1272 JUMP JUMPDEST PUSH1 0x40 MLOAD DUP1 SWAP2 SUB SWAP1 RETURN JUMPDEST PUSH2 0x168 PUSH2 0x67B JUMP JUMPDEST PUSH1 0x40 MLOAD PUSH2 0x175 SWAP2 SWAP1 PUSH2 0x11F6 JUMP JUMPDEST PUSH1 0x40 MLOAD DUP1 SWAP2 SUB SWAP1 RETURN JUMPDEST PUSH2 0x198 PUSH1 0x4 DUP1 CALLDATASIZE SUB DUP2 ADD SWAP1 PUSH2 0x193 SWAP2 SWAP1 PUSH2 0x1116 JUMP JUMPDEST PUSH2 0x681 JUMP JUMPDEST STOP JUMPDEST PUSH2 0x1B4 PUSH1 0x4 DUP1 CALLDATASIZE SUB DUP2 ADD SWAP1 PUSH2 0x1AF SWAP2 SWAP1 PUSH2 0x1116 JUMP JUMPDEST PUSH2 0x96E JUMP JUMPDEST STOP JUMPDEST PUSH2 0x1BE PUSH2 0xA49 JUMP JUMPDEST PUSH1 0x40 MLOAD PUSH2 0x1CB SWAP2 SWAP1 PUSH2 0x11F6 JUMP JUMPDEST PUSH1 0x40 MLOAD DUP1 SWAP2 SUB SWAP1 RETURN JUMPDEST PUSH2 0x1DC PUSH2 0xA4F JUMP JUMPDEST PUSH1 0x40 MLOAD PUSH2 0x1E9 SWAP2 SWAP1 PUSH2 0x129C JUMP JUMPDEST PUSH1 0x40 MLOAD DUP1 SWAP2 SUB SWAP1 RETURN JUMPDEST PUSH2 0x20C PUSH1 0x4 DUP1 CALLDATASIZE SUB DUP2 ADD SWAP1 PUSH2 0x207 SWAP2 SWAP1 PUSH2 0x12E3 JUMP JUMPDEST PUSH2 0xA73 JUMP JUMPDEST PUSH1 0x40 MLOAD PUSH2 0x21A SWAP3 SWAP2 SWAP1 PUSH2 0x1323 JUMP JUMPDEST PUSH1 0x40 MLOAD DUP1 SWAP2 SUB SWAP1 RETURN JUMPDEST PUSH2 0x23D PUSH1 0x4 DUP1 CALLDATASIZE SUB DUP2 ADD SWAP1 PUSH2 0x238 SWAP2 SWAP1 PUSH2 0x1211 JUMP JUMPDEST PUSH2 0xAA4 JUMP JUMPDEST STOP JUMPDEST PUSH1 0x0 PUSH1 0x6 SLOAD NUMBER GT PUSH2 0x252 JUMPI PUSH1 0x6 SLOAD PUSH2 0x254 JUMP JUMPDEST NUMBER JUMPDEST SWAP1 POP PUSH1 0x64 PUSH1 0x5 SLOAD PUSH2 0x265 SWAP2 SWAP1 PUSH2 0x137B JUMP JUMPDEST PUSH1 0x5 DUP2 SWAP1 SSTORE POP PUSH1 0x3 PUSH1 0x40 MLOAD DUP1 PUSH1 0x80 ADD PUSH1 0x40 MSTORE DUP1 DUP5 PUSH20 0xFFFFFFFFFFFFFFFFFFFFFFFFFFFFFFFFFFFFFFFF AND DUP2 MSTORE PUSH1 0x20 ADD PUSH1 0x64 DUP2 MSTORE PUSH1 0x20 ADD DUP4 DUP2 MSTORE PUSH1 0x20 ADD PUSH1 0x0 DUP2 MSTORE POP SWAP1 DUP1 PUSH1 0x1 DUP2 SLOAD ADD DUP1 DUP3 SSTORE DUP1 SWAP2 POP POP PUSH1 0x1 SWAP1 SUB SWAP1 PUSH1 0x0 MSTORE PUSH1 0x20 PUSH1 0x0 KECCAK256 SWAP1 PUSH1 0x4 MUL ADD PUSH1 0x0 SWAP1 SWAP2 SWAP1 SWAP2 SWAP1 SWAP2 POP PUSH1 0x0 DUP3 ADD MLOAD DUP2 PUSH1 0x0 ADD PUSH1 0x0 PUSH2 0x100 EXP DUP2 SLOAD DUP2 PUSH20 0xFFFFFFFFFFFFFFFFFFFFFFFFFFFFFFFFFFFFFFFF MUL NOT AND SWAP1 DUP4 PUSH20 0xFFFFFFFFFFFFFFFFFFFFFFFFFFFFFFFFFFFFFFFF AND MUL OR SWAP1 SSTORE POP PUSH1 0x20 DUP3 ADD MLOAD DUP2 PUSH1 0x1 ADD SSTORE PUSH1 0x40 DUP3 ADD MLOAD DUP2 PUSH1 0x2 ADD SSTORE PUSH1 0x60 DUP3 ADD MLOAD DUP2 PUSH1 0x3 ADD SSTORE POP POP POP POP JUMP JUMPDEST PUSH1 0x3 DUP2 DUP2 SLOAD DUP2 LT PUSH2 0x34A JUMPI PUSH1 0x0 DUP1 REVERT JUMPDEST SWAP1 PUSH1 0x0 MSTORE PUSH1 0x20 PUSH1 0x0 KECCAK256 SWAP1 PUSH1 0x4 MUL ADD PUSH1 0x0 SWAP2 POP SWAP1 POP DUP1 PUSH1 0x0 ADD PUSH1 0x0 SWAP1 SLOAD SWAP1 PUSH2 0x100 EXP SWAP1 DIV PUSH20 0xFFFFFFFFFFFFFFFFFFFFFFFFFFFFFFFFFFFFFFFF AND SWAP1 DUP1 PUSH1 0x1 ADD SLOAD SWAP1 DUP1 PUSH1 0x2 ADD SLOAD SWAP1 DUP1 PUSH1 0x3 ADD SLOAD SWAP1 POP DUP5 JUMP JUMPDEST PUSH1 0x5 SLOAD DUP2 JUMP JUMPDEST PUSH1 0x0 PUSH1 0x3 DUP4 DUP2 SLOAD DUP2 LT PUSH2 0x3B6 JUMPI PUSH2 0x3B5 PUSH2 0x13AF JUMP JUMPDEST JUMPDEST SWAP1 PUSH1 0x0 MSTORE PUSH1 0x20 PUSH1 0x0 KECCAK256 SWAP1 PUSH1 0x4 MUL ADD SWAP1 POP PUSH1 0x0 PUSH1 0x4 PUSH1 0x0 DUP6 DUP2 MSTORE PUSH1 0x20 ADD SWAP1 DUP2 MSTORE PUSH1 0x20 ADD PUSH1 0x0 KECCAK256 PUSH1 0x0 CALLER PUSH20 0xFFFFFFFFFFFFFFFFFFFFFFFFFFFFFFFFFFFFFFFF AND PUSH20 0xFFFFFFFFFFFFFFFFFFFFFFFFFFFFFFFFFFFFFFFF AND DUP2 MSTORE PUSH1 0x20 ADD SWAP1 DUP2 MSTORE PUSH1 0x20 ADD PUSH1 0x0 KECCAK256 SWAP1 POP DUP3 DUP2 PUSH1 0x0 ADD SLOAD LT ISZERO PUSH2 0x461 JUMPI PUSH1 0x40 MLOAD PUSH32 0x8C379A000000000000000000000000000000000000000000000000000000000 DUP2 MSTORE PUSH1 0x4 ADD PUSH2 0x458 SWAP1 PUSH2 0x143B JUMP JUMPDEST PUSH1 0x40 MLOAD DUP1 SWAP2 SUB SWAP1 REVERT JUMPDEST PUSH2 0x46A DUP5 PUSH2 0x681 JUMP JUMPDEST PUSH1 0x0 PUSH2 0x4B4 DUP3 PUSH1 0x1 ADD SLOAD PUSH2 0x4A6 PUSH5 0xE8D4A51000 PUSH2 0x498 DUP8 PUSH1 0x3 ADD SLOAD DUP8 PUSH1 0x0 ADD SLOAD PUSH2 0xD22 SWAP1 SWAP2 SWAP1 PUSH4 0xFFFFFFFF AND JUMP JUMPDEST PUSH2 0xD9C SWAP1 SWAP2 SWAP1 PUSH4 0xFFFFFFFF AND JUMP JUMPDEST PUSH2 0xDFA SWAP1 SWAP2 SWAP1 PUSH4 0xFFFFFFFF AND JUMP JUMPDEST SWAP1 POP PUSH1 0x2 PUSH1 0x0 SWAP1 SLOAD SWAP1 PUSH2 0x100 EXP SWAP1 DIV PUSH20 0xFFFFFFFFFFFFFFFFFFFFFFFFFFFFFFFFFFFFFFFF AND PUSH20 0xFFFFFFFFFFFFFFFFFFFFFFFFFFFFFFFFFFFFFFFF AND PUSH4 0xA9059CBB CALLER DUP4 PUSH1 0x40 MLOAD DUP4 PUSH4 0xFFFFFFFF AND PUSH1 0xE0 SHL DUP2 MSTORE PUSH1 0x4 ADD PUSH2 0x513 SWAP3 SWAP2 SWAP1 PUSH2 0x145B JUMP JUMPDEST PUSH1 0x20 PUSH1 0x40 MLOAD DUP1 DUP4 SUB DUP2 PUSH1 0x0 DUP8 GAS CALL ISZERO DUP1 ISZERO PUSH2 0x532 JUMPI RETURNDATASIZE PUSH1 0x0 DUP1 RETURNDATACOPY RETURNDATASIZE PUSH1 0x0 REVERT JUMPDEST POP POP POP POP PUSH1 0x40 MLOAD RETURNDATASIZE PUSH1 0x1F NOT PUSH1 0x1F DUP3 ADD AND DUP3 ADD DUP1 PUSH1 0x40 MSTORE POP DUP2 ADD SWAP1 PUSH2 0x556 SWAP2 SWAP1 PUSH2 0x14BC JUMP JUMPDEST POP PUSH2 0x56E DUP5 DUP4 PUSH1 0x0 ADD SLOAD PUSH2 0xDFA SWAP1 SWAP2 SWAP1 PUSH4 0xFFFFFFFF AND JUMP JUMPDEST DUP3 PUSH1 0x0 ADD DUP2 SWAP1 SSTORE POP PUSH2 0x5A8 PUSH5 0xE8D4A51000 PUSH2 0x59A DUP6 PUSH1 0x3 ADD SLOAD DUP6 PUSH1 0x0 ADD SLOAD PUSH2 0xD22 SWAP1 SWAP2 SWAP1 PUSH4 0xFFFFFFFF AND JUMP JUMPDEST PUSH2 0xD9C SWAP1 SWAP2 SWAP1 PUSH4 0xFFFFFFFF AND JUMP JUMPDEST DUP3 PUSH1 0x1 ADD DUP2 SWAP1 SSTORE POP PUSH2 0x5FF CALLER DUP6 DUP6 PUSH1 0x0 ADD PUSH1 0x0 SWAP1 SLOAD SWAP1 PUSH2 0x100 EXP SWAP1 DIV PUSH20 0xFFFFFFFFFFFFFFFFFFFFFFFFFFFFFFFFFFFFFFFF AND PUSH20 0xFFFFFFFFFFFFFFFFFFFFFFFFFFFFFFFFFFFFFFFF AND PUSH2 0xE59 SWAP1 SWAP3 SWAP2 SWAP1 PUSH4 0xFFFFFFFF AND JUMP JUMPDEST DUP5 CALLER PUSH20 0xFFFFFFFFFFFFFFFFFFFFFFFFFFFFFFFFFFFFFFFF AND PUSH32 0xF279E6A1F5E320CCA91135676D9CB6E44CA8A08C0B88342BCDB1144F6511B568 DUP7 PUSH1 0x40 MLOAD PUSH2 0x646 SWAP2 SWAP1 PUSH2 0x11F6 JUMP JUMPDEST PUSH1 0x40 MLOAD DUP1 SWAP2 SUB SWAP1 LOG3 POP POP POP POP POP JUMP JUMPDEST PUSH1 0x2 PUSH1 0x0 SWAP1 SLOAD SWAP1 PUSH2 0x100 EXP SWAP1 DIV PUSH20 0xFFFFFFFFFFFFFFFFFFFFFFFFFFFFFFFFFFFFFFFF AND DUP2 JUMP JUMPDEST PUSH1 0x6 SLOAD DUP2 JUMP JUMPDEST PUSH1 0x0 PUSH1 0x3 DUP3 DUP2 SLOAD DUP2 LT PUSH2 0x697 JUMPI PUSH2 0x696 PUSH2 0x13AF JUMP JUMPDEST JUMPDEST SWAP1 PUSH1 0x0 MSTORE PUSH1 0x20 PUSH1 0x0 KECCAK256 SWAP1 PUSH1 0x4 MUL ADD SWAP1 POP DUP1 PUSH1 0x2 ADD SLOAD NUMBER GT PUSH2 0x6B8 JUMPI POP PUSH2 0x96B JUMP JUMPDEST PUSH1 0x0 DUP2 PUSH1 0x0 ADD PUSH1 0x0 SWAP1 SLOAD SWAP1 PUSH2 0x100 EXP SWAP1 DIV PUSH20 0xFFFFFFFFFFFFFFFFFFFFFFFFFFFFFFFFFFFFFFFF AND PUSH20 0xFFFFFFFFFFFFFFFFFFFFFFFFFFFFFFFFFFFFFFFF AND PUSH4 0x70A08231 ADDRESS PUSH1 0x40 MLOAD DUP3 PUSH4 0xFFFFFFFF AND PUSH1 0xE0 SHL DUP2 MSTORE PUSH1 0x4 ADD PUSH2 0x717 SWAP2 SWAP1 PUSH2 0x129C JUMP JUMPDEST PUSH1 0x20 PUSH1 0x40 MLOAD DUP1 DUP4 SUB DUP2 DUP7 GAS STATICCALL ISZERO DUP1 ISZERO PUSH2 0x734 JUMPI RETURNDATASIZE PUSH1 0x0 DUP1 RETURNDATACOPY RETURNDATASIZE PUSH1 0x0 REVERT JUMPDEST POP POP POP POP PUSH1 0x40 MLOAD RETURNDATASIZE PUSH1 0x1F NOT PUSH1 0x1F DUP3 ADD AND DUP3 ADD DUP1 PUSH1 0x40 MSTORE POP DUP2 ADD SWAP1 PUSH2 0x758 SWAP2 SWAP1 PUSH2 0x14FE JUMP JUMPDEST SWAP1 POP PUSH1 0x0 DUP2 SUB PUSH2 0x772 JUMPI NUMBER DUP3 PUSH1 0x2 ADD DUP2 SWAP1 SSTORE POP POP POP PUSH2 0x96B JUMP JUMPDEST PUSH1 0x0 PUSH2 0x78B DUP4 PUSH1 0x2 ADD SLOAD NUMBER PUSH2 0xDFA SWAP1 SWAP2 SWAP1 PUSH4 0xFFFFFFFF AND JUMP JUMPDEST SWAP1 POP PUSH1 0x0 PUSH2 0x7CE PUSH1 0x5 SLOAD PUSH2 0x7C0 DUP7 PUSH1 0x1 ADD SLOAD PUSH2 0x7B2 PUSH1 0x1 SLOAD DUP8 PUSH2 0xD22 SWAP1 SWAP2 SWAP1 PUSH4 0xFFFFFFFF AND JUMP JUMPDEST PUSH2 0xD22 SWAP1 SWAP2 SWAP1 PUSH4 0xFFFFFFFF AND JUMP JUMPDEST PUSH2 0xD9C SWAP1 SWAP2 SWAP1 PUSH4 0xFFFFFFFF AND JUMP JUMPDEST SWAP1 POP PUSH1 0x2 PUSH1 0x0 SWAP1 SLOAD SWAP1 PUSH2 0x100 EXP SWAP1 DIV PUSH20 0xFFFFFFFFFFFFFFFFFFFFFFFFFFFFFFFFFFFFFFFF AND PUSH20 0xFFFFFFFFFFFFFFFFFFFFFFFFFFFFFFFFFFFFFFFF AND PUSH4 0x40C10F19 PUSH20 0x866A36025F852BBA70F2D857E9A9E5E290040610 PUSH2 0x837 PUSH1 0xA DUP6 PUSH2 0xD9C SWAP1 SWAP2 SWAP1 PUSH4 0xFFFFFFFF AND JUMP JUMPDEST PUSH1 0x40 MLOAD DUP4 PUSH4 0xFFFFFFFF AND PUSH1 0xE0 SHL DUP2 MSTORE PUSH1 0x4 ADD PUSH2 0x854 SWAP3 SWAP2 SWAP1 PUSH2 0x145B JUMP JUMPDEST PUSH1 0x0 PUSH1 0x40 MLOAD DUP1 DUP4 SUB DUP2 PUSH1 0x0 DUP8 DUP1 EXTCODESIZE ISZERO DUP1 ISZERO PUSH2 0x86E JUMPI PUSH1 0x0 DUP1 REVERT JUMPDEST POP GAS CALL ISZERO DUP1 ISZERO PUSH2 0x882 JUMPI RETURNDATASIZE PUSH1 0x0 DUP1 RETURNDATACOPY RETURNDATASIZE PUSH1 0x0 REVERT JUMPDEST POP POP POP POP PUSH1 0x2 PUSH1 0x0 SWAP1 SLOAD SWAP1 PUSH2 0x100 EXP SWAP1 DIV PUSH20 0xFFFFFFFFFFFFFFFFFFFFFFFFFFFFFFFFFFFFFFFF AND PUSH20 0xFFFFFFFFFFFFFFFFFFFFFFFFFFFFFFFFFFFFFFFF AND PUSH4 0x40C10F19 ADDRESS DUP4 PUSH1 0x40 MLOAD DUP4 PUSH4 0xFFFFFFFF AND PUSH1 0xE0 SHL DUP2 MSTORE PUSH1 0x4 ADD PUSH2 0x8E3 SWAP3 SWAP2 SWAP1 PUSH2 0x145B JUMP JUMPDEST PUSH1 0x0 PUSH1 0x40 MLOAD DUP1 DUP4 SUB DUP2 PUSH1 0x0 DUP8 DUP1 EXTCODESIZE ISZERO DUP1 ISZERO PUSH2 0x8FD JUMPI PUSH1 0x0 DUP1 REVERT JUMPDEST POP GAS CALL ISZERO DUP1 ISZERO PUSH2 0x911 JUMPI RETURNDATASIZE PUSH1 0x0 DUP1 RETURNDATACOPY RETURNDATASIZE PUSH1 0x0 REVERT JUMPDEST POP POP POP POP PUSH2 0x955 PUSH2 0x942 DUP5 PUSH2 0x934 PUSH5 0xE8D4A51000 DUP6 PUSH2 0xD22 SWAP1 SWAP2 SWAP1 PUSH4 0xFFFFFFFF AND JUMP JUMPDEST PUSH2 0xD9C SWAP1 SWAP2 SWAP1 PUSH4 0xFFFFFFFF AND JUMP JUMPDEST DUP6 PUSH1 0x3 ADD SLOAD PUSH2 0xF1B SWAP1 SWAP2 SWAP1 PUSH4 0xFFFFFFFF AND JUMP JUMPDEST DUP5 PUSH1 0x3 ADD DUP2 SWAP1 SSTORE POP NUMBER DUP5 PUSH1 0x2 ADD DUP2 SWAP1 SSTORE POP POP POP POP POP JUMPDEST POP JUMP JUMPDEST PUSH1 0x0 DUP1 SLOAD SWAP1 PUSH2 0x100 EXP SWAP1 DIV PUSH20 0xFFFFFFFFFFFFFFFFFFFFFFFFFFFFFFFFFFFFFFFF AND PUSH20 0xFFFFFFFFFFFFFFFFFFFFFFFFFFFFFFFFFFFFFFFF AND CALLER PUSH20 0xFFFFFFFFFFFFFFFFFFFFFFFFFFFFFFFFFFFFFFFF AND EQ PUSH2 0x9FC JUMPI PUSH1 0x40 MLOAD PUSH32 0x8C379A000000000000000000000000000000000000000000000000000000000 DUP2 MSTORE PUSH1 0x4 ADD PUSH2 0x9F3 SWAP1 PUSH2 0x159D JUMP JUMPDEST PUSH1 0x40 MLOAD DUP1 SWAP2 SUB SWAP1 REVERT JUMPDEST PUSH1 0x0 DUP2 GT PUSH2 0xA3F JUMPI PUSH1 0x40 MLOAD PUSH32 0x8C379A000000000000000000000000000000000000000000000000000000000 DUP2 MSTORE PUSH1 0x4 ADD PUSH2 0xA36 SWAP1 PUSH2 0x162F JUMP JUMPDEST PUSH1 0x40 MLOAD DUP1 SWAP2 SUB SWAP1 REVERT JUMPDEST DUP1 PUSH1 0x1 DUP2 SWAP1 SSTORE POP POP JUMP JUMPDEST PUSH1 0x1 SLOAD DUP2 JUMP JUMPDEST PUSH1 0x0 DUP1 SLOAD SWAP1 PUSH2 0x100 EXP SWAP1 DIV PUSH20 0xFFFFFFFFFFFFFFFFFFFFFFFFFFFFFFFFFFFFFFFF AND DUP2 JUMP JUMPDEST PUSH1 0x4 PUSH1 0x20 MSTORE DUP2 PUSH1 0x0 MSTORE PUSH1 0x40 PUSH1 0x0 KECCAK256 PUSH1 0x20 MSTORE DUP1 PUSH1 0x0 MSTORE PUSH1 0x40 PUSH1 0x0 KECCAK256 PUSH1 0x0 SWAP2 POP SWAP2 POP POP DUP1 PUSH1 0x0 ADD SLOAD SWAP1 DUP1 PUSH1 0x1 ADD SLOAD SWAP1 POP DUP3 JUMP JUMPDEST PUSH1 0x0 PUSH1 0x3 DUP4 DUP2 SLOAD DUP2 LT PUSH2 0xABA JUMPI PUSH2 0xAB9 PUSH2 0x13AF JUMP JUMPDEST JUMPDEST SWAP1 PUSH1 0x0 MSTORE PUSH1 0x20 PUSH1 0x0 KECCAK256 SWAP1 PUSH1 0x4 MUL ADD SWAP1 POP PUSH1 0x0 PUSH1 0x4 PUSH1 0x0 DUP6 DUP2 MSTORE PUSH1 0x20 ADD SWAP1 DUP2 MSTORE PUSH1 0x20 ADD PUSH1 0x0 KECCAK256 PUSH1 0x0 CALLER PUSH20 0xFFFFFFFFFFFFFFFFFFFFFFFFFFFFFFFFFFFFFFFF AND PUSH20 0xFFFFFFFFFFFFFFFFFFFFFFFFFFFFFFFFFFFFFFFF AND DUP2 MSTORE PUSH1 0x20 ADD SWAP1 DUP2 MSTORE PUSH1 0x20 ADD PUSH1 0x0 KECCAK256 SWAP1 POP PUSH2 0xB27 DUP5 PUSH2 0x681 JUMP JUMPDEST PUSH1 0x0 DUP2 PUSH1 0x0 ADD SLOAD GT ISZERO PUSH2 0xC23 JUMPI PUSH1 0x0 PUSH2 0xB7E DUP3 PUSH1 0x1 ADD SLOAD PUSH2 0xB70 PUSH5 0xE8D4A51000 PUSH2 0xB62 DUP8 PUSH1 0x3 ADD SLOAD DUP8 PUSH1 0x0 ADD SLOAD PUSH2 0xD22 SWAP1 SWAP2 SWAP1 PUSH4 0xFFFFFFFF AND JUMP JUMPDEST PUSH2 0xD9C SWAP1 SWAP2 SWAP1 PUSH4 0xFFFFFFFF AND JUMP JUMPDEST PUSH2 0xDFA SWAP1 SWAP2 SWAP1 PUSH4 0xFFFFFFFF AND JUMP JUMPDEST SWAP1 POP PUSH1 0x2 PUSH1 0x0 SWAP1 SLOAD SWAP1 PUSH2 0x100 EXP SWAP1 DIV PUSH20 0xFFFFFFFFFFFFFFFFFFFFFFFFFFFFFFFFFFFFFFFF AND PUSH20 0xFFFFFFFFFFFFFFFFFFFFFFFFFFFFFFFFFFFFFFFF AND PUSH4 0xA9059CBB CALLER DUP4 PUSH1 0x40 MLOAD DUP4 PUSH4 0xFFFFFFFF AND PUSH1 0xE0 SHL DUP2 MSTORE PUSH1 0x4 ADD PUSH2 0xBDD SWAP3 SWAP2 SWAP1 PUSH2 0x145B JUMP JUMPDEST PUSH1 0x20 PUSH1 0x40 MLOAD DUP1 DUP4 SUB DUP2 PUSH1 0x0 DUP8 GAS CALL ISZERO DUP1 ISZERO PUSH2 0xBFC JUMPI RETURNDATASIZE PUSH1 0x0 DUP1 RETURNDATACOPY RETURNDATASIZE PUSH1 0x0 REVERT JUMPDEST POP POP POP POP PUSH1 0x40 MLOAD RETURNDATASIZE PUSH1 0x1F NOT PUSH1 0x1F DUP3 ADD AND DUP3 ADD DUP1 PUSH1 0x40 MSTORE POP DUP2 ADD SWAP1 PUSH2 0xC20 SWAP2 SWAP1 PUSH2 0x14BC JUMP JUMPDEST POP POP JUMPDEST PUSH2 0xC74 CALLER ADDRESS DUP6 DUP6 PUSH1 0x0 ADD PUSH1 0x0 SWAP1 SLOAD SWAP1 PUSH2 0x100 EXP SWAP1 DIV PUSH20 0xFFFFFFFFFFFFFFFFFFFFFFFFFFFFFFFFFFFFFFFF AND PUSH20 0xFFFFFFFFFFFFFFFFFFFFFFFFFFFFFFFFFFFFFFFF AND PUSH2 0xF79 SWAP1 SWAP4 SWAP3 SWAP2 SWAP1 PUSH4 0xFFFFFFFF AND JUMP JUMPDEST PUSH2 0xC8B DUP4 DUP3 PUSH1 0x0 ADD SLOAD PUSH2 0xF1B SWAP1 SWAP2 SWAP1 PUSH4 0xFFFFFFFF AND JUMP JUMPDEST DUP2 PUSH1 0x0 ADD DUP2 SWAP1 SSTORE POP PUSH2 0xCC5 PUSH5 0xE8D4A51000 PUSH2 0xCB7 DUP5 PUSH1 0x3 ADD SLOAD DUP5 PUSH1 0x0 ADD SLOAD PUSH2 0xD22 SWAP1 SWAP2 SWAP1 PUSH4 0xFFFFFFFF AND JUMP JUMPDEST PUSH2 0xD9C SWAP1 SWAP2 SWAP1 PUSH4 0xFFFFFFFF AND JUMP JUMPDEST DUP2 PUSH1 0x1 ADD DUP2 SWAP1 SSTORE POP DUP4 CALLER PUSH20 0xFFFFFFFFFFFFFFFFFFFFFFFFFFFFFFFFFFFFFFFF AND PUSH32 0x90890809C654F11D6E72A28FA60149770A0D11EC6C92319D6CEB2BB0A4EA1A15 DUP6 PUSH1 0x40 MLOAD PUSH2 0xD14 SWAP2 SWAP1 PUSH2 0x11F6 JUMP JUMPDEST PUSH1 0x40 MLOAD DUP1 SWAP2 SUB SWAP1 LOG3 POP POP POP POP JUMP JUMPDEST PUSH1 0x0 DUP1 DUP4 SUB PUSH2 0xD34 JUMPI PUSH1 0x0 SWAP1 POP PUSH2 0xD96 JUMP JUMPDEST PUSH1 0x0 DUP3 DUP5 PUSH2 0xD42 SWAP2 SWAP1 PUSH2 0x164F JUMP JUMPDEST SWAP1 POP DUP3 DUP5 DUP3 PUSH2 0xD51 SWAP2 SWAP1 PUSH2 0x16C0 JUMP JUMPDEST EQ PUSH2 0xD91 JUMPI PUSH1 0x40 MLOAD PUSH32 0x8C379A000000000000000000000000000000000000000000000000000000000 DUP2 MSTORE PUSH1 0x4 ADD PUSH2 0xD88 SWAP1 PUSH2 0x1763 JUMP JUMPDEST PUSH1 0x40 MLOAD DUP1 SWAP2 SUB SWAP1 REVERT JUMPDEST DUP1 SWAP2 POP POP JUMPDEST SWAP3 SWAP2 POP POP JUMP JUMPDEST PUSH1 0x0 DUP1 DUP3 GT PUSH2 0xDE0 JUMPI PUSH1 0x40 MLOAD PUSH32 0x8C379A000000000000000000000000000000000000000000000000000000000 DUP2 MSTORE PUSH1 0x4 ADD PUSH2 0xDD7 SWAP1 PUSH2 0x17CF JUMP JUMPDEST PUSH1 0x40 MLOAD DUP1 SWAP2 SUB SWAP1 REVERT JUMPDEST PUSH1 0x0 DUP3 DUP5 PUSH2 0xDEE SWAP2 SWAP1 PUSH2 0x16C0 JUMP JUMPDEST SWAP1 POP DUP1 SWAP2 POP POP SWAP3 SWAP2 POP POP JUMP JUMPDEST PUSH1 0x0 DUP3 DUP3 GT ISZERO PUSH2 0xE3F JUMPI PUSH1 0x40 MLOAD PUSH32 0x8C379A000000000000000000000000000000000000000000000000000000000 DUP2 MSTORE PUSH1 0x4 ADD PUSH2 0xE36 SWAP1 PUSH2 0x183B JUMP JUMPDEST PUSH1 0x40 MLOAD DUP1 SWAP2 SUB SWAP1 REVERT JUMPDEST PUSH1 0x0 DUP3 DUP5 PUSH2 0xE4D SWAP2 SWAP1 PUSH2 0x185B JUMP JUMPDEST SWAP1 POP DUP1 SWAP2 POP POP SWAP3 SWAP2 POP POP JUMP JUMPDEST DUP3 PUSH20 0xFFFFFFFFFFFFFFFFFFFFFFFFFFFFFFFFFFFFFFFF AND PUSH4 0xA9059CBB DUP4 DUP4 PUSH1 0x40 MLOAD DUP4 PUSH4 0xFFFFFFFF AND PUSH1 0xE0 SHL DUP2 MSTORE PUSH1 0x4 ADD PUSH2 0xE94 SWAP3 SWAP2 SWAP1 PUSH2 0x145B JUMP JUMPDEST PUSH1 0x20 PUSH1 0x40 MLOAD DUP1 DUP4 SUB DUP2 PUSH1 0x0 DUP8 GAS CALL ISZERO DUP1 ISZERO PUSH2 0xEB3 JUMPI RETURNDATASIZE PUSH1 0x0 DUP1 RETURNDATACOPY RETURNDATASIZE PUSH1 0x0 REVERT JUMPDEST POP POP POP POP PUSH1 0x40 MLOAD RETURNDATASIZE PUSH1 0x1F NOT PUSH1 0x1F DUP3 ADD AND DUP3 ADD DUP1 PUSH1 0x40 MSTORE POP DUP2 ADD SWAP1 PUSH2 0xED7 SWAP2 SWAP1 PUSH2 0x14BC JUMP JUMPDEST PUSH2 0xF16 JUMPI PUSH1 0x40 MLOAD PUSH32 0x8C379A000000000000000000000000000000000000000000000000000000000 DUP2 MSTORE PUSH1 0x4 ADD PUSH2 0xF0D SWAP1 PUSH2 0x18DB JUMP JUMPDEST PUSH1 0x40 MLOAD DUP1 SWAP2 SUB SWAP1 REVERT JUMPDEST POP POP POP JUMP JUMPDEST PUSH1 0x0 DUP1 DUP3 DUP5 PUSH2 0xF2A SWAP2 SWAP1 PUSH2 0x137B JUMP JUMPDEST SWAP1 POP DUP4 DUP2 LT ISZERO PUSH2 0xF6F JUMPI PUSH1 0x40 MLOAD PUSH32 0x8C379A000000000000000000000000000000000000000000000000000000000 DUP2 MSTORE PUSH1 0x4 ADD PUSH2 0xF66 SWAP1 PUSH2 0x1947 JUMP JUMPDEST PUSH1 0x40 MLOAD DUP1 SWAP2 SUB SWAP1 REVERT JUMPDEST DUP1 SWAP2 POP POP SWAP3 SWAP2 POP POP JUMP JUMPDEST DUP4 PUSH20 0xFFFFFFFFFFFFFFFFFFFFFFFFFFFFFFFFFFFFFFFF AND PUSH4 0x23B872DD DUP5 DUP5 DUP5 PUSH1 0x40 MLOAD DUP5 PUSH4 0xFFFFFFFF AND PUSH1 0xE0 SHL DUP2 MSTORE PUSH1 0x4 ADD PUSH2 0xFB6 SWAP4 SWAP3 SWAP2 SWAP1 PUSH2 0x1967 JUMP JUMPDEST PUSH1 0x20 PUSH1 0x40 MLOAD DUP1 DUP4 SUB DUP2 PUSH1 0x0 DUP8 GAS CALL ISZERO DUP1 ISZERO PUSH2 0xFD5 JUMPI RETURNDATASIZE PUSH1 0x0 DUP1 RETURNDATACOPY RETURNDATASIZE PUSH1 0x0 REVERT JUMPDEST POP POP POP POP PUSH1 0x40 MLOAD RETURNDATASIZE PUSH1 0x1F NOT PUSH1 0x1F DUP3 ADD AND DUP3 ADD DUP1 PUSH1 0x40 MSTORE POP DUP2 ADD SWAP1 PUSH2 0xFF9 SWAP2 SWAP1 PUSH2 0x14BC JUMP JUMPDEST PUSH2 0x1038 JUMPI PUSH1 0x40 MLOAD PUSH32 0x8C379A000000000000000000000000000000000000000000000000000000000 DUP2 MSTORE PUSH1 0x4 ADD PUSH2 0x102F SWAP1 PUSH2 0x19EA JUMP JUMPDEST PUSH1 0x40 MLOAD DUP1 SWAP2 SUB SWAP1 REVERT JUMPDEST POP POP POP POP JUMP JUMPDEST PUSH1 0x0 DUP1 REVERT JUMPDEST PUSH1 0x0 PUSH20 0xFFFFFFFFFFFFFFFFFFFFFFFFFFFFFFFFFFFFFFFF DUP3 AND SWAP1 POP SWAP2 SWAP1 POP JUMP JUMPDEST PUSH1 0x0 PUSH2 0x106E DUP3 PUSH2 0x1043 JUMP JUMPDEST SWAP1 POP SWAP2 SWAP1 POP JUMP JUMPDEST PUSH1 0x0 PUSH2 0x1080 DUP3 PUSH2 0x1063 JUMP JUMPDEST SWAP1 POP SWAP2 SWAP1 POP JUMP JUMPDEST PUSH2 0x1090 DUP2 PUSH2 0x1075 JUMP JUMPDEST DUP2 EQ PUSH2 0x109B JUMPI PUSH1 0x0 DUP1 REVERT JUMPDEST POP JUMP JUMPDEST PUSH1 0x0 DUP2 CALLDATALOAD SWAP1 POP PUSH2 0x10AD DUP2 PUSH2 0x1087 JUMP JUMPDEST SWAP3 SWAP2 POP POP JUMP JUMPDEST PUSH1 0x0 PUSH1 0x20 DUP3 DUP5 SUB SLT ISZERO PUSH2 0x10C9 JUMPI PUSH2 0x10C8 PUSH2 0x103E JUMP JUMPDEST JUMPDEST PUSH1 0x0 PUSH2 0x10D7 DUP5 DUP3 DUP6 ADD PUSH2 0x109E JUMP JUMPDEST SWAP2 POP POP SWAP3 SWAP2 POP POP JUMP JUMPDEST PUSH1 0x0 DUP2 SWAP1 POP SWAP2 SWAP1 POP JUMP JUMPDEST PUSH2 0x10F3 DUP2 PUSH2 0x10E0 JUMP JUMPDEST DUP2 EQ PUSH2 0x10FE JUMPI PUSH1 0x0 DUP1 REVERT JUMPDEST POP JUMP JUMPDEST PUSH1 0x0 DUP2 CALLDATALOAD SWAP1 POP PUSH2 0x1110 DUP2 PUSH2 0x10EA JUMP JUMPDEST SWAP3 SWAP2 POP POP JUMP JUMPDEST PUSH1 0x0 PUSH1 0x20 DUP3 DUP5 SUB SLT ISZERO PUSH2 0x112C JUMPI PUSH2 0x112B PUSH2 0x103E JUMP JUMPDEST JUMPDEST PUSH1 0x0 PUSH2 0x113A DUP5 DUP3 DUP6 ADD PUSH2 0x1101 JUMP JUMPDEST SWAP2 POP POP SWAP3 SWAP2 POP POP JUMP JUMPDEST PUSH1 0x0 DUP2 SWAP1 POP SWAP2 SWAP1 POP JUMP JUMPDEST PUSH1 0x0 PUSH2 0x1168 PUSH2 0x1163 PUSH2 0x115E DUP5 PUSH2 0x1043 JUMP JUMPDEST PUSH2 0x1143 JUMP JUMPDEST PUSH2 0x1043 JUMP JUMPDEST SWAP1 POP SWAP2 SWAP1 POP JUMP JUMPDEST PUSH1 0x0 PUSH2 0x117A DUP3 PUSH2 0x114D JUMP JUMPDEST SWAP1 POP SWAP2 SWAP1 POP JUMP JUMPDEST PUSH1 0x0 PUSH2 0x118C DUP3 PUSH2 0x116F JUMP JUMPDEST SWAP1 POP SWAP2 SWAP1 POP JUMP JUMPDEST PUSH2 0x119C DUP2 PUSH2 0x1181 JUMP JUMPDEST DUP3 MSTORE POP POP JUMP JUMPDEST PUSH2 0x11AB DUP2 PUSH2 0x10E0 JUMP JUMPDEST DUP3 MSTORE POP POP JUMP JUMPDEST PUSH1 0x0 PUSH1 0x80 DUP3 ADD SWAP1 POP PUSH2 0x11C6 PUSH1 0x0 DUP4 ADD DUP8 PUSH2 0x1193 JUMP JUMPDEST PUSH2 0x11D3 PUSH1 0x20 DUP4 ADD DUP7 PUSH2 0x11A2 JUMP JUMPDEST PUSH2 0x11E0 PUSH1 0x40 DUP4 ADD DUP6 PUSH2 0x11A2 JUMP JUMPDEST PUSH2 0x11ED PUSH1 0x60 DUP4 ADD DUP5 PUSH2 0x11A2 JUMP JUMPDEST SWAP6 SWAP5 POP POP POP POP POP JUMP JUMPDEST PUSH1 0x0 PUSH1 0x20 DUP3 ADD SWAP1 POP PUSH2 0x120B PUSH1 0x0 DUP4 ADD DUP5 PUSH2 0x11A2 JUMP JUMPDEST SWAP3 SWAP2 POP POP JUMP JUMPDEST PUSH1 0x0 DUP1 PUSH1 0x40 DUP4 DUP6 SUB SLT ISZERO PUSH2 0x1228 JUMPI PUSH2 0x1227 PUSH2 0x103E JUMP JUMPDEST JUMPDEST PUSH1 0x0 PUSH2 0x1236 DUP6 DUP3 DUP7 ADD PUSH2 0x1101 JUMP JUMPDEST SWAP3 POP POP PUSH1 0x20 PUSH2 0x1247 DUP6 DUP3 DUP7 ADD PUSH2 0x1101 JUMP JUMPDEST SWAP2 POP POP SWAP3 POP SWAP3 SWAP1 POP JUMP JUMPDEST PUSH1 0x0 PUSH2 0x125C DUP3 PUSH2 0x116F JUMP JUMPDEST SWAP1 POP SWAP2 SWAP1 POP JUMP JUMPDEST PUSH2 0x126C DUP2 PUSH2 0x1251 JUMP JUMPDEST DUP3 MSTORE POP POP JUMP JUMPDEST PUSH1 0x0 PUSH1 0x20 DUP3 ADD SWAP1 POP PUSH2 0x1287 PUSH1 0x0 DUP4 ADD DUP5 PUSH2 0x1263 JUMP JUMPDEST SWAP3 SWAP2 POP POP JUMP JUMPDEST PUSH2 0x1296 DUP2 PUSH2 0x1063 JUMP JUMPDEST DUP3 MSTORE POP POP JUMP JUMPDEST PUSH1 0x0 PUSH1 0x20 DUP3 ADD SWAP1 POP PUSH2 0x12B1 PUSH1 0x0 DUP4 ADD DUP5 PUSH2 0x128D JUMP JUMPDEST SWAP3 SWAP2 POP POP JUMP JUMPDEST PUSH2 0x12C0 DUP2 PUSH2 0x1063 JUMP JUMPDEST DUP2 EQ PUSH2 0x12CB JUMPI PUSH1 0x0 DUP1 REVERT JUMPDEST POP JUMP JUMPDEST PUSH1 0x0 DUP2 CALLDATALOAD SWAP1 POP PUSH2 0x12DD DUP2 PUSH2 0x12B7 JUMP JUMPDEST SWAP3 SWAP2 POP POP JUMP JUMPDEST PUSH1 0x0 DUP1 PUSH1 0x40 DUP4 DUP6 SUB SLT ISZERO PUSH2 0x12FA JUMPI PUSH2 0x12F9 PUSH2 0x103E JUMP JUMPDEST JUMPDEST PUSH1 0x0 PUSH2 0x1308 DUP6 DUP3 DUP7 ADD PUSH2 0x1101 JUMP JUMPDEST SWAP3 POP POP PUSH1 0x20 PUSH2 0x1319 DUP6 DUP3 DUP7 ADD PUSH2 0x12CE JUMP JUMPDEST SWAP2 POP POP SWAP3 POP SWAP3 SWAP1 POP JUMP JUMPDEST PUSH1 0x0 PUSH1 0x40 DUP3 ADD SWAP1 POP PUSH2 0x1338 PUSH1 0x0 DUP4 ADD DUP6 PUSH2 0x11A2 JUMP JUMPDEST PUSH2 0x1345 PUSH1 0x20 DUP4 ADD DUP5 PUSH2 0x11A2 JUMP JUMPDEST SWAP4 SWAP3 POP POP POP JUMP JUMPDEST PUSH32 0x4E487B7100000000000000000000000000000000000000000000000000000000 PUSH1 0x0 MSTORE PUSH1 0x11 PUSH1 0x4 MSTORE PUSH1 0x24 PUSH1 0x0 REVERT JUMPDEST PUSH1 0x0 PUSH2 0x1386 DUP3 PUSH2 0x10E0 JUMP JUMPDEST SWAP2 POP PUSH2 0x1391 DUP4 PUSH2 0x10E0 JUMP JUMPDEST SWAP3 POP DUP3 DUP3 ADD SWAP1 POP DUP1 DUP3 GT ISZERO PUSH2 0x13A9 JUMPI PUSH2 0x13A8 PUSH2 0x134C JUMP JUMPDEST JUMPDEST SWAP3 SWAP2 POP POP JUMP JUMPDEST PUSH32 0x4E487B7100000000000000000000000000000000000000000000000000000000 PUSH1 0x0 MSTORE PUSH1 0x32 PUSH1 0x4 MSTORE PUSH1 0x24 PUSH1 0x0 REVERT JUMPDEST PUSH1 0x0 DUP3 DUP3 MSTORE PUSH1 0x20 DUP3 ADD SWAP1 POP SWAP3 SWAP2 POP POP JUMP JUMPDEST PUSH32 0x57697468647261773A206E6F7420676F6F640000000000000000000000000000 PUSH1 0x0 DUP3 ADD MSTORE POP JUMP JUMPDEST PUSH1 0x0 PUSH2 0x1425 PUSH1 0x12 DUP4 PUSH2 0x13DE JUMP JUMPDEST SWAP2 POP PUSH2 0x1430 DUP3 PUSH2 0x13EF JUMP JUMPDEST PUSH1 0x20 DUP3 ADD SWAP1 POP SWAP2 SWAP1 POP JUMP JUMPDEST PUSH1 0x0 PUSH1 0x20 DUP3 ADD SWAP1 POP DUP2 DUP2 SUB PUSH1 0x0 DUP4 ADD MSTORE PUSH2 0x1454 DUP2 PUSH2 0x1418 JUMP JUMPDEST SWAP1 POP SWAP2 SWAP1 POP JUMP JUMPDEST PUSH1 0x0 PUSH1 0x40 DUP3 ADD SWAP1 POP PUSH2 0x1470 PUSH1 0x0 DUP4 ADD DUP6 PUSH2 0x128D JUMP JUMPDEST PUSH2 0x147D PUSH1 0x20 DUP4 ADD DUP5 PUSH2 0x11A2 JUMP JUMPDEST SWAP4 SWAP3 POP POP POP JUMP JUMPDEST PUSH1 0x0 DUP2 ISZERO ISZERO SWAP1 POP SWAP2 SWAP1 POP JUMP JUMPDEST PUSH2 0x1499 DUP2 PUSH2 0x1484 JUMP JUMPDEST DUP2 EQ PUSH2 0x14A4 JUMPI PUSH1 0x0 DUP1 REVERT JUMPDEST POP JUMP JUMPDEST PUSH1 0x0 DUP2 MLOAD SWAP1 POP PUSH2 0x14B6 DUP2 PUSH2 0x1490 JUMP JUMPDEST SWAP3 SWAP2 POP POP JUMP JUMPDEST PUSH1 0x0 PUSH1 0x20 DUP3 DUP5 SUB SLT ISZERO PUSH2 0x14D2 JUMPI PUSH2 0x14D1 PUSH2 0x103E JUMP JUMPDEST JUMPDEST PUSH1 0x0 PUSH2 0x14E0 DUP5 DUP3 DUP6 ADD PUSH2 0x14A7 JUMP JUMPDEST SWAP2 POP POP SWAP3 SWAP2 POP POP JUMP JUMPDEST PUSH1 0x0 DUP2 MLOAD SWAP1 POP PUSH2 0x14F8 DUP2 PUSH2 0x10EA JUMP JUMPDEST SWAP3 SWAP2 POP POP JUMP JUMPDEST PUSH1 0x0 PUSH1 0x20 DUP3 DUP5 SUB SLT ISZERO PUSH2 0x1514 JUMPI PUSH2 0x1513 PUSH2 0x103E JUMP JUMPDEST JUMPDEST PUSH1 0x0 PUSH2 0x1522 DUP5 DUP3 DUP6 ADD PUSH2 0x14E9 JUMP JUMPDEST SWAP2 POP POP SWAP3 SWAP2 POP POP JUMP JUMPDEST PUSH32 0x4F6E6C792074686520636F6E7472616374206F776E65722063616E2063616C6C PUSH1 0x0 DUP3 ADD MSTORE PUSH32 0x20746869732066756E6374696F6E000000000000000000000000000000000000 PUSH1 0x20 DUP3 ADD MSTORE POP JUMP JUMPDEST PUSH1 0x0 PUSH2 0x1587 PUSH1 0x2E DUP4 PUSH2 0x13DE JUMP JUMPDEST SWAP2 POP PUSH2 0x1592 DUP3 PUSH2 0x152B JUMP JUMPDEST PUSH1 0x40 DUP3 ADD SWAP1 POP SWAP2 SWAP1 POP JUMP JUMPDEST PUSH1 0x0 PUSH1 0x20 DUP3 ADD SWAP1 POP DUP2 DUP2 SUB PUSH1 0x0 DUP4 ADD MSTORE PUSH2 0x15B6 DUP2 PUSH2 0x157A JUMP JUMPDEST SWAP1 POP SWAP2 SWAP1 POP JUMP JUMPDEST PUSH32 0x436F636F6E75742070657220626C6F636B206D75737420626520677265617465 PUSH1 0x0 DUP3 ADD MSTORE PUSH32 0x72207468616E2030000000000000000000000000000000000000000000000000 PUSH1 0x20 DUP3 ADD MSTORE POP JUMP JUMPDEST PUSH1 0x0 PUSH2 0x1619 PUSH1 0x28 DUP4 PUSH2 0x13DE JUMP JUMPDEST SWAP2 POP PUSH2 0x1624 DUP3 PUSH2 0x15BD JUMP JUMPDEST PUSH1 0x40 DUP3 ADD SWAP1 POP SWAP2 SWAP1 POP JUMP JUMPDEST PUSH1 0x0 PUSH1 0x20 DUP3 ADD SWAP1 POP DUP2 DUP2 SUB PUSH1 0x0 DUP4 ADD MSTORE PUSH2 0x1648 DUP2 PUSH2 0x160C JUMP JUMPDEST SWAP1 POP SWAP2 SWAP1 POP JUMP JUMPDEST PUSH1 0x0 PUSH2 0x165A DUP3 PUSH2 0x10E0 JUMP JUMPDEST SWAP2 POP PUSH2 0x1665 DUP4 PUSH2 0x10E0 JUMP JUMPDEST SWAP3 POP DUP3 DUP3 MUL PUSH2 0x1673 DUP2 PUSH2 0x10E0 JUMP JUMPDEST SWAP2 POP DUP3 DUP3 DIV DUP5 EQ DUP4 ISZERO OR PUSH2 0x168A JUMPI PUSH2 0x1689 PUSH2 0x134C JUMP JUMPDEST JUMPDEST POP SWAP3 SWAP2 POP POP JUMP JUMPDEST PUSH32 0x4E487B7100000000000000000000000000000000000000000000000000000000 PUSH1 0x0 MSTORE PUSH1 0x12 PUSH1 0x4 MSTORE PUSH1 0x24 PUSH1 0x0 REVERT JUMPDEST PUSH1 0x0 PUSH2 0x16CB DUP3 PUSH2 0x10E0 JUMP JUMPDEST SWAP2 POP PUSH2 0x16D6 DUP4 PUSH2 0x10E0 JUMP JUMPDEST SWAP3 POP DUP3 PUSH2 0x16E6 JUMPI PUSH2 0x16E5 PUSH2 0x1691 JUMP JUMPDEST JUMPDEST DUP3 DUP3 DIV SWAP1 POP SWAP3 SWAP2 POP POP JUMP JUMPDEST PUSH32 0x536166654D6174683A206D756C7469706C69636174696F6E206F766572666C6F PUSH1 0x0 DUP3 ADD MSTORE PUSH32 0x7700000000000000000000000000000000000000000000000000000000000000 PUSH1 0x20 DUP3 ADD MSTORE POP JUMP JUMPDEST PUSH1 0x0 PUSH2 0x174D PUSH1 0x21 DUP4 PUSH2 0x13DE JUMP JUMPDEST SWAP2 POP PUSH2 0x1758 DUP3 PUSH2 0x16F1 JUMP JUMPDEST PUSH1 0x40 DUP3 ADD SWAP1 POP SWAP2 SWAP1 POP JUMP JUMPDEST PUSH1 0x0 PUSH1 0x20 DUP3 ADD SWAP1 POP DUP2 DUP2 SUB PUSH1 0x0 DUP4 ADD MSTORE PUSH2 0x177C DUP2 PUSH2 0x1740 JUMP JUMPDEST SWAP1 POP SWAP2 SWAP1 POP JUMP JUMPDEST PUSH32 0x536166654D6174683A206469766973696F6E206279207A65726F000000000000 PUSH1 0x0 DUP3 ADD MSTORE POP JUMP JUMPDEST PUSH1 0x0 PUSH2 0x17B9 PUSH1 0x1A DUP4 PUSH2 0x13DE JUMP JUMPDEST SWAP2 POP PUSH2 0x17C4 DUP3 PUSH2 0x1783 JUMP JUMPDEST PUSH1 0x20 DUP3 ADD SWAP1 POP SWAP2 SWAP1 POP JUMP JUMPDEST PUSH1 0x0 PUSH1 0x20 DUP3 ADD SWAP1 POP DUP2 DUP2 SUB PUSH1 0x0 DUP4 ADD MSTORE PUSH2 0x17E8 DUP2 PUSH2 0x17AC JUMP JUMPDEST SWAP1 POP SWAP2 SWAP1 POP JUMP JUMPDEST PUSH32 0x536166654D6174683A207375627472616374696F6E206F766572666C6F770000 PUSH1 0x0 DUP3 ADD MSTORE POP JUMP JUMPDEST PUSH1 0x0 PUSH2 0x1825 PUSH1 0x1E DUP4 PUSH2 0x13DE JUMP JUMPDEST SWAP2 POP PUSH2 0x1830 DUP3 PUSH2 0x17EF JUMP JUMPDEST PUSH1 0x20 DUP3 ADD SWAP1 POP SWAP2 SWAP1 POP JUMP JUMPDEST PUSH1 0x0 PUSH1 0x20 DUP3 ADD SWAP1 POP DUP2 DUP2 SUB PUSH1 0x0 DUP4 ADD MSTORE PUSH2 0x1854 DUP2 PUSH2 0x1818 JUMP JUMPDEST SWAP1 POP SWAP2 SWAP1 POP JUMP JUMPDEST PUSH1 0x0 PUSH2 0x1866 DUP3 PUSH2 0x10E0 JUMP JUMPDEST SWAP2 POP PUSH2 0x1871 DUP4 PUSH2 0x10E0 JUMP JUMPDEST SWAP3 POP DUP3 DUP3 SUB SWAP1 POP DUP2 DUP2 GT ISZERO PUSH2 0x1889 JUMPI PUSH2 0x1888 PUSH2 0x134C JUMP JUMPDEST JUMPDEST SWAP3 SWAP2 POP POP JUMP JUMPDEST PUSH32 0x5361666545524332303A207472616E73666572206661696C6564000000000000 PUSH1 0x0 DUP3 ADD MSTORE POP JUMP JUMPDEST PUSH1 0x0 PUSH2 0x18C5 PUSH1 0x1A DUP4 PUSH2 0x13DE JUMP JUMPDEST SWAP2 POP PUSH2 0x18D0 DUP3 PUSH2 0x188F JUMP JUMPDEST PUSH1 0x20 DUP3 ADD SWAP1 POP SWAP2 SWAP1 POP JUMP JUMPDEST PUSH1 0x0 PUSH1 0x20 DUP3 ADD SWAP1 POP DUP2 DUP2 SUB PUSH1 0x0 DUP4 ADD MSTORE PUSH2 0x18F4 DUP2 PUSH2 0x18B8 JUMP JUMPDEST SWAP1 POP SWAP2 SWAP1 POP JUMP JUMPDEST PUSH32 0x536166654D6174683A206164646974696F6E206F766572666C6F770000000000 PUSH1 0x0 DUP3 ADD MSTORE POP JUMP JUMPDEST PUSH1 0x0 PUSH2 0x1931 PUSH1 0x1B DUP4 PUSH2 0x13DE JUMP JUMPDEST SWAP2 POP PUSH2 0x193C DUP3 PUSH2 0x18FB JUMP JUMPDEST PUSH1 0x20 DUP3 ADD SWAP1 POP SWAP2 SWAP1 POP JUMP JUMPDEST PUSH1 0x0 PUSH1 0x20 DUP3 ADD SWAP1 POP DUP2 DUP2 SUB PUSH1 0x0 DUP4 ADD MSTORE PUSH2 0x1960 DUP2 PUSH2 0x1924 JUMP JUMPDEST SWAP1 POP SWAP2 SWAP1 POP JUMP JUMPDEST PUSH1 0x0 PUSH1 0x60 DUP3 ADD SWAP1 POP PUSH2 0x197C PUSH1 0x0 DUP4 ADD DUP7 PUSH2 0x128D JUMP JUMPDEST PUSH2 0x1989 PUSH1 0x20 DUP4 ADD DUP6 PUSH2 0x128D JUMP JUMPDEST PUSH2 0x1996 PUSH1 0x40 DUP4 ADD DUP5 PUSH2 0x11A2 JUMP JUMPDEST SWAP5 SWAP4 POP POP POP POP JUMP JUMPDEST PUSH32 0x5361666545524332303A207472616E7366657246726F6D206661696C65640000 PUSH1 0x0 DUP3 ADD MSTORE POP JUMP JUMPDEST PUSH1 0x0 PUSH2 0x19D4 PUSH1 0x1E DUP4 PUSH2 0x13DE JUMP JUMPDEST SWAP2 POP PUSH2 0x19DF DUP3 PUSH2 0x199E JUMP JUMPDEST PUSH1 0x20 DUP3 ADD SWAP1 POP SWAP2 SWAP1 POP JUMP JUMPDEST PUSH1 0x0 PUSH1 0x20 DUP3 ADD SWAP1 POP DUP2 DUP2 SUB PUSH1 0x0 DUP4 ADD MSTORE PUSH2 0x1A03 DUP2 PUSH2 0x19C7 JUMP JUMPDEST SWAP1 POP SWAP2 SWAP1 POP JUMP INVALID LOG2 PUSH5 0x6970667358 0x22 SLT KECCAK256 0xE7 0x2A 0xAD 0xB3 0xE4 0xF9 DUP1 SWAP6 DUP3 0xE4 0x4E 0xE2 PUSH29 0x8FB95862A0405087C61BEBF343FFA282E5F0ED64736F6C634300081200 CALLER "
				},
				"gasEstimates": {
					"creation": {
						"codeDepositCost": "1344000",
						"executionCost": "infinite",
						"totalCost": "infinite"
					},
					"external": {
						"add(address)": "infinite",
						"coconut()": "infinite",
						"coconutPerBlock()": "2473",
						"deposit(uint256,uint256)": "infinite",
						"owner()": "2577",
						"poolInfo(uint256)": "infinite",
						"setCoconutPerBlock(uint256)": "24732",
						"startBlock()": "2540",
						"totalAllocPoint()": "2474",
						"updatePool(uint256)": "infinite",
						"userInfo(uint256,address)": "infinite",
						"withdraw(uint256,uint256)": "infinite"
					}
				},
				"methodIdentifiers": {
					"add(address)": "0a3b0a4f",
					"coconut()": "48ac86d0",
					"coconutPerBlock()": "660325ec",
					"deposit(uint256,uint256)": "e2bbb158",
					"owner()": "8da5cb5b",
					"poolInfo(uint256)": "1526fe27",
					"setCoconutPerBlock(uint256)": "647d209a",
					"startBlock()": "48cd4cb1",
					"totalAllocPoint()": "17caf6f1",
					"updatePool(uint256)": "51eb05a6",
					"userInfo(uint256,address)": "93f1a40b",
					"withdraw(uint256,uint256)": "441a3e70"
				}
			},
			"storageLayout": {
				"storage": [
					{
						"astId": 520,
						"contract": "contracts/test1/MasterChef.sol:MasterChef",
						"label": "owner",
						"offset": 0,
						"slot": "0",
						"type": "t_address"
					},
					{
						"astId": 523,
						"contract": "contracts/test1/MasterChef.sol:MasterChef",
						"label": "coconutPerBlock",
						"offset": 0,
						"slot": "1",
						"type": "t_uint256"
					},
					{
						"astId": 541,
						"contract": "contracts/test1/MasterChef.sol:MasterChef",
						"label": "coconut",
						"offset": 0,
						"slot": "2",
						"type": "t_contract(RewardToken)427"
					},
					{
						"astId": 545,
						"contract": "contracts/test1/MasterChef.sol:MasterChef",
						"label": "poolInfo",
						"offset": 0,
						"slot": "3",
						"type": "t_array(t_struct(PoolInfo)538_storage)dyn_storage"
					},
					{
						"astId": 552,
						"contract": "contracts/test1/MasterChef.sol:MasterChef",
						"label": "userInfo",
						"offset": 0,
						"slot": "4",
						"type": "t_mapping(t_uint256,t_mapping(t_address,t_struct(UserInfo)528_storage))"
					},
					{
						"astId": 555,
						"contract": "contracts/test1/MasterChef.sol:MasterChef",
						"label": "totalAllocPoint",
						"offset": 0,
						"slot": "5",
						"type": "t_uint256"
					},
					{
						"astId": 558,
						"contract": "contracts/test1/MasterChef.sol:MasterChef",
						"label": "startBlock",
						"offset": 0,
						"slot": "6",
						"type": "t_uint256"
					}
				],
				"types": {
					"t_address": {
						"encoding": "inplace",
						"label": "address",
						"numberOfBytes": "20"
					},
					"t_array(t_struct(PoolInfo)538_storage)dyn_storage": {
						"base": "t_struct(PoolInfo)538_storage",
						"encoding": "dynamic_array",
						"label": "struct MasterChef.PoolInfo[]",
						"numberOfBytes": "32"
					},
					"t_contract(IERC20)505": {
						"encoding": "inplace",
						"label": "contract IERC20",
						"numberOfBytes": "20"
					},
					"t_contract(RewardToken)427": {
						"encoding": "inplace",
						"label": "contract RewardToken",
						"numberOfBytes": "20"
					},
					"t_mapping(t_address,t_struct(UserInfo)528_storage)": {
						"encoding": "mapping",
						"key": "t_address",
						"label": "mapping(address => struct MasterChef.UserInfo)",
						"numberOfBytes": "32",
						"value": "t_struct(UserInfo)528_storage"
					},
					"t_mapping(t_uint256,t_mapping(t_address,t_struct(UserInfo)528_storage))": {
						"encoding": "mapping",
						"key": "t_uint256",
						"label": "mapping(uint256 => mapping(address => struct MasterChef.UserInfo))",
						"numberOfBytes": "32",
						"value": "t_mapping(t_address,t_struct(UserInfo)528_storage)"
					},
					"t_struct(PoolInfo)538_storage": {
						"encoding": "inplace",
						"label": "struct MasterChef.PoolInfo",
						"members": [
							{
								"astId": 531,
								"contract": "contracts/test1/MasterChef.sol:MasterChef",
								"label": "lpToken",
								"offset": 0,
								"slot": "0",
								"type": "t_contract(IERC20)505"
							},
							{
								"astId": 533,
								"contract": "contracts/test1/MasterChef.sol:MasterChef",
								"label": "allocPoint",
								"offset": 0,
								"slot": "1",
								"type": "t_uint256"
							},
							{
								"astId": 535,
								"contract": "contracts/test1/MasterChef.sol:MasterChef",
								"label": "lastRewardBlock",
								"offset": 0,
								"slot": "2",
								"type": "t_uint256"
							},
							{
								"astId": 537,
								"contract": "contracts/test1/MasterChef.sol:MasterChef",
								"label": "accCoconutPerShare",
								"offset": 0,
								"slot": "3",
								"type": "t_uint256"
							}
						],
						"numberOfBytes": "128"
					},
					"t_struct(UserInfo)528_storage": {
						"encoding": "inplace",
						"label": "struct MasterChef.UserInfo",
						"members": [
							{
								"astId": 525,
								"contract": "contracts/test1/MasterChef.sol:MasterChef",
								"label": "amount",
								"offset": 0,
								"slot": "0",
								"type": "t_uint256"
							},
							{
								"astId": 527,
								"contract": "contracts/test1/MasterChef.sol:MasterChef",
								"label": "rewardDebt",
								"offset": 0,
								"slot": "1",
								"type": "t_uint256"
							}
						],
						"numberOfBytes": "64"
					},
					"t_uint256": {
						"encoding": "inplace",
						"label": "uint256",
						"numberOfBytes": "32"
					}
				}
			},
			"userdoc": {
				"kind": "user",
				"methods": {},
				"version": 1
			}
		}
	}
}