{
	"010_控制.sol": {
		"MyContract": {
			"abi": [
				{
					"inputs": [],
					"stateMutability": "nonpayable",
					"type": "constructor"
				},
				{
					"inputs": [
						{
							"internalType": "uint256",
							"name": "",
							"type": "uint256"
						}
					],
					"name": "MyArr",
					"outputs": [
						{
							"internalType": "uint256",
							"name": "",
							"type": "uint256"
						}
					],
					"stateMutability": "view",
					"type": "function"
				},
				{
					"inputs": [
						{
							"internalType": "uint256",
							"name": "",
							"type": "uint256"
						}
					],
					"name": "MyNewArr2",
					"outputs": [
						{
							"internalType": "uint256",
							"name": "",
							"type": "uint256"
						}
					],
					"stateMutability": "view",
					"type": "function"
				},
				{
					"inputs": [
						{
							"internalType": "uint256[]",
							"name": "arr",
							"type": "uint256[]"
						}
					],
					"name": "reverse",
					"outputs": [
						{
							"internalType": "uint256[]",
							"name": "",
							"type": "uint256[]"
						}
					],
					"stateMutability": "pure",
					"type": "function"
				}
			],
			"devdoc": {
				"kind": "dev",
				"methods": {},
				"version": 1
			},
			"evm": {
				"assembly": "    /* \"010_\\xe6\\x8e\\xa7\\xe5\\x88\\xb6.sol\":61:846  contract MyContract {... */\n  mstore(0x40, 0x80)\n    /* \"010_\\xe6\\x8e\\xa7\\xe5\\x88\\xb6.sol\":100:142  uint256[5] public MyArr = [10,20,30,40,50] */\n  mload(0x40)\n  dup1\n  0xa0\n  add\n  0x40\n  mstore\n  dup1\n    /* \"010_\\xe6\\x8e\\xa7\\xe5\\x88\\xb6.sol\":127:129  10 */\n  0x0a\n    /* \"010_\\xe6\\x8e\\xa7\\xe5\\x88\\xb6.sol\":100:142  uint256[5] public MyArr = [10,20,30,40,50] */\n  0xff\n  and\n  dup2\n  mstore\n  0x20\n  add\n    /* \"010_\\xe6\\x8e\\xa7\\xe5\\x88\\xb6.sol\":130:132  20 */\n  0x14\n    /* \"010_\\xe6\\x8e\\xa7\\xe5\\x88\\xb6.sol\":100:142  uint256[5] public MyArr = [10,20,30,40,50] */\n  0xff\n  and\n  dup2\n  mstore\n  0x20\n  add\n    /* \"010_\\xe6\\x8e\\xa7\\xe5\\x88\\xb6.sol\":133:135  30 */\n  0x1e\n    /* \"010_\\xe6\\x8e\\xa7\\xe5\\x88\\xb6.sol\":100:142  uint256[5] public MyArr = [10,20,30,40,50] */\n  0xff\n  and\n  dup2\n  mstore\n  0x20\n  add\n    /* \"010_\\xe6\\x8e\\xa7\\xe5\\x88\\xb6.sol\":136:138  40 */\n  0x28\n    /* \"010_\\xe6\\x8e\\xa7\\xe5\\x88\\xb6.sol\":100:142  uint256[5] public MyArr = [10,20,30,40,50] */\n  0xff\n  and\n  dup2\n  mstore\n  0x20\n  add\n    /* \"010_\\xe6\\x8e\\xa7\\xe5\\x88\\xb6.sol\":139:141  50 */\n  0x32\n    /* \"010_\\xe6\\x8e\\xa7\\xe5\\x88\\xb6.sol\":100:142  uint256[5] public MyArr = [10,20,30,40,50] */\n  0xff\n  and\n  dup2\n  mstore\n  pop\n  0x00\n  swap1\n  0x05\n  tag_1\n  swap3\n  swap2\n  swap1\n  tag_2\n  jump\t// in\ntag_1:\n  pop\n    /* \"010_\\xe6\\x8e\\xa7\\xe5\\x88\\xb6.sol\":181:262  constructor() {... */\n  callvalue\n  dup1\n  iszero\n  tag_3\n  jumpi\n  0x00\n  dup1\n  revert\ntag_3:\n  pop\n    /* \"010_\\xe6\\x8e\\xa7\\xe5\\x88\\xb6.sol\":217:255  reverse(dynamicArrayFromStatic(MyArr)) */\n  tag_6\n    /* \"010_\\xe6\\x8e\\xa7\\xe5\\x88\\xb6.sol\":225:254  dynamicArrayFromStatic(MyArr) */\n  tag_7\n    /* \"010_\\xe6\\x8e\\xa7\\xe5\\x88\\xb6.sol\":248:253  MyArr */\n  0x00\n    /* \"010_\\xe6\\x8e\\xa7\\xe5\\x88\\xb6.sol\":225:254  dynamicArrayFromStatic(MyArr) */\n  0x05\n  dup1\n  0x20\n  mul\n  mload(0x40)\n  swap1\n  dup2\n  add\n  0x40\n  mstore\n  dup1\n  swap3\n  swap2\n  swap1\n  dup3\n  0x05\n  dup1\n  iszero\n  tag_8\n  jumpi\n  0x20\n  mul\n  dup3\n  add\n  swap2\ntag_9:\n  dup2\n  sload\n  dup2\n  mstore\n  0x20\n  add\n  swap1\n  0x01\n  add\n  swap1\n  dup1\n  dup4\n  gt\n  tag_9\n  jumpi\ntag_8:\n  pop\n  pop\n  pop\n  pop\n  pop\n    /* \"010_\\xe6\\x8e\\xa7\\xe5\\x88\\xb6.sol\":225:247  dynamicArrayFromStatic */\n  shl(0x20, tag_10)\n    /* \"010_\\xe6\\x8e\\xa7\\xe5\\x88\\xb6.sol\":225:254  dynamicArrayFromStatic(MyArr) */\n  0x20\n  shr\n  jump\t// in\ntag_7:\n    /* \"010_\\xe6\\x8e\\xa7\\xe5\\x88\\xb6.sol\":217:224  reverse */\n  shl(0x20, tag_11)\n    /* \"010_\\xe6\\x8e\\xa7\\xe5\\x88\\xb6.sol\":217:255  reverse(dynamicArrayFromStatic(MyArr)) */\n  0x20\n  shr\n  jump\t// in\ntag_6:\n    /* \"010_\\xe6\\x8e\\xa7\\xe5\\x88\\xb6.sol\":205:214  MyNewArr2 */\n  0x05\n    /* \"010_\\xe6\\x8e\\xa7\\xe5\\x88\\xb6.sol\":205:255  MyNewArr2 = reverse(dynamicArrayFromStatic(MyArr)) */\n  swap1\n  dup1\n  mload\n  swap1\n  0x20\n  add\n  swap1\n  tag_12\n  swap3\n  swap2\n  swap1\n  tag_13\n  jump\t// in\ntag_12:\n  pop\n    /* \"010_\\xe6\\x8e\\xa7\\xe5\\x88\\xb6.sol\":61:846  contract MyContract {... */\n  jump(tag_14)\n    /* \"010_\\xe6\\x8e\\xa7\\xe5\\x88\\xb6.sol\":268:559  function dynamicArrayFromStatic(uint256[5] memory arr) private pure returns (uint256[] memory) {... */\ntag_10:\n    /* \"010_\\xe6\\x8e\\xa7\\xe5\\x88\\xb6.sol\":345:361  uint256[] memory */\n  0x60\n    /* \"010_\\xe6\\x8e\\xa7\\xe5\\x88\\xb6.sol\":373:400  uint256[] memory dynamicArr */\n  0x00\n    /* \"010_\\xe6\\x8e\\xa7\\xe5\\x88\\xb6.sol\":417:427  arr.length */\n  0x05\n    /* \"010_\\xe6\\x8e\\xa7\\xe5\\x88\\xb6.sol\":403:428  new uint256[](arr.length) */\n  0xffffffffffffffff\n  dup2\n  gt\n  iszero\n  tag_16\n  jumpi\n  tag_17\n  tag_18\n  jump\t// in\ntag_17:\ntag_16:\n  mload(0x40)\n  swap1\n  dup1\n  dup3\n  mstore\n  dup1\n  0x20\n  mul\n  0x20\n  add\n  dup3\n  add\n  0x40\n  mstore\n  dup1\n  iszero\n  tag_19\n  jumpi\n  dup2\n  0x20\n  add\n  0x20\n  dup3\n  mul\n  dup1\n  calldatasize\n  dup4\n  calldatacopy\n  dup1\n  dup3\n  add\n  swap2\n  pop\n  pop\n  swap1\n  pop\ntag_19:\n  pop\n    /* \"010_\\xe6\\x8e\\xa7\\xe5\\x88\\xb6.sol\":373:428  uint256[] memory dynamicArr = new uint256[](arr.length) */\n  swap1\n  pop\n    /* \"010_\\xe6\\x8e\\xa7\\xe5\\x88\\xb6.sol\":443:452  uint256 i */\n  0x00\n    /* \"010_\\xe6\\x8e\\xa7\\xe5\\x88\\xb6.sol\":438:526  for (uint256 i = 0; i < arr.length; i++) {... */\ntag_20:\n    /* \"010_\\xe6\\x8e\\xa7\\xe5\\x88\\xb6.sol\":462:472  arr.length */\n  0x05\n    /* \"010_\\xe6\\x8e\\xa7\\xe5\\x88\\xb6.sol\":458:459  i */\n  dup2\n    /* \"010_\\xe6\\x8e\\xa7\\xe5\\x88\\xb6.sol\":458:472  i < arr.length */\n  lt\n    /* \"010_\\xe6\\x8e\\xa7\\xe5\\x88\\xb6.sol\":438:526  for (uint256 i = 0; i < arr.length; i++) {... */\n  iszero\n  tag_21\n  jumpi\n    /* \"010_\\xe6\\x8e\\xa7\\xe5\\x88\\xb6.sol\":509:512  arr */\n  dup4\n    /* \"010_\\xe6\\x8e\\xa7\\xe5\\x88\\xb6.sol\":513:514  i */\n  dup2\n    /* \"010_\\xe6\\x8e\\xa7\\xe5\\x88\\xb6.sol\":509:515  arr[i] */\n  0x05\n  dup2\n  lt\n  tag_23\n  jumpi\n  tag_24\n  tag_25\n  jump\t// in\ntag_24:\ntag_23:\n  0x20\n  mul\n  add\n  mload\n    /* \"010_\\xe6\\x8e\\xa7\\xe5\\x88\\xb6.sol\":493:503  dynamicArr */\n  dup3\n    /* \"010_\\xe6\\x8e\\xa7\\xe5\\x88\\xb6.sol\":504:505  i */\n  dup3\n    /* \"010_\\xe6\\x8e\\xa7\\xe5\\x88\\xb6.sol\":493:506  dynamicArr[i] */\n  dup2\n  mload\n  dup2\n  lt\n  tag_26\n  jumpi\n  tag_27\n  tag_25\n  jump\t// in\ntag_27:\ntag_26:\n  0x20\n  mul\n  0x20\n  add\n  add\n    /* \"010_\\xe6\\x8e\\xa7\\xe5\\x88\\xb6.sol\":493:515  dynamicArr[i] = arr[i] */\n  dup2\n  dup2\n  mstore\n  pop\n  pop\n    /* \"010_\\xe6\\x8e\\xa7\\xe5\\x88\\xb6.sol\":474:477  i++ */\n  dup1\n  dup1\n  tag_28\n  swap1\n  tag_29\n  jump\t// in\ntag_28:\n  swap2\n  pop\n  pop\n    /* \"010_\\xe6\\x8e\\xa7\\xe5\\x88\\xb6.sol\":438:526  for (uint256 i = 0; i < arr.length; i++) {... */\n  jump(tag_20)\ntag_21:\n  pop\n    /* \"010_\\xe6\\x8e\\xa7\\xe5\\x88\\xb6.sol\":542:552  dynamicArr */\n  dup1\n    /* \"010_\\xe6\\x8e\\xa7\\xe5\\x88\\xb6.sol\":535:552  return dynamicArr */\n  swap2\n  pop\n  pop\n    /* \"010_\\xe6\\x8e\\xa7\\xe5\\x88\\xb6.sol\":268:559  function dynamicArrayFromStatic(uint256[5] memory arr) private pure returns (uint256[] memory) {... */\n  swap2\n  swap1\n  pop\n  jump\t// out\n    /* \"010_\\xe6\\x8e\\xa7\\xe5\\x88\\xb6.sol\":565:844  function reverse(uint256[] memory arr) public pure returns (uint256[] memory) {... */\ntag_11:\n    /* \"010_\\xe6\\x8e\\xa7\\xe5\\x88\\xb6.sol\":625:641  uint256[] memory */\n  0x60\n    /* \"010_\\xe6\\x8e\\xa7\\xe5\\x88\\xb6.sol\":653:676  uint256[] memory NewArr */\n  0x00\n    /* \"010_\\xe6\\x8e\\xa7\\xe5\\x88\\xb6.sol\":693:696  arr */\n  dup3\n    /* \"010_\\xe6\\x8e\\xa7\\xe5\\x88\\xb6.sol\":693:703  arr.length */\n  mload\n    /* \"010_\\xe6\\x8e\\xa7\\xe5\\x88\\xb6.sol\":679:704  new uint256[](arr.length) */\n  0xffffffffffffffff\n  dup2\n  gt\n  iszero\n  tag_31\n  jumpi\n  tag_32\n  tag_18\n  jump\t// in\ntag_32:\ntag_31:\n  mload(0x40)\n  swap1\n  dup1\n  dup3\n  mstore\n  dup1\n  0x20\n  mul\n  0x20\n  add\n  dup3\n  add\n  0x40\n  mstore\n  dup1\n  iszero\n  tag_33\n  jumpi\n  dup2\n  0x20\n  add\n  0x20\n  dup3\n  mul\n  dup1\n  calldatasize\n  dup4\n  calldatacopy\n  dup1\n  dup3\n  add\n  swap2\n  pop\n  pop\n  swap1\n  pop\ntag_33:\n  pop\n    /* \"010_\\xe6\\x8e\\xa7\\xe5\\x88\\xb6.sol\":653:704  uint256[] memory NewArr = new uint256[](arr.length) */\n  swap1\n  pop\n    /* \"010_\\xe6\\x8e\\xa7\\xe5\\x88\\xb6.sol\":719:728  uint256 i */\n  0x00\n    /* \"010_\\xe6\\x8e\\xa7\\xe5\\x88\\xb6.sol\":714:815  for (uint256 i = 0; i < arr.length; i++) {... */\ntag_34:\n    /* \"010_\\xe6\\x8e\\xa7\\xe5\\x88\\xb6.sol\":738:741  arr */\n  dup4\n    /* \"010_\\xe6\\x8e\\xa7\\xe5\\x88\\xb6.sol\":738:748  arr.length */\n  mload\n    /* \"010_\\xe6\\x8e\\xa7\\xe5\\x88\\xb6.sol\":734:735  i */\n  dup2\n    /* \"010_\\xe6\\x8e\\xa7\\xe5\\x88\\xb6.sol\":734:748  i < arr.length */\n  lt\n    /* \"010_\\xe6\\x8e\\xa7\\xe5\\x88\\xb6.sol\":714:815  for (uint256 i = 0; i < arr.length; i++) {... */\n  iszero\n  tag_35\n  jumpi\n    /* \"010_\\xe6\\x8e\\xa7\\xe5\\x88\\xb6.sol\":781:784  arr */\n  dup4\n    /* \"010_\\xe6\\x8e\\xa7\\xe5\\x88\\xb6.sol\":802:803  1 */\n  0x01\n    /* \"010_\\xe6\\x8e\\xa7\\xe5\\x88\\xb6.sol\":798:799  i */\n  dup3\n    /* \"010_\\xe6\\x8e\\xa7\\xe5\\x88\\xb6.sol\":785:788  arr */\n  dup7\n    /* \"010_\\xe6\\x8e\\xa7\\xe5\\x88\\xb6.sol\":785:795  arr.length */\n  mload\n    /* \"010_\\xe6\\x8e\\xa7\\xe5\\x88\\xb6.sol\":785:799  arr.length - i */\n  tag_37\n  swap2\n  swap1\n  tag_38\n  jump\t// in\ntag_37:\n    /* \"010_\\xe6\\x8e\\xa7\\xe5\\x88\\xb6.sol\":785:803  arr.length - i - 1 */\n  tag_39\n  swap2\n  swap1\n  tag_38\n  jump\t// in\ntag_39:\n    /* \"010_\\xe6\\x8e\\xa7\\xe5\\x88\\xb6.sol\":781:804  arr[arr.length - i - 1] */\n  dup2\n  mload\n  dup2\n  lt\n  tag_40\n  jumpi\n  tag_41\n  tag_25\n  jump\t// in\ntag_41:\ntag_40:\n  0x20\n  mul\n  0x20\n  add\n  add\n  mload\n    /* \"010_\\xe6\\x8e\\xa7\\xe5\\x88\\xb6.sol\":769:775  NewArr */\n  dup3\n    /* \"010_\\xe6\\x8e\\xa7\\xe5\\x88\\xb6.sol\":776:777  i */\n  dup3\n    /* \"010_\\xe6\\x8e\\xa7\\xe5\\x88\\xb6.sol\":769:778  NewArr[i] */\n  dup2\n  mload\n  dup2\n  lt\n  tag_42\n  jumpi\n  tag_43\n  tag_25\n  jump\t// in\ntag_43:\ntag_42:\n  0x20\n  mul\n  0x20\n  add\n  add\n    /* \"010_\\xe6\\x8e\\xa7\\xe5\\x88\\xb6.sol\":769:804  NewArr[i] = arr[arr.length - i - 1] */\n  dup2\n  dup2\n  mstore\n  pop\n  pop\n    /* \"010_\\xe6\\x8e\\xa7\\xe5\\x88\\xb6.sol\":750:753  i++ */\n  dup1\n  dup1\n  tag_44\n  swap1\n  tag_29\n  jump\t// in\ntag_44:\n  swap2\n  pop\n  pop\n    /* \"010_\\xe6\\x8e\\xa7\\xe5\\x88\\xb6.sol\":714:815  for (uint256 i = 0; i < arr.length; i++) {... */\n  jump(tag_34)\ntag_35:\n  pop\n    /* \"010_\\xe6\\x8e\\xa7\\xe5\\x88\\xb6.sol\":831:837  NewArr */\n  dup1\n    /* \"010_\\xe6\\x8e\\xa7\\xe5\\x88\\xb6.sol\":824:837  return NewArr */\n  swap2\n  pop\n  pop\n    /* \"010_\\xe6\\x8e\\xa7\\xe5\\x88\\xb6.sol\":565:844  function reverse(uint256[] memory arr) public pure returns (uint256[] memory) {... */\n  swap2\n  swap1\n  pop\n  jump\t// out\n    /* \"010_\\xe6\\x8e\\xa7\\xe5\\x88\\xb6.sol\":61:846  contract MyContract {... */\ntag_2:\n  dup3\n  0x05\n  dup2\n  add\n  swap3\n  dup3\n  iszero\n  tag_45\n  jumpi\n  swap2\n  0x20\n  mul\n  dup3\n  add\ntag_46:\n  dup3\n  dup2\n  gt\n  iszero\n  tag_47\n  jumpi\n  dup3\n  mload\n  dup3\n  swap1\n  0xff\n  and\n  swap1\n  sstore\n  swap2\n  0x20\n  add\n  swap2\n  swap1\n  0x01\n  add\n  swap1\n  jump(tag_46)\ntag_47:\ntag_45:\n  pop\n  swap1\n  pop\n  tag_48\n  swap2\n  swap1\n  tag_49\n  jump\t// in\ntag_48:\n  pop\n  swap1\n  jump\t// out\ntag_13:\n  dup3\n  dup1\n  sload\n  dup3\n  dup3\n  sstore\n  swap1\n  0x00\n  mstore\n  keccak256(0x00, 0x20)\n  swap1\n  dup2\n  add\n  swap3\n  dup3\n  iszero\n  tag_50\n  jumpi\n  swap2\n  0x20\n  mul\n  dup3\n  add\ntag_51:\n  dup3\n  dup2\n  gt\n  iszero\n  tag_52\n  jumpi\n  dup3\n  mload\n  dup3\n  sstore\n  swap2\n  0x20\n  add\n  swap2\n  swap1\n  0x01\n  add\n  swap1\n  jump(tag_51)\ntag_52:\ntag_50:\n  pop\n  swap1\n  pop\n  tag_53\n  swap2\n  swap1\n  tag_49\n  jump\t// in\ntag_53:\n  pop\n  swap1\n  jump\t// out\ntag_49:\ntag_54:\n  dup1\n  dup3\n  gt\n  iszero\n  tag_55\n  jumpi\n  0x00\n  dup2\n  0x00\n  swap1\n  sstore\n  pop\n  0x01\n  add\n  jump(tag_54)\ntag_55:\n  pop\n  swap1\n  jump\t// out\n    /* \"#utility.yul\":7:187   */\ntag_18:\n    /* \"#utility.yul\":55:132   */\n  0x4e487b7100000000000000000000000000000000000000000000000000000000\n    /* \"#utility.yul\":52:53   */\n  0x00\n    /* \"#utility.yul\":45:133   */\n  mstore\n    /* \"#utility.yul\":152:156   */\n  0x41\n    /* \"#utility.yul\":149:150   */\n  0x04\n    /* \"#utility.yul\":142:157   */\n  mstore\n    /* \"#utility.yul\":176:180   */\n  0x24\n    /* \"#utility.yul\":173:174   */\n  0x00\n    /* \"#utility.yul\":166:181   */\n  revert\n    /* \"#utility.yul\":193:373   */\ntag_25:\n    /* \"#utility.yul\":241:318   */\n  0x4e487b7100000000000000000000000000000000000000000000000000000000\n    /* \"#utility.yul\":238:239   */\n  0x00\n    /* \"#utility.yul\":231:319   */\n  mstore\n    /* \"#utility.yul\":338:342   */\n  0x32\n    /* \"#utility.yul\":335:336   */\n  0x04\n    /* \"#utility.yul\":328:343   */\n  mstore\n    /* \"#utility.yul\":362:366   */\n  0x24\n    /* \"#utility.yul\":359:360   */\n  0x00\n    /* \"#utility.yul\":352:367   */\n  revert\n    /* \"#utility.yul\":379:559   */\ntag_56:\n    /* \"#utility.yul\":427:504   */\n  0x4e487b7100000000000000000000000000000000000000000000000000000000\n    /* \"#utility.yul\":424:425   */\n  0x00\n    /* \"#utility.yul\":417:505   */\n  mstore\n    /* \"#utility.yul\":524:528   */\n  0x11\n    /* \"#utility.yul\":521:522   */\n  0x04\n    /* \"#utility.yul\":514:529   */\n  mstore\n    /* \"#utility.yul\":548:552   */\n  0x24\n    /* \"#utility.yul\":545:546   */\n  0x00\n    /* \"#utility.yul\":538:553   */\n  revert\n    /* \"#utility.yul\":565:642   */\ntag_57:\n    /* \"#utility.yul\":602:609   */\n  0x00\n    /* \"#utility.yul\":631:636   */\n  dup2\n    /* \"#utility.yul\":620:636   */\n  swap1\n  pop\n    /* \"#utility.yul\":565:642   */\n  swap2\n  swap1\n  pop\n  jump\t// out\n    /* \"#utility.yul\":648:881   */\ntag_29:\n    /* \"#utility.yul\":687:690   */\n  0x00\n    /* \"#utility.yul\":710:734   */\n  tag_64\n    /* \"#utility.yul\":728:733   */\n  dup3\n    /* \"#utility.yul\":710:734   */\n  tag_57\n  jump\t// in\ntag_64:\n    /* \"#utility.yul\":701:734   */\n  swap2\n  pop\n    /* \"#utility.yul\":756:822   */\n  0xffffffffffffffffffffffffffffffffffffffffffffffffffffffffffffffff\n    /* \"#utility.yul\":749:754   */\n  dup3\n    /* \"#utility.yul\":746:823   */\n  sub\n    /* \"#utility.yul\":743:846   */\n  tag_65\n  jumpi\n    /* \"#utility.yul\":826:844   */\n  tag_66\n  tag_56\n  jump\t// in\ntag_66:\n    /* \"#utility.yul\":743:846   */\ntag_65:\n    /* \"#utility.yul\":873:874   */\n  0x01\n    /* \"#utility.yul\":866:871   */\n  dup3\n    /* \"#utility.yul\":862:875   */\n  add\n    /* \"#utility.yul\":855:875   */\n  swap1\n  pop\n    /* \"#utility.yul\":648:881   */\n  swap2\n  swap1\n  pop\n  jump\t// out\n    /* \"#utility.yul\":887:1081   */\ntag_38:\n    /* \"#utility.yul\":927:931   */\n  0x00\n    /* \"#utility.yul\":947:967   */\n  tag_68\n    /* \"#utility.yul\":965:966   */\n  dup3\n    /* \"#utility.yul\":947:967   */\n  tag_57\n  jump\t// in\ntag_68:\n    /* \"#utility.yul\":942:967   */\n  swap2\n  pop\n    /* \"#utility.yul\":981:1001   */\n  tag_69\n    /* \"#utility.yul\":999:1000   */\n  dup4\n    /* \"#utility.yul\":981:1001   */\n  tag_57\n  jump\t// in\ntag_69:\n    /* \"#utility.yul\":976:1001   */\n  swap3\n  pop\n    /* \"#utility.yul\":1025:1026   */\n  dup3\n    /* \"#utility.yul\":1022:1023   */\n  dup3\n    /* \"#utility.yul\":1018:1027   */\n  sub\n    /* \"#utility.yul\":1010:1027   */\n  swap1\n  pop\n    /* \"#utility.yul\":1049:1050   */\n  dup2\n    /* \"#utility.yul\":1043:1047   */\n  dup2\n    /* \"#utility.yul\":1040:1051   */\n  gt\n    /* \"#utility.yul\":1037:1074   */\n  iszero\n  tag_70\n  jumpi\n    /* \"#utility.yul\":1054:1072   */\n  tag_71\n  tag_56\n  jump\t// in\ntag_71:\n    /* \"#utility.yul\":1037:1074   */\ntag_70:\n    /* \"#utility.yul\":887:1081   */\n  swap3\n  swap2\n  pop\n  pop\n  jump\t// out\n    /* \"010_\\xe6\\x8e\\xa7\\xe5\\x88\\xb6.sol\":61:846  contract MyContract {... */\ntag_14:\n  dataSize(sub_0)\n  dup1\n  dataOffset(sub_0)\n  0x00\n  codecopy\n  0x00\n  return\nstop\n\nsub_0: assembly {\n        /* \"010_\\xe6\\x8e\\xa7\\xe5\\x88\\xb6.sol\":61:846  contract MyContract {... */\n      mstore(0x40, 0x80)\n      callvalue\n      dup1\n      iszero\n      tag_1\n      jumpi\n      0x00\n      dup1\n      revert\n    tag_1:\n      pop\n      jumpi(tag_2, lt(calldatasize, 0x04))\n      shr(0xe0, calldataload(0x00))\n      dup1\n      0x0fe68306\n      eq\n      tag_3\n      jumpi\n      dup1\n      0x84d60600\n      eq\n      tag_4\n      jumpi\n      dup1\n      0xa9333cfc\n      eq\n      tag_5\n      jumpi\n    tag_2:\n      0x00\n      dup1\n      revert\n        /* \"010_\\xe6\\x8e\\xa7\\xe5\\x88\\xb6.sol\":100:142  uint256[5] public MyArr = [10,20,30,40,50] */\n    tag_3:\n      tag_6\n      0x04\n      dup1\n      calldatasize\n      sub\n      dup2\n      add\n      swap1\n      tag_7\n      swap2\n      swap1\n      tag_8\n      jump\t// in\n    tag_7:\n      tag_9\n      jump\t// in\n    tag_6:\n      mload(0x40)\n      tag_10\n      swap2\n      swap1\n      tag_11\n      jump\t// in\n    tag_10:\n      mload(0x40)\n      dup1\n      swap2\n      sub\n      swap1\n      return\n        /* \"010_\\xe6\\x8e\\xa7\\xe5\\x88\\xb6.sol\":148:174  uint256[] public MyNewArr2 */\n    tag_4:\n      tag_12\n      0x04\n      dup1\n      calldatasize\n      sub\n      dup2\n      add\n      swap1\n      tag_13\n      swap2\n      swap1\n      tag_8\n      jump\t// in\n    tag_13:\n      tag_14\n      jump\t// in\n    tag_12:\n      mload(0x40)\n      tag_15\n      swap2\n      swap1\n      tag_11\n      jump\t// in\n    tag_15:\n      mload(0x40)\n      dup1\n      swap2\n      sub\n      swap1\n      return\n        /* \"010_\\xe6\\x8e\\xa7\\xe5\\x88\\xb6.sol\":565:844  function reverse(uint256[] memory arr) public pure returns (uint256[] memory) {... */\n    tag_5:\n      tag_16\n      0x04\n      dup1\n      calldatasize\n      sub\n      dup2\n      add\n      swap1\n      tag_17\n      swap2\n      swap1\n      tag_18\n      jump\t// in\n    tag_17:\n      tag_19\n      jump\t// in\n    tag_16:\n      mload(0x40)\n      tag_20\n      swap2\n      swap1\n      tag_21\n      jump\t// in\n    tag_20:\n      mload(0x40)\n      dup1\n      swap2\n      sub\n      swap1\n      return\n        /* \"010_\\xe6\\x8e\\xa7\\xe5\\x88\\xb6.sol\":100:142  uint256[5] public MyArr = [10,20,30,40,50] */\n    tag_9:\n      0x00\n      dup2\n      0x05\n      dup2\n      lt\n      tag_22\n      jumpi\n      0x00\n      dup1\n      revert\n    tag_22:\n      add\n      0x00\n      swap2\n      pop\n      swap1\n      pop\n      sload\n      dup2\n      jump\t// out\n        /* \"010_\\xe6\\x8e\\xa7\\xe5\\x88\\xb6.sol\":148:174  uint256[] public MyNewArr2 */\n    tag_14:\n      0x05\n      dup2\n      dup2\n      sload\n      dup2\n      lt\n      tag_24\n      jumpi\n      0x00\n      dup1\n      revert\n    tag_24:\n      swap1\n      0x00\n      mstore\n      keccak256(0x00, 0x20)\n      add\n      0x00\n      swap2\n      pop\n      swap1\n      pop\n      sload\n      dup2\n      jump\t// out\n        /* \"010_\\xe6\\x8e\\xa7\\xe5\\x88\\xb6.sol\":565:844  function reverse(uint256[] memory arr) public pure returns (uint256[] memory) {... */\n    tag_19:\n        /* \"010_\\xe6\\x8e\\xa7\\xe5\\x88\\xb6.sol\":625:641  uint256[] memory */\n      0x60\n        /* \"010_\\xe6\\x8e\\xa7\\xe5\\x88\\xb6.sol\":653:676  uint256[] memory NewArr */\n      0x00\n        /* \"010_\\xe6\\x8e\\xa7\\xe5\\x88\\xb6.sol\":693:696  arr */\n      dup3\n        /* \"010_\\xe6\\x8e\\xa7\\xe5\\x88\\xb6.sol\":693:703  arr.length */\n      mload\n        /* \"010_\\xe6\\x8e\\xa7\\xe5\\x88\\xb6.sol\":679:704  new uint256[](arr.length) */\n      0xffffffffffffffff\n      dup2\n      gt\n      iszero\n      tag_27\n      jumpi\n      tag_28\n      tag_29\n      jump\t// in\n    tag_28:\n    tag_27:\n      mload(0x40)\n      swap1\n      dup1\n      dup3\n      mstore\n      dup1\n      0x20\n      mul\n      0x20\n      add\n      dup3\n      add\n      0x40\n      mstore\n      dup1\n      iszero\n      tag_30\n      jumpi\n      dup2\n      0x20\n      add\n      0x20\n      dup3\n      mul\n      dup1\n      calldatasize\n      dup4\n      calldatacopy\n      dup1\n      dup3\n      add\n      swap2\n      pop\n      pop\n      swap1\n      pop\n    tag_30:\n      pop\n        /* \"010_\\xe6\\x8e\\xa7\\xe5\\x88\\xb6.sol\":653:704  uint256[] memory NewArr = new uint256[](arr.length) */\n      swap1\n      pop\n        /* \"010_\\xe6\\x8e\\xa7\\xe5\\x88\\xb6.sol\":719:728  uint256 i */\n      0x00\n        /* \"010_\\xe6\\x8e\\xa7\\xe5\\x88\\xb6.sol\":714:815  for (uint256 i = 0; i < arr.length; i++) {... */\n    tag_31:\n        /* \"010_\\xe6\\x8e\\xa7\\xe5\\x88\\xb6.sol\":738:741  arr */\n      dup4\n        /* \"010_\\xe6\\x8e\\xa7\\xe5\\x88\\xb6.sol\":738:748  arr.length */\n      mload\n        /* \"010_\\xe6\\x8e\\xa7\\xe5\\x88\\xb6.sol\":734:735  i */\n      dup2\n        /* \"010_\\xe6\\x8e\\xa7\\xe5\\x88\\xb6.sol\":734:748  i < arr.length */\n      lt\n        /* \"010_\\xe6\\x8e\\xa7\\xe5\\x88\\xb6.sol\":714:815  for (uint256 i = 0; i < arr.length; i++) {... */\n      iszero\n      tag_32\n      jumpi\n        /* \"010_\\xe6\\x8e\\xa7\\xe5\\x88\\xb6.sol\":781:784  arr */\n      dup4\n        /* \"010_\\xe6\\x8e\\xa7\\xe5\\x88\\xb6.sol\":802:803  1 */\n      0x01\n        /* \"010_\\xe6\\x8e\\xa7\\xe5\\x88\\xb6.sol\":798:799  i */\n      dup3\n        /* \"010_\\xe6\\x8e\\xa7\\xe5\\x88\\xb6.sol\":785:788  arr */\n      dup7\n        /* \"010_\\xe6\\x8e\\xa7\\xe5\\x88\\xb6.sol\":785:795  arr.length */\n      mload\n        /* \"010_\\xe6\\x8e\\xa7\\xe5\\x88\\xb6.sol\":785:799  arr.length - i */\n      tag_34\n      swap2\n      swap1\n      tag_35\n      jump\t// in\n    tag_34:\n        /* \"010_\\xe6\\x8e\\xa7\\xe5\\x88\\xb6.sol\":785:803  arr.length - i - 1 */\n      tag_36\n      swap2\n      swap1\n      tag_35\n      jump\t// in\n    tag_36:\n        /* \"010_\\xe6\\x8e\\xa7\\xe5\\x88\\xb6.sol\":781:804  arr[arr.length - i - 1] */\n      dup2\n      mload\n      dup2\n      lt\n      tag_37\n      jumpi\n      tag_38\n      tag_39\n      jump\t// in\n    tag_38:\n    tag_37:\n      0x20\n      mul\n      0x20\n      add\n      add\n      mload\n        /* \"010_\\xe6\\x8e\\xa7\\xe5\\x88\\xb6.sol\":769:775  NewArr */\n      dup3\n        /* \"010_\\xe6\\x8e\\xa7\\xe5\\x88\\xb6.sol\":776:777  i */\n      dup3\n        /* \"010_\\xe6\\x8e\\xa7\\xe5\\x88\\xb6.sol\":769:778  NewArr[i] */\n      dup2\n      mload\n      dup2\n      lt\n      tag_40\n      jumpi\n      tag_41\n      tag_39\n      jump\t// in\n    tag_41:\n    tag_40:\n      0x20\n      mul\n      0x20\n      add\n      add\n        /* \"010_\\xe6\\x8e\\xa7\\xe5\\x88\\xb6.sol\":769:804  NewArr[i] = arr[arr.length - i - 1] */\n      dup2\n      dup2\n      mstore\n      pop\n      pop\n        /* \"010_\\xe6\\x8e\\xa7\\xe5\\x88\\xb6.sol\":750:753  i++ */\n      dup1\n      dup1\n      tag_42\n      swap1\n      tag_43\n      jump\t// in\n    tag_42:\n      swap2\n      pop\n      pop\n        /* \"010_\\xe6\\x8e\\xa7\\xe5\\x88\\xb6.sol\":714:815  for (uint256 i = 0; i < arr.length; i++) {... */\n      jump(tag_31)\n    tag_32:\n      pop\n        /* \"010_\\xe6\\x8e\\xa7\\xe5\\x88\\xb6.sol\":831:837  NewArr */\n      dup1\n        /* \"010_\\xe6\\x8e\\xa7\\xe5\\x88\\xb6.sol\":824:837  return NewArr */\n      swap2\n      pop\n      pop\n        /* \"010_\\xe6\\x8e\\xa7\\xe5\\x88\\xb6.sol\":565:844  function reverse(uint256[] memory arr) public pure returns (uint256[] memory) {... */\n      swap2\n      swap1\n      pop\n      jump\t// out\n        /* \"#utility.yul\":7:82   */\n    tag_44:\n        /* \"#utility.yul\":40:46   */\n      0x00\n        /* \"#utility.yul\":73:75   */\n      0x40\n        /* \"#utility.yul\":67:76   */\n      mload\n        /* \"#utility.yul\":57:76   */\n      swap1\n      pop\n        /* \"#utility.yul\":7:82   */\n      swap1\n      jump\t// out\n        /* \"#utility.yul\":88:205   */\n    tag_45:\n        /* \"#utility.yul\":197:198   */\n      0x00\n        /* \"#utility.yul\":194:195   */\n      dup1\n        /* \"#utility.yul\":187:199   */\n      revert\n        /* \"#utility.yul\":211:328   */\n    tag_46:\n        /* \"#utility.yul\":320:321   */\n      0x00\n        /* \"#utility.yul\":317:318   */\n      dup1\n        /* \"#utility.yul\":310:322   */\n      revert\n        /* \"#utility.yul\":334:411   */\n    tag_47:\n        /* \"#utility.yul\":371:378   */\n      0x00\n        /* \"#utility.yul\":400:405   */\n      dup2\n        /* \"#utility.yul\":389:405   */\n      swap1\n      pop\n        /* \"#utility.yul\":334:411   */\n      swap2\n      swap1\n      pop\n      jump\t// out\n        /* \"#utility.yul\":417:539   */\n    tag_48:\n        /* \"#utility.yul\":490:514   */\n      tag_73\n        /* \"#utility.yul\":508:513   */\n      dup2\n        /* \"#utility.yul\":490:514   */\n      tag_47\n      jump\t// in\n    tag_73:\n        /* \"#utility.yul\":483:488   */\n      dup2\n        /* \"#utility.yul\":480:515   */\n      eq\n        /* \"#utility.yul\":470:533   */\n      tag_74\n      jumpi\n        /* \"#utility.yul\":529:530   */\n      0x00\n        /* \"#utility.yul\":526:527   */\n      dup1\n        /* \"#utility.yul\":519:531   */\n      revert\n        /* \"#utility.yul\":470:533   */\n    tag_74:\n        /* \"#utility.yul\":417:539   */\n      pop\n      jump\t// out\n        /* \"#utility.yul\":545:684   */\n    tag_49:\n        /* \"#utility.yul\":591:596   */\n      0x00\n        /* \"#utility.yul\":629:635   */\n      dup2\n        /* \"#utility.yul\":616:636   */\n      calldataload\n        /* \"#utility.yul\":607:636   */\n      swap1\n      pop\n        /* \"#utility.yul\":645:678   */\n      tag_76\n        /* \"#utility.yul\":672:677   */\n      dup2\n        /* \"#utility.yul\":645:678   */\n      tag_48\n      jump\t// in\n    tag_76:\n        /* \"#utility.yul\":545:684   */\n      swap3\n      swap2\n      pop\n      pop\n      jump\t// out\n        /* \"#utility.yul\":690:1019   */\n    tag_8:\n        /* \"#utility.yul\":749:755   */\n      0x00\n        /* \"#utility.yul\":798:800   */\n      0x20\n        /* \"#utility.yul\":786:795   */\n      dup3\n        /* \"#utility.yul\":777:784   */\n      dup5\n        /* \"#utility.yul\":773:796   */\n      sub\n        /* \"#utility.yul\":769:801   */\n      slt\n        /* \"#utility.yul\":766:885   */\n      iszero\n      tag_78\n      jumpi\n        /* \"#utility.yul\":804:883   */\n      tag_79\n      tag_45\n      jump\t// in\n    tag_79:\n        /* \"#utility.yul\":766:885   */\n    tag_78:\n        /* \"#utility.yul\":924:925   */\n      0x00\n        /* \"#utility.yul\":949:1002   */\n      tag_80\n        /* \"#utility.yul\":994:1001   */\n      dup5\n        /* \"#utility.yul\":985:991   */\n      dup3\n        /* \"#utility.yul\":974:983   */\n      dup6\n        /* \"#utility.yul\":970:992   */\n      add\n        /* \"#utility.yul\":949:1002   */\n      tag_49\n      jump\t// in\n    tag_80:\n        /* \"#utility.yul\":939:1002   */\n      swap2\n      pop\n        /* \"#utility.yul\":895:1012   */\n      pop\n        /* \"#utility.yul\":690:1019   */\n      swap3\n      swap2\n      pop\n      pop\n      jump\t// out\n        /* \"#utility.yul\":1025:1143   */\n    tag_50:\n        /* \"#utility.yul\":1112:1136   */\n      tag_82\n        /* \"#utility.yul\":1130:1135   */\n      dup2\n        /* \"#utility.yul\":1112:1136   */\n      tag_47\n      jump\t// in\n    tag_82:\n        /* \"#utility.yul\":1107:1110   */\n      dup3\n        /* \"#utility.yul\":1100:1137   */\n      mstore\n        /* \"#utility.yul\":1025:1143   */\n      pop\n      pop\n      jump\t// out\n        /* \"#utility.yul\":1149:1371   */\n    tag_11:\n        /* \"#utility.yul\":1242:1246   */\n      0x00\n        /* \"#utility.yul\":1280:1282   */\n      0x20\n        /* \"#utility.yul\":1269:1278   */\n      dup3\n        /* \"#utility.yul\":1265:1283   */\n      add\n        /* \"#utility.yul\":1257:1283   */\n      swap1\n      pop\n        /* \"#utility.yul\":1293:1364   */\n      tag_84\n        /* \"#utility.yul\":1361:1362   */\n      0x00\n        /* \"#utility.yul\":1350:1359   */\n      dup4\n        /* \"#utility.yul\":1346:1363   */\n      add\n        /* \"#utility.yul\":1337:1343   */\n      dup5\n        /* \"#utility.yul\":1293:1364   */\n      tag_50\n      jump\t// in\n    tag_84:\n        /* \"#utility.yul\":1149:1371   */\n      swap3\n      swap2\n      pop\n      pop\n      jump\t// out\n        /* \"#utility.yul\":1377:1494   */\n    tag_51:\n        /* \"#utility.yul\":1486:1487   */\n      0x00\n        /* \"#utility.yul\":1483:1484   */\n      dup1\n        /* \"#utility.yul\":1476:1488   */\n      revert\n        /* \"#utility.yul\":1500:1602   */\n    tag_52:\n        /* \"#utility.yul\":1541:1547   */\n      0x00\n        /* \"#utility.yul\":1592:1594   */\n      0x1f\n        /* \"#utility.yul\":1588:1595   */\n      not\n        /* \"#utility.yul\":1583:1585   */\n      0x1f\n        /* \"#utility.yul\":1576:1581   */\n      dup4\n        /* \"#utility.yul\":1572:1586   */\n      add\n        /* \"#utility.yul\":1568:1596   */\n      and\n        /* \"#utility.yul\":1558:1596   */\n      swap1\n      pop\n        /* \"#utility.yul\":1500:1602   */\n      swap2\n      swap1\n      pop\n      jump\t// out\n        /* \"#utility.yul\":1608:1788   */\n    tag_29:\n        /* \"#utility.yul\":1656:1733   */\n      0x4e487b7100000000000000000000000000000000000000000000000000000000\n        /* \"#utility.yul\":1653:1654   */\n      0x00\n        /* \"#utility.yul\":1646:1734   */\n      mstore\n        /* \"#utility.yul\":1753:1757   */\n      0x41\n        /* \"#utility.yul\":1750:1751   */\n      0x04\n        /* \"#utility.yul\":1743:1758   */\n      mstore\n        /* \"#utility.yul\":1777:1781   */\n      0x24\n        /* \"#utility.yul\":1774:1775   */\n      0x00\n        /* \"#utility.yul\":1767:1782   */\n      revert\n        /* \"#utility.yul\":1794:2075   */\n    tag_53:\n        /* \"#utility.yul\":1877:1904   */\n      tag_89\n        /* \"#utility.yul\":1899:1903   */\n      dup3\n        /* \"#utility.yul\":1877:1904   */\n      tag_52\n      jump\t// in\n    tag_89:\n        /* \"#utility.yul\":1869:1875   */\n      dup2\n        /* \"#utility.yul\":1865:1905   */\n      add\n        /* \"#utility.yul\":2007:2013   */\n      dup2\n        /* \"#utility.yul\":1995:2005   */\n      dup2\n        /* \"#utility.yul\":1992:2014   */\n      lt\n        /* \"#utility.yul\":1971:1989   */\n      0xffffffffffffffff\n        /* \"#utility.yul\":1959:1969   */\n      dup3\n        /* \"#utility.yul\":1956:1990   */\n      gt\n        /* \"#utility.yul\":1953:2015   */\n      or\n        /* \"#utility.yul\":1950:2038   */\n      iszero\n      tag_90\n      jumpi\n        /* \"#utility.yul\":2018:2036   */\n      tag_91\n      tag_29\n      jump\t// in\n    tag_91:\n        /* \"#utility.yul\":1950:2038   */\n    tag_90:\n        /* \"#utility.yul\":2058:2068   */\n      dup1\n        /* \"#utility.yul\":2054:2056   */\n      0x40\n        /* \"#utility.yul\":2047:2069   */\n      mstore\n        /* \"#utility.yul\":1837:2075   */\n      pop\n        /* \"#utility.yul\":1794:2075   */\n      pop\n      pop\n      jump\t// out\n        /* \"#utility.yul\":2081:2210   */\n    tag_54:\n        /* \"#utility.yul\":2115:2121   */\n      0x00\n        /* \"#utility.yul\":2142:2162   */\n      tag_93\n      tag_44\n      jump\t// in\n    tag_93:\n        /* \"#utility.yul\":2132:2162   */\n      swap1\n      pop\n        /* \"#utility.yul\":2171:2204   */\n      tag_94\n        /* \"#utility.yul\":2199:2203   */\n      dup3\n        /* \"#utility.yul\":2191:2197   */\n      dup3\n        /* \"#utility.yul\":2171:2204   */\n      tag_53\n      jump\t// in\n    tag_94:\n        /* \"#utility.yul\":2081:2210   */\n      swap2\n      swap1\n      pop\n      jump\t// out\n        /* \"#utility.yul\":2216:2527   */\n    tag_55:\n        /* \"#utility.yul\":2293:2297   */\n      0x00\n        /* \"#utility.yul\":2383:2401   */\n      0xffffffffffffffff\n        /* \"#utility.yul\":2375:2381   */\n      dup3\n        /* \"#utility.yul\":2372:2402   */\n      gt\n        /* \"#utility.yul\":2369:2425   */\n      iszero\n      tag_96\n      jumpi\n        /* \"#utility.yul\":2405:2423   */\n      tag_97\n      tag_29\n      jump\t// in\n    tag_97:\n        /* \"#utility.yul\":2369:2425   */\n    tag_96:\n        /* \"#utility.yul\":2455:2459   */\n      0x20\n        /* \"#utility.yul\":2447:2453   */\n      dup3\n        /* \"#utility.yul\":2443:2460   */\n      mul\n        /* \"#utility.yul\":2435:2460   */\n      swap1\n      pop\n        /* \"#utility.yul\":2515:2519   */\n      0x20\n        /* \"#utility.yul\":2509:2513   */\n      dup2\n        /* \"#utility.yul\":2505:2520   */\n      add\n        /* \"#utility.yul\":2497:2520   */\n      swap1\n      pop\n        /* \"#utility.yul\":2216:2527   */\n      swap2\n      swap1\n      pop\n      jump\t// out\n        /* \"#utility.yul\":2533:2650   */\n    tag_56:\n        /* \"#utility.yul\":2642:2643   */\n      0x00\n        /* \"#utility.yul\":2639:2640   */\n      dup1\n        /* \"#utility.yul\":2632:2644   */\n      revert\n        /* \"#utility.yul\":2673:3383   */\n    tag_57:\n        /* \"#utility.yul\":2769:2774   */\n      0x00\n        /* \"#utility.yul\":2794:2875   */\n      tag_100\n        /* \"#utility.yul\":2810:2874   */\n      tag_101\n        /* \"#utility.yul\":2867:2873   */\n      dup5\n        /* \"#utility.yul\":2810:2874   */\n      tag_55\n      jump\t// in\n    tag_101:\n        /* \"#utility.yul\":2794:2875   */\n      tag_54\n      jump\t// in\n    tag_100:\n        /* \"#utility.yul\":2785:2875   */\n      swap1\n      pop\n        /* \"#utility.yul\":2895:2900   */\n      dup1\n        /* \"#utility.yul\":2924:2930   */\n      dup4\n        /* \"#utility.yul\":2917:2922   */\n      dup3\n        /* \"#utility.yul\":2910:2931   */\n      mstore\n        /* \"#utility.yul\":2958:2962   */\n      0x20\n        /* \"#utility.yul\":2951:2956   */\n      dup3\n        /* \"#utility.yul\":2947:2963   */\n      add\n        /* \"#utility.yul\":2940:2963   */\n      swap1\n      pop\n        /* \"#utility.yul\":3011:3015   */\n      0x20\n        /* \"#utility.yul\":3003:3009   */\n      dup5\n        /* \"#utility.yul\":2999:3016   */\n      mul\n        /* \"#utility.yul\":2991:2997   */\n      dup4\n        /* \"#utility.yul\":2987:3017   */\n      add\n        /* \"#utility.yul\":3040:3043   */\n      dup6\n        /* \"#utility.yul\":3032:3038   */\n      dup2\n        /* \"#utility.yul\":3029:3044   */\n      gt\n        /* \"#utility.yul\":3026:3148   */\n      iszero\n      tag_102\n      jumpi\n        /* \"#utility.yul\":3059:3138   */\n      tag_103\n      tag_56\n      jump\t// in\n    tag_103:\n        /* \"#utility.yul\":3026:3148   */\n    tag_102:\n        /* \"#utility.yul\":3174:3180   */\n      dup4\n        /* \"#utility.yul\":3157:3377   */\n    tag_104:\n        /* \"#utility.yul\":3191:3197   */\n      dup2\n        /* \"#utility.yul\":3186:3189   */\n      dup2\n        /* \"#utility.yul\":3183:3198   */\n      lt\n        /* \"#utility.yul\":3157:3377   */\n      iszero\n      tag_106\n      jumpi\n        /* \"#utility.yul\":3266:3269   */\n      dup1\n        /* \"#utility.yul\":3295:3332   */\n      tag_107\n        /* \"#utility.yul\":3328:3331   */\n      dup9\n        /* \"#utility.yul\":3316:3326   */\n      dup3\n        /* \"#utility.yul\":3295:3332   */\n      tag_49\n      jump\t// in\n    tag_107:\n        /* \"#utility.yul\":3290:3293   */\n      dup5\n        /* \"#utility.yul\":3283:3333   */\n      mstore\n        /* \"#utility.yul\":3362:3366   */\n      0x20\n        /* \"#utility.yul\":3357:3360   */\n      dup5\n        /* \"#utility.yul\":3353:3367   */\n      add\n        /* \"#utility.yul\":3346:3367   */\n      swap4\n      pop\n        /* \"#utility.yul\":3233:3377   */\n      pop\n        /* \"#utility.yul\":3217:3221   */\n      0x20\n        /* \"#utility.yul\":3212:3215   */\n      dup2\n        /* \"#utility.yul\":3208:3222   */\n      add\n        /* \"#utility.yul\":3201:3222   */\n      swap1\n      pop\n        /* \"#utility.yul\":3157:3377   */\n      jump(tag_104)\n    tag_106:\n        /* \"#utility.yul\":3161:3182   */\n      pop\n        /* \"#utility.yul\":2775:3383   */\n      pop\n      pop\n        /* \"#utility.yul\":2673:3383   */\n      swap4\n      swap3\n      pop\n      pop\n      pop\n      jump\t// out\n        /* \"#utility.yul\":3406:3776   */\n    tag_58:\n        /* \"#utility.yul\":3477:3482   */\n      0x00\n        /* \"#utility.yul\":3526:3529   */\n      dup3\n        /* \"#utility.yul\":3519:3523   */\n      0x1f\n        /* \"#utility.yul\":3511:3517   */\n      dup4\n        /* \"#utility.yul\":3507:3524   */\n      add\n        /* \"#utility.yul\":3503:3530   */\n      slt\n        /* \"#utility.yul\":3493:3615   */\n      tag_109\n      jumpi\n        /* \"#utility.yul\":3534:3613   */\n      tag_110\n      tag_51\n      jump\t// in\n    tag_110:\n        /* \"#utility.yul\":3493:3615   */\n    tag_109:\n        /* \"#utility.yul\":3651:3657   */\n      dup2\n        /* \"#utility.yul\":3638:3658   */\n      calldataload\n        /* \"#utility.yul\":3676:3770   */\n      tag_111\n        /* \"#utility.yul\":3766:3769   */\n      dup5\n        /* \"#utility.yul\":3758:3764   */\n      dup3\n        /* \"#utility.yul\":3751:3755   */\n      0x20\n        /* \"#utility.yul\":3743:3749   */\n      dup7\n        /* \"#utility.yul\":3739:3756   */\n      add\n        /* \"#utility.yul\":3676:3770   */\n      tag_57\n      jump\t// in\n    tag_111:\n        /* \"#utility.yul\":3667:3770   */\n      swap2\n      pop\n        /* \"#utility.yul\":3483:3776   */\n      pop\n        /* \"#utility.yul\":3406:3776   */\n      swap3\n      swap2\n      pop\n      pop\n      jump\t// out\n        /* \"#utility.yul\":3782:4321   */\n    tag_18:\n        /* \"#utility.yul\":3866:3872   */\n      0x00\n        /* \"#utility.yul\":3915:3917   */\n      0x20\n        /* \"#utility.yul\":3903:3912   */\n      dup3\n        /* \"#utility.yul\":3894:3901   */\n      dup5\n        /* \"#utility.yul\":3890:3913   */\n      sub\n        /* \"#utility.yul\":3886:3918   */\n      slt\n        /* \"#utility.yul\":3883:4002   */\n      iszero\n      tag_113\n      jumpi\n        /* \"#utility.yul\":3921:4000   */\n      tag_114\n      tag_45\n      jump\t// in\n    tag_114:\n        /* \"#utility.yul\":3883:4002   */\n    tag_113:\n        /* \"#utility.yul\":4069:4070   */\n      0x00\n        /* \"#utility.yul\":4058:4067   */\n      dup3\n        /* \"#utility.yul\":4054:4071   */\n      add\n        /* \"#utility.yul\":4041:4072   */\n      calldataload\n        /* \"#utility.yul\":4099:4117   */\n      0xffffffffffffffff\n        /* \"#utility.yul\":4091:4097   */\n      dup2\n        /* \"#utility.yul\":4088:4118   */\n      gt\n        /* \"#utility.yul\":4085:4202   */\n      iszero\n      tag_115\n      jumpi\n        /* \"#utility.yul\":4121:4200   */\n      tag_116\n      tag_46\n      jump\t// in\n    tag_116:\n        /* \"#utility.yul\":4085:4202   */\n    tag_115:\n        /* \"#utility.yul\":4226:4304   */\n      tag_117\n        /* \"#utility.yul\":4296:4303   */\n      dup5\n        /* \"#utility.yul\":4287:4293   */\n      dup3\n        /* \"#utility.yul\":4276:4285   */\n      dup6\n        /* \"#utility.yul\":4272:4294   */\n      add\n        /* \"#utility.yul\":4226:4304   */\n      tag_58\n      jump\t// in\n    tag_117:\n        /* \"#utility.yul\":4216:4304   */\n      swap2\n      pop\n        /* \"#utility.yul\":4012:4314   */\n      pop\n        /* \"#utility.yul\":3782:4321   */\n      swap3\n      swap2\n      pop\n      pop\n      jump\t// out\n        /* \"#utility.yul\":4327:4441   */\n    tag_59:\n        /* \"#utility.yul\":4394:4400   */\n      0x00\n        /* \"#utility.yul\":4428:4433   */\n      dup2\n        /* \"#utility.yul\":4422:4434   */\n      mload\n        /* \"#utility.yul\":4412:4434   */\n      swap1\n      pop\n        /* \"#utility.yul\":4327:4441   */\n      swap2\n      swap1\n      pop\n      jump\t// out\n        /* \"#utility.yul\":4447:4631   */\n    tag_60:\n        /* \"#utility.yul\":4546:4557   */\n      0x00\n        /* \"#utility.yul\":4580:4586   */\n      dup3\n        /* \"#utility.yul\":4575:4578   */\n      dup3\n        /* \"#utility.yul\":4568:4587   */\n      mstore\n        /* \"#utility.yul\":4620:4624   */\n      0x20\n        /* \"#utility.yul\":4615:4618   */\n      dup3\n        /* \"#utility.yul\":4611:4625   */\n      add\n        /* \"#utility.yul\":4596:4625   */\n      swap1\n      pop\n        /* \"#utility.yul\":4447:4631   */\n      swap3\n      swap2\n      pop\n      pop\n      jump\t// out\n        /* \"#utility.yul\":4637:4769   */\n    tag_61:\n        /* \"#utility.yul\":4704:4708   */\n      0x00\n        /* \"#utility.yul\":4727:4730   */\n      dup2\n        /* \"#utility.yul\":4719:4730   */\n      swap1\n      pop\n        /* \"#utility.yul\":4757:4761   */\n      0x20\n        /* \"#utility.yul\":4752:4755   */\n      dup3\n        /* \"#utility.yul\":4748:4762   */\n      add\n        /* \"#utility.yul\":4740:4762   */\n      swap1\n      pop\n        /* \"#utility.yul\":4637:4769   */\n      swap2\n      swap1\n      pop\n      jump\t// out\n        /* \"#utility.yul\":4775:4883   */\n    tag_62:\n        /* \"#utility.yul\":4852:4876   */\n      tag_122\n        /* \"#utility.yul\":4870:4875   */\n      dup2\n        /* \"#utility.yul\":4852:4876   */\n      tag_47\n      jump\t// in\n    tag_122:\n        /* \"#utility.yul\":4847:4850   */\n      dup3\n        /* \"#utility.yul\":4840:4877   */\n      mstore\n        /* \"#utility.yul\":4775:4883   */\n      pop\n      pop\n      jump\t// out\n        /* \"#utility.yul\":4889:5068   */\n    tag_63:\n        /* \"#utility.yul\":4958:4968   */\n      0x00\n        /* \"#utility.yul\":4979:5025   */\n      tag_124\n        /* \"#utility.yul\":5021:5024   */\n      dup4\n        /* \"#utility.yul\":5013:5019   */\n      dup4\n        /* \"#utility.yul\":4979:5025   */\n      tag_62\n      jump\t// in\n    tag_124:\n        /* \"#utility.yul\":5057:5061   */\n      0x20\n        /* \"#utility.yul\":5052:5055   */\n      dup4\n        /* \"#utility.yul\":5048:5062   */\n      add\n        /* \"#utility.yul\":5034:5062   */\n      swap1\n      pop\n        /* \"#utility.yul\":4889:5068   */\n      swap3\n      swap2\n      pop\n      pop\n      jump\t// out\n        /* \"#utility.yul\":5074:5187   */\n    tag_64:\n        /* \"#utility.yul\":5144:5148   */\n      0x00\n        /* \"#utility.yul\":5176:5180   */\n      0x20\n        /* \"#utility.yul\":5171:5174   */\n      dup3\n        /* \"#utility.yul\":5167:5181   */\n      add\n        /* \"#utility.yul\":5159:5181   */\n      swap1\n      pop\n        /* \"#utility.yul\":5074:5187   */\n      swap2\n      swap1\n      pop\n      jump\t// out\n        /* \"#utility.yul\":5223:5955   */\n    tag_65:\n        /* \"#utility.yul\":5342:5345   */\n      0x00\n        /* \"#utility.yul\":5371:5425   */\n      tag_127\n        /* \"#utility.yul\":5419:5424   */\n      dup3\n        /* \"#utility.yul\":5371:5425   */\n      tag_59\n      jump\t// in\n    tag_127:\n        /* \"#utility.yul\":5441:5527   */\n      tag_128\n        /* \"#utility.yul\":5520:5526   */\n      dup2\n        /* \"#utility.yul\":5515:5518   */\n      dup6\n        /* \"#utility.yul\":5441:5527   */\n      tag_60\n      jump\t// in\n    tag_128:\n        /* \"#utility.yul\":5434:5527   */\n      swap4\n      pop\n        /* \"#utility.yul\":5551:5607   */\n      tag_129\n        /* \"#utility.yul\":5601:5606   */\n      dup4\n        /* \"#utility.yul\":5551:5607   */\n      tag_61\n      jump\t// in\n    tag_129:\n        /* \"#utility.yul\":5630:5637   */\n      dup1\n        /* \"#utility.yul\":5661:5662   */\n      0x00\n        /* \"#utility.yul\":5646:5930   */\n    tag_130:\n        /* \"#utility.yul\":5671:5677   */\n      dup4\n        /* \"#utility.yul\":5668:5669   */\n      dup2\n        /* \"#utility.yul\":5665:5678   */\n      lt\n        /* \"#utility.yul\":5646:5930   */\n      iszero\n      tag_132\n      jumpi\n        /* \"#utility.yul\":5747:5753   */\n      dup2\n        /* \"#utility.yul\":5741:5754   */\n      mload\n        /* \"#utility.yul\":5774:5837   */\n      tag_133\n        /* \"#utility.yul\":5833:5836   */\n      dup9\n        /* \"#utility.yul\":5818:5831   */\n      dup3\n        /* \"#utility.yul\":5774:5837   */\n      tag_63\n      jump\t// in\n    tag_133:\n        /* \"#utility.yul\":5767:5837   */\n      swap8\n      pop\n        /* \"#utility.yul\":5860:5920   */\n      tag_134\n        /* \"#utility.yul\":5913:5919   */\n      dup4\n        /* \"#utility.yul\":5860:5920   */\n      tag_64\n      jump\t// in\n    tag_134:\n        /* \"#utility.yul\":5850:5920   */\n      swap3\n      pop\n        /* \"#utility.yul\":5706:5930   */\n      pop\n        /* \"#utility.yul\":5693:5694   */\n      0x01\n        /* \"#utility.yul\":5690:5691   */\n      dup2\n        /* \"#utility.yul\":5686:5695   */\n      add\n        /* \"#utility.yul\":5681:5695   */\n      swap1\n      pop\n        /* \"#utility.yul\":5646:5930   */\n      jump(tag_130)\n    tag_132:\n        /* \"#utility.yul\":5650:5664   */\n      pop\n        /* \"#utility.yul\":5946:5949   */\n      dup6\n        /* \"#utility.yul\":5939:5949   */\n      swap4\n      pop\n        /* \"#utility.yul\":5347:5955   */\n      pop\n      pop\n      pop\n        /* \"#utility.yul\":5223:5955   */\n      swap3\n      swap2\n      pop\n      pop\n      jump\t// out\n        /* \"#utility.yul\":5961:6334   */\n    tag_21:\n        /* \"#utility.yul\":6104:6108   */\n      0x00\n        /* \"#utility.yul\":6142:6144   */\n      0x20\n        /* \"#utility.yul\":6131:6140   */\n      dup3\n        /* \"#utility.yul\":6127:6145   */\n      add\n        /* \"#utility.yul\":6119:6145   */\n      swap1\n      pop\n        /* \"#utility.yul\":6191:6200   */\n      dup2\n        /* \"#utility.yul\":6185:6189   */\n      dup2\n        /* \"#utility.yul\":6181:6201   */\n      sub\n        /* \"#utility.yul\":6177:6178   */\n      0x00\n        /* \"#utility.yul\":6166:6175   */\n      dup4\n        /* \"#utility.yul\":6162:6179   */\n      add\n        /* \"#utility.yul\":6155:6202   */\n      mstore\n        /* \"#utility.yul\":6219:6327   */\n      tag_136\n        /* \"#utility.yul\":6322:6326   */\n      dup2\n        /* \"#utility.yul\":6313:6319   */\n      dup5\n        /* \"#utility.yul\":6219:6327   */\n      tag_65\n      jump\t// in\n    tag_136:\n        /* \"#utility.yul\":6211:6327   */\n      swap1\n      pop\n        /* \"#utility.yul\":5961:6334   */\n      swap3\n      swap2\n      pop\n      pop\n      jump\t// out\n        /* \"#utility.yul\":6340:6520   */\n    tag_66:\n        /* \"#utility.yul\":6388:6465   */\n      0x4e487b7100000000000000000000000000000000000000000000000000000000\n        /* \"#utility.yul\":6385:6386   */\n      0x00\n        /* \"#utility.yul\":6378:6466   */\n      mstore\n        /* \"#utility.yul\":6485:6489   */\n      0x11\n        /* \"#utility.yul\":6482:6483   */\n      0x04\n        /* \"#utility.yul\":6475:6490   */\n      mstore\n        /* \"#utility.yul\":6509:6513   */\n      0x24\n        /* \"#utility.yul\":6506:6507   */\n      0x00\n        /* \"#utility.yul\":6499:6514   */\n      revert\n        /* \"#utility.yul\":6526:6720   */\n    tag_35:\n        /* \"#utility.yul\":6566:6570   */\n      0x00\n        /* \"#utility.yul\":6586:6606   */\n      tag_139\n        /* \"#utility.yul\":6604:6605   */\n      dup3\n        /* \"#utility.yul\":6586:6606   */\n      tag_47\n      jump\t// in\n    tag_139:\n        /* \"#utility.yul\":6581:6606   */\n      swap2\n      pop\n        /* \"#utility.yul\":6620:6640   */\n      tag_140\n        /* \"#utility.yul\":6638:6639   */\n      dup4\n        /* \"#utility.yul\":6620:6640   */\n      tag_47\n      jump\t// in\n    tag_140:\n        /* \"#utility.yul\":6615:6640   */\n      swap3\n      pop\n        /* \"#utility.yul\":6664:6665   */\n      dup3\n        /* \"#utility.yul\":6661:6662   */\n      dup3\n        /* \"#utility.yul\":6657:6666   */\n      sub\n        /* \"#utility.yul\":6649:6666   */\n      swap1\n      pop\n        /* \"#utility.yul\":6688:6689   */\n      dup2\n        /* \"#utility.yul\":6682:6686   */\n      dup2\n        /* \"#utility.yul\":6679:6690   */\n      gt\n        /* \"#utility.yul\":6676:6713   */\n      iszero\n      tag_141\n      jumpi\n        /* \"#utility.yul\":6693:6711   */\n      tag_142\n      tag_66\n      jump\t// in\n    tag_142:\n        /* \"#utility.yul\":6676:6713   */\n    tag_141:\n        /* \"#utility.yul\":6526:6720   */\n      swap3\n      swap2\n      pop\n      pop\n      jump\t// out\n        /* \"#utility.yul\":6726:6906   */\n    tag_39:\n        /* \"#utility.yul\":6774:6851   */\n      0x4e487b7100000000000000000000000000000000000000000000000000000000\n        /* \"#utility.yul\":6771:6772   */\n      0x00\n        /* \"#utility.yul\":6764:6852   */\n      mstore\n        /* \"#utility.yul\":6871:6875   */\n      0x32\n        /* \"#utility.yul\":6868:6869   */\n      0x04\n        /* \"#utility.yul\":6861:6876   */\n      mstore\n        /* \"#utility.yul\":6895:6899   */\n      0x24\n        /* \"#utility.yul\":6892:6893   */\n      0x00\n        /* \"#utility.yul\":6885:6900   */\n      revert\n        /* \"#utility.yul\":6912:7145   */\n    tag_43:\n        /* \"#utility.yul\":6951:6954   */\n      0x00\n        /* \"#utility.yul\":6974:6998   */\n      tag_145\n        /* \"#utility.yul\":6992:6997   */\n      dup3\n        /* \"#utility.yul\":6974:6998   */\n      tag_47\n      jump\t// in\n    tag_145:\n        /* \"#utility.yul\":6965:6998   */\n      swap2\n      pop\n        /* \"#utility.yul\":7020:7086   */\n      0xffffffffffffffffffffffffffffffffffffffffffffffffffffffffffffffff\n        /* \"#utility.yul\":7013:7018   */\n      dup3\n        /* \"#utility.yul\":7010:7087   */\n      sub\n        /* \"#utility.yul\":7007:7110   */\n      tag_146\n      jumpi\n        /* \"#utility.yul\":7090:7108   */\n      tag_147\n      tag_66\n      jump\t// in\n    tag_147:\n        /* \"#utility.yul\":7007:7110   */\n    tag_146:\n        /* \"#utility.yul\":7137:7138   */\n      0x01\n        /* \"#utility.yul\":7130:7135   */\n      dup3\n        /* \"#utility.yul\":7126:7139   */\n      add\n        /* \"#utility.yul\":7119:7139   */\n      swap1\n      pop\n        /* \"#utility.yul\":6912:7145   */\n      swap2\n      swap1\n      pop\n      jump\t// out\n\n    auxdata: 0xa2646970667358221220a12e01d763abc48710825bca6ceb3216fde4808f14341c5e5b0ddd02b3f2567664736f6c63430008120033\n}\n",
				"bytecode": {
					"linkReferences": {},
					"object": "60806040526040518060a00160405280600a60ff168152602001601460ff168152602001601e60ff168152602001602860ff168152602001603260ff1681525060009060056200005192919062000279565b503480156200005f57600080fd5b50620000c0620000b46000600580602002604051908101604052809291908260058015620000a3576020028201915b8154815260200190600101908083116200008e575b5050505050620000de60201b60201c565b6200019c60201b60201c565b60059080519060200190620000d7929190620002c3565b5062000453565b60606000600567ffffffffffffffff8111156200010057620000ff62000334565b5b6040519080825280602002602001820160405280156200012f5781602001602082028036833780820191505090505b50905060005b6005811015620001925783816005811062000155576200015462000363565b5b602002015182828151811062000170576200016f62000363565b5b60200260200101818152505080806200018990620003cb565b91505062000135565b5080915050919050565b60606000825167ffffffffffffffff811115620001be57620001bd62000334565b5b604051908082528060200260200182016040528015620001ed5781602001602082028036833780820191505090505b50905060005b83518110156200026f578360018286516200020f919062000418565b6200021b919062000418565b815181106200022f576200022e62000363565b5b60200260200101518282815181106200024d576200024c62000363565b5b60200260200101818152505080806200026690620003cb565b915050620001f3565b5080915050919050565b8260058101928215620002b0579160200282015b82811115620002af578251829060ff169055916020019190600101906200028d565b5b509050620002bf919062000315565b5090565b82805482825590600052602060002090810192821562000302579160200282015b8281111562000301578251825591602001919060010190620002e4565b5b50905062000311919062000315565b5090565b5b808211156200033057600081600090555060010162000316565b5090565b7f4e487b7100000000000000000000000000000000000000000000000000000000600052604160045260246000fd5b7f4e487b7100000000000000000000000000000000000000000000000000000000600052603260045260246000fd5b7f4e487b7100000000000000000000000000000000000000000000000000000000600052601160045260246000fd5b6000819050919050565b6000620003d882620003c1565b91507fffffffffffffffffffffffffffffffffffffffffffffffffffffffffffffffff82036200040d576200040c62000392565b5b600182019050919050565b60006200042582620003c1565b91506200043283620003c1565b92508282039050818111156200044d576200044c62000392565b5b92915050565b61061380620004636000396000f3fe608060405234801561001057600080fd5b50600436106100415760003560e01c80630fe683061461004657806384d6060014610076578063a9333cfc146100a6575b600080fd5b610060600480360381019061005b919061022a565b6100d6565b60405161006d9190610266565b60405180910390f35b610090600480360381019061008b919061022a565b6100f1565b60405161009d9190610266565b60405180910390f35b6100c060048036038101906100bb91906103da565b610115565b6040516100cd91906104e1565b60405180910390f35b600081600581106100e657600080fd5b016000915090505481565b6005818154811061010157600080fd5b906000526020600020016000915090505481565b60606000825167ffffffffffffffff81111561013457610133610297565b5b6040519080825280602002602001820160405280156101625781602001602082028036833780820191505090505b50905060005b83518110156101d6578360018286516101819190610532565b61018b9190610532565b8151811061019c5761019b610566565b5b60200260200101518282815181106101b7576101b6610566565b5b60200260200101818152505080806101ce90610595565b915050610168565b5080915050919050565b6000604051905090565b600080fd5b600080fd5b6000819050919050565b610207816101f4565b811461021257600080fd5b50565b600081359050610224816101fe565b92915050565b6000602082840312156102405761023f6101ea565b5b600061024e84828501610215565b91505092915050565b610260816101f4565b82525050565b600060208201905061027b6000830184610257565b92915050565b600080fd5b6000601f19601f8301169050919050565b7f4e487b7100000000000000000000000000000000000000000000000000000000600052604160045260246000fd5b6102cf82610286565b810181811067ffffffffffffffff821117156102ee576102ed610297565b5b80604052505050565b60006103016101e0565b905061030d82826102c6565b919050565b600067ffffffffffffffff82111561032d5761032c610297565b5b602082029050602081019050919050565b600080fd5b600061035661035184610312565b6102f7565b905080838252602082019050602084028301858111156103795761037861033e565b5b835b818110156103a2578061038e8882610215565b84526020840193505060208101905061037b565b5050509392505050565b600082601f8301126103c1576103c0610281565b5b81356103d1848260208601610343565b91505092915050565b6000602082840312156103f0576103ef6101ea565b5b600082013567ffffffffffffffff81111561040e5761040d6101ef565b5b61041a848285016103ac565b91505092915050565b600081519050919050565b600082825260208201905092915050565b6000819050602082019050919050565b610458816101f4565b82525050565b600061046a838361044f565b60208301905092915050565b6000602082019050919050565b600061048e82610423565b610498818561042e565b93506104a38361043f565b8060005b838110156104d45781516104bb888261045e565b97506104c683610476565b9250506001810190506104a7565b5085935050505092915050565b600060208201905081810360008301526104fb8184610483565b905092915050565b7f4e487b7100000000000000000000000000000000000000000000000000000000600052601160045260246000fd5b600061053d826101f4565b9150610548836101f4565b92508282039050818111156105605761055f610503565b5b92915050565b7f4e487b7100000000000000000000000000000000000000000000000000000000600052603260045260246000fd5b60006105a0826101f4565b91507fffffffffffffffffffffffffffffffffffffffffffffffffffffffffffffffff82036105d2576105d1610503565b5b60018201905091905056fea2646970667358221220a12e01d763abc48710825bca6ceb3216fde4808f14341c5e5b0ddd02b3f2567664736f6c63430008120033",
					"opcodes": "PUSH1 0x80 PUSH1 0x40 MSTORE PUSH1 0x40 MLOAD DUP1 PUSH1 0xA0 ADD PUSH1 0x40 MSTORE DUP1 PUSH1 0xA PUSH1 0xFF AND DUP2 MSTORE PUSH1 0x20 ADD PUSH1 0x14 PUSH1 0xFF AND DUP2 MSTORE PUSH1 0x20 ADD PUSH1 0x1E PUSH1 0xFF AND DUP2 MSTORE PUSH1 0x20 ADD PUSH1 0x28 PUSH1 0xFF AND DUP2 MSTORE PUSH1 0x20 ADD PUSH1 0x32 PUSH1 0xFF AND DUP2 MSTORE POP PUSH1 0x0 SWAP1 PUSH1 0x5 PUSH3 0x51 SWAP3 SWAP2 SWAP1 PUSH3 0x279 JUMP JUMPDEST POP CALLVALUE DUP1 ISZERO PUSH3 0x5F JUMPI PUSH1 0x0 DUP1 REVERT JUMPDEST POP PUSH3 0xC0 PUSH3 0xB4 PUSH1 0x0 PUSH1 0x5 DUP1 PUSH1 0x20 MUL PUSH1 0x40 MLOAD SWAP1 DUP2 ADD PUSH1 0x40 MSTORE DUP1 SWAP3 SWAP2 SWAP1 DUP3 PUSH1 0x5 DUP1 ISZERO PUSH3 0xA3 JUMPI PUSH1 0x20 MUL DUP3 ADD SWAP2 JUMPDEST DUP2 SLOAD DUP2 MSTORE PUSH1 0x20 ADD SWAP1 PUSH1 0x1 ADD SWAP1 DUP1 DUP4 GT PUSH3 0x8E JUMPI JUMPDEST POP POP POP POP POP PUSH3 0xDE PUSH1 0x20 SHL PUSH1 0x20 SHR JUMP JUMPDEST PUSH3 0x19C PUSH1 0x20 SHL PUSH1 0x20 SHR JUMP JUMPDEST PUSH1 0x5 SWAP1 DUP1 MLOAD SWAP1 PUSH1 0x20 ADD SWAP1 PUSH3 0xD7 SWAP3 SWAP2 SWAP1 PUSH3 0x2C3 JUMP JUMPDEST POP PUSH3 0x453 JUMP JUMPDEST PUSH1 0x60 PUSH1 0x0 PUSH1 0x5 PUSH8 0xFFFFFFFFFFFFFFFF DUP2 GT ISZERO PUSH3 0x100 JUMPI PUSH3 0xFF PUSH3 0x334 JUMP JUMPDEST JUMPDEST PUSH1 0x40 MLOAD SWAP1 DUP1 DUP3 MSTORE DUP1 PUSH1 0x20 MUL PUSH1 0x20 ADD DUP3 ADD PUSH1 0x40 MSTORE DUP1 ISZERO PUSH3 0x12F JUMPI DUP2 PUSH1 0x20 ADD PUSH1 0x20 DUP3 MUL DUP1 CALLDATASIZE DUP4 CALLDATACOPY DUP1 DUP3 ADD SWAP2 POP POP SWAP1 POP JUMPDEST POP SWAP1 POP PUSH1 0x0 JUMPDEST PUSH1 0x5 DUP2 LT ISZERO PUSH3 0x192 JUMPI DUP4 DUP2 PUSH1 0x5 DUP2 LT PUSH3 0x155 JUMPI PUSH3 0x154 PUSH3 0x363 JUMP JUMPDEST JUMPDEST PUSH1 0x20 MUL ADD MLOAD DUP3 DUP3 DUP2 MLOAD DUP2 LT PUSH3 0x170 JUMPI PUSH3 0x16F PUSH3 0x363 JUMP JUMPDEST JUMPDEST PUSH1 0x20 MUL PUSH1 0x20 ADD ADD DUP2 DUP2 MSTORE POP POP DUP1 DUP1 PUSH3 0x189 SWAP1 PUSH3 0x3CB JUMP JUMPDEST SWAP2 POP POP PUSH3 0x135 JUMP JUMPDEST POP DUP1 SWAP2 POP POP SWAP2 SWAP1 POP JUMP JUMPDEST PUSH1 0x60 PUSH1 0x0 DUP3 MLOAD PUSH8 0xFFFFFFFFFFFFFFFF DUP2 GT ISZERO PUSH3 0x1BE JUMPI PUSH3 0x1BD PUSH3 0x334 JUMP JUMPDEST JUMPDEST PUSH1 0x40 MLOAD SWAP1 DUP1 DUP3 MSTORE DUP1 PUSH1 0x20 MUL PUSH1 0x20 ADD DUP3 ADD PUSH1 0x40 MSTORE DUP1 ISZERO PUSH3 0x1ED JUMPI DUP2 PUSH1 0x20 ADD PUSH1 0x20 DUP3 MUL DUP1 CALLDATASIZE DUP4 CALLDATACOPY DUP1 DUP3 ADD SWAP2 POP POP SWAP1 POP JUMPDEST POP SWAP1 POP PUSH1 0x0 JUMPDEST DUP4 MLOAD DUP2 LT ISZERO PUSH3 0x26F JUMPI DUP4 PUSH1 0x1 DUP3 DUP7 MLOAD PUSH3 0x20F SWAP2 SWAP1 PUSH3 0x418 JUMP JUMPDEST PUSH3 0x21B SWAP2 SWAP1 PUSH3 0x418 JUMP JUMPDEST DUP2 MLOAD DUP2 LT PUSH3 0x22F JUMPI PUSH3 0x22E PUSH3 0x363 JUMP JUMPDEST JUMPDEST PUSH1 0x20 MUL PUSH1 0x20 ADD ADD MLOAD DUP3 DUP3 DUP2 MLOAD DUP2 LT PUSH3 0x24D JUMPI PUSH3 0x24C PUSH3 0x363 JUMP JUMPDEST JUMPDEST PUSH1 0x20 MUL PUSH1 0x20 ADD ADD DUP2 DUP2 MSTORE POP POP DUP1 DUP1 PUSH3 0x266 SWAP1 PUSH3 0x3CB JUMP JUMPDEST SWAP2 POP POP PUSH3 0x1F3 JUMP JUMPDEST POP DUP1 SWAP2 POP POP SWAP2 SWAP1 POP JUMP JUMPDEST DUP3 PUSH1 0x5 DUP2 ADD SWAP3 DUP3 ISZERO PUSH3 0x2B0 JUMPI SWAP2 PUSH1 0x20 MUL DUP3 ADD JUMPDEST DUP3 DUP2 GT ISZERO PUSH3 0x2AF JUMPI DUP3 MLOAD DUP3 SWAP1 PUSH1 0xFF AND SWAP1 SSTORE SWAP2 PUSH1 0x20 ADD SWAP2 SWAP1 PUSH1 0x1 ADD SWAP1 PUSH3 0x28D JUMP JUMPDEST JUMPDEST POP SWAP1 POP PUSH3 0x2BF SWAP2 SWAP1 PUSH3 0x315 JUMP JUMPDEST POP SWAP1 JUMP JUMPDEST DUP3 DUP1 SLOAD DUP3 DUP3 SSTORE SWAP1 PUSH1 0x0 MSTORE PUSH1 0x20 PUSH1 0x0 KECCAK256 SWAP1 DUP2 ADD SWAP3 DUP3 ISZERO PUSH3 0x302 JUMPI SWAP2 PUSH1 0x20 MUL DUP3 ADD JUMPDEST DUP3 DUP2 GT ISZERO PUSH3 0x301 JUMPI DUP3 MLOAD DUP3 SSTORE SWAP2 PUSH1 0x20 ADD SWAP2 SWAP1 PUSH1 0x1 ADD SWAP1 PUSH3 0x2E4 JUMP JUMPDEST JUMPDEST POP SWAP1 POP PUSH3 0x311 SWAP2 SWAP1 PUSH3 0x315 JUMP JUMPDEST POP SWAP1 JUMP JUMPDEST JUMPDEST DUP1 DUP3 GT ISZERO PUSH3 0x330 JUMPI PUSH1 0x0 DUP2 PUSH1 0x0 SWAP1 SSTORE POP PUSH1 0x1 ADD PUSH3 0x316 JUMP JUMPDEST POP SWAP1 JUMP JUMPDEST PUSH32 0x4E487B7100000000000000000000000000000000000000000000000000000000 PUSH1 0x0 MSTORE PUSH1 0x41 PUSH1 0x4 MSTORE PUSH1 0x24 PUSH1 0x0 REVERT JUMPDEST PUSH32 0x4E487B7100000000000000000000000000000000000000000000000000000000 PUSH1 0x0 MSTORE PUSH1 0x32 PUSH1 0x4 MSTORE PUSH1 0x24 PUSH1 0x0 REVERT JUMPDEST PUSH32 0x4E487B7100000000000000000000000000000000000000000000000000000000 PUSH1 0x0 MSTORE PUSH1 0x11 PUSH1 0x4 MSTORE PUSH1 0x24 PUSH1 0x0 REVERT JUMPDEST PUSH1 0x0 DUP2 SWAP1 POP SWAP2 SWAP1 POP JUMP JUMPDEST PUSH1 0x0 PUSH3 0x3D8 DUP3 PUSH3 0x3C1 JUMP JUMPDEST SWAP2 POP PUSH32 0xFFFFFFFFFFFFFFFFFFFFFFFFFFFFFFFFFFFFFFFFFFFFFFFFFFFFFFFFFFFFFFFF DUP3 SUB PUSH3 0x40D JUMPI PUSH3 0x40C PUSH3 0x392 JUMP JUMPDEST JUMPDEST PUSH1 0x1 DUP3 ADD SWAP1 POP SWAP2 SWAP1 POP JUMP JUMPDEST PUSH1 0x0 PUSH3 0x425 DUP3 PUSH3 0x3C1 JUMP JUMPDEST SWAP2 POP PUSH3 0x432 DUP4 PUSH3 0x3C1 JUMP JUMPDEST SWAP3 POP DUP3 DUP3 SUB SWAP1 POP DUP2 DUP2 GT ISZERO PUSH3 0x44D JUMPI PUSH3 0x44C PUSH3 0x392 JUMP JUMPDEST JUMPDEST SWAP3 SWAP2 POP POP JUMP JUMPDEST PUSH2 0x613 DUP1 PUSH3 0x463 PUSH1 0x0 CODECOPY PUSH1 0x0 RETURN INVALID PUSH1 0x80 PUSH1 0x40 MSTORE CALLVALUE DUP1 ISZERO PUSH2 0x10 JUMPI PUSH1 0x0 DUP1 REVERT JUMPDEST POP PUSH1 0x4 CALLDATASIZE LT PUSH2 0x41 JUMPI PUSH1 0x0 CALLDATALOAD PUSH1 0xE0 SHR DUP1 PUSH4 0xFE68306 EQ PUSH2 0x46 JUMPI DUP1 PUSH4 0x84D60600 EQ PUSH2 0x76 JUMPI DUP1 PUSH4 0xA9333CFC EQ PUSH2 0xA6 JUMPI JUMPDEST PUSH1 0x0 DUP1 REVERT JUMPDEST PUSH2 0x60 PUSH1 0x4 DUP1 CALLDATASIZE SUB DUP2 ADD SWAP1 PUSH2 0x5B SWAP2 SWAP1 PUSH2 0x22A JUMP JUMPDEST PUSH2 0xD6 JUMP JUMPDEST PUSH1 0x40 MLOAD PUSH2 0x6D SWAP2 SWAP1 PUSH2 0x266 JUMP JUMPDEST PUSH1 0x40 MLOAD DUP1 SWAP2 SUB SWAP1 RETURN JUMPDEST PUSH2 0x90 PUSH1 0x4 DUP1 CALLDATASIZE SUB DUP2 ADD SWAP1 PUSH2 0x8B SWAP2 SWAP1 PUSH2 0x22A JUMP JUMPDEST PUSH2 0xF1 JUMP JUMPDEST PUSH1 0x40 MLOAD PUSH2 0x9D SWAP2 SWAP1 PUSH2 0x266 JUMP JUMPDEST PUSH1 0x40 MLOAD DUP1 SWAP2 SUB SWAP1 RETURN JUMPDEST PUSH2 0xC0 PUSH1 0x4 DUP1 CALLDATASIZE SUB DUP2 ADD SWAP1 PUSH2 0xBB SWAP2 SWAP1 PUSH2 0x3DA JUMP JUMPDEST PUSH2 0x115 JUMP JUMPDEST PUSH1 0x40 MLOAD PUSH2 0xCD SWAP2 SWAP1 PUSH2 0x4E1 JUMP JUMPDEST PUSH1 0x40 MLOAD DUP1 SWAP2 SUB SWAP1 RETURN JUMPDEST PUSH1 0x0 DUP2 PUSH1 0x5 DUP2 LT PUSH2 0xE6 JUMPI PUSH1 0x0 DUP1 REVERT JUMPDEST ADD PUSH1 0x0 SWAP2 POP SWAP1 POP SLOAD DUP2 JUMP JUMPDEST PUSH1 0x5 DUP2 DUP2 SLOAD DUP2 LT PUSH2 0x101 JUMPI PUSH1 0x0 DUP1 REVERT JUMPDEST SWAP1 PUSH1 0x0 MSTORE PUSH1 0x20 PUSH1 0x0 KECCAK256 ADD PUSH1 0x0 SWAP2 POP SWAP1 POP SLOAD DUP2 JUMP JUMPDEST PUSH1 0x60 PUSH1 0x0 DUP3 MLOAD PUSH8 0xFFFFFFFFFFFFFFFF DUP2 GT ISZERO PUSH2 0x134 JUMPI PUSH2 0x133 PUSH2 0x297 JUMP JUMPDEST JUMPDEST PUSH1 0x40 MLOAD SWAP1 DUP1 DUP3 MSTORE DUP1 PUSH1 0x20 MUL PUSH1 0x20 ADD DUP3 ADD PUSH1 0x40 MSTORE DUP1 ISZERO PUSH2 0x162 JUMPI DUP2 PUSH1 0x20 ADD PUSH1 0x20 DUP3 MUL DUP1 CALLDATASIZE DUP4 CALLDATACOPY DUP1 DUP3 ADD SWAP2 POP POP SWAP1 POP JUMPDEST POP SWAP1 POP PUSH1 0x0 JUMPDEST DUP4 MLOAD DUP2 LT ISZERO PUSH2 0x1D6 JUMPI DUP4 PUSH1 0x1 DUP3 DUP7 MLOAD PUSH2 0x181 SWAP2 SWAP1 PUSH2 0x532 JUMP JUMPDEST PUSH2 0x18B SWAP2 SWAP1 PUSH2 0x532 JUMP JUMPDEST DUP2 MLOAD DUP2 LT PUSH2 0x19C JUMPI PUSH2 0x19B PUSH2 0x566 JUMP JUMPDEST JUMPDEST PUSH1 0x20 MUL PUSH1 0x20 ADD ADD MLOAD DUP3 DUP3 DUP2 MLOAD DUP2 LT PUSH2 0x1B7 JUMPI PUSH2 0x1B6 PUSH2 0x566 JUMP JUMPDEST JUMPDEST PUSH1 0x20 MUL PUSH1 0x20 ADD ADD DUP2 DUP2 MSTORE POP POP DUP1 DUP1 PUSH2 0x1CE SWAP1 PUSH2 0x595 JUMP JUMPDEST SWAP2 POP POP PUSH2 0x168 JUMP JUMPDEST POP DUP1 SWAP2 POP POP SWAP2 SWAP1 POP JUMP JUMPDEST PUSH1 0x0 PUSH1 0x40 MLOAD SWAP1 POP SWAP1 JUMP JUMPDEST PUSH1 0x0 DUP1 REVERT JUMPDEST PUSH1 0x0 DUP1 REVERT JUMPDEST PUSH1 0x0 DUP2 SWAP1 POP SWAP2 SWAP1 POP JUMP JUMPDEST PUSH2 0x207 DUP2 PUSH2 0x1F4 JUMP JUMPDEST DUP2 EQ PUSH2 0x212 JUMPI PUSH1 0x0 DUP1 REVERT JUMPDEST POP JUMP JUMPDEST PUSH1 0x0 DUP2 CALLDATALOAD SWAP1 POP PUSH2 0x224 DUP2 PUSH2 0x1FE JUMP JUMPDEST SWAP3 SWAP2 POP POP JUMP JUMPDEST PUSH1 0x0 PUSH1 0x20 DUP3 DUP5 SUB SLT ISZERO PUSH2 0x240 JUMPI PUSH2 0x23F PUSH2 0x1EA JUMP JUMPDEST JUMPDEST PUSH1 0x0 PUSH2 0x24E DUP5 DUP3 DUP6 ADD PUSH2 0x215 JUMP JUMPDEST SWAP2 POP POP SWAP3 SWAP2 POP POP JUMP JUMPDEST PUSH2 0x260 DUP2 PUSH2 0x1F4 JUMP JUMPDEST DUP3 MSTORE POP POP JUMP JUMPDEST PUSH1 0x0 PUSH1 0x20 DUP3 ADD SWAP1 POP PUSH2 0x27B PUSH1 0x0 DUP4 ADD DUP5 PUSH2 0x257 JUMP JUMPDEST SWAP3 SWAP2 POP POP JUMP JUMPDEST PUSH1 0x0 DUP1 REVERT JUMPDEST PUSH1 0x0 PUSH1 0x1F NOT PUSH1 0x1F DUP4 ADD AND SWAP1 POP SWAP2 SWAP1 POP JUMP JUMPDEST PUSH32 0x4E487B7100000000000000000000000000000000000000000000000000000000 PUSH1 0x0 MSTORE PUSH1 0x41 PUSH1 0x4 MSTORE PUSH1 0x24 PUSH1 0x0 REVERT JUMPDEST PUSH2 0x2CF DUP3 PUSH2 0x286 JUMP JUMPDEST DUP2 ADD DUP2 DUP2 LT PUSH8 0xFFFFFFFFFFFFFFFF DUP3 GT OR ISZERO PUSH2 0x2EE JUMPI PUSH2 0x2ED PUSH2 0x297 JUMP JUMPDEST JUMPDEST DUP1 PUSH1 0x40 MSTORE POP POP POP JUMP JUMPDEST PUSH1 0x0 PUSH2 0x301 PUSH2 0x1E0 JUMP JUMPDEST SWAP1 POP PUSH2 0x30D DUP3 DUP3 PUSH2 0x2C6 JUMP JUMPDEST SWAP2 SWAP1 POP JUMP JUMPDEST PUSH1 0x0 PUSH8 0xFFFFFFFFFFFFFFFF DUP3 GT ISZERO PUSH2 0x32D JUMPI PUSH2 0x32C PUSH2 0x297 JUMP JUMPDEST JUMPDEST PUSH1 0x20 DUP3 MUL SWAP1 POP PUSH1 0x20 DUP2 ADD SWAP1 POP SWAP2 SWAP1 POP JUMP JUMPDEST PUSH1 0x0 DUP1 REVERT JUMPDEST PUSH1 0x0 PUSH2 0x356 PUSH2 0x351 DUP5 PUSH2 0x312 JUMP JUMPDEST PUSH2 0x2F7 JUMP JUMPDEST SWAP1 POP DUP1 DUP4 DUP3 MSTORE PUSH1 0x20 DUP3 ADD SWAP1 POP PUSH1 0x20 DUP5 MUL DUP4 ADD DUP6 DUP2 GT ISZERO PUSH2 0x379 JUMPI PUSH2 0x378 PUSH2 0x33E JUMP JUMPDEST JUMPDEST DUP4 JUMPDEST DUP2 DUP2 LT ISZERO PUSH2 0x3A2 JUMPI DUP1 PUSH2 0x38E DUP9 DUP3 PUSH2 0x215 JUMP JUMPDEST DUP5 MSTORE PUSH1 0x20 DUP5 ADD SWAP4 POP POP PUSH1 0x20 DUP2 ADD SWAP1 POP PUSH2 0x37B JUMP JUMPDEST POP POP POP SWAP4 SWAP3 POP POP POP JUMP JUMPDEST PUSH1 0x0 DUP3 PUSH1 0x1F DUP4 ADD SLT PUSH2 0x3C1 JUMPI PUSH2 0x3C0 PUSH2 0x281 JUMP JUMPDEST JUMPDEST DUP2 CALLDATALOAD PUSH2 0x3D1 DUP5 DUP3 PUSH1 0x20 DUP7 ADD PUSH2 0x343 JUMP JUMPDEST SWAP2 POP POP SWAP3 SWAP2 POP POP JUMP JUMPDEST PUSH1 0x0 PUSH1 0x20 DUP3 DUP5 SUB SLT ISZERO PUSH2 0x3F0 JUMPI PUSH2 0x3EF PUSH2 0x1EA JUMP JUMPDEST JUMPDEST PUSH1 0x0 DUP3 ADD CALLDATALOAD PUSH8 0xFFFFFFFFFFFFFFFF DUP2 GT ISZERO PUSH2 0x40E JUMPI PUSH2 0x40D PUSH2 0x1EF JUMP JUMPDEST JUMPDEST PUSH2 0x41A DUP5 DUP3 DUP6 ADD PUSH2 0x3AC JUMP JUMPDEST SWAP2 POP POP SWAP3 SWAP2 POP POP JUMP JUMPDEST PUSH1 0x0 DUP2 MLOAD SWAP1 POP SWAP2 SWAP1 POP JUMP JUMPDEST PUSH1 0x0 DUP3 DUP3 MSTORE PUSH1 0x20 DUP3 ADD SWAP1 POP SWAP3 SWAP2 POP POP JUMP JUMPDEST PUSH1 0x0 DUP2 SWAP1 POP PUSH1 0x20 DUP3 ADD SWAP1 POP SWAP2 SWAP1 POP JUMP JUMPDEST PUSH2 0x458 DUP2 PUSH2 0x1F4 JUMP JUMPDEST DUP3 MSTORE POP POP JUMP JUMPDEST PUSH1 0x0 PUSH2 0x46A DUP4 DUP4 PUSH2 0x44F JUMP JUMPDEST PUSH1 0x20 DUP4 ADD SWAP1 POP SWAP3 SWAP2 POP POP JUMP JUMPDEST PUSH1 0x0 PUSH1 0x20 DUP3 ADD SWAP1 POP SWAP2 SWAP1 POP JUMP JUMPDEST PUSH1 0x0 PUSH2 0x48E DUP3 PUSH2 0x423 JUMP JUMPDEST PUSH2 0x498 DUP2 DUP6 PUSH2 0x42E JUMP JUMPDEST SWAP4 POP PUSH2 0x4A3 DUP4 PUSH2 0x43F JUMP JUMPDEST DUP1 PUSH1 0x0 JUMPDEST DUP4 DUP2 LT ISZERO PUSH2 0x4D4 JUMPI DUP2 MLOAD PUSH2 0x4BB DUP9 DUP3 PUSH2 0x45E JUMP JUMPDEST SWAP8 POP PUSH2 0x4C6 DUP4 PUSH2 0x476 JUMP JUMPDEST SWAP3 POP POP PUSH1 0x1 DUP2 ADD SWAP1 POP PUSH2 0x4A7 JUMP JUMPDEST POP DUP6 SWAP4 POP POP POP POP SWAP3 SWAP2 POP POP JUMP JUMPDEST PUSH1 0x0 PUSH1 0x20 DUP3 ADD SWAP1 POP DUP2 DUP2 SUB PUSH1 0x0 DUP4 ADD MSTORE PUSH2 0x4FB DUP2 DUP5 PUSH2 0x483 JUMP JUMPDEST SWAP1 POP SWAP3 SWAP2 POP POP JUMP JUMPDEST PUSH32 0x4E487B7100000000000000000000000000000000000000000000000000000000 PUSH1 0x0 MSTORE PUSH1 0x11 PUSH1 0x4 MSTORE PUSH1 0x24 PUSH1 0x0 REVERT JUMPDEST PUSH1 0x0 PUSH2 0x53D DUP3 PUSH2 0x1F4 JUMP JUMPDEST SWAP2 POP PUSH2 0x548 DUP4 PUSH2 0x1F4 JUMP JUMPDEST SWAP3 POP DUP3 DUP3 SUB SWAP1 POP DUP2 DUP2 GT ISZERO PUSH2 0x560 JUMPI PUSH2 0x55F PUSH2 0x503 JUMP JUMPDEST JUMPDEST SWAP3 SWAP2 POP POP JUMP JUMPDEST PUSH32 0x4E487B7100000000000000000000000000000000000000000000000000000000 PUSH1 0x0 MSTORE PUSH1 0x32 PUSH1 0x4 MSTORE PUSH1 0x24 PUSH1 0x0 REVERT JUMPDEST PUSH1 0x0 PUSH2 0x5A0 DUP3 PUSH2 0x1F4 JUMP JUMPDEST SWAP2 POP PUSH32 0xFFFFFFFFFFFFFFFFFFFFFFFFFFFFFFFFFFFFFFFFFFFFFFFFFFFFFFFFFFFFFFFF DUP3 SUB PUSH2 0x5D2 JUMPI PUSH2 0x5D1 PUSH2 0x503 JUMP JUMPDEST JUMPDEST PUSH1 0x1 DUP3 ADD SWAP1 POP SWAP2 SWAP1 POP JUMP INVALID LOG2 PUSH5 0x6970667358 0x22 SLT KECCAK256 LOG1 0x2E ADD 0xD7 PUSH4 0xABC48710 DUP3 JUMPDEST 0xCA PUSH13 0xEB3216FDE4808F14341C5E5B0D 0xDD MUL 0xB3 CALLCODE JUMP PUSH23 0x64736F6C63430008120033000000000000000000000000 "
				},
				"gasEstimates": {
					"creation": {
						"codeDepositCost": "311000",
						"executionCost": "infinite",
						"totalCost": "infinite"
					},
					"external": {
						"MyArr(uint256)": "infinite",
						"MyNewArr2(uint256)": "infinite",
						"reverse(uint256[])": "infinite"
					},
					"internal": {
						"dynamicArrayFromStatic(uint256[5] memory)": "infinite"
					}
				},
				"methodIdentifiers": {
					"MyArr(uint256)": "0fe68306",
					"MyNewArr2(uint256)": "84d60600",
					"reverse(uint256[])": "a9333cfc"
				}
			},
			"storageLayout": {
				"storage": [
					{
						"astId": 11,
						"contract": "010_控制.sol:MyContract",
						"label": "MyArr",
						"offset": 0,
						"slot": "0",
						"type": "t_array(t_uint256)5_storage"
					},
					{
						"astId": 14,
						"contract": "010_控制.sol:MyContract",
						"label": "MyNewArr2",
						"offset": 0,
						"slot": "5",
						"type": "t_array(t_uint256)dyn_storage"
					}
				],
				"types": {
					"t_array(t_uint256)5_storage": {
						"base": "t_uint256",
						"encoding": "inplace",
						"label": "uint256[5]",
						"numberOfBytes": "160"
					},
					"t_array(t_uint256)dyn_storage": {
						"base": "t_uint256",
						"encoding": "dynamic_array",
						"label": "uint256[]",
						"numberOfBytes": "32"
					},
					"t_uint256": {
						"encoding": "inplace",
						"label": "uint256",
						"numberOfBytes": "32"
					}
				}
			},
			"userdoc": {
				"kind": "user",
				"methods": {},
				"version": 1
			}
		}
	}
}