{
	"006_引用类型.sol": {
		"C": {
			"abi": [
				{
					"inputs": [],
					"name": "f",
					"outputs": [],
					"stateMutability": "nonpayable",
					"type": "function"
				},
				{
					"inputs": [
						{
							"internalType": "uint256[3]",
							"name": "nums",
							"type": "uint256[3]"
						}
					],
					"name": "g",
					"outputs": [
						{
							"internalType": "uint256",
							"name": "",
							"type": "uint256"
						}
					],
					"stateMutability": "pure",
					"type": "function"
				},
				{
					"inputs": [],
					"name": "total",
					"outputs": [
						{
							"internalType": "uint256",
							"name": "",
							"type": "uint256"
						}
					],
					"stateMutability": "view",
					"type": "function"
				}
			],
			"devdoc": {
				"kind": "dev",
				"methods": {},
				"version": 1
			},
			"evm": {
				"assembly": "    /* \"006_\\xe5\\xbc\\x95\\xe7\\x94\\xa8\\xe7\\xb1\\xbb\\xe5\\x9e\\x8b.sol\":73:480  contract C {... */\n  mstore(0x40, 0x80)\n    /* \"006_\\xe5\\xbc\\x95\\xe7\\x94\\xa8\\xe7\\xb1\\xbb\\xe5\\x9e\\x8b.sol\":111:112  0 */\n  0x00\n    /* \"006_\\xe5\\xbc\\x95\\xe7\\x94\\xa8\\xe7\\xb1\\xbb\\xe5\\x9e\\x8b.sol\":91:112  uint public total = 0 */\n  dup1\n  sstore\n    /* \"006_\\xe5\\xbc\\x95\\xe7\\x94\\xa8\\xe7\\xb1\\xbb\\xe5\\x9e\\x8b.sol\":73:480  contract C {... */\n  callvalue\n  dup1\n  iszero\n  tag_1\n  jumpi\n  0x00\n  dup1\n  revert\ntag_1:\n  pop\n  dataSize(sub_0)\n  dup1\n  dataOffset(sub_0)\n  0x00\n  codecopy\n  0x00\n  return\nstop\n\nsub_0: assembly {\n        /* \"006_\\xe5\\xbc\\x95\\xe7\\x94\\xa8\\xe7\\xb1\\xbb\\xe5\\x9e\\x8b.sol\":73:480  contract C {... */\n      mstore(0x40, 0x80)\n      callvalue\n      dup1\n      iszero\n      tag_1\n      jumpi\n      0x00\n      dup1\n      revert\n    tag_1:\n      pop\n      jumpi(tag_2, lt(calldatasize, 0x04))\n      shr(0xe0, calldataload(0x00))\n      dup1\n      0x26121ff0\n      eq\n      tag_3\n      jumpi\n      dup1\n      0x2ddbd13a\n      eq\n      tag_4\n      jumpi\n      dup1\n      0xd14d385d\n      eq\n      tag_5\n      jumpi\n    tag_2:\n      0x00\n      dup1\n      revert\n        /* \"006_\\xe5\\xbc\\x95\\xe7\\x94\\xa8\\xe7\\xb1\\xbb\\xe5\\x9e\\x8b.sol\":121:188  function f() public  {... */\n    tag_3:\n      tag_6\n      tag_7\n      jump\t// in\n    tag_6:\n      stop\n        /* \"006_\\xe5\\xbc\\x95\\xe7\\x94\\xa8\\xe7\\xb1\\xbb\\xe5\\x9e\\x8b.sol\":91:112  uint public total = 0 */\n    tag_4:\n      tag_8\n      tag_9\n      jump\t// in\n    tag_8:\n      mload(0x40)\n      tag_10\n      swap2\n      swap1\n      tag_11\n      jump\t// in\n    tag_10:\n      mload(0x40)\n      dup1\n      swap2\n      sub\n      swap1\n      return\n        /* \"006_\\xe5\\xbc\\x95\\xe7\\x94\\xa8\\xe7\\xb1\\xbb\\xe5\\x9e\\x8b.sol\":201:473  function g(uint[3] memory nums) public pure returns (uint) {... */\n    tag_5:\n      tag_12\n      0x04\n      dup1\n      calldatasize\n      sub\n      dup2\n      add\n      swap1\n      tag_13\n      swap2\n      swap1\n      tag_14\n      jump\t// in\n    tag_13:\n      tag_15\n      jump\t// in\n    tag_12:\n      mload(0x40)\n      tag_16\n      swap2\n      swap1\n      tag_11\n      jump\t// in\n    tag_16:\n      mload(0x40)\n      dup1\n      swap2\n      sub\n      swap1\n      return\n        /* \"006_\\xe5\\xbc\\x95\\xe7\\x94\\xa8\\xe7\\xb1\\xbb\\xe5\\x9e\\x8b.sol\":121:188  function f() public  {... */\n    tag_7:\n        /* \"006_\\xe5\\xbc\\x95\\xe7\\x94\\xa8\\xe7\\xb1\\xbb\\xe5\\x9e\\x8b.sol\":162:180  g([uint(1), 2, 3]) */\n      tag_18\n      mload(0x40)\n      dup1\n      0x60\n      add\n      0x40\n      mstore\n      dup1\n        /* \"006_\\xe5\\xbc\\x95\\xe7\\x94\\xa8\\xe7\\xb1\\xbb\\xe5\\x9e\\x8b.sol\":170:171  1 */\n      0x01\n        /* \"006_\\xe5\\xbc\\x95\\xe7\\x94\\xa8\\xe7\\xb1\\xbb\\xe5\\x9e\\x8b.sol\":162:180  g([uint(1), 2, 3]) */\n      dup2\n      mstore\n      0x20\n      add\n        /* \"006_\\xe5\\xbc\\x95\\xe7\\x94\\xa8\\xe7\\xb1\\xbb\\xe5\\x9e\\x8b.sol\":174:175  2 */\n      0x02\n        /* \"006_\\xe5\\xbc\\x95\\xe7\\x94\\xa8\\xe7\\xb1\\xbb\\xe5\\x9e\\x8b.sol\":162:180  g([uint(1), 2, 3]) */\n      dup2\n      mstore\n      0x20\n      add\n        /* \"006_\\xe5\\xbc\\x95\\xe7\\x94\\xa8\\xe7\\xb1\\xbb\\xe5\\x9e\\x8b.sol\":177:178  3 */\n      0x03\n        /* \"006_\\xe5\\xbc\\x95\\xe7\\x94\\xa8\\xe7\\xb1\\xbb\\xe5\\x9e\\x8b.sol\":162:180  g([uint(1), 2, 3]) */\n      dup2\n      mstore\n      pop\n        /* \"006_\\xe5\\xbc\\x95\\xe7\\x94\\xa8\\xe7\\xb1\\xbb\\xe5\\x9e\\x8b.sol\":162:163  g */\n      tag_15\n        /* \"006_\\xe5\\xbc\\x95\\xe7\\x94\\xa8\\xe7\\xb1\\xbb\\xe5\\x9e\\x8b.sol\":162:180  g([uint(1), 2, 3]) */\n      jump\t// in\n    tag_18:\n        /* \"006_\\xe5\\xbc\\x95\\xe7\\x94\\xa8\\xe7\\xb1\\xbb\\xe5\\x9e\\x8b.sol\":153:158  total */\n      0x00\n        /* \"006_\\xe5\\xbc\\x95\\xe7\\x94\\xa8\\xe7\\xb1\\xbb\\xe5\\x9e\\x8b.sol\":153:180  total  = g([uint(1), 2, 3]) */\n      dup2\n      swap1\n      sstore\n      pop\n        /* \"006_\\xe5\\xbc\\x95\\xe7\\x94\\xa8\\xe7\\xb1\\xbb\\xe5\\x9e\\x8b.sol\":121:188  function f() public  {... */\n      jump\t// out\n        /* \"006_\\xe5\\xbc\\x95\\xe7\\x94\\xa8\\xe7\\xb1\\xbb\\xe5\\x9e\\x8b.sol\":91:112  uint public total = 0 */\n    tag_9:\n      sload(0x00)\n      dup2\n      jump\t// out\n        /* \"006_\\xe5\\xbc\\x95\\xe7\\x94\\xa8\\xe7\\xb1\\xbb\\xe5\\x9e\\x8b.sol\":201:473  function g(uint[3] memory nums) public pure returns (uint) {... */\n    tag_15:\n        /* \"006_\\xe5\\xbc\\x95\\xe7\\x94\\xa8\\xe7\\xb1\\xbb\\xe5\\x9e\\x8b.sol\":254:258  uint */\n      0x00\n        /* \"006_\\xe5\\xbc\\x95\\xe7\\x94\\xa8\\xe7\\xb1\\xbb\\xe5\\x9e\\x8b.sol\":342:350  uint sum */\n      dup1\n        /* \"006_\\xe5\\xbc\\x95\\xe7\\x94\\xa8\\xe7\\xb1\\xbb\\xe5\\x9e\\x8b.sol\":353:354  0 */\n      0x00\n        /* \"006_\\xe5\\xbc\\x95\\xe7\\x94\\xa8\\xe7\\xb1\\xbb\\xe5\\x9e\\x8b.sol\":342:354  uint sum = 0 */\n      swap1\n      pop\n        /* \"006_\\xe5\\xbc\\x95\\xe7\\x94\\xa8\\xe7\\xb1\\xbb\\xe5\\x9e\\x8b.sol\":370:376  uint i */\n      0x00\n        /* \"006_\\xe5\\xbc\\x95\\xe7\\x94\\xa8\\xe7\\xb1\\xbb\\xe5\\x9e\\x8b.sol\":365:445  for (uint i = 0; i < nums.length; i++) {... */\n    tag_20:\n        /* \"006_\\xe5\\xbc\\x95\\xe7\\x94\\xa8\\xe7\\xb1\\xbb\\xe5\\x9e\\x8b.sol\":386:397  nums.length */\n      0x03\n        /* \"006_\\xe5\\xbc\\x95\\xe7\\x94\\xa8\\xe7\\xb1\\xbb\\xe5\\x9e\\x8b.sol\":382:383  i */\n      dup2\n        /* \"006_\\xe5\\xbc\\x95\\xe7\\x94\\xa8\\xe7\\xb1\\xbb\\xe5\\x9e\\x8b.sol\":382:397  i < nums.length */\n      lt\n        /* \"006_\\xe5\\xbc\\x95\\xe7\\x94\\xa8\\xe7\\xb1\\xbb\\xe5\\x9e\\x8b.sol\":365:445  for (uint i = 0; i < nums.length; i++) {... */\n      iszero\n      tag_21\n      jumpi\n        /* \"006_\\xe5\\xbc\\x95\\xe7\\x94\\xa8\\xe7\\xb1\\xbb\\xe5\\x9e\\x8b.sol\":426:430  nums */\n      dup4\n        /* \"006_\\xe5\\xbc\\x95\\xe7\\x94\\xa8\\xe7\\xb1\\xbb\\xe5\\x9e\\x8b.sol\":431:432  i */\n      dup2\n        /* \"006_\\xe5\\xbc\\x95\\xe7\\x94\\xa8\\xe7\\xb1\\xbb\\xe5\\x9e\\x8b.sol\":426:433  nums[i] */\n      0x03\n      dup2\n      lt\n      tag_23\n      jumpi\n      tag_24\n      tag_25\n      jump\t// in\n    tag_24:\n    tag_23:\n      0x20\n      mul\n      add\n      mload\n        /* \"006_\\xe5\\xbc\\x95\\xe7\\x94\\xa8\\xe7\\xb1\\xbb\\xe5\\x9e\\x8b.sol\":419:433  sum += nums[i] */\n      dup3\n      tag_26\n      swap2\n      swap1\n      tag_27\n      jump\t// in\n    tag_26:\n      swap2\n      pop\n        /* \"006_\\xe5\\xbc\\x95\\xe7\\x94\\xa8\\xe7\\xb1\\xbb\\xe5\\x9e\\x8b.sol\":399:402  i++ */\n      dup1\n      dup1\n      tag_28\n      swap1\n      tag_29\n      jump\t// in\n    tag_28:\n      swap2\n      pop\n      pop\n        /* \"006_\\xe5\\xbc\\x95\\xe7\\x94\\xa8\\xe7\\xb1\\xbb\\xe5\\x9e\\x8b.sol\":365:445  for (uint i = 0; i < nums.length; i++) {... */\n      jump(tag_20)\n    tag_21:\n      pop\n        /* \"006_\\xe5\\xbc\\x95\\xe7\\x94\\xa8\\xe7\\xb1\\xbb\\xe5\\x9e\\x8b.sol\":462:465  sum */\n      dup1\n        /* \"006_\\xe5\\xbc\\x95\\xe7\\x94\\xa8\\xe7\\xb1\\xbb\\xe5\\x9e\\x8b.sol\":455:465  return sum */\n      swap2\n      pop\n      pop\n        /* \"006_\\xe5\\xbc\\x95\\xe7\\x94\\xa8\\xe7\\xb1\\xbb\\xe5\\x9e\\x8b.sol\":201:473  function g(uint[3] memory nums) public pure returns (uint) {... */\n      swap2\n      swap1\n      pop\n      jump\t// out\n        /* \"#utility.yul\":7:84   */\n    tag_30:\n        /* \"#utility.yul\":44:51   */\n      0x00\n        /* \"#utility.yul\":73:78   */\n      dup2\n        /* \"#utility.yul\":62:78   */\n      swap1\n      pop\n        /* \"#utility.yul\":7:84   */\n      swap2\n      swap1\n      pop\n      jump\t// out\n        /* \"#utility.yul\":90:208   */\n    tag_31:\n        /* \"#utility.yul\":177:201   */\n      tag_50\n        /* \"#utility.yul\":195:200   */\n      dup2\n        /* \"#utility.yul\":177:201   */\n      tag_30\n      jump\t// in\n    tag_50:\n        /* \"#utility.yul\":172:175   */\n      dup3\n        /* \"#utility.yul\":165:202   */\n      mstore\n        /* \"#utility.yul\":90:208   */\n      pop\n      pop\n      jump\t// out\n        /* \"#utility.yul\":214:436   */\n    tag_11:\n        /* \"#utility.yul\":307:311   */\n      0x00\n        /* \"#utility.yul\":345:347   */\n      0x20\n        /* \"#utility.yul\":334:343   */\n      dup3\n        /* \"#utility.yul\":330:348   */\n      add\n        /* \"#utility.yul\":322:348   */\n      swap1\n      pop\n        /* \"#utility.yul\":358:429   */\n      tag_52\n        /* \"#utility.yul\":426:427   */\n      0x00\n        /* \"#utility.yul\":415:424   */\n      dup4\n        /* \"#utility.yul\":411:428   */\n      add\n        /* \"#utility.yul\":402:408   */\n      dup5\n        /* \"#utility.yul\":358:429   */\n      tag_31\n      jump\t// in\n    tag_52:\n        /* \"#utility.yul\":214:436   */\n      swap3\n      swap2\n      pop\n      pop\n      jump\t// out\n        /* \"#utility.yul\":442:517   */\n    tag_32:\n        /* \"#utility.yul\":475:481   */\n      0x00\n        /* \"#utility.yul\":508:510   */\n      0x40\n        /* \"#utility.yul\":502:511   */\n      mload\n        /* \"#utility.yul\":492:511   */\n      swap1\n      pop\n        /* \"#utility.yul\":442:517   */\n      swap1\n      jump\t// out\n        /* \"#utility.yul\":523:640   */\n    tag_33:\n        /* \"#utility.yul\":632:633   */\n      0x00\n        /* \"#utility.yul\":629:630   */\n      dup1\n        /* \"#utility.yul\":622:634   */\n      revert\n        /* \"#utility.yul\":769:886   */\n    tag_35:\n        /* \"#utility.yul\":878:879   */\n      0x00\n        /* \"#utility.yul\":875:876   */\n      dup1\n        /* \"#utility.yul\":868:880   */\n      revert\n        /* \"#utility.yul\":892:994   */\n    tag_36:\n        /* \"#utility.yul\":933:939   */\n      0x00\n        /* \"#utility.yul\":984:986   */\n      0x1f\n        /* \"#utility.yul\":980:987   */\n      not\n        /* \"#utility.yul\":975:977   */\n      0x1f\n        /* \"#utility.yul\":968:973   */\n      dup4\n        /* \"#utility.yul\":964:978   */\n      add\n        /* \"#utility.yul\":960:988   */\n      and\n        /* \"#utility.yul\":950:988   */\n      swap1\n      pop\n        /* \"#utility.yul\":892:994   */\n      swap2\n      swap1\n      pop\n      jump\t// out\n        /* \"#utility.yul\":1000:1180   */\n    tag_37:\n        /* \"#utility.yul\":1048:1125   */\n      0x4e487b7100000000000000000000000000000000000000000000000000000000\n        /* \"#utility.yul\":1045:1046   */\n      0x00\n        /* \"#utility.yul\":1038:1126   */\n      mstore\n        /* \"#utility.yul\":1145:1149   */\n      0x41\n        /* \"#utility.yul\":1142:1143   */\n      0x04\n        /* \"#utility.yul\":1135:1150   */\n      mstore\n        /* \"#utility.yul\":1169:1173   */\n      0x24\n        /* \"#utility.yul\":1166:1167   */\n      0x00\n        /* \"#utility.yul\":1159:1174   */\n      revert\n        /* \"#utility.yul\":1186:1467   */\n    tag_38:\n        /* \"#utility.yul\":1269:1296   */\n      tag_60\n        /* \"#utility.yul\":1291:1295   */\n      dup3\n        /* \"#utility.yul\":1269:1296   */\n      tag_36\n      jump\t// in\n    tag_60:\n        /* \"#utility.yul\":1261:1267   */\n      dup2\n        /* \"#utility.yul\":1257:1297   */\n      add\n        /* \"#utility.yul\":1399:1405   */\n      dup2\n        /* \"#utility.yul\":1387:1397   */\n      dup2\n        /* \"#utility.yul\":1384:1406   */\n      lt\n        /* \"#utility.yul\":1363:1381   */\n      0xffffffffffffffff\n        /* \"#utility.yul\":1351:1361   */\n      dup3\n        /* \"#utility.yul\":1348:1382   */\n      gt\n        /* \"#utility.yul\":1345:1407   */\n      or\n        /* \"#utility.yul\":1342:1430   */\n      iszero\n      tag_61\n      jumpi\n        /* \"#utility.yul\":1410:1428   */\n      tag_62\n      tag_37\n      jump\t// in\n    tag_62:\n        /* \"#utility.yul\":1342:1430   */\n    tag_61:\n        /* \"#utility.yul\":1450:1460   */\n      dup1\n        /* \"#utility.yul\":1446:1448   */\n      0x40\n        /* \"#utility.yul\":1439:1461   */\n      mstore\n        /* \"#utility.yul\":1229:1467   */\n      pop\n        /* \"#utility.yul\":1186:1467   */\n      pop\n      pop\n      jump\t// out\n        /* \"#utility.yul\":1473:1602   */\n    tag_39:\n        /* \"#utility.yul\":1507:1513   */\n      0x00\n        /* \"#utility.yul\":1534:1554   */\n      tag_64\n      tag_32\n      jump\t// in\n    tag_64:\n        /* \"#utility.yul\":1524:1554   */\n      swap1\n      pop\n        /* \"#utility.yul\":1563:1596   */\n      tag_65\n        /* \"#utility.yul\":1591:1595   */\n      dup3\n        /* \"#utility.yul\":1583:1589   */\n      dup3\n        /* \"#utility.yul\":1563:1596   */\n      tag_38\n      jump\t// in\n    tag_65:\n        /* \"#utility.yul\":1473:1602   */\n      swap2\n      swap1\n      pop\n      jump\t// out\n        /* \"#utility.yul\":1608:1857   */\n    tag_40:\n        /* \"#utility.yul\":1683:1687   */\n      0x00\n        /* \"#utility.yul\":1773:1791   */\n      0xffffffffffffffff\n        /* \"#utility.yul\":1765:1771   */\n      dup3\n        /* \"#utility.yul\":1762:1792   */\n      gt\n        /* \"#utility.yul\":1759:1815   */\n      iszero\n      tag_67\n      jumpi\n        /* \"#utility.yul\":1795:1813   */\n      tag_68\n      tag_37\n      jump\t// in\n    tag_68:\n        /* \"#utility.yul\":1759:1815   */\n    tag_67:\n        /* \"#utility.yul\":1845:1849   */\n      0x20\n        /* \"#utility.yul\":1837:1843   */\n      dup3\n        /* \"#utility.yul\":1833:1850   */\n      mul\n        /* \"#utility.yul\":1825:1850   */\n      swap1\n      pop\n        /* \"#utility.yul\":1608:1857   */\n      swap2\n      swap1\n      pop\n      jump\t// out\n        /* \"#utility.yul\":1863:1980   */\n    tag_41:\n        /* \"#utility.yul\":1972:1973   */\n      0x00\n        /* \"#utility.yul\":1969:1970   */\n      dup1\n        /* \"#utility.yul\":1962:1974   */\n      revert\n        /* \"#utility.yul\":1986:2108   */\n    tag_42:\n        /* \"#utility.yul\":2059:2083   */\n      tag_71\n        /* \"#utility.yul\":2077:2082   */\n      dup2\n        /* \"#utility.yul\":2059:2083   */\n      tag_30\n      jump\t// in\n    tag_71:\n        /* \"#utility.yul\":2052:2057   */\n      dup2\n        /* \"#utility.yul\":2049:2084   */\n      eq\n        /* \"#utility.yul\":2039:2102   */\n      tag_72\n      jumpi\n        /* \"#utility.yul\":2098:2099   */\n      0x00\n        /* \"#utility.yul\":2095:2096   */\n      dup1\n        /* \"#utility.yul\":2088:2100   */\n      revert\n        /* \"#utility.yul\":2039:2102   */\n    tag_72:\n        /* \"#utility.yul\":1986:2108   */\n      pop\n      jump\t// out\n        /* \"#utility.yul\":2114:2253   */\n    tag_43:\n        /* \"#utility.yul\":2160:2165   */\n      0x00\n        /* \"#utility.yul\":2198:2204   */\n      dup2\n        /* \"#utility.yul\":2185:2205   */\n      calldataload\n        /* \"#utility.yul\":2176:2205   */\n      swap1\n      pop\n        /* \"#utility.yul\":2214:2247   */\n      tag_74\n        /* \"#utility.yul\":2241:2246   */\n      dup2\n        /* \"#utility.yul\":2214:2247   */\n      tag_42\n      jump\t// in\n    tag_74:\n        /* \"#utility.yul\":2114:2253   */\n      swap3\n      swap2\n      pop\n      pop\n      jump\t// out\n        /* \"#utility.yul\":2277:2920   */\n    tag_44:\n        /* \"#utility.yul\":2371:2376   */\n      0x00\n        /* \"#utility.yul\":2396:2475   */\n      tag_76\n        /* \"#utility.yul\":2412:2474   */\n      tag_77\n        /* \"#utility.yul\":2467:2473   */\n      dup5\n        /* \"#utility.yul\":2412:2474   */\n      tag_40\n      jump\t// in\n    tag_77:\n        /* \"#utility.yul\":2396:2475   */\n      tag_39\n      jump\t// in\n    tag_76:\n        /* \"#utility.yul\":2387:2475   */\n      swap1\n      pop\n        /* \"#utility.yul\":2495:2500   */\n      dup1\n        /* \"#utility.yul\":2548:2552   */\n      0x20\n        /* \"#utility.yul\":2540:2546   */\n      dup5\n        /* \"#utility.yul\":2536:2553   */\n      mul\n        /* \"#utility.yul\":2528:2534   */\n      dup4\n        /* \"#utility.yul\":2524:2554   */\n      add\n        /* \"#utility.yul\":2577:2580   */\n      dup6\n        /* \"#utility.yul\":2569:2575   */\n      dup2\n        /* \"#utility.yul\":2566:2581   */\n      gt\n        /* \"#utility.yul\":2563:2685   */\n      iszero\n      tag_78\n      jumpi\n        /* \"#utility.yul\":2596:2675   */\n      tag_79\n      tag_41\n      jump\t// in\n    tag_79:\n        /* \"#utility.yul\":2563:2685   */\n    tag_78:\n        /* \"#utility.yul\":2711:2717   */\n      dup4\n        /* \"#utility.yul\":2694:2914   */\n    tag_80:\n        /* \"#utility.yul\":2728:2734   */\n      dup2\n        /* \"#utility.yul\":2723:2726   */\n      dup2\n        /* \"#utility.yul\":2720:2735   */\n      lt\n        /* \"#utility.yul\":2694:2914   */\n      iszero\n      tag_82\n      jumpi\n        /* \"#utility.yul\":2803:2806   */\n      dup1\n        /* \"#utility.yul\":2832:2869   */\n      tag_83\n        /* \"#utility.yul\":2865:2868   */\n      dup9\n        /* \"#utility.yul\":2853:2863   */\n      dup3\n        /* \"#utility.yul\":2832:2869   */\n      tag_43\n      jump\t// in\n    tag_83:\n        /* \"#utility.yul\":2827:2830   */\n      dup5\n        /* \"#utility.yul\":2820:2870   */\n      mstore\n        /* \"#utility.yul\":2899:2903   */\n      0x20\n        /* \"#utility.yul\":2894:2897   */\n      dup5\n        /* \"#utility.yul\":2890:2904   */\n      add\n        /* \"#utility.yul\":2883:2904   */\n      swap4\n      pop\n        /* \"#utility.yul\":2770:2914   */\n      pop\n        /* \"#utility.yul\":2754:2758   */\n      0x20\n        /* \"#utility.yul\":2749:2752   */\n      dup2\n        /* \"#utility.yul\":2745:2759   */\n      add\n        /* \"#utility.yul\":2738:2759   */\n      swap1\n      pop\n        /* \"#utility.yul\":2694:2914   */\n      jump(tag_80)\n    tag_82:\n        /* \"#utility.yul\":2698:2719   */\n      pop\n        /* \"#utility.yul\":2377:2920   */\n      pop\n      pop\n        /* \"#utility.yul\":2277:2920   */\n      swap4\n      swap3\n      pop\n      pop\n      pop\n      jump\t// out\n        /* \"#utility.yul\":2944:3283   */\n    tag_45:\n        /* \"#utility.yul\":3013:3018   */\n      0x00\n        /* \"#utility.yul\":3062:3065   */\n      dup3\n        /* \"#utility.yul\":3055:3059   */\n      0x1f\n        /* \"#utility.yul\":3047:3053   */\n      dup4\n        /* \"#utility.yul\":3043:3060   */\n      add\n        /* \"#utility.yul\":3039:3066   */\n      slt\n        /* \"#utility.yul\":3029:3151   */\n      tag_85\n      jumpi\n        /* \"#utility.yul\":3070:3149   */\n      tag_86\n      tag_35\n      jump\t// in\n    tag_86:\n        /* \"#utility.yul\":3029:3151   */\n    tag_85:\n        /* \"#utility.yul\":3174:3178   */\n      0x03\n        /* \"#utility.yul\":3196:3277   */\n      tag_87\n        /* \"#utility.yul\":3273:3276   */\n      dup5\n        /* \"#utility.yul\":3265:3271   */\n      dup3\n        /* \"#utility.yul\":3257:3263   */\n      dup6\n        /* \"#utility.yul\":3196:3277   */\n      tag_44\n      jump\t// in\n    tag_87:\n        /* \"#utility.yul\":3187:3277   */\n      swap2\n      pop\n        /* \"#utility.yul\":3019:3283   */\n      pop\n        /* \"#utility.yul\":2944:3283   */\n      swap3\n      swap2\n      pop\n      pop\n      jump\t// out\n        /* \"#utility.yul\":3289:3664   */\n    tag_14:\n        /* \"#utility.yul\":3371:3377   */\n      0x00\n        /* \"#utility.yul\":3420:3422   */\n      0x60\n        /* \"#utility.yul\":3408:3417   */\n      dup3\n        /* \"#utility.yul\":3399:3406   */\n      dup5\n        /* \"#utility.yul\":3395:3418   */\n      sub\n        /* \"#utility.yul\":3391:3423   */\n      slt\n        /* \"#utility.yul\":3388:3507   */\n      iszero\n      tag_89\n      jumpi\n        /* \"#utility.yul\":3426:3505   */\n      tag_90\n      tag_33\n      jump\t// in\n    tag_90:\n        /* \"#utility.yul\":3388:3507   */\n    tag_89:\n        /* \"#utility.yul\":3546:3547   */\n      0x00\n        /* \"#utility.yul\":3571:3647   */\n      tag_91\n        /* \"#utility.yul\":3639:3646   */\n      dup5\n        /* \"#utility.yul\":3630:3636   */\n      dup3\n        /* \"#utility.yul\":3619:3628   */\n      dup6\n        /* \"#utility.yul\":3615:3637   */\n      add\n        /* \"#utility.yul\":3571:3647   */\n      tag_45\n      jump\t// in\n    tag_91:\n        /* \"#utility.yul\":3561:3647   */\n      swap2\n      pop\n        /* \"#utility.yul\":3517:3657   */\n      pop\n        /* \"#utility.yul\":3289:3664   */\n      swap3\n      swap2\n      pop\n      pop\n      jump\t// out\n        /* \"#utility.yul\":3670:3850   */\n    tag_25:\n        /* \"#utility.yul\":3718:3795   */\n      0x4e487b7100000000000000000000000000000000000000000000000000000000\n        /* \"#utility.yul\":3715:3716   */\n      0x00\n        /* \"#utility.yul\":3708:3796   */\n      mstore\n        /* \"#utility.yul\":3815:3819   */\n      0x32\n        /* \"#utility.yul\":3812:3813   */\n      0x04\n        /* \"#utility.yul\":3805:3820   */\n      mstore\n        /* \"#utility.yul\":3839:3843   */\n      0x24\n        /* \"#utility.yul\":3836:3837   */\n      0x00\n        /* \"#utility.yul\":3829:3844   */\n      revert\n        /* \"#utility.yul\":3856:4036   */\n    tag_46:\n        /* \"#utility.yul\":3904:3981   */\n      0x4e487b7100000000000000000000000000000000000000000000000000000000\n        /* \"#utility.yul\":3901:3902   */\n      0x00\n        /* \"#utility.yul\":3894:3982   */\n      mstore\n        /* \"#utility.yul\":4001:4005   */\n      0x11\n        /* \"#utility.yul\":3998:3999   */\n      0x04\n        /* \"#utility.yul\":3991:4006   */\n      mstore\n        /* \"#utility.yul\":4025:4029   */\n      0x24\n        /* \"#utility.yul\":4022:4023   */\n      0x00\n        /* \"#utility.yul\":4015:4030   */\n      revert\n        /* \"#utility.yul\":4042:4233   */\n    tag_27:\n        /* \"#utility.yul\":4082:4085   */\n      0x00\n        /* \"#utility.yul\":4101:4121   */\n      tag_95\n        /* \"#utility.yul\":4119:4120   */\n      dup3\n        /* \"#utility.yul\":4101:4121   */\n      tag_30\n      jump\t// in\n    tag_95:\n        /* \"#utility.yul\":4096:4121   */\n      swap2\n      pop\n        /* \"#utility.yul\":4135:4155   */\n      tag_96\n        /* \"#utility.yul\":4153:4154   */\n      dup4\n        /* \"#utility.yul\":4135:4155   */\n      tag_30\n      jump\t// in\n    tag_96:\n        /* \"#utility.yul\":4130:4155   */\n      swap3\n      pop\n        /* \"#utility.yul\":4178:4179   */\n      dup3\n        /* \"#utility.yul\":4175:4176   */\n      dup3\n        /* \"#utility.yul\":4171:4180   */\n      add\n        /* \"#utility.yul\":4164:4180   */\n      swap1\n      pop\n        /* \"#utility.yul\":4199:4202   */\n      dup1\n        /* \"#utility.yul\":4196:4197   */\n      dup3\n        /* \"#utility.yul\":4193:4203   */\n      gt\n        /* \"#utility.yul\":4190:4226   */\n      iszero\n      tag_97\n      jumpi\n        /* \"#utility.yul\":4206:4224   */\n      tag_98\n      tag_46\n      jump\t// in\n    tag_98:\n        /* \"#utility.yul\":4190:4226   */\n    tag_97:\n        /* \"#utility.yul\":4042:4233   */\n      swap3\n      swap2\n      pop\n      pop\n      jump\t// out\n        /* \"#utility.yul\":4239:4472   */\n    tag_29:\n        /* \"#utility.yul\":4278:4281   */\n      0x00\n        /* \"#utility.yul\":4301:4325   */\n      tag_100\n        /* \"#utility.yul\":4319:4324   */\n      dup3\n        /* \"#utility.yul\":4301:4325   */\n      tag_30\n      jump\t// in\n    tag_100:\n        /* \"#utility.yul\":4292:4325   */\n      swap2\n      pop\n        /* \"#utility.yul\":4347:4413   */\n      0xffffffffffffffffffffffffffffffffffffffffffffffffffffffffffffffff\n        /* \"#utility.yul\":4340:4345   */\n      dup3\n        /* \"#utility.yul\":4337:4414   */\n      sub\n        /* \"#utility.yul\":4334:4437   */\n      tag_101\n      jumpi\n        /* \"#utility.yul\":4417:4435   */\n      tag_102\n      tag_46\n      jump\t// in\n    tag_102:\n        /* \"#utility.yul\":4334:4437   */\n    tag_101:\n        /* \"#utility.yul\":4464:4465   */\n      0x01\n        /* \"#utility.yul\":4457:4462   */\n      dup3\n        /* \"#utility.yul\":4453:4466   */\n      add\n        /* \"#utility.yul\":4446:4466   */\n      swap1\n      pop\n        /* \"#utility.yul\":4239:4472   */\n      swap2\n      swap1\n      pop\n      jump\t// out\n\n    auxdata: 0xa2646970667358221220b10b8c449861238c1690c957765297358d320a669f16d13475bba085acba062064736f6c63430008120033\n}\n",
				"bytecode": {
					"linkReferences": {},
					"object": "60806040526000805534801561001457600080fd5b5061041a806100246000396000f3fe608060405234801561001057600080fd5b50600436106100415760003560e01c806326121ff0146100465780632ddbd13a14610050578063d14d385d1461006e575b600080fd5b61004e61009e565b005b6100586100cc565b6040516100659190610140565b60405180910390f35b610088600480360381019061008391906102dd565b6100d2565b6040516100959190610140565b60405180910390f35b6100c46040518060600160405280600181526020016002815260200160038152506100d2565b600081905550565b60005481565b6000806000905060005b600381101561011d578381600381106100f8576100f761030a565b5b6020020151826101089190610368565b915080806101159061039c565b9150506100dc565b5080915050919050565b6000819050919050565b61013a81610127565b82525050565b60006020820190506101556000830184610131565b92915050565b6000604051905090565b600080fd5b600080fd5b6000601f19601f8301169050919050565b7f4e487b7100000000000000000000000000000000000000000000000000000000600052604160045260246000fd5b6101b88261016f565b810181811067ffffffffffffffff821117156101d7576101d6610180565b5b80604052505050565b60006101ea61015b565b90506101f682826101af565b919050565b600067ffffffffffffffff82111561021657610215610180565b5b602082029050919050565b600080fd5b61022f81610127565b811461023a57600080fd5b50565b60008135905061024c81610226565b92915050565b6000610265610260846101fb565b6101e0565b9050806020840283018581111561027f5761027e610221565b5b835b818110156102a85780610294888261023d565b845260208401935050602081019050610281565b5050509392505050565b600082601f8301126102c7576102c661016a565b5b60036102d4848285610252565b91505092915050565b6000606082840312156102f3576102f2610165565b5b6000610301848285016102b2565b91505092915050565b7f4e487b7100000000000000000000000000000000000000000000000000000000600052603260045260246000fd5b7f4e487b7100000000000000000000000000000000000000000000000000000000600052601160045260246000fd5b600061037382610127565b915061037e83610127565b925082820190508082111561039657610395610339565b5b92915050565b60006103a782610127565b91507fffffffffffffffffffffffffffffffffffffffffffffffffffffffffffffffff82036103d9576103d8610339565b5b60018201905091905056fea2646970667358221220b10b8c449861238c1690c957765297358d320a669f16d13475bba085acba062064736f6c63430008120033",
					"opcodes": "PUSH1 0x80 PUSH1 0x40 MSTORE PUSH1 0x0 DUP1 SSTORE CALLVALUE DUP1 ISZERO PUSH2 0x14 JUMPI PUSH1 0x0 DUP1 REVERT JUMPDEST POP PUSH2 0x41A DUP1 PUSH2 0x24 PUSH1 0x0 CODECOPY PUSH1 0x0 RETURN INVALID PUSH1 0x80 PUSH1 0x40 MSTORE CALLVALUE DUP1 ISZERO PUSH2 0x10 JUMPI PUSH1 0x0 DUP1 REVERT JUMPDEST POP PUSH1 0x4 CALLDATASIZE LT PUSH2 0x41 JUMPI PUSH1 0x0 CALLDATALOAD PUSH1 0xE0 SHR DUP1 PUSH4 0x26121FF0 EQ PUSH2 0x46 JUMPI DUP1 PUSH4 0x2DDBD13A EQ PUSH2 0x50 JUMPI DUP1 PUSH4 0xD14D385D EQ PUSH2 0x6E JUMPI JUMPDEST PUSH1 0x0 DUP1 REVERT JUMPDEST PUSH2 0x4E PUSH2 0x9E JUMP JUMPDEST STOP JUMPDEST PUSH2 0x58 PUSH2 0xCC JUMP JUMPDEST PUSH1 0x40 MLOAD PUSH2 0x65 SWAP2 SWAP1 PUSH2 0x140 JUMP JUMPDEST PUSH1 0x40 MLOAD DUP1 SWAP2 SUB SWAP1 RETURN JUMPDEST PUSH2 0x88 PUSH1 0x4 DUP1 CALLDATASIZE SUB DUP2 ADD SWAP1 PUSH2 0x83 SWAP2 SWAP1 PUSH2 0x2DD JUMP JUMPDEST PUSH2 0xD2 JUMP JUMPDEST PUSH1 0x40 MLOAD PUSH2 0x95 SWAP2 SWAP1 PUSH2 0x140 JUMP JUMPDEST PUSH1 0x40 MLOAD DUP1 SWAP2 SUB SWAP1 RETURN JUMPDEST PUSH2 0xC4 PUSH1 0x40 MLOAD DUP1 PUSH1 0x60 ADD PUSH1 0x40 MSTORE DUP1 PUSH1 0x1 DUP2 MSTORE PUSH1 0x20 ADD PUSH1 0x2 DUP2 MSTORE PUSH1 0x20 ADD PUSH1 0x3 DUP2 MSTORE POP PUSH2 0xD2 JUMP JUMPDEST PUSH1 0x0 DUP2 SWAP1 SSTORE POP JUMP JUMPDEST PUSH1 0x0 SLOAD DUP2 JUMP JUMPDEST PUSH1 0x0 DUP1 PUSH1 0x0 SWAP1 POP PUSH1 0x0 JUMPDEST PUSH1 0x3 DUP2 LT ISZERO PUSH2 0x11D JUMPI DUP4 DUP2 PUSH1 0x3 DUP2 LT PUSH2 0xF8 JUMPI PUSH2 0xF7 PUSH2 0x30A JUMP JUMPDEST JUMPDEST PUSH1 0x20 MUL ADD MLOAD DUP3 PUSH2 0x108 SWAP2 SWAP1 PUSH2 0x368 JUMP JUMPDEST SWAP2 POP DUP1 DUP1 PUSH2 0x115 SWAP1 PUSH2 0x39C JUMP JUMPDEST SWAP2 POP POP PUSH2 0xDC JUMP JUMPDEST POP DUP1 SWAP2 POP POP SWAP2 SWAP1 POP JUMP JUMPDEST PUSH1 0x0 DUP2 SWAP1 POP SWAP2 SWAP1 POP JUMP JUMPDEST PUSH2 0x13A DUP2 PUSH2 0x127 JUMP JUMPDEST DUP3 MSTORE POP POP JUMP JUMPDEST PUSH1 0x0 PUSH1 0x20 DUP3 ADD SWAP1 POP PUSH2 0x155 PUSH1 0x0 DUP4 ADD DUP5 PUSH2 0x131 JUMP JUMPDEST SWAP3 SWAP2 POP POP JUMP JUMPDEST PUSH1 0x0 PUSH1 0x40 MLOAD SWAP1 POP SWAP1 JUMP JUMPDEST PUSH1 0x0 DUP1 REVERT JUMPDEST PUSH1 0x0 DUP1 REVERT JUMPDEST PUSH1 0x0 PUSH1 0x1F NOT PUSH1 0x1F DUP4 ADD AND SWAP1 POP SWAP2 SWAP1 POP JUMP JUMPDEST PUSH32 0x4E487B7100000000000000000000000000000000000000000000000000000000 PUSH1 0x0 MSTORE PUSH1 0x41 PUSH1 0x4 MSTORE PUSH1 0x24 PUSH1 0x0 REVERT JUMPDEST PUSH2 0x1B8 DUP3 PUSH2 0x16F JUMP JUMPDEST DUP2 ADD DUP2 DUP2 LT PUSH8 0xFFFFFFFFFFFFFFFF DUP3 GT OR ISZERO PUSH2 0x1D7 JUMPI PUSH2 0x1D6 PUSH2 0x180 JUMP JUMPDEST JUMPDEST DUP1 PUSH1 0x40 MSTORE POP POP POP JUMP JUMPDEST PUSH1 0x0 PUSH2 0x1EA PUSH2 0x15B JUMP JUMPDEST SWAP1 POP PUSH2 0x1F6 DUP3 DUP3 PUSH2 0x1AF JUMP JUMPDEST SWAP2 SWAP1 POP JUMP JUMPDEST PUSH1 0x0 PUSH8 0xFFFFFFFFFFFFFFFF DUP3 GT ISZERO PUSH2 0x216 JUMPI PUSH2 0x215 PUSH2 0x180 JUMP JUMPDEST JUMPDEST PUSH1 0x20 DUP3 MUL SWAP1 POP SWAP2 SWAP1 POP JUMP JUMPDEST PUSH1 0x0 DUP1 REVERT JUMPDEST PUSH2 0x22F DUP2 PUSH2 0x127 JUMP JUMPDEST DUP2 EQ PUSH2 0x23A JUMPI PUSH1 0x0 DUP1 REVERT JUMPDEST POP JUMP JUMPDEST PUSH1 0x0 DUP2 CALLDATALOAD SWAP1 POP PUSH2 0x24C DUP2 PUSH2 0x226 JUMP JUMPDEST SWAP3 SWAP2 POP POP JUMP JUMPDEST PUSH1 0x0 PUSH2 0x265 PUSH2 0x260 DUP5 PUSH2 0x1FB JUMP JUMPDEST PUSH2 0x1E0 JUMP JUMPDEST SWAP1 POP DUP1 PUSH1 0x20 DUP5 MUL DUP4 ADD DUP6 DUP2 GT ISZERO PUSH2 0x27F JUMPI PUSH2 0x27E PUSH2 0x221 JUMP JUMPDEST JUMPDEST DUP4 JUMPDEST DUP2 DUP2 LT ISZERO PUSH2 0x2A8 JUMPI DUP1 PUSH2 0x294 DUP9 DUP3 PUSH2 0x23D JUMP JUMPDEST DUP5 MSTORE PUSH1 0x20 DUP5 ADD SWAP4 POP POP PUSH1 0x20 DUP2 ADD SWAP1 POP PUSH2 0x281 JUMP JUMPDEST POP POP POP SWAP4 SWAP3 POP POP POP JUMP JUMPDEST PUSH1 0x0 DUP3 PUSH1 0x1F DUP4 ADD SLT PUSH2 0x2C7 JUMPI PUSH2 0x2C6 PUSH2 0x16A JUMP JUMPDEST JUMPDEST PUSH1 0x3 PUSH2 0x2D4 DUP5 DUP3 DUP6 PUSH2 0x252 JUMP JUMPDEST SWAP2 POP POP SWAP3 SWAP2 POP POP JUMP JUMPDEST PUSH1 0x0 PUSH1 0x60 DUP3 DUP5 SUB SLT ISZERO PUSH2 0x2F3 JUMPI PUSH2 0x2F2 PUSH2 0x165 JUMP JUMPDEST JUMPDEST PUSH1 0x0 PUSH2 0x301 DUP5 DUP3 DUP6 ADD PUSH2 0x2B2 JUMP JUMPDEST SWAP2 POP POP SWAP3 SWAP2 POP POP JUMP JUMPDEST PUSH32 0x4E487B7100000000000000000000000000000000000000000000000000000000 PUSH1 0x0 MSTORE PUSH1 0x32 PUSH1 0x4 MSTORE PUSH1 0x24 PUSH1 0x0 REVERT JUMPDEST PUSH32 0x4E487B7100000000000000000000000000000000000000000000000000000000 PUSH1 0x0 MSTORE PUSH1 0x11 PUSH1 0x4 MSTORE PUSH1 0x24 PUSH1 0x0 REVERT JUMPDEST PUSH1 0x0 PUSH2 0x373 DUP3 PUSH2 0x127 JUMP JUMPDEST SWAP2 POP PUSH2 0x37E DUP4 PUSH2 0x127 JUMP JUMPDEST SWAP3 POP DUP3 DUP3 ADD SWAP1 POP DUP1 DUP3 GT ISZERO PUSH2 0x396 JUMPI PUSH2 0x395 PUSH2 0x339 JUMP JUMPDEST JUMPDEST SWAP3 SWAP2 POP POP JUMP JUMPDEST PUSH1 0x0 PUSH2 0x3A7 DUP3 PUSH2 0x127 JUMP JUMPDEST SWAP2 POP PUSH32 0xFFFFFFFFFFFFFFFFFFFFFFFFFFFFFFFFFFFFFFFFFFFFFFFFFFFFFFFFFFFFFFFF DUP3 SUB PUSH2 0x3D9 JUMPI PUSH2 0x3D8 PUSH2 0x339 JUMP JUMPDEST JUMPDEST PUSH1 0x1 DUP3 ADD SWAP1 POP SWAP2 SWAP1 POP JUMP INVALID LOG2 PUSH5 0x6970667358 0x22 SLT KECCAK256 0xB1 SIGNEXTEND DUP13 PREVRANDAO SWAP9 PUSH2 0x238C AND SWAP1 0xC9 JUMPI PUSH23 0x5297358D320A669F16D13475BBA085ACBA062064736F6C PUSH4 0x43000812 STOP CALLER "
				},
				"gasEstimates": {
					"creation": {
						"codeDepositCost": "210000",
						"executionCost": "5257",
						"totalCost": "215257"
					},
					"external": {
						"f()": "infinite",
						"g(uint256[3])": "infinite",
						"total()": "2429"
					}
				},
				"methodIdentifiers": {
					"f()": "26121ff0",
					"g(uint256[3])": "d14d385d",
					"total()": "2ddbd13a"
				}
			},
			"storageLayout": {
				"storage": [
					{
						"astId": 4,
						"contract": "006_引用类型.sol:C",
						"label": "total",
						"offset": 0,
						"slot": "0",
						"type": "t_uint256"
					}
				],
				"types": {
					"t_uint256": {
						"encoding": "inplace",
						"label": "uint256",
						"numberOfBytes": "32"
					}
				}
			},
			"userdoc": {
				"kind": "user",
				"methods": {},
				"version": 1
			}
		}
	}
}