{
	"003_函数类型.sol": {
		"func_003": {
			"abi": [
				{
					"inputs": [],
					"name": "add",
					"outputs": [],
					"stateMutability": "nonpayable",
					"type": "function"
				},
				{
					"inputs": [
						{
							"internalType": "uint256",
							"name": "_number",
							"type": "uint256"
						}
					],
					"name": "addPure",
					"outputs": [
						{
							"internalType": "uint256",
							"name": "new_number",
							"type": "uint256"
						}
					],
					"stateMutability": "pure",
					"type": "function"
				},
				{
					"inputs": [],
					"name": "addView",
					"outputs": [
						{
							"internalType": "uint256",
							"name": "new_number",
							"type": "uint256"
						}
					],
					"stateMutability": "view",
					"type": "function"
				},
				{
					"inputs": [],
					"name": "minusCall",
					"outputs": [],
					"stateMutability": "nonpayable",
					"type": "function"
				},
				{
					"inputs": [],
					"name": "minusPayable",
					"outputs": [
						{
							"internalType": "uint256",
							"name": "balance",
							"type": "uint256"
						}
					],
					"stateMutability": "payable",
					"type": "function"
				},
				{
					"inputs": [],
					"name": "number",
					"outputs": [
						{
							"internalType": "uint256",
							"name": "",
							"type": "uint256"
						}
					],
					"stateMutability": "view",
					"type": "function"
				}
			],
			"devdoc": {
				"kind": "dev",
				"methods": {},
				"version": 1
			},
			"evm": {
				"assembly": "    /* \"003_\\xe5\\x87\\xbd\\xe6\\x95\\xb0\\xe7\\xb1\\xbb\\xe5\\x9e\\x8b.sol\":57:1037  contract func_003 {... */\n  mstore(0x40, 0x80)\n    /* \"003_\\xe5\\x87\\xbd\\xe6\\x95\\xb0\\xe7\\xb1\\xbb\\xe5\\x9e\\x8b.sol\":242:243  5 */\n  0x05\n    /* \"003_\\xe5\\x87\\xbd\\xe6\\x95\\xb0\\xe7\\xb1\\xbb\\xe5\\x9e\\x8b.sol\":218:243  uint256 public number = 5 */\n  0x00\n  sstore\n    /* \"003_\\xe5\\x87\\xbd\\xe6\\x95\\xb0\\xe7\\xb1\\xbb\\xe5\\x9e\\x8b.sol\":57:1037  contract func_003 {... */\n  callvalue\n  dup1\n  iszero\n  tag_1\n  jumpi\n  0x00\n  dup1\n  revert\ntag_1:\n  pop\n  dataSize(sub_0)\n  dup1\n  dataOffset(sub_0)\n  0x00\n  codecopy\n  0x00\n  return\nstop\n\nsub_0: assembly {\n        /* \"003_\\xe5\\x87\\xbd\\xe6\\x95\\xb0\\xe7\\xb1\\xbb\\xe5\\x9e\\x8b.sol\":57:1037  contract func_003 {... */\n      mstore(0x40, 0x80)\n      jumpi(tag_1, lt(calldatasize, 0x04))\n      shr(0xe0, calldataload(0x00))\n      dup1\n      0x303810a6\n      eq\n      tag_2\n      jumpi\n      dup1\n      0x4f2be91f\n      eq\n      tag_3\n      jumpi\n      dup1\n      0x7032c4f2\n      eq\n      tag_4\n      jumpi\n      dup1\n      0x80b4ea08\n      eq\n      tag_5\n      jumpi\n      dup1\n      0x8381f58a\n      eq\n      tag_6\n      jumpi\n      dup1\n      0xb262eb7f\n      eq\n      tag_7\n      jumpi\n    tag_1:\n      0x00\n      dup1\n      revert\n        /* \"003_\\xe5\\x87\\xbd\\xe6\\x95\\xb0\\xe7\\xb1\\xbb\\xe5\\x9e\\x8b.sol\":899:1034  function minusPayable() external payable returns(uint256 balance) {... */\n    tag_2:\n      tag_8\n      tag_9\n      jump\t// in\n    tag_8:\n      mload(0x40)\n      tag_10\n      swap2\n      swap1\n      tag_11\n      jump\t// in\n    tag_10:\n      mload(0x40)\n      dup1\n      swap2\n      sub\n      swap1\n      return\n        /* \"003_\\xe5\\x87\\xbd\\xe6\\x95\\xb0\\xe7\\xb1\\xbb\\xe5\\x9e\\x8b.sol\":264:323  function add() external{... */\n    tag_3:\n      callvalue\n      dup1\n      iszero\n      tag_12\n      jumpi\n      0x00\n      dup1\n      revert\n    tag_12:\n      pop\n      tag_13\n      tag_14\n      jump\t// in\n    tag_13:\n      stop\n        /* \"003_\\xe5\\x87\\xbd\\xe6\\x95\\xb0\\xe7\\xb1\\xbb\\xe5\\x9e\\x8b.sol\":355:469  function addPure(uint256 _number) external pure returns(uint256 new_number){... */\n    tag_4:\n      callvalue\n      dup1\n      iszero\n      tag_15\n      jumpi\n      0x00\n      dup1\n      revert\n    tag_15:\n      pop\n      tag_16\n      0x04\n      dup1\n      calldatasize\n      sub\n      dup2\n      add\n      swap1\n      tag_17\n      swap2\n      swap1\n      tag_18\n      jump\t// in\n    tag_17:\n      tag_19\n      jump\t// in\n    tag_16:\n      mload(0x40)\n      tag_20\n      swap2\n      swap1\n      tag_11\n      jump\t// in\n    tag_20:\n      mload(0x40)\n      dup1\n      swap2\n      sub\n      swap1\n      return\n        /* \"003_\\xe5\\x87\\xbd\\xe6\\x95\\xb0\\xe7\\xb1\\xbb\\xe5\\x9e\\x8b.sol\":777:831  function minusCall() external {... */\n    tag_5:\n      callvalue\n      dup1\n      iszero\n      tag_21\n      jumpi\n      0x00\n      dup1\n      revert\n    tag_21:\n      pop\n      tag_22\n      tag_23\n      jump\t// in\n    tag_22:\n      stop\n        /* \"003_\\xe5\\x87\\xbd\\xe6\\x95\\xb0\\xe7\\xb1\\xbb\\xe5\\x9e\\x8b.sol\":218:243  uint256 public number = 5 */\n    tag_6:\n      callvalue\n      dup1\n      iszero\n      tag_24\n      jumpi\n      0x00\n      dup1\n      revert\n    tag_24:\n      pop\n      tag_25\n      tag_26\n      jump\t// in\n    tag_25:\n      mload(0x40)\n      tag_27\n      swap2\n      swap1\n      tag_11\n      jump\t// in\n    tag_27:\n      mload(0x40)\n      dup1\n      swap2\n      sub\n      swap1\n      return\n        /* \"003_\\xe5\\x87\\xbd\\xe6\\x95\\xb0\\xe7\\xb1\\xbb\\xe5\\x9e\\x8b.sol\":494:595  function addView() external view returns(uint256 new_number) {... */\n    tag_7:\n      callvalue\n      dup1\n      iszero\n      tag_28\n      jumpi\n      0x00\n      dup1\n      revert\n    tag_28:\n      pop\n      tag_29\n      tag_30\n      jump\t// in\n    tag_29:\n      mload(0x40)\n      tag_31\n      swap2\n      swap1\n      tag_11\n      jump\t// in\n    tag_31:\n      mload(0x40)\n      dup1\n      swap2\n      sub\n      swap1\n      return\n        /* \"003_\\xe5\\x87\\xbd\\xe6\\x95\\xb0\\xe7\\xb1\\xbb\\xe5\\x9e\\x8b.sol\":899:1034  function minusPayable() external payable returns(uint256 balance) {... */\n    tag_9:\n        /* \"003_\\xe5\\x87\\xbd\\xe6\\x95\\xb0\\xe7\\xb1\\xbb\\xe5\\x9e\\x8b.sol\":948:963  uint256 balance */\n      0x00\n        /* \"003_\\xe5\\x87\\xbd\\xe6\\x95\\xb0\\xe7\\xb1\\xbb\\xe5\\x9e\\x8b.sol\":975:982  minus() */\n      tag_33\n        /* \"003_\\xe5\\x87\\xbd\\xe6\\x95\\xb0\\xe7\\xb1\\xbb\\xe5\\x9e\\x8b.sol\":975:980  minus */\n      tag_34\n        /* \"003_\\xe5\\x87\\xbd\\xe6\\x95\\xb0\\xe7\\xb1\\xbb\\xe5\\x9e\\x8b.sol\":975:982  minus() */\n      jump\t// in\n    tag_33:\n        /* \"003_\\xe5\\x87\\xbd\\xe6\\x95\\xb0\\xe7\\xb1\\xbb\\xe5\\x9e\\x8b.sol\":1006:1027  address(this).balance */\n      selfbalance\n        /* \"003_\\xe5\\x87\\xbd\\xe6\\x95\\xb0\\xe7\\xb1\\xbb\\xe5\\x9e\\x8b.sol\":996:1027  balance = address(this).balance */\n      swap1\n      pop\n        /* \"003_\\xe5\\x87\\xbd\\xe6\\x95\\xb0\\xe7\\xb1\\xbb\\xe5\\x9e\\x8b.sol\":899:1034  function minusPayable() external payable returns(uint256 balance) {... */\n      swap1\n      jump\t// out\n        /* \"003_\\xe5\\x87\\xbd\\xe6\\x95\\xb0\\xe7\\xb1\\xbb\\xe5\\x9e\\x8b.sol\":264:323  function add() external{... */\n    tag_14:\n        /* \"003_\\xe5\\x87\\xbd\\xe6\\x95\\xb0\\xe7\\xb1\\xbb\\xe5\\x9e\\x8b.sol\":315:316  1 */\n      0x01\n        /* \"003_\\xe5\\x87\\xbd\\xe6\\x95\\xb0\\xe7\\xb1\\xbb\\xe5\\x9e\\x8b.sol\":306:312  number */\n      sload(0x00)\n        /* \"003_\\xe5\\x87\\xbd\\xe6\\x95\\xb0\\xe7\\xb1\\xbb\\xe5\\x9e\\x8b.sol\":306:316  number + 1 */\n      tag_36\n      swap2\n      swap1\n      tag_37\n      jump\t// in\n    tag_36:\n        /* \"003_\\xe5\\x87\\xbd\\xe6\\x95\\xb0\\xe7\\xb1\\xbb\\xe5\\x9e\\x8b.sol\":297:303  number */\n      0x00\n        /* \"003_\\xe5\\x87\\xbd\\xe6\\x95\\xb0\\xe7\\xb1\\xbb\\xe5\\x9e\\x8b.sol\":297:316  number = number + 1 */\n      dup2\n      swap1\n      sstore\n      pop\n        /* \"003_\\xe5\\x87\\xbd\\xe6\\x95\\xb0\\xe7\\xb1\\xbb\\xe5\\x9e\\x8b.sol\":264:323  function add() external{... */\n      jump\t// out\n        /* \"003_\\xe5\\x87\\xbd\\xe6\\x95\\xb0\\xe7\\xb1\\xbb\\xe5\\x9e\\x8b.sol\":355:469  function addPure(uint256 _number) external pure returns(uint256 new_number){... */\n    tag_19:\n        /* \"003_\\xe5\\x87\\xbd\\xe6\\x95\\xb0\\xe7\\xb1\\xbb\\xe5\\x9e\\x8b.sol\":411:429  uint256 new_number */\n      0x00\n        /* \"003_\\xe5\\x87\\xbd\\xe6\\x95\\xb0\\xe7\\xb1\\xbb\\xe5\\x9e\\x8b.sol\":461:462  1 */\n      0x01\n        /* \"003_\\xe5\\x87\\xbd\\xe6\\x95\\xb0\\xe7\\xb1\\xbb\\xe5\\x9e\\x8b.sol\":453:460  _number */\n      dup3\n        /* \"003_\\xe5\\x87\\xbd\\xe6\\x95\\xb0\\xe7\\xb1\\xbb\\xe5\\x9e\\x8b.sol\":453:462  _number+1 */\n      tag_39\n      swap2\n      swap1\n      tag_37\n      jump\t// in\n    tag_39:\n        /* \"003_\\xe5\\x87\\xbd\\xe6\\x95\\xb0\\xe7\\xb1\\xbb\\xe5\\x9e\\x8b.sol\":440:462  new_number = _number+1 */\n      swap1\n      pop\n        /* \"003_\\xe5\\x87\\xbd\\xe6\\x95\\xb0\\xe7\\xb1\\xbb\\xe5\\x9e\\x8b.sol\":355:469  function addPure(uint256 _number) external pure returns(uint256 new_number){... */\n      swap2\n      swap1\n      pop\n      jump\t// out\n        /* \"003_\\xe5\\x87\\xbd\\xe6\\x95\\xb0\\xe7\\xb1\\xbb\\xe5\\x9e\\x8b.sol\":777:831  function minusCall() external {... */\n    tag_23:\n        /* \"003_\\xe5\\x87\\xbd\\xe6\\x95\\xb0\\xe7\\xb1\\xbb\\xe5\\x9e\\x8b.sol\":817:824  minus() */\n      tag_41\n        /* \"003_\\xe5\\x87\\xbd\\xe6\\x95\\xb0\\xe7\\xb1\\xbb\\xe5\\x9e\\x8b.sol\":817:822  minus */\n      tag_34\n        /* \"003_\\xe5\\x87\\xbd\\xe6\\x95\\xb0\\xe7\\xb1\\xbb\\xe5\\x9e\\x8b.sol\":817:824  minus() */\n      jump\t// in\n    tag_41:\n        /* \"003_\\xe5\\x87\\xbd\\xe6\\x95\\xb0\\xe7\\xb1\\xbb\\xe5\\x9e\\x8b.sol\":777:831  function minusCall() external {... */\n      jump\t// out\n        /* \"003_\\xe5\\x87\\xbd\\xe6\\x95\\xb0\\xe7\\xb1\\xbb\\xe5\\x9e\\x8b.sol\":218:243  uint256 public number = 5 */\n    tag_26:\n      sload(0x00)\n      dup2\n      jump\t// out\n        /* \"003_\\xe5\\x87\\xbd\\xe6\\x95\\xb0\\xe7\\xb1\\xbb\\xe5\\x9e\\x8b.sol\":494:595  function addView() external view returns(uint256 new_number) {... */\n    tag_30:\n        /* \"003_\\xe5\\x87\\xbd\\xe6\\x95\\xb0\\xe7\\xb1\\xbb\\xe5\\x9e\\x8b.sol\":535:553  uint256 new_number */\n      0x00\n        /* \"003_\\xe5\\x87\\xbd\\xe6\\x95\\xb0\\xe7\\xb1\\xbb\\xe5\\x9e\\x8b.sol\":587:588  1 */\n      0x01\n        /* \"003_\\xe5\\x87\\xbd\\xe6\\x95\\xb0\\xe7\\xb1\\xbb\\xe5\\x9e\\x8b.sol\":578:584  number */\n      sload(0x00)\n        /* \"003_\\xe5\\x87\\xbd\\xe6\\x95\\xb0\\xe7\\xb1\\xbb\\xe5\\x9e\\x8b.sol\":578:588  number + 1 */\n      tag_43\n      swap2\n      swap1\n      tag_37\n      jump\t// in\n    tag_43:\n        /* \"003_\\xe5\\x87\\xbd\\xe6\\x95\\xb0\\xe7\\xb1\\xbb\\xe5\\x9e\\x8b.sol\":565:588  new_number = number + 1 */\n      swap1\n      pop\n        /* \"003_\\xe5\\x87\\xbd\\xe6\\x95\\xb0\\xe7\\xb1\\xbb\\xe5\\x9e\\x8b.sol\":494:595  function addView() external view returns(uint256 new_number) {... */\n      swap1\n      jump\t// out\n        /* \"003_\\xe5\\x87\\xbd\\xe6\\x95\\xb0\\xe7\\xb1\\xbb\\xe5\\x9e\\x8b.sol\":659:721  function minus() internal {... */\n    tag_34:\n        /* \"003_\\xe5\\x87\\xbd\\xe6\\x95\\xb0\\xe7\\xb1\\xbb\\xe5\\x9e\\x8b.sol\":713:714  1 */\n      0x01\n        /* \"003_\\xe5\\x87\\xbd\\xe6\\x95\\xb0\\xe7\\xb1\\xbb\\xe5\\x9e\\x8b.sol\":704:710  number */\n      sload(0x00)\n        /* \"003_\\xe5\\x87\\xbd\\xe6\\x95\\xb0\\xe7\\xb1\\xbb\\xe5\\x9e\\x8b.sol\":704:714  number - 1 */\n      tag_45\n      swap2\n      swap1\n      tag_46\n      jump\t// in\n    tag_45:\n        /* \"003_\\xe5\\x87\\xbd\\xe6\\x95\\xb0\\xe7\\xb1\\xbb\\xe5\\x9e\\x8b.sol\":695:701  number */\n      0x00\n        /* \"003_\\xe5\\x87\\xbd\\xe6\\x95\\xb0\\xe7\\xb1\\xbb\\xe5\\x9e\\x8b.sol\":695:714  number = number - 1 */\n      dup2\n      swap1\n      sstore\n      pop\n        /* \"003_\\xe5\\x87\\xbd\\xe6\\x95\\xb0\\xe7\\xb1\\xbb\\xe5\\x9e\\x8b.sol\":659:721  function minus() internal {... */\n      jump\t// out\n        /* \"#utility.yul\":7:84   */\n    tag_47:\n        /* \"#utility.yul\":44:51   */\n      0x00\n        /* \"#utility.yul\":73:78   */\n      dup2\n        /* \"#utility.yul\":62:78   */\n      swap1\n      pop\n        /* \"#utility.yul\":7:84   */\n      swap2\n      swap1\n      pop\n      jump\t// out\n        /* \"#utility.yul\":90:208   */\n    tag_48:\n        /* \"#utility.yul\":177:201   */\n      tag_58\n        /* \"#utility.yul\":195:200   */\n      dup2\n        /* \"#utility.yul\":177:201   */\n      tag_47\n      jump\t// in\n    tag_58:\n        /* \"#utility.yul\":172:175   */\n      dup3\n        /* \"#utility.yul\":165:202   */\n      mstore\n        /* \"#utility.yul\":90:208   */\n      pop\n      pop\n      jump\t// out\n        /* \"#utility.yul\":214:436   */\n    tag_11:\n        /* \"#utility.yul\":307:311   */\n      0x00\n        /* \"#utility.yul\":345:347   */\n      0x20\n        /* \"#utility.yul\":334:343   */\n      dup3\n        /* \"#utility.yul\":330:348   */\n      add\n        /* \"#utility.yul\":322:348   */\n      swap1\n      pop\n        /* \"#utility.yul\":358:429   */\n      tag_60\n        /* \"#utility.yul\":426:427   */\n      0x00\n        /* \"#utility.yul\":415:424   */\n      dup4\n        /* \"#utility.yul\":411:428   */\n      add\n        /* \"#utility.yul\":402:408   */\n      dup5\n        /* \"#utility.yul\":358:429   */\n      tag_48\n      jump\t// in\n    tag_60:\n        /* \"#utility.yul\":214:436   */\n      swap3\n      swap2\n      pop\n      pop\n      jump\t// out\n        /* \"#utility.yul\":523:640   */\n    tag_50:\n        /* \"#utility.yul\":632:633   */\n      0x00\n        /* \"#utility.yul\":629:630   */\n      dup1\n        /* \"#utility.yul\":622:634   */\n      revert\n        /* \"#utility.yul\":769:891   */\n    tag_52:\n        /* \"#utility.yul\":842:866   */\n      tag_65\n        /* \"#utility.yul\":860:865   */\n      dup2\n        /* \"#utility.yul\":842:866   */\n      tag_47\n      jump\t// in\n    tag_65:\n        /* \"#utility.yul\":835:840   */\n      dup2\n        /* \"#utility.yul\":832:867   */\n      eq\n        /* \"#utility.yul\":822:885   */\n      tag_66\n      jumpi\n        /* \"#utility.yul\":881:882   */\n      0x00\n        /* \"#utility.yul\":878:879   */\n      dup1\n        /* \"#utility.yul\":871:883   */\n      revert\n        /* \"#utility.yul\":822:885   */\n    tag_66:\n        /* \"#utility.yul\":769:891   */\n      pop\n      jump\t// out\n        /* \"#utility.yul\":897:1036   */\n    tag_53:\n        /* \"#utility.yul\":943:948   */\n      0x00\n        /* \"#utility.yul\":981:987   */\n      dup2\n        /* \"#utility.yul\":968:988   */\n      calldataload\n        /* \"#utility.yul\":959:988   */\n      swap1\n      pop\n        /* \"#utility.yul\":997:1030   */\n      tag_68\n        /* \"#utility.yul\":1024:1029   */\n      dup2\n        /* \"#utility.yul\":997:1030   */\n      tag_52\n      jump\t// in\n    tag_68:\n        /* \"#utility.yul\":897:1036   */\n      swap3\n      swap2\n      pop\n      pop\n      jump\t// out\n        /* \"#utility.yul\":1042:1371   */\n    tag_18:\n        /* \"#utility.yul\":1101:1107   */\n      0x00\n        /* \"#utility.yul\":1150:1152   */\n      0x20\n        /* \"#utility.yul\":1138:1147   */\n      dup3\n        /* \"#utility.yul\":1129:1136   */\n      dup5\n        /* \"#utility.yul\":1125:1148   */\n      sub\n        /* \"#utility.yul\":1121:1153   */\n      slt\n        /* \"#utility.yul\":1118:1237   */\n      iszero\n      tag_70\n      jumpi\n        /* \"#utility.yul\":1156:1235   */\n      tag_71\n      tag_50\n      jump\t// in\n    tag_71:\n        /* \"#utility.yul\":1118:1237   */\n    tag_70:\n        /* \"#utility.yul\":1276:1277   */\n      0x00\n        /* \"#utility.yul\":1301:1354   */\n      tag_72\n        /* \"#utility.yul\":1346:1353   */\n      dup5\n        /* \"#utility.yul\":1337:1343   */\n      dup3\n        /* \"#utility.yul\":1326:1335   */\n      dup6\n        /* \"#utility.yul\":1322:1344   */\n      add\n        /* \"#utility.yul\":1301:1354   */\n      tag_53\n      jump\t// in\n    tag_72:\n        /* \"#utility.yul\":1291:1354   */\n      swap2\n      pop\n        /* \"#utility.yul\":1247:1364   */\n      pop\n        /* \"#utility.yul\":1042:1371   */\n      swap3\n      swap2\n      pop\n      pop\n      jump\t// out\n        /* \"#utility.yul\":1377:1557   */\n    tag_54:\n        /* \"#utility.yul\":1425:1502   */\n      0x4e487b7100000000000000000000000000000000000000000000000000000000\n        /* \"#utility.yul\":1422:1423   */\n      0x00\n        /* \"#utility.yul\":1415:1503   */\n      mstore\n        /* \"#utility.yul\":1522:1526   */\n      0x11\n        /* \"#utility.yul\":1519:1520   */\n      0x04\n        /* \"#utility.yul\":1512:1527   */\n      mstore\n        /* \"#utility.yul\":1546:1550   */\n      0x24\n        /* \"#utility.yul\":1543:1544   */\n      0x00\n        /* \"#utility.yul\":1536:1551   */\n      revert\n        /* \"#utility.yul\":1563:1754   */\n    tag_37:\n        /* \"#utility.yul\":1603:1606   */\n      0x00\n        /* \"#utility.yul\":1622:1642   */\n      tag_75\n        /* \"#utility.yul\":1640:1641   */\n      dup3\n        /* \"#utility.yul\":1622:1642   */\n      tag_47\n      jump\t// in\n    tag_75:\n        /* \"#utility.yul\":1617:1642   */\n      swap2\n      pop\n        /* \"#utility.yul\":1656:1676   */\n      tag_76\n        /* \"#utility.yul\":1674:1675   */\n      dup4\n        /* \"#utility.yul\":1656:1676   */\n      tag_47\n      jump\t// in\n    tag_76:\n        /* \"#utility.yul\":1651:1676   */\n      swap3\n      pop\n        /* \"#utility.yul\":1699:1700   */\n      dup3\n        /* \"#utility.yul\":1696:1697   */\n      dup3\n        /* \"#utility.yul\":1692:1701   */\n      add\n        /* \"#utility.yul\":1685:1701   */\n      swap1\n      pop\n        /* \"#utility.yul\":1720:1723   */\n      dup1\n        /* \"#utility.yul\":1717:1718   */\n      dup3\n        /* \"#utility.yul\":1714:1724   */\n      gt\n        /* \"#utility.yul\":1711:1747   */\n      iszero\n      tag_77\n      jumpi\n        /* \"#utility.yul\":1727:1745   */\n      tag_78\n      tag_54\n      jump\t// in\n    tag_78:\n        /* \"#utility.yul\":1711:1747   */\n    tag_77:\n        /* \"#utility.yul\":1563:1754   */\n      swap3\n      swap2\n      pop\n      pop\n      jump\t// out\n        /* \"#utility.yul\":1760:1954   */\n    tag_46:\n        /* \"#utility.yul\":1800:1804   */\n      0x00\n        /* \"#utility.yul\":1820:1840   */\n      tag_80\n        /* \"#utility.yul\":1838:1839   */\n      dup3\n        /* \"#utility.yul\":1820:1840   */\n      tag_47\n      jump\t// in\n    tag_80:\n        /* \"#utility.yul\":1815:1840   */\n      swap2\n      pop\n        /* \"#utility.yul\":1854:1874   */\n      tag_81\n        /* \"#utility.yul\":1872:1873   */\n      dup4\n        /* \"#utility.yul\":1854:1874   */\n      tag_47\n      jump\t// in\n    tag_81:\n        /* \"#utility.yul\":1849:1874   */\n      swap3\n      pop\n        /* \"#utility.yul\":1898:1899   */\n      dup3\n        /* \"#utility.yul\":1895:1896   */\n      dup3\n        /* \"#utility.yul\":1891:1900   */\n      sub\n        /* \"#utility.yul\":1883:1900   */\n      swap1\n      pop\n        /* \"#utility.yul\":1922:1923   */\n      dup2\n        /* \"#utility.yul\":1916:1920   */\n      dup2\n        /* \"#utility.yul\":1913:1924   */\n      gt\n        /* \"#utility.yul\":1910:1947   */\n      iszero\n      tag_82\n      jumpi\n        /* \"#utility.yul\":1927:1945   */\n      tag_83\n      tag_54\n      jump\t// in\n    tag_83:\n        /* \"#utility.yul\":1910:1947   */\n    tag_82:\n        /* \"#utility.yul\":1760:1954   */\n      swap3\n      swap2\n      pop\n      pop\n      jump\t// out\n\n    auxdata: 0xa26469706673582212202eb7bd0bf514526648b9f50df5497a36b0869de66f6ff9f717765c3ff27ca34164736f6c63430008120033\n}\n",
				"bytecode": {
					"linkReferences": {},
					"object": "6080604052600560005534801561001557600080fd5b50610312806100256000396000f3fe6080604052600436106100555760003560e01c8063303810a61461005a5780634f2be91f146100785780637032c4f21461008f57806380b4ea08146100cc5780638381f58a146100e3578063b262eb7f1461010e575b600080fd5b610062610139565b60405161006f91906101cc565b60405180910390f35b34801561008457600080fd5b5061008d610149565b005b34801561009b57600080fd5b506100b660048036038101906100b19190610218565b610160565b6040516100c391906101cc565b60405180910390f35b3480156100d857600080fd5b506100e1610176565b005b3480156100ef57600080fd5b506100f8610180565b60405161010591906101cc565b60405180910390f35b34801561011a57600080fd5b50610123610186565b60405161013091906101cc565b60405180910390f35b600061014361019c565b47905090565b60016000546101589190610274565b600081905550565b600060018261016f9190610274565b9050919050565b61017e61019c565b565b60005481565b600060016000546101979190610274565b905090565b60016000546101ab91906102a8565b600081905550565b6000819050919050565b6101c6816101b3565b82525050565b60006020820190506101e160008301846101bd565b92915050565b600080fd5b6101f5816101b3565b811461020057600080fd5b50565b600081359050610212816101ec565b92915050565b60006020828403121561022e5761022d6101e7565b5b600061023c84828501610203565b91505092915050565b7f4e487b7100000000000000000000000000000000000000000000000000000000600052601160045260246000fd5b600061027f826101b3565b915061028a836101b3565b92508282019050808211156102a2576102a1610245565b5b92915050565b60006102b3826101b3565b91506102be836101b3565b92508282039050818111156102d6576102d5610245565b5b9291505056fea26469706673582212202eb7bd0bf514526648b9f50df5497a36b0869de66f6ff9f717765c3ff27ca34164736f6c63430008120033",
					"opcodes": "PUSH1 0x80 PUSH1 0x40 MSTORE PUSH1 0x5 PUSH1 0x0 SSTORE CALLVALUE DUP1 ISZERO PUSH2 0x15 JUMPI PUSH1 0x0 DUP1 REVERT JUMPDEST POP PUSH2 0x312 DUP1 PUSH2 0x25 PUSH1 0x0 CODECOPY PUSH1 0x0 RETURN INVALID PUSH1 0x80 PUSH1 0x40 MSTORE PUSH1 0x4 CALLDATASIZE LT PUSH2 0x55 JUMPI PUSH1 0x0 CALLDATALOAD PUSH1 0xE0 SHR DUP1 PUSH4 0x303810A6 EQ PUSH2 0x5A JUMPI DUP1 PUSH4 0x4F2BE91F EQ PUSH2 0x78 JUMPI DUP1 PUSH4 0x7032C4F2 EQ PUSH2 0x8F JUMPI DUP1 PUSH4 0x80B4EA08 EQ PUSH2 0xCC JUMPI DUP1 PUSH4 0x8381F58A EQ PUSH2 0xE3 JUMPI DUP1 PUSH4 0xB262EB7F EQ PUSH2 0x10E JUMPI JUMPDEST PUSH1 0x0 DUP1 REVERT JUMPDEST PUSH2 0x62 PUSH2 0x139 JUMP JUMPDEST PUSH1 0x40 MLOAD PUSH2 0x6F SWAP2 SWAP1 PUSH2 0x1CC JUMP JUMPDEST PUSH1 0x40 MLOAD DUP1 SWAP2 SUB SWAP1 RETURN JUMPDEST CALLVALUE DUP1 ISZERO PUSH2 0x84 JUMPI PUSH1 0x0 DUP1 REVERT JUMPDEST POP PUSH2 0x8D PUSH2 0x149 JUMP JUMPDEST STOP JUMPDEST CALLVALUE DUP1 ISZERO PUSH2 0x9B JUMPI PUSH1 0x0 DUP1 REVERT JUMPDEST POP PUSH2 0xB6 PUSH1 0x4 DUP1 CALLDATASIZE SUB DUP2 ADD SWAP1 PUSH2 0xB1 SWAP2 SWAP1 PUSH2 0x218 JUMP JUMPDEST PUSH2 0x160 JUMP JUMPDEST PUSH1 0x40 MLOAD PUSH2 0xC3 SWAP2 SWAP1 PUSH2 0x1CC JUMP JUMPDEST PUSH1 0x40 MLOAD DUP1 SWAP2 SUB SWAP1 RETURN JUMPDEST CALLVALUE DUP1 ISZERO PUSH2 0xD8 JUMPI PUSH1 0x0 DUP1 REVERT JUMPDEST POP PUSH2 0xE1 PUSH2 0x176 JUMP JUMPDEST STOP JUMPDEST CALLVALUE DUP1 ISZERO PUSH2 0xEF JUMPI PUSH1 0x0 DUP1 REVERT JUMPDEST POP PUSH2 0xF8 PUSH2 0x180 JUMP JUMPDEST PUSH1 0x40 MLOAD PUSH2 0x105 SWAP2 SWAP1 PUSH2 0x1CC JUMP JUMPDEST PUSH1 0x40 MLOAD DUP1 SWAP2 SUB SWAP1 RETURN JUMPDEST CALLVALUE DUP1 ISZERO PUSH2 0x11A JUMPI PUSH1 0x0 DUP1 REVERT JUMPDEST POP PUSH2 0x123 PUSH2 0x186 JUMP JUMPDEST PUSH1 0x40 MLOAD PUSH2 0x130 SWAP2 SWAP1 PUSH2 0x1CC JUMP JUMPDEST PUSH1 0x40 MLOAD DUP1 SWAP2 SUB SWAP1 RETURN JUMPDEST PUSH1 0x0 PUSH2 0x143 PUSH2 0x19C JUMP JUMPDEST SELFBALANCE SWAP1 POP SWAP1 JUMP JUMPDEST PUSH1 0x1 PUSH1 0x0 SLOAD PUSH2 0x158 SWAP2 SWAP1 PUSH2 0x274 JUMP JUMPDEST PUSH1 0x0 DUP2 SWAP1 SSTORE POP JUMP JUMPDEST PUSH1 0x0 PUSH1 0x1 DUP3 PUSH2 0x16F SWAP2 SWAP1 PUSH2 0x274 JUMP JUMPDEST SWAP1 POP SWAP2 SWAP1 POP JUMP JUMPDEST PUSH2 0x17E PUSH2 0x19C JUMP JUMPDEST JUMP JUMPDEST PUSH1 0x0 SLOAD DUP2 JUMP JUMPDEST PUSH1 0x0 PUSH1 0x1 PUSH1 0x0 SLOAD PUSH2 0x197 SWAP2 SWAP1 PUSH2 0x274 JUMP JUMPDEST SWAP1 POP SWAP1 JUMP JUMPDEST PUSH1 0x1 PUSH1 0x0 SLOAD PUSH2 0x1AB SWAP2 SWAP1 PUSH2 0x2A8 JUMP JUMPDEST PUSH1 0x0 DUP2 SWAP1 SSTORE POP JUMP JUMPDEST PUSH1 0x0 DUP2 SWAP1 POP SWAP2 SWAP1 POP JUMP JUMPDEST PUSH2 0x1C6 DUP2 PUSH2 0x1B3 JUMP JUMPDEST DUP3 MSTORE POP POP JUMP JUMPDEST PUSH1 0x0 PUSH1 0x20 DUP3 ADD SWAP1 POP PUSH2 0x1E1 PUSH1 0x0 DUP4 ADD DUP5 PUSH2 0x1BD JUMP JUMPDEST SWAP3 SWAP2 POP POP JUMP JUMPDEST PUSH1 0x0 DUP1 REVERT JUMPDEST PUSH2 0x1F5 DUP2 PUSH2 0x1B3 JUMP JUMPDEST DUP2 EQ PUSH2 0x200 JUMPI PUSH1 0x0 DUP1 REVERT JUMPDEST POP JUMP JUMPDEST PUSH1 0x0 DUP2 CALLDATALOAD SWAP1 POP PUSH2 0x212 DUP2 PUSH2 0x1EC JUMP JUMPDEST SWAP3 SWAP2 POP POP JUMP JUMPDEST PUSH1 0x0 PUSH1 0x20 DUP3 DUP5 SUB SLT ISZERO PUSH2 0x22E JUMPI PUSH2 0x22D PUSH2 0x1E7 JUMP JUMPDEST JUMPDEST PUSH1 0x0 PUSH2 0x23C DUP5 DUP3 DUP6 ADD PUSH2 0x203 JUMP JUMPDEST SWAP2 POP POP SWAP3 SWAP2 POP POP JUMP JUMPDEST PUSH32 0x4E487B7100000000000000000000000000000000000000000000000000000000 PUSH1 0x0 MSTORE PUSH1 0x11 PUSH1 0x4 MSTORE PUSH1 0x24 PUSH1 0x0 REVERT JUMPDEST PUSH1 0x0 PUSH2 0x27F DUP3 PUSH2 0x1B3 JUMP JUMPDEST SWAP2 POP PUSH2 0x28A DUP4 PUSH2 0x1B3 JUMP JUMPDEST SWAP3 POP DUP3 DUP3 ADD SWAP1 POP DUP1 DUP3 GT ISZERO PUSH2 0x2A2 JUMPI PUSH2 0x2A1 PUSH2 0x245 JUMP JUMPDEST JUMPDEST SWAP3 SWAP2 POP POP JUMP JUMPDEST PUSH1 0x0 PUSH2 0x2B3 DUP3 PUSH2 0x1B3 JUMP JUMPDEST SWAP2 POP PUSH2 0x2BE DUP4 PUSH2 0x1B3 JUMP JUMPDEST SWAP3 POP DUP3 DUP3 SUB SWAP1 POP DUP2 DUP2 GT ISZERO PUSH2 0x2D6 JUMPI PUSH2 0x2D5 PUSH2 0x245 JUMP JUMPDEST JUMPDEST SWAP3 SWAP2 POP POP JUMP INVALID LOG2 PUSH5 0x6970667358 0x22 SLT KECCAK256 0x2E 0xB7 0xBD SIGNEXTEND CREATE2 EQ MSTORE PUSH7 0x48B9F50DF5497A CALLDATASIZE 0xB0 DUP7 SWAP14 0xE6 PUSH16 0x6FF9F717765C3FF27CA34164736F6C63 NUMBER STOP ADDMOD SLT STOP CALLER "
				},
				"gasEstimates": {
					"creation": {
						"codeDepositCost": "157200",
						"executionCost": "22308",
						"totalCost": "179508"
					},
					"external": {
						"add()": "infinite",
						"addPure(uint256)": "infinite",
						"addView()": "infinite",
						"minusCall()": "infinite",
						"minusPayable()": "infinite",
						"number()": "2495"
					},
					"internal": {
						"minus()": "infinite"
					}
				},
				"methodIdentifiers": {
					"add()": "4f2be91f",
					"addPure(uint256)": "7032c4f2",
					"addView()": "b262eb7f",
					"minusCall()": "80b4ea08",
					"minusPayable()": "303810a6",
					"number()": "8381f58a"
				}
			},
			"storageLayout": {
				"storage": [
					{
						"astId": 4,
						"contract": "003_函数类型.sol:func_003",
						"label": "number",
						"offset": 0,
						"slot": "0",
						"type": "t_uint256"
					}
				],
				"types": {
					"t_uint256": {
						"encoding": "inplace",
						"label": "uint256",
						"numberOfBytes": "32"
					}
				}
			},
			"userdoc": {
				"kind": "user",
				"methods": {},
				"version": 1
			}
		}
	}
}