{
	"006_3.sol": {
		"MyContract": {
			"abi": [
				{
					"inputs": [],
					"name": "f",
					"outputs": [],
					"stateMutability": "nonpayable",
					"type": "function"
				},
				{
					"inputs": [],
					"name": "getnum",
					"outputs": [
						{
							"internalType": "uint256[]",
							"name": "",
							"type": "uint256[]"
						},
						{
							"internalType": "uint256[2]",
							"name": "",
							"type": "uint256[2]"
						}
					],
					"stateMutability": "view",
					"type": "function"
				}
			],
			"devdoc": {
				"kind": "dev",
				"methods": {},
				"version": 1
			},
			"evm": {
				"assembly": "    /* \"006_3.sol\":62:425  contract MyContract {... */\n  mstore(0x40, 0x80)\n  callvalue\n  dup1\n  iszero\n  tag_1\n  jumpi\n  0x00\n  dup1\n  revert\ntag_1:\n  pop\n  dataSize(sub_0)\n  dup1\n  dataOffset(sub_0)\n  0x00\n  codecopy\n  0x00\n  return\nstop\n\nsub_0: assembly {\n        /* \"006_3.sol\":62:425  contract MyContract {... */\n      mstore(0x40, 0x80)\n      callvalue\n      dup1\n      iszero\n      tag_1\n      jumpi\n      0x00\n      dup1\n      revert\n    tag_1:\n      pop\n      jumpi(tag_2, lt(calldatasize, 0x04))\n      shr(0xe0, calldataload(0x00))\n      dup1\n      0x26121ff0\n      eq\n      tag_3\n      jumpi\n      dup1\n      0x7d368873\n      eq\n      tag_4\n      jumpi\n    tag_2:\n      0x00\n      dup1\n      revert\n        /* \"006_3.sol\":111:231  function f() public {... */\n    tag_3:\n      tag_5\n      tag_6\n      jump\t// in\n    tag_5:\n      stop\n        /* \"006_3.sol\":237:423  function getnum()... */\n    tag_4:\n      tag_7\n      tag_8\n      jump\t// in\n    tag_7:\n      mload(0x40)\n      tag_9\n      swap3\n      swap2\n      swap1\n      tag_10\n      jump\t// in\n    tag_9:\n      mload(0x40)\n      dup1\n      swap2\n      sub\n      swap1\n      return\n        /* \"006_3.sol\":111:231  function f() public {... */\n    tag_6:\n        /* \"006_3.sol\":141:160  uint256[2] memory x */\n      0x00\n        /* \"006_3.sol\":141:178  uint256[2] memory x = [uint256(1), 2] */\n      mload(0x40)\n      dup1\n      0x40\n      add\n      0x40\n      mstore\n      dup1\n        /* \"006_3.sol\":172:173  1 */\n      0x01\n        /* \"006_3.sol\":141:178  uint256[2] memory x = [uint256(1), 2] */\n      dup2\n      mstore\n      0x20\n      add\n        /* \"006_3.sol\":176:177  2 */\n      0x02\n        /* \"006_3.sol\":141:178  uint256[2] memory x = [uint256(1), 2] */\n      dup2\n      mstore\n      pop\n      swap1\n      pop\n        /* \"006_3.sol\":197:198  x */\n      dup1\n        /* \"006_3.sol\":188:194  array4 */\n      0x00\n        /* \"006_3.sol\":188:198  array4 = x */\n      swap1\n      0x02\n      tag_12\n      swap3\n      swap2\n      swap1\n      tag_13\n      jump\t// in\n    tag_12:\n      pop\n        /* \"006_3.sol\":208:214  array4 */\n      0x00\n        /* \"006_3.sol\":220:223  100 */\n      0x64\n        /* \"006_3.sol\":208:224  array4.push(100) */\n      swap1\n      dup1\n      0x01\n      dup2\n      sload\n      add\n      dup1\n      dup3\n      sstore\n      dup1\n      swap2\n      pop\n      pop\n      0x01\n      swap1\n      sub\n      swap1\n      0x00\n      mstore\n      keccak256(0x00, 0x20)\n      add\n      0x00\n      swap1\n      swap2\n      swap1\n      swap2\n      swap1\n      swap2\n      pop\n      sstore\n        /* \"006_3.sol\":131:231  {... */\n      pop\n        /* \"006_3.sol\":111:231  function f() public {... */\n      jump\t// out\n        /* \"006_3.sol\":237:423  function getnum()... */\n    tag_8:\n        /* \"006_3.sol\":300:316  uint256[] memory */\n      0x60\n        /* \"006_3.sol\":318:335  uint256[2] memory */\n      tag_15\n      tag_16\n      jump\t// in\n    tag_15:\n        /* \"006_3.sol\":351:370  uint256[2] memory x */\n      0x00\n        /* \"006_3.sol\":351:388  uint256[2] memory x = [uint256(1), 2] */\n      mload(0x40)\n      dup1\n      0x40\n      add\n      0x40\n      mstore\n      dup1\n        /* \"006_3.sol\":382:383  1 */\n      0x01\n        /* \"006_3.sol\":351:388  uint256[2] memory x = [uint256(1), 2] */\n      dup2\n      mstore\n      0x20\n      add\n        /* \"006_3.sol\":386:387  2 */\n      0x02\n        /* \"006_3.sol\":351:388  uint256[2] memory x = [uint256(1), 2] */\n      dup2\n      mstore\n      pop\n      swap1\n      pop\n        /* \"006_3.sol\":406:412  array4 */\n      0x00\n        /* \"006_3.sol\":414:415  x */\n      dup2\n        /* \"006_3.sol\":398:416  return (array4, x) */\n      dup2\n      dup1\n      sload\n      dup1\n      0x20\n      mul\n      0x20\n      add\n      mload(0x40)\n      swap1\n      dup2\n      add\n      0x40\n      mstore\n      dup1\n      swap3\n      swap2\n      swap1\n      dup2\n      dup2\n      mstore\n      0x20\n      add\n      dup3\n      dup1\n      sload\n      dup1\n      iszero\n      tag_18\n      jumpi\n      0x20\n      mul\n      dup3\n      add\n      swap2\n      swap1\n      0x00\n      mstore\n      keccak256(0x00, 0x20)\n      swap1\n    tag_19:\n      dup2\n      sload\n      dup2\n      mstore\n      0x20\n      add\n      swap1\n      0x01\n      add\n      swap1\n      dup1\n      dup4\n      gt\n      tag_19\n      jumpi\n    tag_18:\n      pop\n      pop\n      pop\n      pop\n      pop\n      swap2\n      pop\n      swap3\n      pop\n      swap3\n      pop\n      pop\n        /* \"006_3.sol\":237:423  function getnum()... */\n      swap1\n      swap2\n      jump\t// out\n    tag_13:\n      dup3\n      dup1\n      sload\n      dup3\n      dup3\n      sstore\n      swap1\n      0x00\n      mstore\n      keccak256(0x00, 0x20)\n      swap1\n      dup2\n      add\n      swap3\n      dup3\n      iszero\n      tag_20\n      jumpi\n      swap2\n      0x20\n      mul\n      dup3\n      add\n    tag_21:\n      dup3\n      dup2\n      gt\n      iszero\n      tag_22\n      jumpi\n      dup3\n      mload\n      dup3\n      sstore\n      swap2\n      0x20\n      add\n      swap2\n      swap1\n      0x01\n      add\n      swap1\n      jump(tag_21)\n    tag_22:\n    tag_20:\n      pop\n      swap1\n      pop\n      tag_23\n      swap2\n      swap1\n      tag_24\n      jump\t// in\n    tag_23:\n      pop\n      swap1\n      jump\t// out\n    tag_16:\n      mload(0x40)\n      dup1\n      0x40\n      add\n      0x40\n      mstore\n      dup1\n      0x02\n      swap1\n      0x20\n      dup3\n      mul\n      dup1\n      calldatasize\n      dup4\n      calldatacopy\n      dup1\n      dup3\n      add\n      swap2\n      pop\n      pop\n      swap1\n      pop\n      pop\n      swap1\n      jump\t// out\n    tag_24:\n    tag_25:\n      dup1\n      dup3\n      gt\n      iszero\n      tag_26\n      jumpi\n      0x00\n      dup2\n      0x00\n      swap1\n      sstore\n      pop\n      0x01\n      add\n      jump(tag_25)\n    tag_26:\n      pop\n      swap1\n      jump\t// out\n        /* \"#utility.yul\":7:121   */\n    tag_27:\n        /* \"#utility.yul\":74:80   */\n      0x00\n        /* \"#utility.yul\":108:113   */\n      dup2\n        /* \"#utility.yul\":102:114   */\n      mload\n        /* \"#utility.yul\":92:114   */\n      swap1\n      pop\n        /* \"#utility.yul\":7:121   */\n      swap2\n      swap1\n      pop\n      jump\t// out\n        /* \"#utility.yul\":127:311   */\n    tag_28:\n        /* \"#utility.yul\":226:237   */\n      0x00\n        /* \"#utility.yul\":260:266   */\n      dup3\n        /* \"#utility.yul\":255:258   */\n      dup3\n        /* \"#utility.yul\":248:267   */\n      mstore\n        /* \"#utility.yul\":300:304   */\n      0x20\n        /* \"#utility.yul\":295:298   */\n      dup3\n        /* \"#utility.yul\":291:305   */\n      add\n        /* \"#utility.yul\":276:305   */\n      swap1\n      pop\n        /* \"#utility.yul\":127:311   */\n      swap3\n      swap2\n      pop\n      pop\n      jump\t// out\n        /* \"#utility.yul\":317:449   */\n    tag_29:\n        /* \"#utility.yul\":384:388   */\n      0x00\n        /* \"#utility.yul\":407:410   */\n      dup2\n        /* \"#utility.yul\":399:410   */\n      swap1\n      pop\n        /* \"#utility.yul\":437:441   */\n      0x20\n        /* \"#utility.yul\":432:435   */\n      dup3\n        /* \"#utility.yul\":428:442   */\n      add\n        /* \"#utility.yul\":420:442   */\n      swap1\n      pop\n        /* \"#utility.yul\":317:449   */\n      swap2\n      swap1\n      pop\n      jump\t// out\n        /* \"#utility.yul\":455:532   */\n    tag_30:\n        /* \"#utility.yul\":492:499   */\n      0x00\n        /* \"#utility.yul\":521:526   */\n      dup2\n        /* \"#utility.yul\":510:526   */\n      swap1\n      pop\n        /* \"#utility.yul\":455:532   */\n      swap2\n      swap1\n      pop\n      jump\t// out\n        /* \"#utility.yul\":538:646   */\n    tag_31:\n        /* \"#utility.yul\":615:639   */\n      tag_46\n        /* \"#utility.yul\":633:638   */\n      dup2\n        /* \"#utility.yul\":615:639   */\n      tag_30\n      jump\t// in\n    tag_46:\n        /* \"#utility.yul\":610:613   */\n      dup3\n        /* \"#utility.yul\":603:640   */\n      mstore\n        /* \"#utility.yul\":538:646   */\n      pop\n      pop\n      jump\t// out\n        /* \"#utility.yul\":652:831   */\n    tag_32:\n        /* \"#utility.yul\":721:731   */\n      0x00\n        /* \"#utility.yul\":742:788   */\n      tag_48\n        /* \"#utility.yul\":784:787   */\n      dup4\n        /* \"#utility.yul\":776:782   */\n      dup4\n        /* \"#utility.yul\":742:788   */\n      tag_31\n      jump\t// in\n    tag_48:\n        /* \"#utility.yul\":820:824   */\n      0x20\n        /* \"#utility.yul\":815:818   */\n      dup4\n        /* \"#utility.yul\":811:825   */\n      add\n        /* \"#utility.yul\":797:825   */\n      swap1\n      pop\n        /* \"#utility.yul\":652:831   */\n      swap3\n      swap2\n      pop\n      pop\n      jump\t// out\n        /* \"#utility.yul\":837:950   */\n    tag_33:\n        /* \"#utility.yul\":907:911   */\n      0x00\n        /* \"#utility.yul\":939:943   */\n      0x20\n        /* \"#utility.yul\":934:937   */\n      dup3\n        /* \"#utility.yul\":930:944   */\n      add\n        /* \"#utility.yul\":922:944   */\n      swap1\n      pop\n        /* \"#utility.yul\":837:950   */\n      swap2\n      swap1\n      pop\n      jump\t// out\n        /* \"#utility.yul\":986:1718   */\n    tag_34:\n        /* \"#utility.yul\":1105:1108   */\n      0x00\n        /* \"#utility.yul\":1134:1188   */\n      tag_51\n        /* \"#utility.yul\":1182:1187   */\n      dup3\n        /* \"#utility.yul\":1134:1188   */\n      tag_27\n      jump\t// in\n    tag_51:\n        /* \"#utility.yul\":1204:1290   */\n      tag_52\n        /* \"#utility.yul\":1283:1289   */\n      dup2\n        /* \"#utility.yul\":1278:1281   */\n      dup6\n        /* \"#utility.yul\":1204:1290   */\n      tag_28\n      jump\t// in\n    tag_52:\n        /* \"#utility.yul\":1197:1290   */\n      swap4\n      pop\n        /* \"#utility.yul\":1314:1370   */\n      tag_53\n        /* \"#utility.yul\":1364:1369   */\n      dup4\n        /* \"#utility.yul\":1314:1370   */\n      tag_29\n      jump\t// in\n    tag_53:\n        /* \"#utility.yul\":1393:1400   */\n      dup1\n        /* \"#utility.yul\":1424:1425   */\n      0x00\n        /* \"#utility.yul\":1409:1693   */\n    tag_54:\n        /* \"#utility.yul\":1434:1440   */\n      dup4\n        /* \"#utility.yul\":1431:1432   */\n      dup2\n        /* \"#utility.yul\":1428:1441   */\n      lt\n        /* \"#utility.yul\":1409:1693   */\n      iszero\n      tag_56\n      jumpi\n        /* \"#utility.yul\":1510:1516   */\n      dup2\n        /* \"#utility.yul\":1504:1517   */\n      mload\n        /* \"#utility.yul\":1537:1600   */\n      tag_57\n        /* \"#utility.yul\":1596:1599   */\n      dup9\n        /* \"#utility.yul\":1581:1594   */\n      dup3\n        /* \"#utility.yul\":1537:1600   */\n      tag_32\n      jump\t// in\n    tag_57:\n        /* \"#utility.yul\":1530:1600   */\n      swap8\n      pop\n        /* \"#utility.yul\":1623:1683   */\n      tag_58\n        /* \"#utility.yul\":1676:1682   */\n      dup4\n        /* \"#utility.yul\":1623:1683   */\n      tag_33\n      jump\t// in\n    tag_58:\n        /* \"#utility.yul\":1613:1683   */\n      swap3\n      pop\n        /* \"#utility.yul\":1469:1693   */\n      pop\n        /* \"#utility.yul\":1456:1457   */\n      0x01\n        /* \"#utility.yul\":1453:1454   */\n      dup2\n        /* \"#utility.yul\":1449:1458   */\n      add\n        /* \"#utility.yul\":1444:1458   */\n      swap1\n      pop\n        /* \"#utility.yul\":1409:1693   */\n      jump(tag_54)\n    tag_56:\n        /* \"#utility.yul\":1413:1427   */\n      pop\n        /* \"#utility.yul\":1709:1712   */\n      dup6\n        /* \"#utility.yul\":1702:1712   */\n      swap4\n      pop\n        /* \"#utility.yul\":1110:1718   */\n      pop\n      pop\n      pop\n        /* \"#utility.yul\":986:1718   */\n      swap3\n      swap2\n      pop\n      pop\n      jump\t// out\n        /* \"#utility.yul\":1724:1828   */\n    tag_35:\n        /* \"#utility.yul\":1789:1795   */\n      0x00\n        /* \"#utility.yul\":1817:1821   */\n      0x02\n        /* \"#utility.yul\":1807:1821   */\n      swap1\n      pop\n        /* \"#utility.yul\":1724:1828   */\n      swap2\n      swap1\n      pop\n      jump\t// out\n        /* \"#utility.yul\":1834:1977   */\n    tag_36:\n        /* \"#utility.yul\":1931:1942   */\n      0x00\n        /* \"#utility.yul\":1968:1971   */\n      dup2\n        /* \"#utility.yul\":1953:1971   */\n      swap1\n      pop\n        /* \"#utility.yul\":1834:1977   */\n      swap3\n      swap2\n      pop\n      pop\n      jump\t// out\n        /* \"#utility.yul\":1983:2081   */\n    tag_37:\n        /* \"#utility.yul\":2048:2052   */\n      0x00\n        /* \"#utility.yul\":2071:2074   */\n      dup2\n        /* \"#utility.yul\":2063:2074   */\n      swap1\n      pop\n        /* \"#utility.yul\":1983:2081   */\n      swap2\n      swap1\n      pop\n      jump\t// out\n        /* \"#utility.yul\":2087:2198   */\n    tag_38:\n        /* \"#utility.yul\":2155:2159   */\n      0x00\n        /* \"#utility.yul\":2187:2191   */\n      0x20\n        /* \"#utility.yul\":2182:2185   */\n      dup3\n        /* \"#utility.yul\":2178:2192   */\n      add\n        /* \"#utility.yul\":2170:2192   */\n      swap1\n      pop\n        /* \"#utility.yul\":2087:2198   */\n      swap2\n      swap1\n      pop\n      jump\t// out\n        /* \"#utility.yul\":2236:2930   */\n    tag_39:\n        /* \"#utility.yul\":2372:2424   */\n      tag_64\n        /* \"#utility.yul\":2418:2423   */\n      dup2\n        /* \"#utility.yul\":2372:2424   */\n      tag_35\n      jump\t// in\n    tag_64:\n        /* \"#utility.yul\":2440:2524   */\n      tag_65\n        /* \"#utility.yul\":2517:2523   */\n      dup2\n        /* \"#utility.yul\":2512:2515   */\n      dup5\n        /* \"#utility.yul\":2440:2524   */\n      tag_36\n      jump\t// in\n    tag_65:\n        /* \"#utility.yul\":2433:2524   */\n      swap3\n      pop\n        /* \"#utility.yul\":2548:2602   */\n      tag_66\n        /* \"#utility.yul\":2596:2601   */\n      dup3\n        /* \"#utility.yul\":2548:2602   */\n      tag_37\n      jump\t// in\n    tag_66:\n        /* \"#utility.yul\":2625:2632   */\n      dup1\n        /* \"#utility.yul\":2656:2657   */\n      0x00\n        /* \"#utility.yul\":2641:2923   */\n    tag_67:\n        /* \"#utility.yul\":2666:2672   */\n      dup4\n        /* \"#utility.yul\":2663:2664   */\n      dup2\n        /* \"#utility.yul\":2660:2673   */\n      lt\n        /* \"#utility.yul\":2641:2923   */\n      iszero\n      tag_69\n      jumpi\n        /* \"#utility.yul\":2742:2748   */\n      dup2\n        /* \"#utility.yul\":2736:2749   */\n      mload\n        /* \"#utility.yul\":2769:2832   */\n      tag_70\n        /* \"#utility.yul\":2828:2831   */\n      dup8\n        /* \"#utility.yul\":2813:2826   */\n      dup3\n        /* \"#utility.yul\":2769:2832   */\n      tag_32\n      jump\t// in\n    tag_70:\n        /* \"#utility.yul\":2762:2832   */\n      swap7\n      pop\n        /* \"#utility.yul\":2855:2913   */\n      tag_71\n        /* \"#utility.yul\":2906:2912   */\n      dup4\n        /* \"#utility.yul\":2855:2913   */\n      tag_38\n      jump\t// in\n    tag_71:\n        /* \"#utility.yul\":2845:2913   */\n      swap3\n      pop\n        /* \"#utility.yul\":2701:2923   */\n      pop\n        /* \"#utility.yul\":2688:2689   */\n      0x01\n        /* \"#utility.yul\":2685:2686   */\n      dup2\n        /* \"#utility.yul\":2681:2690   */\n      add\n        /* \"#utility.yul\":2676:2690   */\n      swap1\n      pop\n        /* \"#utility.yul\":2641:2923   */\n      jump(tag_67)\n    tag_69:\n        /* \"#utility.yul\":2645:2659   */\n      pop\n        /* \"#utility.yul\":2348:2930   */\n      pop\n      pop\n      pop\n        /* \"#utility.yul\":2236:2930   */\n      pop\n      pop\n      jump\t// out\n        /* \"#utility.yul\":2936:3511   */\n    tag_10:\n        /* \"#utility.yul\":3153:3157   */\n      0x00\n        /* \"#utility.yul\":3191:3193   */\n      0x60\n        /* \"#utility.yul\":3180:3189   */\n      dup3\n        /* \"#utility.yul\":3176:3194   */\n      add\n        /* \"#utility.yul\":3168:3194   */\n      swap1\n      pop\n        /* \"#utility.yul\":3240:3249   */\n      dup2\n        /* \"#utility.yul\":3234:3238   */\n      dup2\n        /* \"#utility.yul\":3230:3250   */\n      sub\n        /* \"#utility.yul\":3226:3227   */\n      0x00\n        /* \"#utility.yul\":3215:3224   */\n      dup4\n        /* \"#utility.yul\":3211:3228   */\n      add\n        /* \"#utility.yul\":3204:3251   */\n      mstore\n        /* \"#utility.yul\":3268:3376   */\n      tag_73\n        /* \"#utility.yul\":3371:3375   */\n      dup2\n        /* \"#utility.yul\":3362:3368   */\n      dup6\n        /* \"#utility.yul\":3268:3376   */\n      tag_34\n      jump\t// in\n    tag_73:\n        /* \"#utility.yul\":3260:3376   */\n      swap1\n      pop\n        /* \"#utility.yul\":3386:3504   */\n      tag_74\n        /* \"#utility.yul\":3500:3502   */\n      0x20\n        /* \"#utility.yul\":3489:3498   */\n      dup4\n        /* \"#utility.yul\":3485:3503   */\n      add\n        /* \"#utility.yul\":3476:3482   */\n      dup5\n        /* \"#utility.yul\":3386:3504   */\n      tag_39\n      jump\t// in\n    tag_74:\n        /* \"#utility.yul\":2936:3511   */\n      swap4\n      swap3\n      pop\n      pop\n      pop\n      jump\t// out\n\n    auxdata: 0xa264697066735822122034773627ad3120bb85d976c287df5f936aa50a704e035f5c3325f720c59a9ff164736f6c63430008120033\n}\n",
				"bytecode": {
					"linkReferences": {},
					"object": "608060405234801561001057600080fd5b5061037f806100206000396000f3fe608060405234801561001057600080fd5b50600436106100365760003560e01c806326121ff01461003b5780637d36887314610045575b600080fd5b610043610064565b005b61004d6100be565b60405161005b929190610319565b60405180910390f35b600060405180604001604052806001815260200160028152509050806000906002610090929190610141565b5060006064908060018154018082558091505060019003906000526020600020016000909190919091505550565b60606100c861018e565b6000604051806040016040528060018152602001600281525090506000818180548060200260200160405190810160405280929190818152602001828054801561013157602002820191906000526020600020905b81548152602001906001019080831161011d575b5050505050915092509250509091565b82805482825590600052602060002090810192821561017d579160200282015b8281111561017c578251825591602001919060010190610161565b5b50905061018a91906101b0565b5090565b6040518060400160405280600290602082028036833780820191505090505090565b5b808211156101c95760008160009055506001016101b1565b5090565b600081519050919050565b600082825260208201905092915050565b6000819050602082019050919050565b6000819050919050565b61020c816101f9565b82525050565b600061021e8383610203565b60208301905092915050565b6000602082019050919050565b6000610242826101cd565b61024c81856101d8565b9350610257836101e9565b8060005b8381101561028857815161026f8882610212565b975061027a8361022a565b92505060018101905061025b565b5085935050505092915050565b600060029050919050565b600081905092915050565b6000819050919050565b6000602082019050919050565b6102cb81610295565b6102d581846102a0565b92506102e0826102ab565b8060005b838110156103115781516102f88782610212565b9650610303836102b5565b9250506001810190506102e4565b505050505050565b600060608201905081810360008301526103338185610237565b905061034260208301846102c2565b939250505056fea264697066735822122034773627ad3120bb85d976c287df5f936aa50a704e035f5c3325f720c59a9ff164736f6c63430008120033",
					"opcodes": "PUSH1 0x80 PUSH1 0x40 MSTORE CALLVALUE DUP1 ISZERO PUSH2 0x10 JUMPI PUSH1 0x0 DUP1 REVERT JUMPDEST POP PUSH2 0x37F DUP1 PUSH2 0x20 PUSH1 0x0 CODECOPY PUSH1 0x0 RETURN INVALID PUSH1 0x80 PUSH1 0x40 MSTORE CALLVALUE DUP1 ISZERO PUSH2 0x10 JUMPI PUSH1 0x0 DUP1 REVERT JUMPDEST POP PUSH1 0x4 CALLDATASIZE LT PUSH2 0x36 JUMPI PUSH1 0x0 CALLDATALOAD PUSH1 0xE0 SHR DUP1 PUSH4 0x26121FF0 EQ PUSH2 0x3B JUMPI DUP1 PUSH4 0x7D368873 EQ PUSH2 0x45 JUMPI JUMPDEST PUSH1 0x0 DUP1 REVERT JUMPDEST PUSH2 0x43 PUSH2 0x64 JUMP JUMPDEST STOP JUMPDEST PUSH2 0x4D PUSH2 0xBE JUMP JUMPDEST PUSH1 0x40 MLOAD PUSH2 0x5B SWAP3 SWAP2 SWAP1 PUSH2 0x319 JUMP JUMPDEST PUSH1 0x40 MLOAD DUP1 SWAP2 SUB SWAP1 RETURN JUMPDEST PUSH1 0x0 PUSH1 0x40 MLOAD DUP1 PUSH1 0x40 ADD PUSH1 0x40 MSTORE DUP1 PUSH1 0x1 DUP2 MSTORE PUSH1 0x20 ADD PUSH1 0x2 DUP2 MSTORE POP SWAP1 POP DUP1 PUSH1 0x0 SWAP1 PUSH1 0x2 PUSH2 0x90 SWAP3 SWAP2 SWAP1 PUSH2 0x141 JUMP JUMPDEST POP PUSH1 0x0 PUSH1 0x64 SWAP1 DUP1 PUSH1 0x1 DUP2 SLOAD ADD DUP1 DUP3 SSTORE DUP1 SWAP2 POP POP PUSH1 0x1 SWAP1 SUB SWAP1 PUSH1 0x0 MSTORE PUSH1 0x20 PUSH1 0x0 KECCAK256 ADD PUSH1 0x0 SWAP1 SWAP2 SWAP1 SWAP2 SWAP1 SWAP2 POP SSTORE POP JUMP JUMPDEST PUSH1 0x60 PUSH2 0xC8 PUSH2 0x18E JUMP JUMPDEST PUSH1 0x0 PUSH1 0x40 MLOAD DUP1 PUSH1 0x40 ADD PUSH1 0x40 MSTORE DUP1 PUSH1 0x1 DUP2 MSTORE PUSH1 0x20 ADD PUSH1 0x2 DUP2 MSTORE POP SWAP1 POP PUSH1 0x0 DUP2 DUP2 DUP1 SLOAD DUP1 PUSH1 0x20 MUL PUSH1 0x20 ADD PUSH1 0x40 MLOAD SWAP1 DUP2 ADD PUSH1 0x40 MSTORE DUP1 SWAP3 SWAP2 SWAP1 DUP2 DUP2 MSTORE PUSH1 0x20 ADD DUP3 DUP1 SLOAD DUP1 ISZERO PUSH2 0x131 JUMPI PUSH1 0x20 MUL DUP3 ADD SWAP2 SWAP1 PUSH1 0x0 MSTORE PUSH1 0x20 PUSH1 0x0 KECCAK256 SWAP1 JUMPDEST DUP2 SLOAD DUP2 MSTORE PUSH1 0x20 ADD SWAP1 PUSH1 0x1 ADD SWAP1 DUP1 DUP4 GT PUSH2 0x11D JUMPI JUMPDEST POP POP POP POP POP SWAP2 POP SWAP3 POP SWAP3 POP POP SWAP1 SWAP2 JUMP JUMPDEST DUP3 DUP1 SLOAD DUP3 DUP3 SSTORE SWAP1 PUSH1 0x0 MSTORE PUSH1 0x20 PUSH1 0x0 KECCAK256 SWAP1 DUP2 ADD SWAP3 DUP3 ISZERO PUSH2 0x17D JUMPI SWAP2 PUSH1 0x20 MUL DUP3 ADD JUMPDEST DUP3 DUP2 GT ISZERO PUSH2 0x17C JUMPI DUP3 MLOAD DUP3 SSTORE SWAP2 PUSH1 0x20 ADD SWAP2 SWAP1 PUSH1 0x1 ADD SWAP1 PUSH2 0x161 JUMP JUMPDEST JUMPDEST POP SWAP1 POP PUSH2 0x18A SWAP2 SWAP1 PUSH2 0x1B0 JUMP JUMPDEST POP SWAP1 JUMP JUMPDEST PUSH1 0x40 MLOAD DUP1 PUSH1 0x40 ADD PUSH1 0x40 MSTORE DUP1 PUSH1 0x2 SWAP1 PUSH1 0x20 DUP3 MUL DUP1 CALLDATASIZE DUP4 CALLDATACOPY DUP1 DUP3 ADD SWAP2 POP POP SWAP1 POP POP SWAP1 JUMP JUMPDEST JUMPDEST DUP1 DUP3 GT ISZERO PUSH2 0x1C9 JUMPI PUSH1 0x0 DUP2 PUSH1 0x0 SWAP1 SSTORE POP PUSH1 0x1 ADD PUSH2 0x1B1 JUMP JUMPDEST POP SWAP1 JUMP JUMPDEST PUSH1 0x0 DUP2 MLOAD SWAP1 POP SWAP2 SWAP1 POP JUMP JUMPDEST PUSH1 0x0 DUP3 DUP3 MSTORE PUSH1 0x20 DUP3 ADD SWAP1 POP SWAP3 SWAP2 POP POP JUMP JUMPDEST PUSH1 0x0 DUP2 SWAP1 POP PUSH1 0x20 DUP3 ADD SWAP1 POP SWAP2 SWAP1 POP JUMP JUMPDEST PUSH1 0x0 DUP2 SWAP1 POP SWAP2 SWAP1 POP JUMP JUMPDEST PUSH2 0x20C DUP2 PUSH2 0x1F9 JUMP JUMPDEST DUP3 MSTORE POP POP JUMP JUMPDEST PUSH1 0x0 PUSH2 0x21E DUP4 DUP4 PUSH2 0x203 JUMP JUMPDEST PUSH1 0x20 DUP4 ADD SWAP1 POP SWAP3 SWAP2 POP POP JUMP JUMPDEST PUSH1 0x0 PUSH1 0x20 DUP3 ADD SWAP1 POP SWAP2 SWAP1 POP JUMP JUMPDEST PUSH1 0x0 PUSH2 0x242 DUP3 PUSH2 0x1CD JUMP JUMPDEST PUSH2 0x24C DUP2 DUP6 PUSH2 0x1D8 JUMP JUMPDEST SWAP4 POP PUSH2 0x257 DUP4 PUSH2 0x1E9 JUMP JUMPDEST DUP1 PUSH1 0x0 JUMPDEST DUP4 DUP2 LT ISZERO PUSH2 0x288 JUMPI DUP2 MLOAD PUSH2 0x26F DUP9 DUP3 PUSH2 0x212 JUMP JUMPDEST SWAP8 POP PUSH2 0x27A DUP4 PUSH2 0x22A JUMP JUMPDEST SWAP3 POP POP PUSH1 0x1 DUP2 ADD SWAP1 POP PUSH2 0x25B JUMP JUMPDEST POP DUP6 SWAP4 POP POP POP POP SWAP3 SWAP2 POP POP JUMP JUMPDEST PUSH1 0x0 PUSH1 0x2 SWAP1 POP SWAP2 SWAP1 POP JUMP JUMPDEST PUSH1 0x0 DUP2 SWAP1 POP SWAP3 SWAP2 POP POP JUMP JUMPDEST PUSH1 0x0 DUP2 SWAP1 POP SWAP2 SWAP1 POP JUMP JUMPDEST PUSH1 0x0 PUSH1 0x20 DUP3 ADD SWAP1 POP SWAP2 SWAP1 POP JUMP JUMPDEST PUSH2 0x2CB DUP2 PUSH2 0x295 JUMP JUMPDEST PUSH2 0x2D5 DUP2 DUP5 PUSH2 0x2A0 JUMP JUMPDEST SWAP3 POP PUSH2 0x2E0 DUP3 PUSH2 0x2AB JUMP JUMPDEST DUP1 PUSH1 0x0 JUMPDEST DUP4 DUP2 LT ISZERO PUSH2 0x311 JUMPI DUP2 MLOAD PUSH2 0x2F8 DUP8 DUP3 PUSH2 0x212 JUMP JUMPDEST SWAP7 POP PUSH2 0x303 DUP4 PUSH2 0x2B5 JUMP JUMPDEST SWAP3 POP POP PUSH1 0x1 DUP2 ADD SWAP1 POP PUSH2 0x2E4 JUMP JUMPDEST POP POP POP POP POP POP JUMP JUMPDEST PUSH1 0x0 PUSH1 0x60 DUP3 ADD SWAP1 POP DUP2 DUP2 SUB PUSH1 0x0 DUP4 ADD MSTORE PUSH2 0x333 DUP2 DUP6 PUSH2 0x237 JUMP JUMPDEST SWAP1 POP PUSH2 0x342 PUSH1 0x20 DUP4 ADD DUP5 PUSH2 0x2C2 JUMP JUMPDEST SWAP4 SWAP3 POP POP POP JUMP INVALID LOG2 PUSH5 0x6970667358 0x22 SLT KECCAK256 CALLVALUE PUSH24 0x3627AD3120BB85D976C287DF5F936AA50A704E035F5C3325 0xF7 KECCAK256 0xC5 SWAP11 SWAP16 CALL PUSH5 0x736F6C6343 STOP ADDMOD SLT STOP CALLER "
				},
				"gasEstimates": {
					"creation": {
						"codeDepositCost": "179000",
						"executionCost": "220",
						"totalCost": "179220"
					},
					"external": {
						"f()": "infinite",
						"getnum()": "infinite"
					}
				},
				"methodIdentifiers": {
					"f()": "26121ff0",
					"getnum()": "7d368873"
				}
			},
			"storageLayout": {
				"storage": [
					{
						"astId": 4,
						"contract": "006_3.sol:MyContract",
						"label": "array4",
						"offset": 0,
						"slot": "0",
						"type": "t_array(t_uint256)dyn_storage"
					}
				],
				"types": {
					"t_array(t_uint256)dyn_storage": {
						"base": "t_uint256",
						"encoding": "dynamic_array",
						"label": "uint256[]",
						"numberOfBytes": "32"
					},
					"t_uint256": {
						"encoding": "inplace",
						"label": "uint256",
						"numberOfBytes": "32"
					}
				}
			},
			"userdoc": {
				"kind": "user",
				"methods": {},
				"version": 1
			}
		}
	}
}