{
	"009常量.sol": {
		"MyContract": {
			"abi": [
				{
					"inputs": [],
					"stateMutability": "nonpayable",
					"type": "constructor"
				},
				{
					"inputs": [],
					"name": "C_ADRESS",
					"outputs": [
						{
							"internalType": "address",
							"name": "",
							"type": "address"
						}
					],
					"stateMutability": "view",
					"type": "function"
				},
				{
					"inputs": [],
					"name": "C_BYTES",
					"outputs": [
						{
							"internalType": "bytes2",
							"name": "",
							"type": "bytes2"
						}
					],
					"stateMutability": "view",
					"type": "function"
				},
				{
					"inputs": [],
					"name": "C_NUM",
					"outputs": [
						{
							"internalType": "uint256",
							"name": "",
							"type": "uint256"
						}
					],
					"stateMutability": "view",
					"type": "function"
				},
				{
					"inputs": [],
					"name": "C_STR",
					"outputs": [
						{
							"internalType": "string",
							"name": "",
							"type": "string"
						}
					],
					"stateMutability": "view",
					"type": "function"
				},
				{
					"inputs": [],
					"name": "I_ADDRESS",
					"outputs": [
						{
							"internalType": "address",
							"name": "",
							"type": "address"
						}
					],
					"stateMutability": "view",
					"type": "function"
				},
				{
					"inputs": [],
					"name": "I_BLOCK",
					"outputs": [
						{
							"internalType": "uint256",
							"name": "",
							"type": "uint256"
						}
					],
					"stateMutability": "view",
					"type": "function"
				},
				{
					"inputs": [],
					"name": "I_NUM",
					"outputs": [
						{
							"internalType": "uint256",
							"name": "",
							"type": "uint256"
						}
					],
					"stateMutability": "view",
					"type": "function"
				},
				{
					"inputs": [],
					"name": "I_TEST",
					"outputs": [
						{
							"internalType": "uint256",
							"name": "",
							"type": "uint256"
						}
					],
					"stateMutability": "view",
					"type": "function"
				},
				{
					"inputs": [],
					"name": "test",
					"outputs": [
						{
							"internalType": "uint256",
							"name": "",
							"type": "uint256"
						}
					],
					"stateMutability": "pure",
					"type": "function"
				}
			],
			"devdoc": {
				"kind": "dev",
				"methods": {},
				"version": 1
			},
			"evm": {
				"assembly": "    /* \"009\\xe5\\xb8\\xb8\\xe9\\x87\\x8f.sol\":62:820  contract MyContract {... */\n  mstore(0x40, 0x0100)\n    /* \"009\\xe5\\xb8\\xb8\\xe9\\x87\\x8f.sol\":394:404  9999999999 */\n  0x02540be3ff\n    /* \"009\\xe5\\xb8\\xb8\\xe9\\x87\\x8f.sol\":361:404  uint256 public immutable I_NUM = 9999999999 */\n  0x80\n  swap1\n  dup2\n  mstore\n  pop\n    /* \"009\\xe5\\xb8\\xb8\\xe9\\x87\\x8f.sol\":597:710  constructor() {... */\n  callvalue\n  dup1\n  iszero\n  tag_1\n  jumpi\n  0x00\n  dup1\n  revert\ntag_1:\n  pop\n    /* \"009\\xe5\\xb8\\xb8\\xe9\\x87\\x8f.sol\":641:645  this */\n  address\n    /* \"009\\xe5\\xb8\\xb8\\xe9\\x87\\x8f.sol\":621:646  I_ADDRESS = address(this) */\n  0xffffffffffffffffffffffffffffffffffffffff\n  and\n  0xa0\n  dup2\n  0xffffffffffffffffffffffffffffffffffffffff\n  and\n  dup2\n  mstore\n  pop\n  pop\n    /* \"009\\xe5\\xb8\\xb8\\xe9\\x87\\x8f.sol\":666:678  block.number */\n  number\n    /* \"009\\xe5\\xb8\\xb8\\xe9\\x87\\x8f.sol\":656:678  I_BLOCK = block.number */\n  0xc0\n  dup2\n  dup2\n  mstore\n  pop\n  pop\n    /* \"009\\xe5\\xb8\\xb8\\xe9\\x87\\x8f.sol\":697:703  test() */\n  tag_4\n    /* \"009\\xe5\\xb8\\xb8\\xe9\\x87\\x8f.sol\":697:701  test */\n  shl(0x20, tag_5)\n    /* \"009\\xe5\\xb8\\xb8\\xe9\\x87\\x8f.sol\":697:703  test() */\n  0x20\n  shr\n  jump\t// in\ntag_4:\n    /* \"009\\xe5\\xb8\\xb8\\xe9\\x87\\x8f.sol\":688:703  I_TEST = test() */\n  0xe0\n  dup2\n  dup2\n  mstore\n  pop\n  pop\n    /* \"009\\xe5\\xb8\\xb8\\xe9\\x87\\x8f.sol\":62:820  contract MyContract {... */\n  jump(tag_6)\n    /* \"009\\xe5\\xb8\\xb8\\xe9\\x87\\x8f.sol\":716:818  function test() public pure returns (uint256) {... */\ntag_5:\n    /* \"009\\xe5\\xb8\\xb8\\xe9\\x87\\x8f.sol\":753:760  uint256 */\n  0x00\n    /* \"009\\xe5\\xb8\\xb8\\xe9\\x87\\x8f.sol\":772:784  uint256 what */\n  dup1\n    /* \"009\\xe5\\xb8\\xb8\\xe9\\x87\\x8f.sol\":787:788  9 */\n  0x09\n    /* \"009\\xe5\\xb8\\xb8\\xe9\\x87\\x8f.sol\":772:788  uint256 what = 9 */\n  swap1\n  pop\n    /* \"009\\xe5\\xb8\\xb8\\xe9\\x87\\x8f.sol\":806:810  what */\n  dup1\n    /* \"009\\xe5\\xb8\\xb8\\xe9\\x87\\x8f.sol\":798:811  return (what) */\n  swap2\n  pop\n  pop\n    /* \"009\\xe5\\xb8\\xb8\\xe9\\x87\\x8f.sol\":716:818  function test() public pure returns (uint256) {... */\n  swap1\n  jump\t// out\n    /* \"009\\xe5\\xb8\\xb8\\xe9\\x87\\x8f.sol\":62:820  contract MyContract {... */\ntag_6:\n  mload(0x80)\n  mload(0xa0)\n  mload(0xc0)\n  mload(0xe0)\n  codecopy(0x00, dataOffset(sub_0), dataSize(sub_0))\n  0x00\n  assignImmutable(\"0x81e080ffc23e8b8d44dd829bc823229e92b893eb1d8f624419d3f5682eb97fc3\")\n  0x00\n  assignImmutable(\"0x1572b593c53d839d80004aa4b8c51211864104f06ace9e22be9c4365b50655ea\")\n  0x00\n  assignImmutable(\"0xf4c2b5de886427473655d4c904c743576dc2d53249b7535d96c06cc97ae7216b\")\n  0x00\n  assignImmutable(\"0x939eb54753ed0cc7e2272bfb34cbe098308c93936ed54d79078f76ade0b2e789\")\n  return(0x00, dataSize(sub_0))\nstop\n\nsub_0: assembly {\n        /* \"009\\xe5\\xb8\\xb8\\xe9\\x87\\x8f.sol\":62:820  contract MyContract {... */\n      mstore(0x40, 0x80)\n      callvalue\n      dup1\n      iszero\n      tag_1\n      jumpi\n      0x00\n      dup1\n      revert\n    tag_1:\n      pop\n      jumpi(tag_2, lt(calldatasize, 0x04))\n      shr(0xe0, calldataload(0x00))\n      dup1\n      0xbe13908b\n      gt\n      tag_12\n      jumpi\n      dup1\n      0xbe13908b\n      eq\n      tag_7\n      jumpi\n      dup1\n      0xcd3d8b1a\n      eq\n      tag_8\n      jumpi\n      dup1\n      0xd2912b13\n      eq\n      tag_9\n      jumpi\n      dup1\n      0xf682aec5\n      eq\n      tag_10\n      jumpi\n      dup1\n      0xf8a8fd6d\n      eq\n      tag_11\n      jumpi\n      jump(tag_2)\n    tag_12:\n      dup1\n      0x01d0ad4b\n      eq\n      tag_3\n      jumpi\n      dup1\n      0x0f75a0c5\n      eq\n      tag_4\n      jumpi\n      dup1\n      0x2f6822a2\n      eq\n      tag_5\n      jumpi\n      dup1\n      0x9c12b60e\n      eq\n      tag_6\n      jumpi\n    tag_2:\n      0x00\n      dup1\n      revert\n        /* \"009\\xe5\\xb8\\xb8\\xe9\\x87\\x8f.sol\":410:444  address public immutable I_ADDRESS */\n    tag_3:\n      tag_13\n      tag_14\n      jump\t// in\n    tag_13:\n      mload(0x40)\n      tag_15\n      swap2\n      swap1\n      tag_16\n      jump\t// in\n    tag_15:\n      mload(0x40)\n      dup1\n      swap2\n      sub\n      swap1\n      return\n        /* \"009\\xe5\\xb8\\xb8\\xe9\\x87\\x8f.sol\":233:278  address public constant C_ADRESS = address(0) */\n    tag_4:\n      tag_17\n      tag_18\n      jump\t// in\n    tag_17:\n      mload(0x40)\n      tag_19\n      swap2\n      swap1\n      tag_16\n      jump\t// in\n    tag_19:\n      mload(0x40)\n      dup1\n      swap2\n      sub\n      swap1\n      return\n        /* \"009\\xe5\\xb8\\xb8\\xe9\\x87\\x8f.sol\":450:482  uint256 public immutable I_BLOCK */\n    tag_5:\n      tag_20\n      tag_21\n      jump\t// in\n    tag_20:\n      mload(0x40)\n      tag_22\n      swap2\n      swap1\n      tag_23\n      jump\t// in\n    tag_22:\n      mload(0x40)\n      dup1\n      swap2\n      sub\n      swap1\n      return\n        /* \"009\\xe5\\xb8\\xb8\\xe9\\x87\\x8f.sol\":145:184  string  public constant C_STR = \"APPLE\" */\n    tag_6:\n      tag_24\n      tag_25\n      jump\t// in\n    tag_24:\n      mload(0x40)\n      tag_26\n      swap2\n      swap1\n      tag_27\n      jump\t// in\n    tag_26:\n      mload(0x40)\n      dup1\n      swap2\n      sub\n      swap1\n      return\n        /* \"009\\xe5\\xb8\\xb8\\xe9\\x87\\x8f.sol\":488:519  uint256 public immutable I_TEST */\n    tag_7:\n      tag_28\n      tag_29\n      jump\t// in\n    tag_28:\n      mload(0x40)\n      tag_30\n      swap2\n      swap1\n      tag_23\n      jump\t// in\n    tag_30:\n      mload(0x40)\n      dup1\n      swap2\n      sub\n      swap1\n      return\n        /* \"009\\xe5\\xb8\\xb8\\xe9\\x87\\x8f.sol\":190:227  bytes2 public constant C_BYTES = \"AB\" */\n    tag_8:\n      tag_31\n      tag_32\n      jump\t// in\n    tag_31:\n      mload(0x40)\n      tag_33\n      swap2\n      swap1\n      tag_34\n      jump\t// in\n    tag_33:\n      mload(0x40)\n      dup1\n      swap2\n      sub\n      swap1\n      return\n        /* \"009\\xe5\\xb8\\xb8\\xe9\\x87\\x8f.sol\":361:404  uint256 public immutable I_NUM = 9999999999 */\n    tag_9:\n      tag_35\n      tag_36\n      jump\t// in\n    tag_35:\n      mload(0x40)\n      tag_37\n      swap2\n      swap1\n      tag_23\n      jump\t// in\n    tag_37:\n      mload(0x40)\n      dup1\n      swap2\n      sub\n      swap1\n      return\n        /* \"009\\xe5\\xb8\\xb8\\xe9\\x87\\x8f.sol\":103:139  uint256 public constant C_NUM = 1998 */\n    tag_10:\n      tag_38\n      tag_39\n      jump\t// in\n    tag_38:\n      mload(0x40)\n      tag_40\n      swap2\n      swap1\n      tag_23\n      jump\t// in\n    tag_40:\n      mload(0x40)\n      dup1\n      swap2\n      sub\n      swap1\n      return\n        /* \"009\\xe5\\xb8\\xb8\\xe9\\x87\\x8f.sol\":716:818  function test() public pure returns (uint256) {... */\n    tag_11:\n      tag_41\n      tag_42\n      jump\t// in\n    tag_41:\n      mload(0x40)\n      tag_43\n      swap2\n      swap1\n      tag_23\n      jump\t// in\n    tag_43:\n      mload(0x40)\n      dup1\n      swap2\n      sub\n      swap1\n      return\n        /* \"009\\xe5\\xb8\\xb8\\xe9\\x87\\x8f.sol\":410:444  address public immutable I_ADDRESS */\n    tag_14:\n      immutable(\"0xf4c2b5de886427473655d4c904c743576dc2d53249b7535d96c06cc97ae7216b\")\n      dup2\n      jump\t// out\n        /* \"009\\xe5\\xb8\\xb8\\xe9\\x87\\x8f.sol\":233:278  address public constant C_ADRESS = address(0) */\n    tag_18:\n        /* \"009\\xe5\\xb8\\xb8\\xe9\\x87\\x8f.sol\":276:277  0 */\n      0x00\n        /* \"009\\xe5\\xb8\\xb8\\xe9\\x87\\x8f.sol\":233:278  address public constant C_ADRESS = address(0) */\n      dup2\n      jump\t// out\n        /* \"009\\xe5\\xb8\\xb8\\xe9\\x87\\x8f.sol\":450:482  uint256 public immutable I_BLOCK */\n    tag_21:\n      immutable(\"0x1572b593c53d839d80004aa4b8c51211864104f06ace9e22be9c4365b50655ea\")\n      dup2\n      jump\t// out\n        /* \"009\\xe5\\xb8\\xb8\\xe9\\x87\\x8f.sol\":145:184  string  public constant C_STR = \"APPLE\" */\n    tag_25:\n      mload(0x40)\n      dup1\n      0x40\n      add\n      0x40\n      mstore\n      dup1\n      0x05\n      dup2\n      mstore\n      0x20\n      add\n      0x4150504c45000000000000000000000000000000000000000000000000000000\n      dup2\n      mstore\n      pop\n      dup2\n      jump\t// out\n        /* \"009\\xe5\\xb8\\xb8\\xe9\\x87\\x8f.sol\":488:519  uint256 public immutable I_TEST */\n    tag_29:\n      immutable(\"0x81e080ffc23e8b8d44dd829bc823229e92b893eb1d8f624419d3f5682eb97fc3\")\n      dup2\n      jump\t// out\n        /* \"009\\xe5\\xb8\\xb8\\xe9\\x87\\x8f.sol\":190:227  bytes2 public constant C_BYTES = \"AB\" */\n    tag_32:\n      0x4142000000000000000000000000000000000000000000000000000000000000\n      dup2\n      jump\t// out\n        /* \"009\\xe5\\xb8\\xb8\\xe9\\x87\\x8f.sol\":361:404  uint256 public immutable I_NUM = 9999999999 */\n    tag_36:\n      immutable(\"0x939eb54753ed0cc7e2272bfb34cbe098308c93936ed54d79078f76ade0b2e789\")\n      dup2\n      jump\t// out\n        /* \"009\\xe5\\xb8\\xb8\\xe9\\x87\\x8f.sol\":103:139  uint256 public constant C_NUM = 1998 */\n    tag_39:\n        /* \"009\\xe5\\xb8\\xb8\\xe9\\x87\\x8f.sol\":135:139  1998 */\n      0x07ce\n        /* \"009\\xe5\\xb8\\xb8\\xe9\\x87\\x8f.sol\":103:139  uint256 public constant C_NUM = 1998 */\n      dup2\n      jump\t// out\n        /* \"009\\xe5\\xb8\\xb8\\xe9\\x87\\x8f.sol\":716:818  function test() public pure returns (uint256) {... */\n    tag_42:\n        /* \"009\\xe5\\xb8\\xb8\\xe9\\x87\\x8f.sol\":753:760  uint256 */\n      0x00\n        /* \"009\\xe5\\xb8\\xb8\\xe9\\x87\\x8f.sol\":772:784  uint256 what */\n      dup1\n        /* \"009\\xe5\\xb8\\xb8\\xe9\\x87\\x8f.sol\":787:788  9 */\n      0x09\n        /* \"009\\xe5\\xb8\\xb8\\xe9\\x87\\x8f.sol\":772:788  uint256 what = 9 */\n      swap1\n      pop\n        /* \"009\\xe5\\xb8\\xb8\\xe9\\x87\\x8f.sol\":806:810  what */\n      dup1\n        /* \"009\\xe5\\xb8\\xb8\\xe9\\x87\\x8f.sol\":798:811  return (what) */\n      swap2\n      pop\n      pop\n        /* \"009\\xe5\\xb8\\xb8\\xe9\\x87\\x8f.sol\":716:818  function test() public pure returns (uint256) {... */\n      swap1\n      jump\t// out\n        /* \"#utility.yul\":7:133   */\n    tag_45:\n        /* \"#utility.yul\":44:51   */\n      0x00\n        /* \"#utility.yul\":84:126   */\n      0xffffffffffffffffffffffffffffffffffffffff\n        /* \"#utility.yul\":77:82   */\n      dup3\n        /* \"#utility.yul\":73:127   */\n      and\n        /* \"#utility.yul\":62:127   */\n      swap1\n      pop\n        /* \"#utility.yul\":7:133   */\n      swap2\n      swap1\n      pop\n      jump\t// out\n        /* \"#utility.yul\":139:235   */\n    tag_46:\n        /* \"#utility.yul\":176:183   */\n      0x00\n        /* \"#utility.yul\":205:229   */\n      tag_60\n        /* \"#utility.yul\":223:228   */\n      dup3\n        /* \"#utility.yul\":205:229   */\n      tag_45\n      jump\t// in\n    tag_60:\n        /* \"#utility.yul\":194:229   */\n      swap1\n      pop\n        /* \"#utility.yul\":139:235   */\n      swap2\n      swap1\n      pop\n      jump\t// out\n        /* \"#utility.yul\":241:359   */\n    tag_47:\n        /* \"#utility.yul\":328:352   */\n      tag_62\n        /* \"#utility.yul\":346:351   */\n      dup2\n        /* \"#utility.yul\":328:352   */\n      tag_46\n      jump\t// in\n    tag_62:\n        /* \"#utility.yul\":323:326   */\n      dup3\n        /* \"#utility.yul\":316:353   */\n      mstore\n        /* \"#utility.yul\":241:359   */\n      pop\n      pop\n      jump\t// out\n        /* \"#utility.yul\":365:587   */\n    tag_16:\n        /* \"#utility.yul\":458:462   */\n      0x00\n        /* \"#utility.yul\":496:498   */\n      0x20\n        /* \"#utility.yul\":485:494   */\n      dup3\n        /* \"#utility.yul\":481:499   */\n      add\n        /* \"#utility.yul\":473:499   */\n      swap1\n      pop\n        /* \"#utility.yul\":509:580   */\n      tag_64\n        /* \"#utility.yul\":577:578   */\n      0x00\n        /* \"#utility.yul\":566:575   */\n      dup4\n        /* \"#utility.yul\":562:579   */\n      add\n        /* \"#utility.yul\":553:559   */\n      dup5\n        /* \"#utility.yul\":509:580   */\n      tag_47\n      jump\t// in\n    tag_64:\n        /* \"#utility.yul\":365:587   */\n      swap3\n      swap2\n      pop\n      pop\n      jump\t// out\n        /* \"#utility.yul\":593:670   */\n    tag_48:\n        /* \"#utility.yul\":630:637   */\n      0x00\n        /* \"#utility.yul\":659:664   */\n      dup2\n        /* \"#utility.yul\":648:664   */\n      swap1\n      pop\n        /* \"#utility.yul\":593:670   */\n      swap2\n      swap1\n      pop\n      jump\t// out\n        /* \"#utility.yul\":676:794   */\n    tag_49:\n        /* \"#utility.yul\":763:787   */\n      tag_67\n        /* \"#utility.yul\":781:786   */\n      dup2\n        /* \"#utility.yul\":763:787   */\n      tag_48\n      jump\t// in\n    tag_67:\n        /* \"#utility.yul\":758:761   */\n      dup3\n        /* \"#utility.yul\":751:788   */\n      mstore\n        /* \"#utility.yul\":676:794   */\n      pop\n      pop\n      jump\t// out\n        /* \"#utility.yul\":800:1022   */\n    tag_23:\n        /* \"#utility.yul\":893:897   */\n      0x00\n        /* \"#utility.yul\":931:933   */\n      0x20\n        /* \"#utility.yul\":920:929   */\n      dup3\n        /* \"#utility.yul\":916:934   */\n      add\n        /* \"#utility.yul\":908:934   */\n      swap1\n      pop\n        /* \"#utility.yul\":944:1015   */\n      tag_69\n        /* \"#utility.yul\":1012:1013   */\n      0x00\n        /* \"#utility.yul\":1001:1010   */\n      dup4\n        /* \"#utility.yul\":997:1014   */\n      add\n        /* \"#utility.yul\":988:994   */\n      dup5\n        /* \"#utility.yul\":944:1015   */\n      tag_49\n      jump\t// in\n    tag_69:\n        /* \"#utility.yul\":800:1022   */\n      swap3\n      swap2\n      pop\n      pop\n      jump\t// out\n        /* \"#utility.yul\":1028:1127   */\n    tag_50:\n        /* \"#utility.yul\":1080:1086   */\n      0x00\n        /* \"#utility.yul\":1114:1119   */\n      dup2\n        /* \"#utility.yul\":1108:1120   */\n      mload\n        /* \"#utility.yul\":1098:1120   */\n      swap1\n      pop\n        /* \"#utility.yul\":1028:1127   */\n      swap2\n      swap1\n      pop\n      jump\t// out\n        /* \"#utility.yul\":1133:1302   */\n    tag_51:\n        /* \"#utility.yul\":1217:1228   */\n      0x00\n        /* \"#utility.yul\":1251:1257   */\n      dup3\n        /* \"#utility.yul\":1246:1249   */\n      dup3\n        /* \"#utility.yul\":1239:1258   */\n      mstore\n        /* \"#utility.yul\":1291:1295   */\n      0x20\n        /* \"#utility.yul\":1286:1289   */\n      dup3\n        /* \"#utility.yul\":1282:1296   */\n      add\n        /* \"#utility.yul\":1267:1296   */\n      swap1\n      pop\n        /* \"#utility.yul\":1133:1302   */\n      swap3\n      swap2\n      pop\n      pop\n      jump\t// out\n        /* \"#utility.yul\":1308:1554   */\n    tag_52:\n        /* \"#utility.yul\":1389:1390   */\n      0x00\n        /* \"#utility.yul\":1399:1512   */\n    tag_73:\n        /* \"#utility.yul\":1413:1419   */\n      dup4\n        /* \"#utility.yul\":1410:1411   */\n      dup2\n        /* \"#utility.yul\":1407:1420   */\n      lt\n        /* \"#utility.yul\":1399:1512   */\n      iszero\n      tag_75\n      jumpi\n        /* \"#utility.yul\":1498:1499   */\n      dup1\n        /* \"#utility.yul\":1493:1496   */\n      dup3\n        /* \"#utility.yul\":1489:1500   */\n      add\n        /* \"#utility.yul\":1483:1501   */\n      mload\n        /* \"#utility.yul\":1479:1480   */\n      dup2\n        /* \"#utility.yul\":1474:1477   */\n      dup5\n        /* \"#utility.yul\":1470:1481   */\n      add\n        /* \"#utility.yul\":1463:1502   */\n      mstore\n        /* \"#utility.yul\":1435:1437   */\n      0x20\n        /* \"#utility.yul\":1432:1433   */\n      dup2\n        /* \"#utility.yul\":1428:1438   */\n      add\n        /* \"#utility.yul\":1423:1438   */\n      swap1\n      pop\n        /* \"#utility.yul\":1399:1512   */\n      jump(tag_73)\n    tag_75:\n        /* \"#utility.yul\":1546:1547   */\n      0x00\n        /* \"#utility.yul\":1537:1543   */\n      dup5\n        /* \"#utility.yul\":1532:1535   */\n      dup5\n        /* \"#utility.yul\":1528:1544   */\n      add\n        /* \"#utility.yul\":1521:1548   */\n      mstore\n        /* \"#utility.yul\":1370:1554   */\n      pop\n        /* \"#utility.yul\":1308:1554   */\n      pop\n      pop\n      pop\n      jump\t// out\n        /* \"#utility.yul\":1560:1662   */\n    tag_53:\n        /* \"#utility.yul\":1601:1607   */\n      0x00\n        /* \"#utility.yul\":1652:1654   */\n      0x1f\n        /* \"#utility.yul\":1648:1655   */\n      not\n        /* \"#utility.yul\":1643:1645   */\n      0x1f\n        /* \"#utility.yul\":1636:1641   */\n      dup4\n        /* \"#utility.yul\":1632:1646   */\n      add\n        /* \"#utility.yul\":1628:1656   */\n      and\n        /* \"#utility.yul\":1618:1656   */\n      swap1\n      pop\n        /* \"#utility.yul\":1560:1662   */\n      swap2\n      swap1\n      pop\n      jump\t// out\n        /* \"#utility.yul\":1668:2045   */\n    tag_54:\n        /* \"#utility.yul\":1756:1759   */\n      0x00\n        /* \"#utility.yul\":1784:1823   */\n      tag_78\n        /* \"#utility.yul\":1817:1822   */\n      dup3\n        /* \"#utility.yul\":1784:1823   */\n      tag_50\n      jump\t// in\n    tag_78:\n        /* \"#utility.yul\":1839:1910   */\n      tag_79\n        /* \"#utility.yul\":1903:1909   */\n      dup2\n        /* \"#utility.yul\":1898:1901   */\n      dup6\n        /* \"#utility.yul\":1839:1910   */\n      tag_51\n      jump\t// in\n    tag_79:\n        /* \"#utility.yul\":1832:1910   */\n      swap4\n      pop\n        /* \"#utility.yul\":1919:1984   */\n      tag_80\n        /* \"#utility.yul\":1977:1983   */\n      dup2\n        /* \"#utility.yul\":1972:1975   */\n      dup6\n        /* \"#utility.yul\":1965:1969   */\n      0x20\n        /* \"#utility.yul\":1958:1963   */\n      dup7\n        /* \"#utility.yul\":1954:1970   */\n      add\n        /* \"#utility.yul\":1919:1984   */\n      tag_52\n      jump\t// in\n    tag_80:\n        /* \"#utility.yul\":2009:2038   */\n      tag_81\n        /* \"#utility.yul\":2031:2037   */\n      dup2\n        /* \"#utility.yul\":2009:2038   */\n      tag_53\n      jump\t// in\n    tag_81:\n        /* \"#utility.yul\":2004:2007   */\n      dup5\n        /* \"#utility.yul\":2000:2039   */\n      add\n        /* \"#utility.yul\":1993:2039   */\n      swap2\n      pop\n        /* \"#utility.yul\":1760:2045   */\n      pop\n        /* \"#utility.yul\":1668:2045   */\n      swap3\n      swap2\n      pop\n      pop\n      jump\t// out\n        /* \"#utility.yul\":2051:2364   */\n    tag_27:\n        /* \"#utility.yul\":2164:2168   */\n      0x00\n        /* \"#utility.yul\":2202:2204   */\n      0x20\n        /* \"#utility.yul\":2191:2200   */\n      dup3\n        /* \"#utility.yul\":2187:2205   */\n      add\n        /* \"#utility.yul\":2179:2205   */\n      swap1\n      pop\n        /* \"#utility.yul\":2251:2260   */\n      dup2\n        /* \"#utility.yul\":2245:2249   */\n      dup2\n        /* \"#utility.yul\":2241:2261   */\n      sub\n        /* \"#utility.yul\":2237:2238   */\n      0x00\n        /* \"#utility.yul\":2226:2235   */\n      dup4\n        /* \"#utility.yul\":2222:2239   */\n      add\n        /* \"#utility.yul\":2215:2262   */\n      mstore\n        /* \"#utility.yul\":2279:2357   */\n      tag_83\n        /* \"#utility.yul\":2352:2356   */\n      dup2\n        /* \"#utility.yul\":2343:2349   */\n      dup5\n        /* \"#utility.yul\":2279:2357   */\n      tag_54\n      jump\t// in\n    tag_83:\n        /* \"#utility.yul\":2271:2357   */\n      swap1\n      pop\n        /* \"#utility.yul\":2051:2364   */\n      swap3\n      swap2\n      pop\n      pop\n      jump\t// out\n        /* \"#utility.yul\":2370:2519   */\n    tag_55:\n        /* \"#utility.yul\":2406:2413   */\n      0x00\n        /* \"#utility.yul\":2446:2512   */\n      0xffff000000000000000000000000000000000000000000000000000000000000\n        /* \"#utility.yul\":2439:2444   */\n      dup3\n        /* \"#utility.yul\":2435:2513   */\n      and\n        /* \"#utility.yul\":2424:2513   */\n      swap1\n      pop\n        /* \"#utility.yul\":2370:2519   */\n      swap2\n      swap1\n      pop\n      jump\t// out\n        /* \"#utility.yul\":2525:2640   */\n    tag_56:\n        /* \"#utility.yul\":2610:2633   */\n      tag_86\n        /* \"#utility.yul\":2627:2632   */\n      dup2\n        /* \"#utility.yul\":2610:2633   */\n      tag_55\n      jump\t// in\n    tag_86:\n        /* \"#utility.yul\":2605:2608   */\n      dup3\n        /* \"#utility.yul\":2598:2634   */\n      mstore\n        /* \"#utility.yul\":2525:2640   */\n      pop\n      pop\n      jump\t// out\n        /* \"#utility.yul\":2646:2864   */\n    tag_34:\n        /* \"#utility.yul\":2737:2741   */\n      0x00\n        /* \"#utility.yul\":2775:2777   */\n      0x20\n        /* \"#utility.yul\":2764:2773   */\n      dup3\n        /* \"#utility.yul\":2760:2778   */\n      add\n        /* \"#utility.yul\":2752:2778   */\n      swap1\n      pop\n        /* \"#utility.yul\":2788:2857   */\n      tag_88\n        /* \"#utility.yul\":2854:2855   */\n      0x00\n        /* \"#utility.yul\":2843:2852   */\n      dup4\n        /* \"#utility.yul\":2839:2856   */\n      add\n        /* \"#utility.yul\":2830:2836   */\n      dup5\n        /* \"#utility.yul\":2788:2857   */\n      tag_56\n      jump\t// in\n    tag_88:\n        /* \"#utility.yul\":2646:2864   */\n      swap3\n      swap2\n      pop\n      pop\n      jump\t// out\n\n    auxdata: 0xa2646970667358221220cf2b4f2d44600ff303d039706071a69edc6cbab4fe7c1396f08d0d0dc3f383b064736f6c63430008120033\n}\n",
				"bytecode": {
					"linkReferences": {},
					"object": "6101006040526402540be3ff60809081525034801561001d57600080fd5b503073ffffffffffffffffffffffffffffffffffffffff1660a08173ffffffffffffffffffffffffffffffffffffffff16815250504360c0818152505061006861007460201b60201c565b60e08181525050610082565b600080600990508091505090565b60805160a05160c05160e05161047a6100bb600039600061022e015260006101d1015260006101a801526000610276015261047a6000f3fe608060405234801561001057600080fd5b50600436106100935760003560e01c8063be13908b11610066578063be13908b14610110578063cd3d8b1a1461012e578063d2912b131461014c578063f682aec51461016a578063f8a8fd6d1461018857610093565b806301d0ad4b146100985780630f75a0c5146100b65780632f6822a2146100d45780639c12b60e146100f2575b600080fd5b6100a06101a6565b6040516100ad91906102ed565b60405180910390f35b6100be6101ca565b6040516100cb91906102ed565b60405180910390f35b6100dc6101cf565b6040516100e99190610321565b60405180910390f35b6100fa6101f3565b60405161010791906103cc565b60405180910390f35b61011861022c565b6040516101259190610321565b60405180910390f35b610136610250565b6040516101439190610429565b60405180910390f35b610154610274565b6040516101619190610321565b60405180910390f35b610172610298565b60405161017f9190610321565b60405180910390f35b61019061029e565b60405161019d9190610321565b60405180910390f35b7f000000000000000000000000000000000000000000000000000000000000000081565b600081565b7f000000000000000000000000000000000000000000000000000000000000000081565b6040518060400160405280600581526020017f4150504c4500000000000000000000000000000000000000000000000000000081525081565b7f000000000000000000000000000000000000000000000000000000000000000081565b7f414200000000000000000000000000000000000000000000000000000000000081565b7f000000000000000000000000000000000000000000000000000000000000000081565b6107ce81565b600080600990508091505090565b600073ffffffffffffffffffffffffffffffffffffffff82169050919050565b60006102d7826102ac565b9050919050565b6102e7816102cc565b82525050565b600060208201905061030260008301846102de565b92915050565b6000819050919050565b61031b81610308565b82525050565b60006020820190506103366000830184610312565b92915050565b600081519050919050565b600082825260208201905092915050565b60005b8381101561037657808201518184015260208101905061035b565b60008484015250505050565b6000601f19601f8301169050919050565b600061039e8261033c565b6103a88185610347565b93506103b8818560208601610358565b6103c181610382565b840191505092915050565b600060208201905081810360008301526103e68184610393565b905092915050565b60007fffff00000000000000000000000000000000000000000000000000000000000082169050919050565b610423816103ee565b82525050565b600060208201905061043e600083018461041a565b9291505056fea2646970667358221220cf2b4f2d44600ff303d039706071a69edc6cbab4fe7c1396f08d0d0dc3f383b064736f6c63430008120033",
					"opcodes": "PUSH2 0x100 PUSH1 0x40 MSTORE PUSH5 0x2540BE3FF PUSH1 0x80 SWAP1 DUP2 MSTORE POP CALLVALUE DUP1 ISZERO PUSH2 0x1D JUMPI PUSH1 0x0 DUP1 REVERT JUMPDEST POP ADDRESS PUSH20 0xFFFFFFFFFFFFFFFFFFFFFFFFFFFFFFFFFFFFFFFF AND PUSH1 0xA0 DUP2 PUSH20 0xFFFFFFFFFFFFFFFFFFFFFFFFFFFFFFFFFFFFFFFF AND DUP2 MSTORE POP POP NUMBER PUSH1 0xC0 DUP2 DUP2 MSTORE POP POP PUSH2 0x68 PUSH2 0x74 PUSH1 0x20 SHL PUSH1 0x20 SHR JUMP JUMPDEST PUSH1 0xE0 DUP2 DUP2 MSTORE POP POP PUSH2 0x82 JUMP JUMPDEST PUSH1 0x0 DUP1 PUSH1 0x9 SWAP1 POP DUP1 SWAP2 POP POP SWAP1 JUMP JUMPDEST PUSH1 0x80 MLOAD PUSH1 0xA0 MLOAD PUSH1 0xC0 MLOAD PUSH1 0xE0 MLOAD PUSH2 0x47A PUSH2 0xBB PUSH1 0x0 CODECOPY PUSH1 0x0 PUSH2 0x22E ADD MSTORE PUSH1 0x0 PUSH2 0x1D1 ADD MSTORE PUSH1 0x0 PUSH2 0x1A8 ADD MSTORE PUSH1 0x0 PUSH2 0x276 ADD MSTORE PUSH2 0x47A PUSH1 0x0 RETURN INVALID PUSH1 0x80 PUSH1 0x40 MSTORE CALLVALUE DUP1 ISZERO PUSH2 0x10 JUMPI PUSH1 0x0 DUP1 REVERT JUMPDEST POP PUSH1 0x4 CALLDATASIZE LT PUSH2 0x93 JUMPI PUSH1 0x0 CALLDATALOAD PUSH1 0xE0 SHR DUP1 PUSH4 0xBE13908B GT PUSH2 0x66 JUMPI DUP1 PUSH4 0xBE13908B EQ PUSH2 0x110 JUMPI DUP1 PUSH4 0xCD3D8B1A EQ PUSH2 0x12E JUMPI DUP1 PUSH4 0xD2912B13 EQ PUSH2 0x14C JUMPI DUP1 PUSH4 0xF682AEC5 EQ PUSH2 0x16A JUMPI DUP1 PUSH4 0xF8A8FD6D EQ PUSH2 0x188 JUMPI PUSH2 0x93 JUMP JUMPDEST DUP1 PUSH4 0x1D0AD4B EQ PUSH2 0x98 JUMPI DUP1 PUSH4 0xF75A0C5 EQ PUSH2 0xB6 JUMPI DUP1 PUSH4 0x2F6822A2 EQ PUSH2 0xD4 JUMPI DUP1 PUSH4 0x9C12B60E EQ PUSH2 0xF2 JUMPI JUMPDEST PUSH1 0x0 DUP1 REVERT JUMPDEST PUSH2 0xA0 PUSH2 0x1A6 JUMP JUMPDEST PUSH1 0x40 MLOAD PUSH2 0xAD SWAP2 SWAP1 PUSH2 0x2ED JUMP JUMPDEST PUSH1 0x40 MLOAD DUP1 SWAP2 SUB SWAP1 RETURN JUMPDEST PUSH2 0xBE PUSH2 0x1CA JUMP JUMPDEST PUSH1 0x40 MLOAD PUSH2 0xCB SWAP2 SWAP1 PUSH2 0x2ED JUMP JUMPDEST PUSH1 0x40 MLOAD DUP1 SWAP2 SUB SWAP1 RETURN JUMPDEST PUSH2 0xDC PUSH2 0x1CF JUMP JUMPDEST PUSH1 0x40 MLOAD PUSH2 0xE9 SWAP2 SWAP1 PUSH2 0x321 JUMP JUMPDEST PUSH1 0x40 MLOAD DUP1 SWAP2 SUB SWAP1 RETURN JUMPDEST PUSH2 0xFA PUSH2 0x1F3 JUMP JUMPDEST PUSH1 0x40 MLOAD PUSH2 0x107 SWAP2 SWAP1 PUSH2 0x3CC JUMP JUMPDEST PUSH1 0x40 MLOAD DUP1 SWAP2 SUB SWAP1 RETURN JUMPDEST PUSH2 0x118 PUSH2 0x22C JUMP JUMPDEST PUSH1 0x40 MLOAD PUSH2 0x125 SWAP2 SWAP1 PUSH2 0x321 JUMP JUMPDEST PUSH1 0x40 MLOAD DUP1 SWAP2 SUB SWAP1 RETURN JUMPDEST PUSH2 0x136 PUSH2 0x250 JUMP JUMPDEST PUSH1 0x40 MLOAD PUSH2 0x143 SWAP2 SWAP1 PUSH2 0x429 JUMP JUMPDEST PUSH1 0x40 MLOAD DUP1 SWAP2 SUB SWAP1 RETURN JUMPDEST PUSH2 0x154 PUSH2 0x274 JUMP JUMPDEST PUSH1 0x40 MLOAD PUSH2 0x161 SWAP2 SWAP1 PUSH2 0x321 JUMP JUMPDEST PUSH1 0x40 MLOAD DUP1 SWAP2 SUB SWAP1 RETURN JUMPDEST PUSH2 0x172 PUSH2 0x298 JUMP JUMPDEST PUSH1 0x40 MLOAD PUSH2 0x17F SWAP2 SWAP1 PUSH2 0x321 JUMP JUMPDEST PUSH1 0x40 MLOAD DUP1 SWAP2 SUB SWAP1 RETURN JUMPDEST PUSH2 0x190 PUSH2 0x29E JUMP JUMPDEST PUSH1 0x40 MLOAD PUSH2 0x19D SWAP2 SWAP1 PUSH2 0x321 JUMP JUMPDEST PUSH1 0x40 MLOAD DUP1 SWAP2 SUB SWAP1 RETURN JUMPDEST PUSH32 0x0 DUP2 JUMP JUMPDEST PUSH1 0x0 DUP2 JUMP JUMPDEST PUSH32 0x0 DUP2 JUMP JUMPDEST PUSH1 0x40 MLOAD DUP1 PUSH1 0x40 ADD PUSH1 0x40 MSTORE DUP1 PUSH1 0x5 DUP2 MSTORE PUSH1 0x20 ADD PUSH32 0x4150504C45000000000000000000000000000000000000000000000000000000 DUP2 MSTORE POP DUP2 JUMP JUMPDEST PUSH32 0x0 DUP2 JUMP JUMPDEST PUSH32 0x4142000000000000000000000000000000000000000000000000000000000000 DUP2 JUMP JUMPDEST PUSH32 0x0 DUP2 JUMP JUMPDEST PUSH2 0x7CE DUP2 JUMP JUMPDEST PUSH1 0x0 DUP1 PUSH1 0x9 SWAP1 POP DUP1 SWAP2 POP POP SWAP1 JUMP JUMPDEST PUSH1 0x0 PUSH20 0xFFFFFFFFFFFFFFFFFFFFFFFFFFFFFFFFFFFFFFFF DUP3 AND SWAP1 POP SWAP2 SWAP1 POP JUMP JUMPDEST PUSH1 0x0 PUSH2 0x2D7 DUP3 PUSH2 0x2AC JUMP JUMPDEST SWAP1 POP SWAP2 SWAP1 POP JUMP JUMPDEST PUSH2 0x2E7 DUP2 PUSH2 0x2CC JUMP JUMPDEST DUP3 MSTORE POP POP JUMP JUMPDEST PUSH1 0x0 PUSH1 0x20 DUP3 ADD SWAP1 POP PUSH2 0x302 PUSH1 0x0 DUP4 ADD DUP5 PUSH2 0x2DE JUMP JUMPDEST SWAP3 SWAP2 POP POP JUMP JUMPDEST PUSH1 0x0 DUP2 SWAP1 POP SWAP2 SWAP1 POP JUMP JUMPDEST PUSH2 0x31B DUP2 PUSH2 0x308 JUMP JUMPDEST DUP3 MSTORE POP POP JUMP JUMPDEST PUSH1 0x0 PUSH1 0x20 DUP3 ADD SWAP1 POP PUSH2 0x336 PUSH1 0x0 DUP4 ADD DUP5 PUSH2 0x312 JUMP JUMPDEST SWAP3 SWAP2 POP POP JUMP JUMPDEST PUSH1 0x0 DUP2 MLOAD SWAP1 POP SWAP2 SWAP1 POP JUMP JUMPDEST PUSH1 0x0 DUP3 DUP3 MSTORE PUSH1 0x20 DUP3 ADD SWAP1 POP SWAP3 SWAP2 POP POP JUMP JUMPDEST PUSH1 0x0 JUMPDEST DUP4 DUP2 LT ISZERO PUSH2 0x376 JUMPI DUP1 DUP3 ADD MLOAD DUP2 DUP5 ADD MSTORE PUSH1 0x20 DUP2 ADD SWAP1 POP PUSH2 0x35B JUMP JUMPDEST PUSH1 0x0 DUP5 DUP5 ADD MSTORE POP POP POP POP JUMP JUMPDEST PUSH1 0x0 PUSH1 0x1F NOT PUSH1 0x1F DUP4 ADD AND SWAP1 POP SWAP2 SWAP1 POP JUMP JUMPDEST PUSH1 0x0 PUSH2 0x39E DUP3 PUSH2 0x33C JUMP JUMPDEST PUSH2 0x3A8 DUP2 DUP6 PUSH2 0x347 JUMP JUMPDEST SWAP4 POP PUSH2 0x3B8 DUP2 DUP6 PUSH1 0x20 DUP7 ADD PUSH2 0x358 JUMP JUMPDEST PUSH2 0x3C1 DUP2 PUSH2 0x382 JUMP JUMPDEST DUP5 ADD SWAP2 POP POP SWAP3 SWAP2 POP POP JUMP JUMPDEST PUSH1 0x0 PUSH1 0x20 DUP3 ADD SWAP1 POP DUP2 DUP2 SUB PUSH1 0x0 DUP4 ADD MSTORE PUSH2 0x3E6 DUP2 DUP5 PUSH2 0x393 JUMP JUMPDEST SWAP1 POP SWAP3 SWAP2 POP POP JUMP JUMPDEST PUSH1 0x0 PUSH32 0xFFFF000000000000000000000000000000000000000000000000000000000000 DUP3 AND SWAP1 POP SWAP2 SWAP1 POP JUMP JUMPDEST PUSH2 0x423 DUP2 PUSH2 0x3EE JUMP JUMPDEST DUP3 MSTORE POP POP JUMP JUMPDEST PUSH1 0x0 PUSH1 0x20 DUP3 ADD SWAP1 POP PUSH2 0x43E PUSH1 0x0 DUP4 ADD DUP5 PUSH2 0x41A JUMP JUMPDEST SWAP3 SWAP2 POP POP JUMP INVALID LOG2 PUSH5 0x6970667358 0x22 SLT KECCAK256 0xCF 0x2B 0x4F 0x2D PREVRANDAO PUSH1 0xF RETURN SUB 0xD0 CODECOPY PUSH17 0x6071A69EDC6CBAB4FE7C1396F08D0D0DC3 RETURN DUP4 0xB0 PUSH5 0x736F6C6343 STOP ADDMOD SLT STOP CALLER "
				},
				"gasEstimates": {
					"creation": {
						"codeDepositCost": "229200",
						"executionCost": "infinite",
						"totalCost": "infinite"
					},
					"external": {
						"C_ADRESS()": "401",
						"C_BYTES()": "357",
						"C_NUM()": "395",
						"C_STR()": "infinite",
						"I_ADDRESS()": "infinite",
						"I_BLOCK()": "infinite",
						"I_NUM()": "infinite",
						"I_TEST()": "infinite",
						"test()": "438"
					}
				},
				"methodIdentifiers": {
					"C_ADRESS()": "0f75a0c5",
					"C_BYTES()": "cd3d8b1a",
					"C_NUM()": "f682aec5",
					"C_STR()": "9c12b60e",
					"I_ADDRESS()": "01d0ad4b",
					"I_BLOCK()": "2f6822a2",
					"I_NUM()": "d2912b13",
					"I_TEST()": "be13908b",
					"test()": "f8a8fd6d"
				}
			},
			"storageLayout": {
				"storage": [],
				"types": null
			},
			"userdoc": {
				"kind": "user",
				"methods": {},
				"version": 1
			}
		}
	}
}