{
	"005_2作用域.sol": {
		"func_005_2": {
			"abi": [
				{
					"inputs": [],
					"name": "bar",
					"outputs": [
						{
							"internalType": "uint256",
							"name": "",
							"type": "uint256"
						}
					],
					"stateMutability": "pure",
					"type": "function"
				},
				{
					"inputs": [],
					"name": "foo",
					"outputs": [],
					"stateMutability": "nonpayable",
					"type": "function"
				},
				{
					"inputs": [],
					"name": "global",
					"outputs": [
						{
							"internalType": "address",
							"name": "",
							"type": "address"
						},
						{
							"internalType": "uint256",
							"name": "",
							"type": "uint256"
						},
						{
							"internalType": "bytes",
							"name": "",
							"type": "bytes"
						}
					],
					"stateMutability": "view",
					"type": "function"
				},
				{
					"inputs": [],
					"name": "x",
					"outputs": [
						{
							"internalType": "uint256",
							"name": "",
							"type": "uint256"
						}
					],
					"stateMutability": "view",
					"type": "function"
				},
				{
					"inputs": [],
					"name": "y",
					"outputs": [
						{
							"internalType": "uint256",
							"name": "",
							"type": "uint256"
						}
					],
					"stateMutability": "view",
					"type": "function"
				},
				{
					"inputs": [],
					"name": "z",
					"outputs": [
						{
							"internalType": "string",
							"name": "",
							"type": "string"
						}
					],
					"stateMutability": "view",
					"type": "function"
				}
			],
			"devdoc": {
				"kind": "dev",
				"methods": {},
				"version": 1
			},
			"evm": {
				"assembly": "    /* \"005_2\\xe4\\xbd\\x9c\\xe7\\x94\\xa8\\xe5\\x9f\\x9f.sol\":60:669  contract func_005_2 {... */\n  mstore(0x40, 0x80)\n    /* \"005_2\\xe4\\xbd\\x9c\\xe7\\x94\\xa8\\xe5\\x9f\\x9f.sol\":125:126  1 */\n  0x01\n    /* \"005_2\\xe4\\xbd\\x9c\\xe7\\x94\\xa8\\xe5\\x9f\\x9f.sol\":109:126  uint public x = 1 */\n  0x00\n  sstore\n    /* \"005_2\\xe4\\xbd\\x9c\\xe7\\x94\\xa8\\xe5\\x9f\\x9f.sol\":60:669  contract func_005_2 {... */\n  callvalue\n  dup1\n  iszero\n  tag_1\n  jumpi\n  0x00\n  dup1\n  revert\ntag_1:\n  pop\n  dataSize(sub_0)\n  dup1\n  dataOffset(sub_0)\n  0x00\n  codecopy\n  0x00\n  return\nstop\n\nsub_0: assembly {\n        /* \"005_2\\xe4\\xbd\\x9c\\xe7\\x94\\xa8\\xe5\\x9f\\x9f.sol\":60:669  contract func_005_2 {... */\n      mstore(0x40, 0x80)\n      callvalue\n      dup1\n      iszero\n      tag_1\n      jumpi\n      0x00\n      dup1\n      revert\n    tag_1:\n      pop\n      jumpi(tag_2, lt(calldatasize, 0x04))\n      shr(0xe0, calldataload(0x00))\n      dup1\n      0x0c55699c\n      eq\n      tag_3\n      jumpi\n      dup1\n      0xa05f9906\n      eq\n      tag_4\n      jumpi\n      dup1\n      0xa56dfe4a\n      eq\n      tag_5\n      jumpi\n      dup1\n      0xc2985578\n      eq\n      tag_6\n      jumpi\n      dup1\n      0xc5d7802e\n      eq\n      tag_7\n      jumpi\n      dup1\n      0xfebb0f7e\n      eq\n      tag_8\n      jumpi\n    tag_2:\n      0x00\n      dup1\n      revert\n        /* \"005_2\\xe4\\xbd\\x9c\\xe7\\x94\\xa8\\xe5\\x9f\\x9f.sol\":109:126  uint public x = 1 */\n    tag_3:\n      tag_9\n      tag_10\n      jump\t// in\n    tag_9:\n      mload(0x40)\n      tag_11\n      swap2\n      swap1\n      tag_12\n      jump\t// in\n    tag_11:\n      mload(0x40)\n      dup1\n      swap2\n      sub\n      swap1\n      return\n        /* \"005_2\\xe4\\xbd\\x9c\\xe7\\x94\\xa8\\xe5\\x9f\\x9f.sol\":449:666  function global() external view returns(address, uint, bytes memory){... */\n    tag_4:\n      tag_13\n      tag_14\n      jump\t// in\n    tag_13:\n      mload(0x40)\n      tag_15\n      swap4\n      swap3\n      swap2\n      swap1\n      tag_16\n      jump\t// in\n    tag_15:\n      mload(0x40)\n      dup1\n      swap2\n      sub\n      swap1\n      return\n        /* \"005_2\\xe4\\xbd\\x9c\\xe7\\x94\\xa8\\xe5\\x9f\\x9f.sol\":133:146  uint public y */\n    tag_5:\n      tag_17\n      tag_18\n      jump\t// in\n    tag_17:\n      mload(0x40)\n      tag_19\n      swap2\n      swap1\n      tag_12\n      jump\t// in\n    tag_19:\n      mload(0x40)\n      dup1\n      swap2\n      sub\n      swap1\n      return\n        /* \"005_2\\xe4\\xbd\\x9c\\xe7\\x94\\xa8\\xe5\\x9f\\x9f.sol\":177:265  function foo() external{... */\n    tag_6:\n      tag_20\n      tag_21\n      jump\t// in\n    tag_20:\n      stop\n        /* \"005_2\\xe4\\xbd\\x9c\\xe7\\x94\\xa8\\xe5\\x9f\\x9f.sol\":153:168  string public z */\n    tag_7:\n      tag_22\n      tag_23\n      jump\t// in\n    tag_22:\n      mload(0x40)\n      tag_24\n      swap2\n      swap1\n      tag_25\n      jump\t// in\n    tag_24:\n      mload(0x40)\n      dup1\n      swap2\n      sub\n      swap1\n      return\n        /* \"005_2\\xe4\\xbd\\x9c\\xe7\\x94\\xa8\\xe5\\x9f\\x9f.sol\":295:439  function bar() external pure returns(uint){... */\n    tag_8:\n      tag_26\n      tag_27\n      jump\t// in\n    tag_26:\n      mload(0x40)\n      tag_28\n      swap2\n      swap1\n      tag_12\n      jump\t// in\n    tag_28:\n      mload(0x40)\n      dup1\n      swap2\n      sub\n      swap1\n      return\n        /* \"005_2\\xe4\\xbd\\x9c\\xe7\\x94\\xa8\\xe5\\x9f\\x9f.sol\":109:126  uint public x = 1 */\n    tag_10:\n      sload(0x00)\n      dup2\n      jump\t// out\n        /* \"005_2\\xe4\\xbd\\x9c\\xe7\\x94\\xa8\\xe5\\x9f\\x9f.sol\":449:666  function global() external view returns(address, uint, bytes memory){... */\n    tag_14:\n        /* \"005_2\\xe4\\xbd\\x9c\\xe7\\x94\\xa8\\xe5\\x9f\\x9f.sol\":489:496  address */\n      0x00\n        /* \"005_2\\xe4\\xbd\\x9c\\xe7\\x94\\xa8\\xe5\\x9f\\x9f.sol\":498:502  uint */\n      dup1\n        /* \"005_2\\xe4\\xbd\\x9c\\xe7\\x94\\xa8\\xe5\\x9f\\x9f.sol\":504:516  bytes memory */\n      0x60\n        /* \"005_2\\xe4\\xbd\\x9c\\xe7\\x94\\xa8\\xe5\\x9f\\x9f.sol\":524:538  address sender */\n      0x00\n        /* \"005_2\\xe4\\xbd\\x9c\\xe7\\x94\\xa8\\xe5\\x9f\\x9f.sol\":541:551  msg.sender */\n      caller\n        /* \"005_2\\xe4\\xbd\\x9c\\xe7\\x94\\xa8\\xe5\\x9f\\x9f.sol\":524:551  address sender = msg.sender */\n      swap1\n      pop\n        /* \"005_2\\xe4\\xbd\\x9c\\xe7\\x94\\xa8\\xe5\\x9f\\x9f.sol\":558:571  uint blockNum */\n      0x00\n        /* \"005_2\\xe4\\xbd\\x9c\\xe7\\x94\\xa8\\xe5\\x9f\\x9f.sol\":574:586  block.number */\n      number\n        /* \"005_2\\xe4\\xbd\\x9c\\xe7\\x94\\xa8\\xe5\\x9f\\x9f.sol\":558:586  uint blockNum = block.number */\n      swap1\n      pop\n        /* \"005_2\\xe4\\xbd\\x9c\\xe7\\x94\\xa8\\xe5\\x9f\\x9f.sol\":593:610  bytes memory data */\n      0x00\n        /* \"005_2\\xe4\\xbd\\x9c\\xe7\\x94\\xa8\\xe5\\x9f\\x9f.sol\":613:621  msg.data */\n      dup1\n      calldatasize\n        /* \"005_2\\xe4\\xbd\\x9c\\xe7\\x94\\xa8\\xe5\\x9f\\x9f.sol\":593:621  bytes memory data = msg.data */\n      dup1\n      dup1\n      0x1f\n      add\n      0x20\n      dup1\n      swap2\n      div\n      mul\n      0x20\n      add\n      mload(0x40)\n      swap1\n      dup2\n      add\n      0x40\n      mstore\n      dup1\n      swap4\n      swap3\n      swap2\n      swap1\n      dup2\n      dup2\n      mstore\n      0x20\n      add\n      dup4\n      dup4\n      dup1\n      dup3\n      dup5\n      calldatacopy\n      0x00\n      dup2\n      dup5\n      add\n      mstore\n      not(0x1f)\n      0x1f\n      dup3\n      add\n      and\n      swap1\n      pop\n      dup1\n      dup4\n      add\n      swap3\n      pop\n      pop\n      pop\n      pop\n      pop\n      pop\n      pop\n      swap1\n      pop\n        /* \"005_2\\xe4\\xbd\\x9c\\xe7\\x94\\xa8\\xe5\\x9f\\x9f.sol\":635:641  sender */\n      dup3\n        /* \"005_2\\xe4\\xbd\\x9c\\xe7\\x94\\xa8\\xe5\\x9f\\x9f.sol\":643:651  blockNum */\n      dup3\n        /* \"005_2\\xe4\\xbd\\x9c\\xe7\\x94\\xa8\\xe5\\x9f\\x9f.sol\":653:657  data */\n      dup3\n        /* \"005_2\\xe4\\xbd\\x9c\\xe7\\x94\\xa8\\xe5\\x9f\\x9f.sol\":628:658  return(sender, blockNum, data) */\n      swap6\n      pop\n      swap6\n      pop\n      swap6\n      pop\n      pop\n      pop\n      pop\n        /* \"005_2\\xe4\\xbd\\x9c\\xe7\\x94\\xa8\\xe5\\x9f\\x9f.sol\":449:666  function global() external view returns(address, uint, bytes memory){... */\n      swap1\n      swap2\n      swap3\n      jump\t// out\n        /* \"005_2\\xe4\\xbd\\x9c\\xe7\\x94\\xa8\\xe5\\x9f\\x9f.sol\":133:146  uint public y */\n    tag_18:\n      sload(0x01)\n      dup2\n      jump\t// out\n        /* \"005_2\\xe4\\xbd\\x9c\\xe7\\x94\\xa8\\xe5\\x9f\\x9f.sol\":177:265  function foo() external{... */\n    tag_21:\n        /* \"005_2\\xe4\\xbd\\x9c\\xe7\\x94\\xa8\\xe5\\x9f\\x9f.sol\":215:217  10 */\n      0x0a\n        /* \"005_2\\xe4\\xbd\\x9c\\xe7\\x94\\xa8\\xe5\\x9f\\x9f.sol\":211:212  x */\n      0x00\n        /* \"005_2\\xe4\\xbd\\x9c\\xe7\\x94\\xa8\\xe5\\x9f\\x9f.sol\":211:217  x = 10 */\n      dup2\n      swap1\n      sstore\n      pop\n        /* \"005_2\\xe4\\xbd\\x9c\\xe7\\x94\\xa8\\xe5\\x9f\\x9f.sol\":232:234  20 */\n      0x14\n        /* \"005_2\\xe4\\xbd\\x9c\\xe7\\x94\\xa8\\xe5\\x9f\\x9f.sol\":228:229  y */\n      0x01\n        /* \"005_2\\xe4\\xbd\\x9c\\xe7\\x94\\xa8\\xe5\\x9f\\x9f.sol\":228:234  y = 20 */\n      dup2\n      swap1\n      sstore\n      pop\n        /* \"005_2\\xe4\\xbd\\x9c\\xe7\\x94\\xa8\\xe5\\x9f\\x9f.sol\":245:257  z = 'orange' */\n      mload(0x40)\n      dup1\n      0x40\n      add\n      0x40\n      mstore\n      dup1\n      0x06\n      dup2\n      mstore\n      0x20\n      add\n      0x6f72616e67650000000000000000000000000000000000000000000000000000\n      dup2\n      mstore\n      pop\n        /* \"005_2\\xe4\\xbd\\x9c\\xe7\\x94\\xa8\\xe5\\x9f\\x9f.sol\":245:246  z */\n      0x02\n        /* \"005_2\\xe4\\xbd\\x9c\\xe7\\x94\\xa8\\xe5\\x9f\\x9f.sol\":245:257  z = 'orange' */\n      swap1\n      dup2\n      tag_31\n      swap2\n      swap1\n      tag_32\n      jump\t// in\n    tag_31:\n      pop\n        /* \"005_2\\xe4\\xbd\\x9c\\xe7\\x94\\xa8\\xe5\\x9f\\x9f.sol\":177:265  function foo() external{... */\n      jump\t// out\n        /* \"005_2\\xe4\\xbd\\x9c\\xe7\\x94\\xa8\\xe5\\x9f\\x9f.sol\":153:168  string public z */\n    tag_23:\n      0x02\n      dup1\n      sload\n      tag_33\n      swap1\n      tag_34\n      jump\t// in\n    tag_33:\n      dup1\n      0x1f\n      add\n      0x20\n      dup1\n      swap2\n      div\n      mul\n      0x20\n      add\n      mload(0x40)\n      swap1\n      dup2\n      add\n      0x40\n      mstore\n      dup1\n      swap3\n      swap2\n      swap1\n      dup2\n      dup2\n      mstore\n      0x20\n      add\n      dup3\n      dup1\n      sload\n      tag_35\n      swap1\n      tag_34\n      jump\t// in\n    tag_35:\n      dup1\n      iszero\n      tag_36\n      jumpi\n      dup1\n      0x1f\n      lt\n      tag_37\n      jumpi\n      0x0100\n      dup1\n      dup4\n      sload\n      div\n      mul\n      dup4\n      mstore\n      swap2\n      0x20\n      add\n      swap2\n      jump(tag_36)\n    tag_37:\n      dup3\n      add\n      swap2\n      swap1\n      0x00\n      mstore\n      keccak256(0x00, 0x20)\n      swap1\n    tag_38:\n      dup2\n      sload\n      dup2\n      mstore\n      swap1\n      0x01\n      add\n      swap1\n      0x20\n      add\n      dup1\n      dup4\n      gt\n      tag_38\n      jumpi\n      dup3\n      swap1\n      sub\n      0x1f\n      and\n      dup3\n      add\n      swap2\n    tag_36:\n      pop\n      pop\n      pop\n      pop\n      pop\n      dup2\n      jump\t// out\n        /* \"005_2\\xe4\\xbd\\x9c\\xe7\\x94\\xa8\\xe5\\x9f\\x9f.sol\":295:439  function bar() external pure returns(uint){... */\n    tag_27:\n        /* \"005_2\\xe4\\xbd\\x9c\\xe7\\x94\\xa8\\xe5\\x9f\\x9f.sol\":332:336  uint */\n      0x00\n        /* \"005_2\\xe4\\xbd\\x9c\\xe7\\x94\\xa8\\xe5\\x9f\\x9f.sol\":348:355  uint xx */\n      dup1\n        /* \"005_2\\xe4\\xbd\\x9c\\xe7\\x94\\xa8\\xe5\\x9f\\x9f.sol\":358:361  100 */\n      0x64\n        /* \"005_2\\xe4\\xbd\\x9c\\xe7\\x94\\xa8\\xe5\\x9f\\x9f.sol\":348:361  uint xx = 100 */\n      swap1\n      pop\n        /* \"005_2\\xe4\\xbd\\x9c\\xe7\\x94\\xa8\\xe5\\x9f\\x9f.sol\":372:379  uint yy */\n      0x00\n        /* \"005_2\\xe4\\xbd\\x9c\\xe7\\x94\\xa8\\xe5\\x9f\\x9f.sol\":381:384  200 */\n      0xc8\n        /* \"005_2\\xe4\\xbd\\x9c\\xe7\\x94\\xa8\\xe5\\x9f\\x9f.sol\":372:384  uint yy =200 */\n      swap1\n      pop\n        /* \"005_2\\xe4\\xbd\\x9c\\xe7\\x94\\xa8\\xe5\\x9f\\x9f.sol\":395:402  uint zz */\n      0x00\n        /* \"005_2\\xe4\\xbd\\x9c\\xe7\\x94\\xa8\\xe5\\x9f\\x9f.sol\":408:410  yy */\n      dup2\n        /* \"005_2\\xe4\\xbd\\x9c\\xe7\\x94\\xa8\\xe5\\x9f\\x9f.sol\":405:407  xx */\n      dup4\n        /* \"005_2\\xe4\\xbd\\x9c\\xe7\\x94\\xa8\\xe5\\x9f\\x9f.sol\":405:410  xx+yy */\n      tag_40\n      swap2\n      swap1\n      tag_41\n      jump\t// in\n    tag_40:\n        /* \"005_2\\xe4\\xbd\\x9c\\xe7\\x94\\xa8\\xe5\\x9f\\x9f.sol\":395:410  uint zz = xx+yy */\n      swap1\n      pop\n        /* \"005_2\\xe4\\xbd\\x9c\\xe7\\x94\\xa8\\xe5\\x9f\\x9f.sol\":428:430  zz */\n      dup1\n        /* \"005_2\\xe4\\xbd\\x9c\\xe7\\x94\\xa8\\xe5\\x9f\\x9f.sol\":421:431  return(zz) */\n      swap4\n      pop\n      pop\n      pop\n      pop\n        /* \"005_2\\xe4\\xbd\\x9c\\xe7\\x94\\xa8\\xe5\\x9f\\x9f.sol\":295:439  function bar() external pure returns(uint){... */\n      swap1\n      jump\t// out\n        /* \"#utility.yul\":7:84   */\n    tag_42:\n        /* \"#utility.yul\":44:51   */\n      0x00\n        /* \"#utility.yul\":73:78   */\n      dup2\n        /* \"#utility.yul\":62:78   */\n      swap1\n      pop\n        /* \"#utility.yul\":7:84   */\n      swap2\n      swap1\n      pop\n      jump\t// out\n        /* \"#utility.yul\":90:208   */\n    tag_43:\n        /* \"#utility.yul\":177:201   */\n      tag_76\n        /* \"#utility.yul\":195:200   */\n      dup2\n        /* \"#utility.yul\":177:201   */\n      tag_42\n      jump\t// in\n    tag_76:\n        /* \"#utility.yul\":172:175   */\n      dup3\n        /* \"#utility.yul\":165:202   */\n      mstore\n        /* \"#utility.yul\":90:208   */\n      pop\n      pop\n      jump\t// out\n        /* \"#utility.yul\":214:436   */\n    tag_12:\n        /* \"#utility.yul\":307:311   */\n      0x00\n        /* \"#utility.yul\":345:347   */\n      0x20\n        /* \"#utility.yul\":334:343   */\n      dup3\n        /* \"#utility.yul\":330:348   */\n      add\n        /* \"#utility.yul\":322:348   */\n      swap1\n      pop\n        /* \"#utility.yul\":358:429   */\n      tag_78\n        /* \"#utility.yul\":426:427   */\n      0x00\n        /* \"#utility.yul\":415:424   */\n      dup4\n        /* \"#utility.yul\":411:428   */\n      add\n        /* \"#utility.yul\":402:408   */\n      dup5\n        /* \"#utility.yul\":358:429   */\n      tag_43\n      jump\t// in\n    tag_78:\n        /* \"#utility.yul\":214:436   */\n      swap3\n      swap2\n      pop\n      pop\n      jump\t// out\n        /* \"#utility.yul\":442:568   */\n    tag_44:\n        /* \"#utility.yul\":479:486   */\n      0x00\n        /* \"#utility.yul\":519:561   */\n      0xffffffffffffffffffffffffffffffffffffffff\n        /* \"#utility.yul\":512:517   */\n      dup3\n        /* \"#utility.yul\":508:562   */\n      and\n        /* \"#utility.yul\":497:562   */\n      swap1\n      pop\n        /* \"#utility.yul\":442:568   */\n      swap2\n      swap1\n      pop\n      jump\t// out\n        /* \"#utility.yul\":574:670   */\n    tag_45:\n        /* \"#utility.yul\":611:618   */\n      0x00\n        /* \"#utility.yul\":640:664   */\n      tag_81\n        /* \"#utility.yul\":658:663   */\n      dup3\n        /* \"#utility.yul\":640:664   */\n      tag_44\n      jump\t// in\n    tag_81:\n        /* \"#utility.yul\":629:664   */\n      swap1\n      pop\n        /* \"#utility.yul\":574:670   */\n      swap2\n      swap1\n      pop\n      jump\t// out\n        /* \"#utility.yul\":676:794   */\n    tag_46:\n        /* \"#utility.yul\":763:787   */\n      tag_83\n        /* \"#utility.yul\":781:786   */\n      dup2\n        /* \"#utility.yul\":763:787   */\n      tag_45\n      jump\t// in\n    tag_83:\n        /* \"#utility.yul\":758:761   */\n      dup3\n        /* \"#utility.yul\":751:788   */\n      mstore\n        /* \"#utility.yul\":676:794   */\n      pop\n      pop\n      jump\t// out\n        /* \"#utility.yul\":800:898   */\n    tag_47:\n        /* \"#utility.yul\":851:857   */\n      0x00\n        /* \"#utility.yul\":885:890   */\n      dup2\n        /* \"#utility.yul\":879:891   */\n      mload\n        /* \"#utility.yul\":869:891   */\n      swap1\n      pop\n        /* \"#utility.yul\":800:898   */\n      swap2\n      swap1\n      pop\n      jump\t// out\n        /* \"#utility.yul\":904:1072   */\n    tag_48:\n        /* \"#utility.yul\":987:998   */\n      0x00\n        /* \"#utility.yul\":1021:1027   */\n      dup3\n        /* \"#utility.yul\":1016:1019   */\n      dup3\n        /* \"#utility.yul\":1009:1028   */\n      mstore\n        /* \"#utility.yul\":1061:1065   */\n      0x20\n        /* \"#utility.yul\":1056:1059   */\n      dup3\n        /* \"#utility.yul\":1052:1066   */\n      add\n        /* \"#utility.yul\":1037:1066   */\n      swap1\n      pop\n        /* \"#utility.yul\":904:1072   */\n      swap3\n      swap2\n      pop\n      pop\n      jump\t// out\n        /* \"#utility.yul\":1078:1324   */\n    tag_49:\n        /* \"#utility.yul\":1159:1160   */\n      0x00\n        /* \"#utility.yul\":1169:1282   */\n    tag_87:\n        /* \"#utility.yul\":1183:1189   */\n      dup4\n        /* \"#utility.yul\":1180:1181   */\n      dup2\n        /* \"#utility.yul\":1177:1190   */\n      lt\n        /* \"#utility.yul\":1169:1282   */\n      iszero\n      tag_89\n      jumpi\n        /* \"#utility.yul\":1268:1269   */\n      dup1\n        /* \"#utility.yul\":1263:1266   */\n      dup3\n        /* \"#utility.yul\":1259:1270   */\n      add\n        /* \"#utility.yul\":1253:1271   */\n      mload\n        /* \"#utility.yul\":1249:1250   */\n      dup2\n        /* \"#utility.yul\":1244:1247   */\n      dup5\n        /* \"#utility.yul\":1240:1251   */\n      add\n        /* \"#utility.yul\":1233:1272   */\n      mstore\n        /* \"#utility.yul\":1205:1207   */\n      0x20\n        /* \"#utility.yul\":1202:1203   */\n      dup2\n        /* \"#utility.yul\":1198:1208   */\n      add\n        /* \"#utility.yul\":1193:1208   */\n      swap1\n      pop\n        /* \"#utility.yul\":1169:1282   */\n      jump(tag_87)\n    tag_89:\n        /* \"#utility.yul\":1316:1317   */\n      0x00\n        /* \"#utility.yul\":1307:1313   */\n      dup5\n        /* \"#utility.yul\":1302:1305   */\n      dup5\n        /* \"#utility.yul\":1298:1314   */\n      add\n        /* \"#utility.yul\":1291:1318   */\n      mstore\n        /* \"#utility.yul\":1140:1324   */\n      pop\n        /* \"#utility.yul\":1078:1324   */\n      pop\n      pop\n      pop\n      jump\t// out\n        /* \"#utility.yul\":1330:1432   */\n    tag_50:\n        /* \"#utility.yul\":1371:1377   */\n      0x00\n        /* \"#utility.yul\":1422:1424   */\n      0x1f\n        /* \"#utility.yul\":1418:1425   */\n      not\n        /* \"#utility.yul\":1413:1415   */\n      0x1f\n        /* \"#utility.yul\":1406:1411   */\n      dup4\n        /* \"#utility.yul\":1402:1416   */\n      add\n        /* \"#utility.yul\":1398:1426   */\n      and\n        /* \"#utility.yul\":1388:1426   */\n      swap1\n      pop\n        /* \"#utility.yul\":1330:1432   */\n      swap2\n      swap1\n      pop\n      jump\t// out\n        /* \"#utility.yul\":1438:1811   */\n    tag_51:\n        /* \"#utility.yul\":1524:1527   */\n      0x00\n        /* \"#utility.yul\":1552:1590   */\n      tag_92\n        /* \"#utility.yul\":1584:1589   */\n      dup3\n        /* \"#utility.yul\":1552:1590   */\n      tag_47\n      jump\t// in\n    tag_92:\n        /* \"#utility.yul\":1606:1676   */\n      tag_93\n        /* \"#utility.yul\":1669:1675   */\n      dup2\n        /* \"#utility.yul\":1664:1667   */\n      dup6\n        /* \"#utility.yul\":1606:1676   */\n      tag_48\n      jump\t// in\n    tag_93:\n        /* \"#utility.yul\":1599:1676   */\n      swap4\n      pop\n        /* \"#utility.yul\":1685:1750   */\n      tag_94\n        /* \"#utility.yul\":1743:1749   */\n      dup2\n        /* \"#utility.yul\":1738:1741   */\n      dup6\n        /* \"#utility.yul\":1731:1735   */\n      0x20\n        /* \"#utility.yul\":1724:1729   */\n      dup7\n        /* \"#utility.yul\":1720:1736   */\n      add\n        /* \"#utility.yul\":1685:1750   */\n      tag_49\n      jump\t// in\n    tag_94:\n        /* \"#utility.yul\":1775:1804   */\n      tag_95\n        /* \"#utility.yul\":1797:1803   */\n      dup2\n        /* \"#utility.yul\":1775:1804   */\n      tag_50\n      jump\t// in\n    tag_95:\n        /* \"#utility.yul\":1770:1773   */\n      dup5\n        /* \"#utility.yul\":1766:1805   */\n      add\n        /* \"#utility.yul\":1759:1805   */\n      swap2\n      pop\n        /* \"#utility.yul\":1528:1811   */\n      pop\n        /* \"#utility.yul\":1438:1811   */\n      swap3\n      swap2\n      pop\n      pop\n      jump\t// out\n        /* \"#utility.yul\":1817:2346   */\n    tag_16:\n        /* \"#utility.yul\":1984:1988   */\n      0x00\n        /* \"#utility.yul\":2022:2024   */\n      0x60\n        /* \"#utility.yul\":2011:2020   */\n      dup3\n        /* \"#utility.yul\":2007:2025   */\n      add\n        /* \"#utility.yul\":1999:2025   */\n      swap1\n      pop\n        /* \"#utility.yul\":2035:2106   */\n      tag_97\n        /* \"#utility.yul\":2103:2104   */\n      0x00\n        /* \"#utility.yul\":2092:2101   */\n      dup4\n        /* \"#utility.yul\":2088:2105   */\n      add\n        /* \"#utility.yul\":2079:2085   */\n      dup7\n        /* \"#utility.yul\":2035:2106   */\n      tag_46\n      jump\t// in\n    tag_97:\n        /* \"#utility.yul\":2116:2188   */\n      tag_98\n        /* \"#utility.yul\":2184:2186   */\n      0x20\n        /* \"#utility.yul\":2173:2182   */\n      dup4\n        /* \"#utility.yul\":2169:2187   */\n      add\n        /* \"#utility.yul\":2160:2166   */\n      dup6\n        /* \"#utility.yul\":2116:2188   */\n      tag_43\n      jump\t// in\n    tag_98:\n        /* \"#utility.yul\":2235:2244   */\n      dup2\n        /* \"#utility.yul\":2229:2233   */\n      dup2\n        /* \"#utility.yul\":2225:2245   */\n      sub\n        /* \"#utility.yul\":2220:2222   */\n      0x40\n        /* \"#utility.yul\":2209:2218   */\n      dup4\n        /* \"#utility.yul\":2205:2223   */\n      add\n        /* \"#utility.yul\":2198:2246   */\n      mstore\n        /* \"#utility.yul\":2263:2339   */\n      tag_99\n        /* \"#utility.yul\":2334:2338   */\n      dup2\n        /* \"#utility.yul\":2325:2331   */\n      dup5\n        /* \"#utility.yul\":2263:2339   */\n      tag_51\n      jump\t// in\n    tag_99:\n        /* \"#utility.yul\":2255:2339   */\n      swap1\n      pop\n        /* \"#utility.yul\":1817:2346   */\n      swap5\n      swap4\n      pop\n      pop\n      pop\n      pop\n      jump\t// out\n        /* \"#utility.yul\":2352:2451   */\n    tag_52:\n        /* \"#utility.yul\":2404:2410   */\n      0x00\n        /* \"#utility.yul\":2438:2443   */\n      dup2\n        /* \"#utility.yul\":2432:2444   */\n      mload\n        /* \"#utility.yul\":2422:2444   */\n      swap1\n      pop\n        /* \"#utility.yul\":2352:2451   */\n      swap2\n      swap1\n      pop\n      jump\t// out\n        /* \"#utility.yul\":2457:2626   */\n    tag_53:\n        /* \"#utility.yul\":2541:2552   */\n      0x00\n        /* \"#utility.yul\":2575:2581   */\n      dup3\n        /* \"#utility.yul\":2570:2573   */\n      dup3\n        /* \"#utility.yul\":2563:2582   */\n      mstore\n        /* \"#utility.yul\":2615:2619   */\n      0x20\n        /* \"#utility.yul\":2610:2613   */\n      dup3\n        /* \"#utility.yul\":2606:2620   */\n      add\n        /* \"#utility.yul\":2591:2620   */\n      swap1\n      pop\n        /* \"#utility.yul\":2457:2626   */\n      swap3\n      swap2\n      pop\n      pop\n      jump\t// out\n        /* \"#utility.yul\":2632:3009   */\n    tag_54:\n        /* \"#utility.yul\":2720:2723   */\n      0x00\n        /* \"#utility.yul\":2748:2787   */\n      tag_103\n        /* \"#utility.yul\":2781:2786   */\n      dup3\n        /* \"#utility.yul\":2748:2787   */\n      tag_52\n      jump\t// in\n    tag_103:\n        /* \"#utility.yul\":2803:2874   */\n      tag_104\n        /* \"#utility.yul\":2867:2873   */\n      dup2\n        /* \"#utility.yul\":2862:2865   */\n      dup6\n        /* \"#utility.yul\":2803:2874   */\n      tag_53\n      jump\t// in\n    tag_104:\n        /* \"#utility.yul\":2796:2874   */\n      swap4\n      pop\n        /* \"#utility.yul\":2883:2948   */\n      tag_105\n        /* \"#utility.yul\":2941:2947   */\n      dup2\n        /* \"#utility.yul\":2936:2939   */\n      dup6\n        /* \"#utility.yul\":2929:2933   */\n      0x20\n        /* \"#utility.yul\":2922:2927   */\n      dup7\n        /* \"#utility.yul\":2918:2934   */\n      add\n        /* \"#utility.yul\":2883:2948   */\n      tag_49\n      jump\t// in\n    tag_105:\n        /* \"#utility.yul\":2973:3002   */\n      tag_106\n        /* \"#utility.yul\":2995:3001   */\n      dup2\n        /* \"#utility.yul\":2973:3002   */\n      tag_50\n      jump\t// in\n    tag_106:\n        /* \"#utility.yul\":2968:2971   */\n      dup5\n        /* \"#utility.yul\":2964:3003   */\n      add\n        /* \"#utility.yul\":2957:3003   */\n      swap2\n      pop\n        /* \"#utility.yul\":2724:3009   */\n      pop\n        /* \"#utility.yul\":2632:3009   */\n      swap3\n      swap2\n      pop\n      pop\n      jump\t// out\n        /* \"#utility.yul\":3015:3328   */\n    tag_25:\n        /* \"#utility.yul\":3128:3132   */\n      0x00\n        /* \"#utility.yul\":3166:3168   */\n      0x20\n        /* \"#utility.yul\":3155:3164   */\n      dup3\n        /* \"#utility.yul\":3151:3169   */\n      add\n        /* \"#utility.yul\":3143:3169   */\n      swap1\n      pop\n        /* \"#utility.yul\":3215:3224   */\n      dup2\n        /* \"#utility.yul\":3209:3213   */\n      dup2\n        /* \"#utility.yul\":3205:3225   */\n      sub\n        /* \"#utility.yul\":3201:3202   */\n      0x00\n        /* \"#utility.yul\":3190:3199   */\n      dup4\n        /* \"#utility.yul\":3186:3203   */\n      add\n        /* \"#utility.yul\":3179:3226   */\n      mstore\n        /* \"#utility.yul\":3243:3321   */\n      tag_108\n        /* \"#utility.yul\":3316:3320   */\n      dup2\n        /* \"#utility.yul\":3307:3313   */\n      dup5\n        /* \"#utility.yul\":3243:3321   */\n      tag_54\n      jump\t// in\n    tag_108:\n        /* \"#utility.yul\":3235:3321   */\n      swap1\n      pop\n        /* \"#utility.yul\":3015:3328   */\n      swap3\n      swap2\n      pop\n      pop\n      jump\t// out\n        /* \"#utility.yul\":3334:3514   */\n    tag_55:\n        /* \"#utility.yul\":3382:3459   */\n      0x4e487b7100000000000000000000000000000000000000000000000000000000\n        /* \"#utility.yul\":3379:3380   */\n      0x00\n        /* \"#utility.yul\":3372:3460   */\n      mstore\n        /* \"#utility.yul\":3479:3483   */\n      0x41\n        /* \"#utility.yul\":3476:3477   */\n      0x04\n        /* \"#utility.yul\":3469:3484   */\n      mstore\n        /* \"#utility.yul\":3503:3507   */\n      0x24\n        /* \"#utility.yul\":3500:3501   */\n      0x00\n        /* \"#utility.yul\":3493:3508   */\n      revert\n        /* \"#utility.yul\":3520:3700   */\n    tag_56:\n        /* \"#utility.yul\":3568:3645   */\n      0x4e487b7100000000000000000000000000000000000000000000000000000000\n        /* \"#utility.yul\":3565:3566   */\n      0x00\n        /* \"#utility.yul\":3558:3646   */\n      mstore\n        /* \"#utility.yul\":3665:3669   */\n      0x22\n        /* \"#utility.yul\":3662:3663   */\n      0x04\n        /* \"#utility.yul\":3655:3670   */\n      mstore\n        /* \"#utility.yul\":3689:3693   */\n      0x24\n        /* \"#utility.yul\":3686:3687   */\n      0x00\n        /* \"#utility.yul\":3679:3694   */\n      revert\n        /* \"#utility.yul\":3706:4026   */\n    tag_34:\n        /* \"#utility.yul\":3750:3756   */\n      0x00\n        /* \"#utility.yul\":3787:3788   */\n      0x02\n        /* \"#utility.yul\":3781:3785   */\n      dup3\n        /* \"#utility.yul\":3777:3789   */\n      div\n        /* \"#utility.yul\":3767:3789   */\n      swap1\n      pop\n        /* \"#utility.yul\":3834:3835   */\n      0x01\n        /* \"#utility.yul\":3828:3832   */\n      dup3\n        /* \"#utility.yul\":3824:3836   */\n      and\n        /* \"#utility.yul\":3855:3873   */\n      dup1\n        /* \"#utility.yul\":3845:3926   */\n      tag_112\n      jumpi\n        /* \"#utility.yul\":3911:3915   */\n      0x7f\n        /* \"#utility.yul\":3903:3909   */\n      dup3\n        /* \"#utility.yul\":3899:3916   */\n      and\n        /* \"#utility.yul\":3889:3916   */\n      swap2\n      pop\n        /* \"#utility.yul\":3845:3926   */\n    tag_112:\n        /* \"#utility.yul\":3973:3975   */\n      0x20\n        /* \"#utility.yul\":3965:3971   */\n      dup3\n        /* \"#utility.yul\":3962:3976   */\n      lt\n        /* \"#utility.yul\":3942:3960   */\n      dup2\n        /* \"#utility.yul\":3939:3977   */\n      sub\n        /* \"#utility.yul\":3936:4020   */\n      tag_113\n      jumpi\n        /* \"#utility.yul\":3992:4010   */\n      tag_114\n      tag_56\n      jump\t// in\n    tag_114:\n        /* \"#utility.yul\":3936:4020   */\n    tag_113:\n        /* \"#utility.yul\":3757:4026   */\n      pop\n        /* \"#utility.yul\":3706:4026   */\n      swap2\n      swap1\n      pop\n      jump\t// out\n        /* \"#utility.yul\":4032:4173   */\n    tag_57:\n        /* \"#utility.yul\":4081:4085   */\n      0x00\n        /* \"#utility.yul\":4104:4107   */\n      dup2\n        /* \"#utility.yul\":4096:4107   */\n      swap1\n      pop\n        /* \"#utility.yul\":4127:4130   */\n      dup2\n        /* \"#utility.yul\":4124:4125   */\n      0x00\n        /* \"#utility.yul\":4117:4131   */\n      mstore\n        /* \"#utility.yul\":4161:4165   */\n      0x20\n        /* \"#utility.yul\":4158:4159   */\n      0x00\n        /* \"#utility.yul\":4148:4166   */\n      keccak256\n        /* \"#utility.yul\":4140:4166   */\n      swap1\n      pop\n        /* \"#utility.yul\":4032:4173   */\n      swap2\n      swap1\n      pop\n      jump\t// out\n        /* \"#utility.yul\":4179:4272   */\n    tag_58:\n        /* \"#utility.yul\":4216:4222   */\n      0x00\n        /* \"#utility.yul\":4263:4265   */\n      0x20\n        /* \"#utility.yul\":4258:4260   */\n      0x1f\n        /* \"#utility.yul\":4251:4256   */\n      dup4\n        /* \"#utility.yul\":4247:4261   */\n      add\n        /* \"#utility.yul\":4243:4266   */\n      div\n        /* \"#utility.yul\":4233:4266   */\n      swap1\n      pop\n        /* \"#utility.yul\":4179:4272   */\n      swap2\n      swap1\n      pop\n      jump\t// out\n        /* \"#utility.yul\":4278:4385   */\n    tag_59:\n        /* \"#utility.yul\":4322:4330   */\n      0x00\n        /* \"#utility.yul\":4372:4377   */\n      dup3\n        /* \"#utility.yul\":4366:4370   */\n      dup3\n        /* \"#utility.yul\":4362:4378   */\n      shl\n        /* \"#utility.yul\":4341:4378   */\n      swap1\n      pop\n        /* \"#utility.yul\":4278:4385   */\n      swap3\n      swap2\n      pop\n      pop\n      jump\t// out\n        /* \"#utility.yul\":4391:4784   */\n    tag_60:\n        /* \"#utility.yul\":4460:4466   */\n      0x00\n        /* \"#utility.yul\":4510:4511   */\n      0x08\n        /* \"#utility.yul\":4498:4508   */\n      dup4\n        /* \"#utility.yul\":4494:4512   */\n      mul\n        /* \"#utility.yul\":4533:4630   */\n      tag_119\n        /* \"#utility.yul\":4563:4629   */\n      0xffffffffffffffffffffffffffffffffffffffffffffffffffffffffffffffff\n        /* \"#utility.yul\":4552:4561   */\n      dup3\n        /* \"#utility.yul\":4533:4630   */\n      tag_59\n      jump\t// in\n    tag_119:\n        /* \"#utility.yul\":4651:4690   */\n      tag_120\n        /* \"#utility.yul\":4681:4689   */\n      dup7\n        /* \"#utility.yul\":4670:4679   */\n      dup4\n        /* \"#utility.yul\":4651:4690   */\n      tag_59\n      jump\t// in\n    tag_120:\n        /* \"#utility.yul\":4639:4690   */\n      swap6\n      pop\n        /* \"#utility.yul\":4723:4727   */\n      dup1\n        /* \"#utility.yul\":4719:4728   */\n      not\n        /* \"#utility.yul\":4712:4717   */\n      dup5\n        /* \"#utility.yul\":4708:4729   */\n      and\n        /* \"#utility.yul\":4699:4729   */\n      swap4\n      pop\n        /* \"#utility.yul\":4772:4776   */\n      dup1\n        /* \"#utility.yul\":4762:4770   */\n      dup7\n        /* \"#utility.yul\":4758:4777   */\n      and\n        /* \"#utility.yul\":4751:4756   */\n      dup5\n        /* \"#utility.yul\":4748:4778   */\n      or\n        /* \"#utility.yul\":4738:4778   */\n      swap3\n      pop\n        /* \"#utility.yul\":4467:4784   */\n      pop\n      pop\n        /* \"#utility.yul\":4391:4784   */\n      swap4\n      swap3\n      pop\n      pop\n      pop\n      jump\t// out\n        /* \"#utility.yul\":4790:4850   */\n    tag_61:\n        /* \"#utility.yul\":4818:4821   */\n      0x00\n        /* \"#utility.yul\":4839:4844   */\n      dup2\n        /* \"#utility.yul\":4832:4844   */\n      swap1\n      pop\n        /* \"#utility.yul\":4790:4850   */\n      swap2\n      swap1\n      pop\n      jump\t// out\n        /* \"#utility.yul\":4856:4998   */\n    tag_62:\n        /* \"#utility.yul\":4906:4915   */\n      0x00\n        /* \"#utility.yul\":4939:4992   */\n      tag_123\n        /* \"#utility.yul\":4957:4991   */\n      tag_124\n        /* \"#utility.yul\":4966:4990   */\n      tag_125\n        /* \"#utility.yul\":4984:4989   */\n      dup5\n        /* \"#utility.yul\":4966:4990   */\n      tag_42\n      jump\t// in\n    tag_125:\n        /* \"#utility.yul\":4957:4991   */\n      tag_61\n      jump\t// in\n    tag_124:\n        /* \"#utility.yul\":4939:4992   */\n      tag_42\n      jump\t// in\n    tag_123:\n        /* \"#utility.yul\":4926:4992   */\n      swap1\n      pop\n        /* \"#utility.yul\":4856:4998   */\n      swap2\n      swap1\n      pop\n      jump\t// out\n        /* \"#utility.yul\":5004:5079   */\n    tag_63:\n        /* \"#utility.yul\":5047:5050   */\n      0x00\n        /* \"#utility.yul\":5068:5073   */\n      dup2\n        /* \"#utility.yul\":5061:5073   */\n      swap1\n      pop\n        /* \"#utility.yul\":5004:5079   */\n      swap2\n      swap1\n      pop\n      jump\t// out\n        /* \"#utility.yul\":5085:5354   */\n    tag_64:\n        /* \"#utility.yul\":5195:5234   */\n      tag_128\n        /* \"#utility.yul\":5226:5233   */\n      dup4\n        /* \"#utility.yul\":5195:5234   */\n      tag_62\n      jump\t// in\n    tag_128:\n        /* \"#utility.yul\":5256:5347   */\n      tag_129\n        /* \"#utility.yul\":5305:5346   */\n      tag_130\n        /* \"#utility.yul\":5329:5345   */\n      dup3\n        /* \"#utility.yul\":5305:5346   */\n      tag_63\n      jump\t// in\n    tag_130:\n        /* \"#utility.yul\":5297:5303   */\n      dup5\n        /* \"#utility.yul\":5290:5294   */\n      dup5\n        /* \"#utility.yul\":5284:5295   */\n      sload\n        /* \"#utility.yul\":5256:5347   */\n      tag_60\n      jump\t// in\n    tag_129:\n        /* \"#utility.yul\":5250:5254   */\n      dup3\n        /* \"#utility.yul\":5243:5348   */\n      sstore\n        /* \"#utility.yul\":5161:5354   */\n      pop\n        /* \"#utility.yul\":5085:5354   */\n      pop\n      pop\n      pop\n      jump\t// out\n        /* \"#utility.yul\":5360:5433   */\n    tag_65:\n        /* \"#utility.yul\":5405:5408   */\n      0x00\n        /* \"#utility.yul\":5360:5433   */\n      swap1\n      jump\t// out\n        /* \"#utility.yul\":5439:5628   */\n    tag_66:\n        /* \"#utility.yul\":5516:5548   */\n      tag_133\n      tag_65\n      jump\t// in\n    tag_133:\n        /* \"#utility.yul\":5557:5622   */\n      tag_134\n        /* \"#utility.yul\":5615:5621   */\n      dup2\n        /* \"#utility.yul\":5607:5613   */\n      dup5\n        /* \"#utility.yul\":5601:5605   */\n      dup5\n        /* \"#utility.yul\":5557:5622   */\n      tag_64\n      jump\t// in\n    tag_134:\n        /* \"#utility.yul\":5492:5628   */\n      pop\n        /* \"#utility.yul\":5439:5628   */\n      pop\n      pop\n      jump\t// out\n        /* \"#utility.yul\":5634:5820   */\n    tag_67:\n        /* \"#utility.yul\":5694:5814   */\n    tag_136:\n        /* \"#utility.yul\":5711:5714   */\n      dup2\n        /* \"#utility.yul\":5704:5709   */\n      dup2\n        /* \"#utility.yul\":5701:5715   */\n      lt\n        /* \"#utility.yul\":5694:5814   */\n      iszero\n      tag_138\n      jumpi\n        /* \"#utility.yul\":5765:5804   */\n      tag_139\n        /* \"#utility.yul\":5802:5803   */\n      0x00\n        /* \"#utility.yul\":5795:5800   */\n      dup3\n        /* \"#utility.yul\":5765:5804   */\n      tag_66\n      jump\t// in\n    tag_139:\n        /* \"#utility.yul\":5738:5739   */\n      0x01\n        /* \"#utility.yul\":5731:5736   */\n      dup2\n        /* \"#utility.yul\":5727:5740   */\n      add\n        /* \"#utility.yul\":5718:5740   */\n      swap1\n      pop\n        /* \"#utility.yul\":5694:5814   */\n      jump(tag_136)\n    tag_138:\n        /* \"#utility.yul\":5634:5820   */\n      pop\n      pop\n      jump\t// out\n        /* \"#utility.yul\":5826:6369   */\n    tag_68:\n        /* \"#utility.yul\":5927:5929   */\n      0x1f\n        /* \"#utility.yul\":5922:5925   */\n      dup3\n        /* \"#utility.yul\":5919:5930   */\n      gt\n        /* \"#utility.yul\":5916:6362   */\n      iszero\n      tag_141\n      jumpi\n        /* \"#utility.yul\":5961:5999   */\n      tag_142\n        /* \"#utility.yul\":5993:5998   */\n      dup2\n        /* \"#utility.yul\":5961:5999   */\n      tag_57\n      jump\t// in\n    tag_142:\n        /* \"#utility.yul\":6045:6074   */\n      tag_143\n        /* \"#utility.yul\":6063:6073   */\n      dup5\n        /* \"#utility.yul\":6045:6074   */\n      tag_58\n      jump\t// in\n    tag_143:\n        /* \"#utility.yul\":6035:6043   */\n      dup2\n        /* \"#utility.yul\":6031:6075   */\n      add\n        /* \"#utility.yul\":6228:6230   */\n      0x20\n        /* \"#utility.yul\":6216:6226   */\n      dup6\n        /* \"#utility.yul\":6213:6231   */\n      lt\n        /* \"#utility.yul\":6210:6259   */\n      iszero\n      tag_144\n      jumpi\n        /* \"#utility.yul\":6249:6257   */\n      dup2\n        /* \"#utility.yul\":6234:6257   */\n      swap1\n      pop\n        /* \"#utility.yul\":6210:6259   */\n    tag_144:\n        /* \"#utility.yul\":6272:6352   */\n      tag_145\n        /* \"#utility.yul\":6328:6350   */\n      tag_146\n        /* \"#utility.yul\":6346:6349   */\n      dup6\n        /* \"#utility.yul\":6328:6350   */\n      tag_58\n      jump\t// in\n    tag_146:\n        /* \"#utility.yul\":6318:6326   */\n      dup4\n        /* \"#utility.yul\":6314:6351   */\n      add\n        /* \"#utility.yul\":6301:6312   */\n      dup3\n        /* \"#utility.yul\":6272:6352   */\n      tag_67\n      jump\t// in\n    tag_145:\n        /* \"#utility.yul\":5931:6362   */\n      pop\n      pop\n        /* \"#utility.yul\":5916:6362   */\n    tag_141:\n        /* \"#utility.yul\":5826:6369   */\n      pop\n      pop\n      pop\n      jump\t// out\n        /* \"#utility.yul\":6375:6492   */\n    tag_69:\n        /* \"#utility.yul\":6429:6437   */\n      0x00\n        /* \"#utility.yul\":6479:6484   */\n      dup3\n        /* \"#utility.yul\":6473:6477   */\n      dup3\n        /* \"#utility.yul\":6469:6485   */\n      shr\n        /* \"#utility.yul\":6448:6485   */\n      swap1\n      pop\n        /* \"#utility.yul\":6375:6492   */\n      swap3\n      swap2\n      pop\n      pop\n      jump\t// out\n        /* \"#utility.yul\":6498:6667   */\n    tag_70:\n        /* \"#utility.yul\":6542:6548   */\n      0x00\n        /* \"#utility.yul\":6575:6626   */\n      tag_149\n        /* \"#utility.yul\":6623:6624   */\n      0x00\n        /* \"#utility.yul\":6619:6625   */\n      not\n        /* \"#utility.yul\":6611:6616   */\n      dup5\n        /* \"#utility.yul\":6608:6609   */\n      0x08\n        /* \"#utility.yul\":6604:6617   */\n      mul\n        /* \"#utility.yul\":6575:6626   */\n      tag_69\n      jump\t// in\n    tag_149:\n        /* \"#utility.yul\":6571:6627   */\n      not\n        /* \"#utility.yul\":6656:6660   */\n      dup1\n        /* \"#utility.yul\":6650:6654   */\n      dup4\n        /* \"#utility.yul\":6646:6661   */\n      and\n        /* \"#utility.yul\":6636:6661   */\n      swap2\n      pop\n        /* \"#utility.yul\":6549:6667   */\n      pop\n        /* \"#utility.yul\":6498:6667   */\n      swap3\n      swap2\n      pop\n      pop\n      jump\t// out\n        /* \"#utility.yul\":6672:6967   */\n    tag_71:\n        /* \"#utility.yul\":6748:6752   */\n      0x00\n        /* \"#utility.yul\":6894:6923   */\n      tag_151\n        /* \"#utility.yul\":6919:6922   */\n      dup4\n        /* \"#utility.yul\":6913:6917   */\n      dup4\n        /* \"#utility.yul\":6894:6923   */\n      tag_70\n      jump\t// in\n    tag_151:\n        /* \"#utility.yul\":6886:6923   */\n      swap2\n      pop\n        /* \"#utility.yul\":6956:6959   */\n      dup3\n        /* \"#utility.yul\":6953:6954   */\n      0x02\n        /* \"#utility.yul\":6949:6960   */\n      mul\n        /* \"#utility.yul\":6943:6947   */\n      dup3\n        /* \"#utility.yul\":6940:6961   */\n      or\n        /* \"#utility.yul\":6932:6961   */\n      swap1\n      pop\n        /* \"#utility.yul\":6672:6967   */\n      swap3\n      swap2\n      pop\n      pop\n      jump\t// out\n        /* \"#utility.yul\":6972:8367   */\n    tag_32:\n        /* \"#utility.yul\":7089:7126   */\n      tag_153\n        /* \"#utility.yul\":7122:7125   */\n      dup3\n        /* \"#utility.yul\":7089:7126   */\n      tag_52\n      jump\t// in\n    tag_153:\n        /* \"#utility.yul\":7191:7209   */\n      0xffffffffffffffff\n        /* \"#utility.yul\":7183:7189   */\n      dup2\n        /* \"#utility.yul\":7180:7210   */\n      gt\n        /* \"#utility.yul\":7177:7233   */\n      iszero\n      tag_154\n      jumpi\n        /* \"#utility.yul\":7213:7231   */\n      tag_155\n      tag_55\n      jump\t// in\n    tag_155:\n        /* \"#utility.yul\":7177:7233   */\n    tag_154:\n        /* \"#utility.yul\":7257:7295   */\n      tag_156\n        /* \"#utility.yul\":7289:7293   */\n      dup3\n        /* \"#utility.yul\":7283:7294   */\n      sload\n        /* \"#utility.yul\":7257:7295   */\n      tag_34\n      jump\t// in\n    tag_156:\n        /* \"#utility.yul\":7342:7409   */\n      tag_157\n        /* \"#utility.yul\":7402:7408   */\n      dup3\n        /* \"#utility.yul\":7394:7400   */\n      dup3\n        /* \"#utility.yul\":7388:7392   */\n      dup6\n        /* \"#utility.yul\":7342:7409   */\n      tag_68\n      jump\t// in\n    tag_157:\n        /* \"#utility.yul\":7436:7437   */\n      0x00\n        /* \"#utility.yul\":7460:7464   */\n      0x20\n        /* \"#utility.yul\":7447:7464   */\n      swap1\n      pop\n        /* \"#utility.yul\":7492:7494   */\n      0x1f\n        /* \"#utility.yul\":7484:7490   */\n      dup4\n        /* \"#utility.yul\":7481:7495   */\n      gt\n        /* \"#utility.yul\":7509:7510   */\n      0x01\n        /* \"#utility.yul\":7504:8122   */\n      dup2\n      eq\n      tag_159\n      jumpi\n        /* \"#utility.yul\":8166:8167   */\n      0x00\n        /* \"#utility.yul\":8183:8189   */\n      dup5\n        /* \"#utility.yul\":8180:8257   */\n      iszero\n      tag_160\n      jumpi\n        /* \"#utility.yul\":8232:8241   */\n      dup3\n        /* \"#utility.yul\":8227:8230   */\n      dup8\n        /* \"#utility.yul\":8223:8242   */\n      add\n        /* \"#utility.yul\":8217:8243   */\n      mload\n        /* \"#utility.yul\":8208:8243   */\n      swap1\n      pop\n        /* \"#utility.yul\":8180:8257   */\n    tag_160:\n        /* \"#utility.yul\":8283:8350   */\n      tag_161\n        /* \"#utility.yul\":8343:8349   */\n      dup6\n        /* \"#utility.yul\":8336:8341   */\n      dup3\n        /* \"#utility.yul\":8283:8350   */\n      tag_71\n      jump\t// in\n    tag_161:\n        /* \"#utility.yul\":8277:8281   */\n      dup7\n        /* \"#utility.yul\":8270:8351   */\n      sstore\n        /* \"#utility.yul\":8139:8361   */\n      pop\n        /* \"#utility.yul\":7474:8361   */\n      jump(tag_158)\n        /* \"#utility.yul\":7504:8122   */\n    tag_159:\n        /* \"#utility.yul\":7556:7560   */\n      0x1f\n        /* \"#utility.yul\":7552:7561   */\n      not\n        /* \"#utility.yul\":7544:7550   */\n      dup5\n        /* \"#utility.yul\":7540:7562   */\n      and\n        /* \"#utility.yul\":7590:7627   */\n      tag_162\n        /* \"#utility.yul\":7622:7626   */\n      dup7\n        /* \"#utility.yul\":7590:7627   */\n      tag_57\n      jump\t// in\n    tag_162:\n        /* \"#utility.yul\":7649:7650   */\n      0x00\n        /* \"#utility.yul\":7663:7871   */\n    tag_163:\n        /* \"#utility.yul\":7677:7684   */\n      dup3\n        /* \"#utility.yul\":7674:7675   */\n      dup2\n        /* \"#utility.yul\":7671:7685   */\n      lt\n        /* \"#utility.yul\":7663:7871   */\n      iszero\n      tag_165\n      jumpi\n        /* \"#utility.yul\":7756:7765   */\n      dup5\n        /* \"#utility.yul\":7751:7754   */\n      dup10\n        /* \"#utility.yul\":7747:7766   */\n      add\n        /* \"#utility.yul\":7741:7767   */\n      mload\n        /* \"#utility.yul\":7733:7739   */\n      dup3\n        /* \"#utility.yul\":7726:7768   */\n      sstore\n        /* \"#utility.yul\":7807:7808   */\n      0x01\n        /* \"#utility.yul\":7799:7805   */\n      dup3\n        /* \"#utility.yul\":7795:7809   */\n      add\n        /* \"#utility.yul\":7785:7809   */\n      swap2\n      pop\n        /* \"#utility.yul\":7854:7856   */\n      0x20\n        /* \"#utility.yul\":7843:7852   */\n      dup6\n        /* \"#utility.yul\":7839:7857   */\n      add\n        /* \"#utility.yul\":7826:7857   */\n      swap5\n      pop\n        /* \"#utility.yul\":7700:7704   */\n      0x20\n        /* \"#utility.yul\":7697:7698   */\n      dup2\n        /* \"#utility.yul\":7693:7705   */\n      add\n        /* \"#utility.yul\":7688:7705   */\n      swap1\n      pop\n        /* \"#utility.yul\":7663:7871   */\n      jump(tag_163)\n    tag_165:\n        /* \"#utility.yul\":7899:7905   */\n      dup7\n        /* \"#utility.yul\":7890:7897   */\n      dup4\n        /* \"#utility.yul\":7887:7906   */\n      lt\n        /* \"#utility.yul\":7884:8063   */\n      iszero\n      tag_166\n      jumpi\n        /* \"#utility.yul\":7957:7966   */\n      dup5\n        /* \"#utility.yul\":7952:7955   */\n      dup10\n        /* \"#utility.yul\":7948:7967   */\n      add\n        /* \"#utility.yul\":7942:7968   */\n      mload\n        /* \"#utility.yul\":8000:8048   */\n      tag_167\n        /* \"#utility.yul\":8042:8046   */\n      0x1f\n        /* \"#utility.yul\":8034:8040   */\n      dup10\n        /* \"#utility.yul\":8030:8047   */\n      and\n        /* \"#utility.yul\":8019:8028   */\n      dup3\n        /* \"#utility.yul\":8000:8048   */\n      tag_70\n      jump\t// in\n    tag_167:\n        /* \"#utility.yul\":7992:7998   */\n      dup4\n        /* \"#utility.yul\":7985:8049   */\n      sstore\n        /* \"#utility.yul\":7907:8063   */\n      pop\n        /* \"#utility.yul\":7884:8063   */\n    tag_166:\n        /* \"#utility.yul\":8109:8110   */\n      0x01\n        /* \"#utility.yul\":8105:8106   */\n      0x02\n        /* \"#utility.yul\":8097:8103   */\n      dup9\n        /* \"#utility.yul\":8093:8107   */\n      mul\n        /* \"#utility.yul\":8089:8111   */\n      add\n        /* \"#utility.yul\":8083:8087   */\n      dup9\n        /* \"#utility.yul\":8076:8112   */\n      sstore\n        /* \"#utility.yul\":7511:8122   */\n      pop\n      pop\n      pop\n        /* \"#utility.yul\":7474:8361   */\n    tag_158:\n      pop\n        /* \"#utility.yul\":7064:8367   */\n      pop\n      pop\n      pop\n        /* \"#utility.yul\":6972:8367   */\n      pop\n      pop\n      jump\t// out\n        /* \"#utility.yul\":8373:8553   */\n    tag_72:\n        /* \"#utility.yul\":8421:8498   */\n      0x4e487b7100000000000000000000000000000000000000000000000000000000\n        /* \"#utility.yul\":8418:8419   */\n      0x00\n        /* \"#utility.yul\":8411:8499   */\n      mstore\n        /* \"#utility.yul\":8518:8522   */\n      0x11\n        /* \"#utility.yul\":8515:8516   */\n      0x04\n        /* \"#utility.yul\":8508:8523   */\n      mstore\n        /* \"#utility.yul\":8542:8546   */\n      0x24\n        /* \"#utility.yul\":8539:8540   */\n      0x00\n        /* \"#utility.yul\":8532:8547   */\n      revert\n        /* \"#utility.yul\":8559:8750   */\n    tag_41:\n        /* \"#utility.yul\":8599:8602   */\n      0x00\n        /* \"#utility.yul\":8618:8638   */\n      tag_170\n        /* \"#utility.yul\":8636:8637   */\n      dup3\n        /* \"#utility.yul\":8618:8638   */\n      tag_42\n      jump\t// in\n    tag_170:\n        /* \"#utility.yul\":8613:8638   */\n      swap2\n      pop\n        /* \"#utility.yul\":8652:8672   */\n      tag_171\n        /* \"#utility.yul\":8670:8671   */\n      dup4\n        /* \"#utility.yul\":8652:8672   */\n      tag_42\n      jump\t// in\n    tag_171:\n        /* \"#utility.yul\":8647:8672   */\n      swap3\n      pop\n        /* \"#utility.yul\":8695:8696   */\n      dup3\n        /* \"#utility.yul\":8692:8693   */\n      dup3\n        /* \"#utility.yul\":8688:8697   */\n      add\n        /* \"#utility.yul\":8681:8697   */\n      swap1\n      pop\n        /* \"#utility.yul\":8716:8719   */\n      dup1\n        /* \"#utility.yul\":8713:8714   */\n      dup3\n        /* \"#utility.yul\":8710:8720   */\n      gt\n        /* \"#utility.yul\":8707:8743   */\n      iszero\n      tag_172\n      jumpi\n        /* \"#utility.yul\":8723:8741   */\n      tag_173\n      tag_72\n      jump\t// in\n    tag_173:\n        /* \"#utility.yul\":8707:8743   */\n    tag_172:\n        /* \"#utility.yul\":8559:8750   */\n      swap3\n      swap2\n      pop\n      pop\n      jump\t// out\n\n    auxdata: 0xa2646970667358221220a0a4c6e25378c3aa182355c239dd06e20075d40458f2e6b8d908fb03b432ece564736f6c63430008120033\n}\n",
				"bytecode": {
					"linkReferences": {},
					"object": "6080604052600160005534801561001557600080fd5b506107e9806100256000396000f3fe608060405234801561001057600080fd5b50600436106100625760003560e01c80630c55699c14610067578063a05f990614610085578063a56dfe4a146100a5578063c2985578146100c3578063c5d7802e146100cd578063febb0f7e146100eb575b600080fd5b61006f610109565b60405161007c91906102a2565b60405180910390f35b61008d61010f565b60405161009c9392919061038e565b60405180910390f35b6100ad610178565b6040516100ba91906102a2565b60405180910390f35b6100cb61017e565b005b6100d56101d5565b6040516100e29190610421565b60405180910390f35b6100f3610263565b60405161010091906102a2565b60405180910390f35b60005481565b600080606060003390506000439050600080368080601f016020809104026020016040519081016040528093929190818152602001838380828437600081840152601f19601f820116905080830192505050505050509050828282955095509550505050909192565b60015481565b600a60008190555060146001819055506040518060400160405280600681526020017f6f72616e67650000000000000000000000000000000000000000000000000000815250600290816101d2919061067e565b50565b600280546101e2906104a1565b80601f016020809104026020016040519081016040528092919081815260200182805461020e906104a1565b801561025b5780601f106102305761010080835404028352916020019161025b565b820191906000526020600020905b81548152906001019060200180831161023e57829003601f168201915b505050505081565b60008060649050600060c890506000818361027e919061077f565b905080935050505090565b6000819050919050565b61029c81610289565b82525050565b60006020820190506102b76000830184610293565b92915050565b600073ffffffffffffffffffffffffffffffffffffffff82169050919050565b60006102e8826102bd565b9050919050565b6102f8816102dd565b82525050565b600081519050919050565b600082825260208201905092915050565b60005b8381101561033857808201518184015260208101905061031d565b60008484015250505050565b6000601f19601f8301169050919050565b6000610360826102fe565b61036a8185610309565b935061037a81856020860161031a565b61038381610344565b840191505092915050565b60006060820190506103a360008301866102ef565b6103b06020830185610293565b81810360408301526103c28184610355565b9050949350505050565b600081519050919050565b600082825260208201905092915050565b60006103f3826103cc565b6103fd81856103d7565b935061040d81856020860161031a565b61041681610344565b840191505092915050565b6000602082019050818103600083015261043b81846103e8565b905092915050565b7f4e487b7100000000000000000000000000000000000000000000000000000000600052604160045260246000fd5b7f4e487b7100000000000000000000000000000000000000000000000000000000600052602260045260246000fd5b600060028204905060018216806104b957607f821691505b6020821081036104cc576104cb610472565b5b50919050565b60008190508160005260206000209050919050565b60006020601f8301049050919050565b600082821b905092915050565b6000600883026105347fffffffffffffffffffffffffffffffffffffffffffffffffffffffffffffffff826104f7565b61053e86836104f7565b95508019841693508086168417925050509392505050565b6000819050919050565b600061057b61057661057184610289565b610556565b610289565b9050919050565b6000819050919050565b61059583610560565b6105a96105a182610582565b848454610504565b825550505050565b600090565b6105be6105b1565b6105c981848461058c565b505050565b5b818110156105ed576105e26000826105b6565b6001810190506105cf565b5050565b601f82111561063257610603816104d2565b61060c846104e7565b8101602085101561061b578190505b61062f610627856104e7565b8301826105ce565b50505b505050565b600082821c905092915050565b600061065560001984600802610637565b1980831691505092915050565b600061066e8383610644565b9150826002028217905092915050565b610687826103cc565b67ffffffffffffffff8111156106a05761069f610443565b5b6106aa82546104a1565b6106b58282856105f1565b600060209050601f8311600181146106e857600084156106d6578287015190505b6106e08582610662565b865550610748565b601f1984166106f6866104d2565b60005b8281101561071e578489015182556001820191506020850194506020810190506106f9565b8683101561073b5784890151610737601f891682610644565b8355505b6001600288020188555050505b505050505050565b7f4e487b7100000000000000000000000000000000000000000000000000000000600052601160045260246000fd5b600061078a82610289565b915061079583610289565b92508282019050808211156107ad576107ac610750565b5b9291505056fea2646970667358221220a0a4c6e25378c3aa182355c239dd06e20075d40458f2e6b8d908fb03b432ece564736f6c63430008120033",
					"opcodes": "PUSH1 0x80 PUSH1 0x40 MSTORE PUSH1 0x1 PUSH1 0x0 SSTORE CALLVALUE DUP1 ISZERO PUSH2 0x15 JUMPI PUSH1 0x0 DUP1 REVERT JUMPDEST POP PUSH2 0x7E9 DUP1 PUSH2 0x25 PUSH1 0x0 CODECOPY PUSH1 0x0 RETURN INVALID PUSH1 0x80 PUSH1 0x40 MSTORE CALLVALUE DUP1 ISZERO PUSH2 0x10 JUMPI PUSH1 0x0 DUP1 REVERT JUMPDEST POP PUSH1 0x4 CALLDATASIZE LT PUSH2 0x62 JUMPI PUSH1 0x0 CALLDATALOAD PUSH1 0xE0 SHR DUP1 PUSH4 0xC55699C EQ PUSH2 0x67 JUMPI DUP1 PUSH4 0xA05F9906 EQ PUSH2 0x85 JUMPI DUP1 PUSH4 0xA56DFE4A EQ PUSH2 0xA5 JUMPI DUP1 PUSH4 0xC2985578 EQ PUSH2 0xC3 JUMPI DUP1 PUSH4 0xC5D7802E EQ PUSH2 0xCD JUMPI DUP1 PUSH4 0xFEBB0F7E EQ PUSH2 0xEB JUMPI JUMPDEST PUSH1 0x0 DUP1 REVERT JUMPDEST PUSH2 0x6F PUSH2 0x109 JUMP JUMPDEST PUSH1 0x40 MLOAD PUSH2 0x7C SWAP2 SWAP1 PUSH2 0x2A2 JUMP JUMPDEST PUSH1 0x40 MLOAD DUP1 SWAP2 SUB SWAP1 RETURN JUMPDEST PUSH2 0x8D PUSH2 0x10F JUMP JUMPDEST PUSH1 0x40 MLOAD PUSH2 0x9C SWAP4 SWAP3 SWAP2 SWAP1 PUSH2 0x38E JUMP JUMPDEST PUSH1 0x40 MLOAD DUP1 SWAP2 SUB SWAP1 RETURN JUMPDEST PUSH2 0xAD PUSH2 0x178 JUMP JUMPDEST PUSH1 0x40 MLOAD PUSH2 0xBA SWAP2 SWAP1 PUSH2 0x2A2 JUMP JUMPDEST PUSH1 0x40 MLOAD DUP1 SWAP2 SUB SWAP1 RETURN JUMPDEST PUSH2 0xCB PUSH2 0x17E JUMP JUMPDEST STOP JUMPDEST PUSH2 0xD5 PUSH2 0x1D5 JUMP JUMPDEST PUSH1 0x40 MLOAD PUSH2 0xE2 SWAP2 SWAP1 PUSH2 0x421 JUMP JUMPDEST PUSH1 0x40 MLOAD DUP1 SWAP2 SUB SWAP1 RETURN JUMPDEST PUSH2 0xF3 PUSH2 0x263 JUMP JUMPDEST PUSH1 0x40 MLOAD PUSH2 0x100 SWAP2 SWAP1 PUSH2 0x2A2 JUMP JUMPDEST PUSH1 0x40 MLOAD DUP1 SWAP2 SUB SWAP1 RETURN JUMPDEST PUSH1 0x0 SLOAD DUP2 JUMP JUMPDEST PUSH1 0x0 DUP1 PUSH1 0x60 PUSH1 0x0 CALLER SWAP1 POP PUSH1 0x0 NUMBER SWAP1 POP PUSH1 0x0 DUP1 CALLDATASIZE DUP1 DUP1 PUSH1 0x1F ADD PUSH1 0x20 DUP1 SWAP2 DIV MUL PUSH1 0x20 ADD PUSH1 0x40 MLOAD SWAP1 DUP2 ADD PUSH1 0x40 MSTORE DUP1 SWAP4 SWAP3 SWAP2 SWAP1 DUP2 DUP2 MSTORE PUSH1 0x20 ADD DUP4 DUP4 DUP1 DUP3 DUP5 CALLDATACOPY PUSH1 0x0 DUP2 DUP5 ADD MSTORE PUSH1 0x1F NOT PUSH1 0x1F DUP3 ADD AND SWAP1 POP DUP1 DUP4 ADD SWAP3 POP POP POP POP POP POP POP SWAP1 POP DUP3 DUP3 DUP3 SWAP6 POP SWAP6 POP SWAP6 POP POP POP POP SWAP1 SWAP2 SWAP3 JUMP JUMPDEST PUSH1 0x1 SLOAD DUP2 JUMP JUMPDEST PUSH1 0xA PUSH1 0x0 DUP2 SWAP1 SSTORE POP PUSH1 0x14 PUSH1 0x1 DUP2 SWAP1 SSTORE POP PUSH1 0x40 MLOAD DUP1 PUSH1 0x40 ADD PUSH1 0x40 MSTORE DUP1 PUSH1 0x6 DUP2 MSTORE PUSH1 0x20 ADD PUSH32 0x6F72616E67650000000000000000000000000000000000000000000000000000 DUP2 MSTORE POP PUSH1 0x2 SWAP1 DUP2 PUSH2 0x1D2 SWAP2 SWAP1 PUSH2 0x67E JUMP JUMPDEST POP JUMP JUMPDEST PUSH1 0x2 DUP1 SLOAD PUSH2 0x1E2 SWAP1 PUSH2 0x4A1 JUMP JUMPDEST DUP1 PUSH1 0x1F ADD PUSH1 0x20 DUP1 SWAP2 DIV MUL PUSH1 0x20 ADD PUSH1 0x40 MLOAD SWAP1 DUP2 ADD PUSH1 0x40 MSTORE DUP1 SWAP3 SWAP2 SWAP1 DUP2 DUP2 MSTORE PUSH1 0x20 ADD DUP3 DUP1 SLOAD PUSH2 0x20E SWAP1 PUSH2 0x4A1 JUMP JUMPDEST DUP1 ISZERO PUSH2 0x25B JUMPI DUP1 PUSH1 0x1F LT PUSH2 0x230 JUMPI PUSH2 0x100 DUP1 DUP4 SLOAD DIV MUL DUP4 MSTORE SWAP2 PUSH1 0x20 ADD SWAP2 PUSH2 0x25B JUMP JUMPDEST DUP3 ADD SWAP2 SWAP1 PUSH1 0x0 MSTORE PUSH1 0x20 PUSH1 0x0 KECCAK256 SWAP1 JUMPDEST DUP2 SLOAD DUP2 MSTORE SWAP1 PUSH1 0x1 ADD SWAP1 PUSH1 0x20 ADD DUP1 DUP4 GT PUSH2 0x23E JUMPI DUP3 SWAP1 SUB PUSH1 0x1F AND DUP3 ADD SWAP2 JUMPDEST POP POP POP POP POP DUP2 JUMP JUMPDEST PUSH1 0x0 DUP1 PUSH1 0x64 SWAP1 POP PUSH1 0x0 PUSH1 0xC8 SWAP1 POP PUSH1 0x0 DUP2 DUP4 PUSH2 0x27E SWAP2 SWAP1 PUSH2 0x77F JUMP JUMPDEST SWAP1 POP DUP1 SWAP4 POP POP POP POP SWAP1 JUMP JUMPDEST PUSH1 0x0 DUP2 SWAP1 POP SWAP2 SWAP1 POP JUMP JUMPDEST PUSH2 0x29C DUP2 PUSH2 0x289 JUMP JUMPDEST DUP3 MSTORE POP POP JUMP JUMPDEST PUSH1 0x0 PUSH1 0x20 DUP3 ADD SWAP1 POP PUSH2 0x2B7 PUSH1 0x0 DUP4 ADD DUP5 PUSH2 0x293 JUMP JUMPDEST SWAP3 SWAP2 POP POP JUMP JUMPDEST PUSH1 0x0 PUSH20 0xFFFFFFFFFFFFFFFFFFFFFFFFFFFFFFFFFFFFFFFF DUP3 AND SWAP1 POP SWAP2 SWAP1 POP JUMP JUMPDEST PUSH1 0x0 PUSH2 0x2E8 DUP3 PUSH2 0x2BD JUMP JUMPDEST SWAP1 POP SWAP2 SWAP1 POP JUMP JUMPDEST PUSH2 0x2F8 DUP2 PUSH2 0x2DD JUMP JUMPDEST DUP3 MSTORE POP POP JUMP JUMPDEST PUSH1 0x0 DUP2 MLOAD SWAP1 POP SWAP2 SWAP1 POP JUMP JUMPDEST PUSH1 0x0 DUP3 DUP3 MSTORE PUSH1 0x20 DUP3 ADD SWAP1 POP SWAP3 SWAP2 POP POP JUMP JUMPDEST PUSH1 0x0 JUMPDEST DUP4 DUP2 LT ISZERO PUSH2 0x338 JUMPI DUP1 DUP3 ADD MLOAD DUP2 DUP5 ADD MSTORE PUSH1 0x20 DUP2 ADD SWAP1 POP PUSH2 0x31D JUMP JUMPDEST PUSH1 0x0 DUP5 DUP5 ADD MSTORE POP POP POP POP JUMP JUMPDEST PUSH1 0x0 PUSH1 0x1F NOT PUSH1 0x1F DUP4 ADD AND SWAP1 POP SWAP2 SWAP1 POP JUMP JUMPDEST PUSH1 0x0 PUSH2 0x360 DUP3 PUSH2 0x2FE JUMP JUMPDEST PUSH2 0x36A DUP2 DUP6 PUSH2 0x309 JUMP JUMPDEST SWAP4 POP PUSH2 0x37A DUP2 DUP6 PUSH1 0x20 DUP7 ADD PUSH2 0x31A JUMP JUMPDEST PUSH2 0x383 DUP2 PUSH2 0x344 JUMP JUMPDEST DUP5 ADD SWAP2 POP POP SWAP3 SWAP2 POP POP JUMP JUMPDEST PUSH1 0x0 PUSH1 0x60 DUP3 ADD SWAP1 POP PUSH2 0x3A3 PUSH1 0x0 DUP4 ADD DUP7 PUSH2 0x2EF JUMP JUMPDEST PUSH2 0x3B0 PUSH1 0x20 DUP4 ADD DUP6 PUSH2 0x293 JUMP JUMPDEST DUP2 DUP2 SUB PUSH1 0x40 DUP4 ADD MSTORE PUSH2 0x3C2 DUP2 DUP5 PUSH2 0x355 JUMP JUMPDEST SWAP1 POP SWAP5 SWAP4 POP POP POP POP JUMP JUMPDEST PUSH1 0x0 DUP2 MLOAD SWAP1 POP SWAP2 SWAP1 POP JUMP JUMPDEST PUSH1 0x0 DUP3 DUP3 MSTORE PUSH1 0x20 DUP3 ADD SWAP1 POP SWAP3 SWAP2 POP POP JUMP JUMPDEST PUSH1 0x0 PUSH2 0x3F3 DUP3 PUSH2 0x3CC JUMP JUMPDEST PUSH2 0x3FD DUP2 DUP6 PUSH2 0x3D7 JUMP JUMPDEST SWAP4 POP PUSH2 0x40D DUP2 DUP6 PUSH1 0x20 DUP7 ADD PUSH2 0x31A JUMP JUMPDEST PUSH2 0x416 DUP2 PUSH2 0x344 JUMP JUMPDEST DUP5 ADD SWAP2 POP POP SWAP3 SWAP2 POP POP JUMP JUMPDEST PUSH1 0x0 PUSH1 0x20 DUP3 ADD SWAP1 POP DUP2 DUP2 SUB PUSH1 0x0 DUP4 ADD MSTORE PUSH2 0x43B DUP2 DUP5 PUSH2 0x3E8 JUMP JUMPDEST SWAP1 POP SWAP3 SWAP2 POP POP JUMP JUMPDEST PUSH32 0x4E487B7100000000000000000000000000000000000000000000000000000000 PUSH1 0x0 MSTORE PUSH1 0x41 PUSH1 0x4 MSTORE PUSH1 0x24 PUSH1 0x0 REVERT JUMPDEST PUSH32 0x4E487B7100000000000000000000000000000000000000000000000000000000 PUSH1 0x0 MSTORE PUSH1 0x22 PUSH1 0x4 MSTORE PUSH1 0x24 PUSH1 0x0 REVERT JUMPDEST PUSH1 0x0 PUSH1 0x2 DUP3 DIV SWAP1 POP PUSH1 0x1 DUP3 AND DUP1 PUSH2 0x4B9 JUMPI PUSH1 0x7F DUP3 AND SWAP2 POP JUMPDEST PUSH1 0x20 DUP3 LT DUP2 SUB PUSH2 0x4CC JUMPI PUSH2 0x4CB PUSH2 0x472 JUMP JUMPDEST JUMPDEST POP SWAP2 SWAP1 POP JUMP JUMPDEST PUSH1 0x0 DUP2 SWAP1 POP DUP2 PUSH1 0x0 MSTORE PUSH1 0x20 PUSH1 0x0 KECCAK256 SWAP1 POP SWAP2 SWAP1 POP JUMP JUMPDEST PUSH1 0x0 PUSH1 0x20 PUSH1 0x1F DUP4 ADD DIV SWAP1 POP SWAP2 SWAP1 POP JUMP JUMPDEST PUSH1 0x0 DUP3 DUP3 SHL SWAP1 POP SWAP3 SWAP2 POP POP JUMP JUMPDEST PUSH1 0x0 PUSH1 0x8 DUP4 MUL PUSH2 0x534 PUSH32 0xFFFFFFFFFFFFFFFFFFFFFFFFFFFFFFFFFFFFFFFFFFFFFFFFFFFFFFFFFFFFFFFF DUP3 PUSH2 0x4F7 JUMP JUMPDEST PUSH2 0x53E DUP7 DUP4 PUSH2 0x4F7 JUMP JUMPDEST SWAP6 POP DUP1 NOT DUP5 AND SWAP4 POP DUP1 DUP7 AND DUP5 OR SWAP3 POP POP POP SWAP4 SWAP3 POP POP POP JUMP JUMPDEST PUSH1 0x0 DUP2 SWAP1 POP SWAP2 SWAP1 POP JUMP JUMPDEST PUSH1 0x0 PUSH2 0x57B PUSH2 0x576 PUSH2 0x571 DUP5 PUSH2 0x289 JUMP JUMPDEST PUSH2 0x556 JUMP JUMPDEST PUSH2 0x289 JUMP JUMPDEST SWAP1 POP SWAP2 SWAP1 POP JUMP JUMPDEST PUSH1 0x0 DUP2 SWAP1 POP SWAP2 SWAP1 POP JUMP JUMPDEST PUSH2 0x595 DUP4 PUSH2 0x560 JUMP JUMPDEST PUSH2 0x5A9 PUSH2 0x5A1 DUP3 PUSH2 0x582 JUMP JUMPDEST DUP5 DUP5 SLOAD PUSH2 0x504 JUMP JUMPDEST DUP3 SSTORE POP POP POP POP JUMP JUMPDEST PUSH1 0x0 SWAP1 JUMP JUMPDEST PUSH2 0x5BE PUSH2 0x5B1 JUMP JUMPDEST PUSH2 0x5C9 DUP2 DUP5 DUP5 PUSH2 0x58C JUMP JUMPDEST POP POP POP JUMP JUMPDEST JUMPDEST DUP2 DUP2 LT ISZERO PUSH2 0x5ED JUMPI PUSH2 0x5E2 PUSH1 0x0 DUP3 PUSH2 0x5B6 JUMP JUMPDEST PUSH1 0x1 DUP2 ADD SWAP1 POP PUSH2 0x5CF JUMP JUMPDEST POP POP JUMP JUMPDEST PUSH1 0x1F DUP3 GT ISZERO PUSH2 0x632 JUMPI PUSH2 0x603 DUP2 PUSH2 0x4D2 JUMP JUMPDEST PUSH2 0x60C DUP5 PUSH2 0x4E7 JUMP JUMPDEST DUP2 ADD PUSH1 0x20 DUP6 LT ISZERO PUSH2 0x61B JUMPI DUP2 SWAP1 POP JUMPDEST PUSH2 0x62F PUSH2 0x627 DUP6 PUSH2 0x4E7 JUMP JUMPDEST DUP4 ADD DUP3 PUSH2 0x5CE JUMP JUMPDEST POP POP JUMPDEST POP POP POP JUMP JUMPDEST PUSH1 0x0 DUP3 DUP3 SHR SWAP1 POP SWAP3 SWAP2 POP POP JUMP JUMPDEST PUSH1 0x0 PUSH2 0x655 PUSH1 0x0 NOT DUP5 PUSH1 0x8 MUL PUSH2 0x637 JUMP JUMPDEST NOT DUP1 DUP4 AND SWAP2 POP POP SWAP3 SWAP2 POP POP JUMP JUMPDEST PUSH1 0x0 PUSH2 0x66E DUP4 DUP4 PUSH2 0x644 JUMP JUMPDEST SWAP2 POP DUP3 PUSH1 0x2 MUL DUP3 OR SWAP1 POP SWAP3 SWAP2 POP POP JUMP JUMPDEST PUSH2 0x687 DUP3 PUSH2 0x3CC JUMP JUMPDEST PUSH8 0xFFFFFFFFFFFFFFFF DUP2 GT ISZERO PUSH2 0x6A0 JUMPI PUSH2 0x69F PUSH2 0x443 JUMP JUMPDEST JUMPDEST PUSH2 0x6AA DUP3 SLOAD PUSH2 0x4A1 JUMP JUMPDEST PUSH2 0x6B5 DUP3 DUP3 DUP6 PUSH2 0x5F1 JUMP JUMPDEST PUSH1 0x0 PUSH1 0x20 SWAP1 POP PUSH1 0x1F DUP4 GT PUSH1 0x1 DUP2 EQ PUSH2 0x6E8 JUMPI PUSH1 0x0 DUP5 ISZERO PUSH2 0x6D6 JUMPI DUP3 DUP8 ADD MLOAD SWAP1 POP JUMPDEST PUSH2 0x6E0 DUP6 DUP3 PUSH2 0x662 JUMP JUMPDEST DUP7 SSTORE POP PUSH2 0x748 JUMP JUMPDEST PUSH1 0x1F NOT DUP5 AND PUSH2 0x6F6 DUP7 PUSH2 0x4D2 JUMP JUMPDEST PUSH1 0x0 JUMPDEST DUP3 DUP2 LT ISZERO PUSH2 0x71E JUMPI DUP5 DUP10 ADD MLOAD DUP3 SSTORE PUSH1 0x1 DUP3 ADD SWAP2 POP PUSH1 0x20 DUP6 ADD SWAP5 POP PUSH1 0x20 DUP2 ADD SWAP1 POP PUSH2 0x6F9 JUMP JUMPDEST DUP7 DUP4 LT ISZERO PUSH2 0x73B JUMPI DUP5 DUP10 ADD MLOAD PUSH2 0x737 PUSH1 0x1F DUP10 AND DUP3 PUSH2 0x644 JUMP JUMPDEST DUP4 SSTORE POP JUMPDEST PUSH1 0x1 PUSH1 0x2 DUP9 MUL ADD DUP9 SSTORE POP POP POP JUMPDEST POP POP POP POP POP POP JUMP JUMPDEST PUSH32 0x4E487B7100000000000000000000000000000000000000000000000000000000 PUSH1 0x0 MSTORE PUSH1 0x11 PUSH1 0x4 MSTORE PUSH1 0x24 PUSH1 0x0 REVERT JUMPDEST PUSH1 0x0 PUSH2 0x78A DUP3 PUSH2 0x289 JUMP JUMPDEST SWAP2 POP PUSH2 0x795 DUP4 PUSH2 0x289 JUMP JUMPDEST SWAP3 POP DUP3 DUP3 ADD SWAP1 POP DUP1 DUP3 GT ISZERO PUSH2 0x7AD JUMPI PUSH2 0x7AC PUSH2 0x750 JUMP JUMPDEST JUMPDEST SWAP3 SWAP2 POP POP JUMP INVALID LOG2 PUSH5 0x6970667358 0x22 SLT KECCAK256 LOG0 LOG4 0xC6 0xE2 MSTORE8 PUSH25 0xC3AA182355C239DD06E20075D40458F2E6B8D908FB03B432EC 0xE5 PUSH5 0x736F6C6343 STOP ADDMOD SLT STOP CALLER "
				},
				"gasEstimates": {
					"creation": {
						"codeDepositCost": "405000",
						"executionCost": "22549",
						"totalCost": "427549"
					},
					"external": {
						"bar()": "infinite",
						"foo()": "infinite",
						"global()": "infinite",
						"x()": "2407",
						"y()": "2451",
						"z()": "infinite"
					}
				},
				"methodIdentifiers": {
					"bar()": "febb0f7e",
					"foo()": "c2985578",
					"global()": "a05f9906",
					"x()": "0c55699c",
					"y()": "a56dfe4a",
					"z()": "c5d7802e"
				}
			},
			"storageLayout": {
				"storage": [
					{
						"astId": 4,
						"contract": "005_2作用域.sol:func_005_2",
						"label": "x",
						"offset": 0,
						"slot": "0",
						"type": "t_uint256"
					},
					{
						"astId": 6,
						"contract": "005_2作用域.sol:func_005_2",
						"label": "y",
						"offset": 0,
						"slot": "1",
						"type": "t_uint256"
					},
					{
						"astId": 8,
						"contract": "005_2作用域.sol:func_005_2",
						"label": "z",
						"offset": 0,
						"slot": "2",
						"type": "t_string_storage"
					}
				],
				"types": {
					"t_string_storage": {
						"encoding": "bytes",
						"label": "string",
						"numberOfBytes": "32"
					},
					"t_uint256": {
						"encoding": "inplace",
						"label": "uint256",
						"numberOfBytes": "32"
					}
				}
			},
			"userdoc": {
				"kind": "user",
				"methods": {},
				"version": 1
			}
		}
	}
}