{
	"006_4结构体.sol": {
		"MyContract": {
			"abi": [
				{
					"inputs": [],
					"name": "getPhone2",
					"outputs": [
						{
							"internalType": "uint256",
							"name": "",
							"type": "uint256"
						},
						{
							"internalType": "string",
							"name": "",
							"type": "string"
						}
					],
					"stateMutability": "view",
					"type": "function"
				},
				{
					"inputs": [],
					"name": "initPhone1",
					"outputs": [],
					"stateMutability": "nonpayable",
					"type": "function"
				},
				{
					"inputs": [],
					"name": "initPhone2",
					"outputs": [],
					"stateMutability": "nonpayable",
					"type": "function"
				}
			],
			"devdoc": {
				"kind": "dev",
				"methods": {},
				"version": 1
			},
			"evm": {
				"assembly": "    /* \"006_4\\xe7\\xbb\\x93\\xe6\\x9e\\x84\\xe4\\xbd\\x93.sol\":66:678  contract MyContract {... */\n  mstore(0x40, 0x80)\n  callvalue\n  dup1\n  iszero\n  tag_1\n  jumpi\n  0x00\n  dup1\n  revert\ntag_1:\n  pop\n  dataSize(sub_0)\n  dup1\n  dataOffset(sub_0)\n  0x00\n  codecopy\n  0x00\n  return\nstop\n\nsub_0: assembly {\n        /* \"006_4\\xe7\\xbb\\x93\\xe6\\x9e\\x84\\xe4\\xbd\\x93.sol\":66:678  contract MyContract {... */\n      mstore(0x40, 0x80)\n      callvalue\n      dup1\n      iszero\n      tag_1\n      jumpi\n      0x00\n      dup1\n      revert\n    tag_1:\n      pop\n      jumpi(tag_2, lt(calldatasize, 0x04))\n      shr(0xe0, calldataload(0x00))\n      dup1\n      0x59a856b7\n      eq\n      tag_3\n      jumpi\n      dup1\n      0x87da967f\n      eq\n      tag_4\n      jumpi\n      dup1\n      0xf06086cf\n      eq\n      tag_5\n      jumpi\n    tag_2:\n      0x00\n      dup1\n      revert\n        /* \"006_4\\xe7\\xbb\\x93\\xe6\\x9e\\x84\\xe4\\xbd\\x93.sol\":245:399  function initPhone1() external{... */\n    tag_3:\n      tag_6\n      tag_7\n      jump\t// in\n    tag_6:\n      stop\n        /* \"006_4\\xe7\\xbb\\x93\\xe6\\x9e\\x84\\xe4\\xbd\\x93.sol\":551:667  function getPhone2() external view returns(uint256,string memory) {... */\n    tag_4:\n      tag_8\n      tag_9\n      jump\t// in\n    tag_8:\n      mload(0x40)\n      tag_10\n      swap3\n      swap2\n      swap1\n      tag_11\n      jump\t// in\n    tag_10:\n      mload(0x40)\n      dup1\n      swap2\n      sub\n      swap1\n      return\n        /* \"006_4\\xe7\\xbb\\x93\\xe6\\x9e\\x84\\xe4\\xbd\\x93.sol\":432:543  function initPhone2() external{... */\n    tag_5:\n      tag_12\n      tag_13\n      jump\t// in\n    tag_12:\n      stop\n        /* \"006_4\\xe7\\xbb\\x93\\xe6\\x9e\\x84\\xe4\\xbd\\x93.sol\":245:399  function initPhone1() external{... */\n    tag_7:\n        /* \"006_4\\xe7\\xbb\\x93\\xe6\\x9e\\x84\\xe4\\xbd\\x93.sol\":286:306  Phone storage _phone */\n      0x00\n        /* \"006_4\\xe7\\xbb\\x93\\xe6\\x9e\\x84\\xe4\\xbd\\x93.sol\":346:352  _phone */\n      dup1\n        /* \"006_4\\xe7\\xbb\\x93\\xe6\\x9e\\x84\\xe4\\xbd\\x93.sol\":346:358  _phone.price */\n      0x00\n      add\n      sload\n        /* \"006_4\\xe7\\xbb\\x93\\xe6\\x9e\\x84\\xe4\\xbd\\x93.sol\":340:344  8000 */\n      0x1f40\n        /* \"006_4\\xe7\\xbb\\x93\\xe6\\x9e\\x84\\xe4\\xbd\\x93.sol\":340:358  8000+ _phone.price */\n      tag_15\n      swap2\n      swap1\n      tag_16\n      jump\t// in\n    tag_15:\n        /* \"006_4\\xe7\\xbb\\x93\\xe6\\x9e\\x84\\xe4\\xbd\\x93.sol\":325:331  _phone */\n      dup2\n        /* \"006_4\\xe7\\xbb\\x93\\xe6\\x9e\\x84\\xe4\\xbd\\x93.sol\":325:337  _phone.price */\n      0x00\n      add\n        /* \"006_4\\xe7\\xbb\\x93\\xe6\\x9e\\x84\\xe4\\xbd\\x93.sol\":325:358  _phone.price = 8000+ _phone.price */\n      dup2\n      swap1\n      sstore\n      pop\n        /* \"006_4\\xe7\\xbb\\x93\\xe6\\x9e\\x84\\xe4\\xbd\\x93.sol\":369:391  _phone.color = 'white' */\n      mload(0x40)\n      dup1\n      0x40\n      add\n      0x40\n      mstore\n      dup1\n      0x05\n      dup2\n      mstore\n      0x20\n      add\n      0x7768697465000000000000000000000000000000000000000000000000000000\n      dup2\n      mstore\n      pop\n        /* \"006_4\\xe7\\xbb\\x93\\xe6\\x9e\\x84\\xe4\\xbd\\x93.sol\":369:375  _phone */\n      dup2\n        /* \"006_4\\xe7\\xbb\\x93\\xe6\\x9e\\x84\\xe4\\xbd\\x93.sol\":369:381  _phone.color */\n      0x01\n      add\n        /* \"006_4\\xe7\\xbb\\x93\\xe6\\x9e\\x84\\xe4\\xbd\\x93.sol\":369:391  _phone.color = 'white' */\n      swap1\n      dup2\n      tag_17\n      swap2\n      swap1\n      tag_18\n      jump\t// in\n    tag_17:\n      pop\n        /* \"006_4\\xe7\\xbb\\x93\\xe6\\x9e\\x84\\xe4\\xbd\\x93.sol\":275:399  {... */\n      pop\n        /* \"006_4\\xe7\\xbb\\x93\\xe6\\x9e\\x84\\xe4\\xbd\\x93.sol\":245:399  function initPhone1() external{... */\n      jump\t// out\n        /* \"006_4\\xe7\\xbb\\x93\\xe6\\x9e\\x84\\xe4\\xbd\\x93.sol\":551:667  function getPhone2() external view returns(uint256,string memory) {... */\n    tag_9:\n        /* \"006_4\\xe7\\xbb\\x93\\xe6\\x9e\\x84\\xe4\\xbd\\x93.sol\":594:601  uint256 */\n      0x00\n        /* \"006_4\\xe7\\xbb\\x93\\xe6\\x9e\\x84\\xe4\\xbd\\x93.sol\":602:615  string memory */\n      0x60\n        /* \"006_4\\xe7\\xbb\\x93\\xe6\\x9e\\x84\\xe4\\xbd\\x93.sol\":635:640  phone */\n      0x00\n        /* \"006_4\\xe7\\xbb\\x93\\xe6\\x9e\\x84\\xe4\\xbd\\x93.sol\":635:646  phone.price */\n      dup1\n      add\n      sload\n        /* \"006_4\\xe7\\xbb\\x93\\xe6\\x9e\\x84\\xe4\\xbd\\x93.sol\":647:652  phone */\n      0x00\n        /* \"006_4\\xe7\\xbb\\x93\\xe6\\x9e\\x84\\xe4\\xbd\\x93.sol\":647:658  phone.color */\n      0x01\n      add\n        /* \"006_4\\xe7\\xbb\\x93\\xe6\\x9e\\x84\\xe4\\xbd\\x93.sol\":628:659  return(phone.price,phone.color) */\n      dup1\n      dup1\n      sload\n      tag_20\n      swap1\n      tag_21\n      jump\t// in\n    tag_20:\n      dup1\n      0x1f\n      add\n      0x20\n      dup1\n      swap2\n      div\n      mul\n      0x20\n      add\n      mload(0x40)\n      swap1\n      dup2\n      add\n      0x40\n      mstore\n      dup1\n      swap3\n      swap2\n      swap1\n      dup2\n      dup2\n      mstore\n      0x20\n      add\n      dup3\n      dup1\n      sload\n      tag_22\n      swap1\n      tag_21\n      jump\t// in\n    tag_22:\n      dup1\n      iszero\n      tag_23\n      jumpi\n      dup1\n      0x1f\n      lt\n      tag_24\n      jumpi\n      0x0100\n      dup1\n      dup4\n      sload\n      div\n      mul\n      dup4\n      mstore\n      swap2\n      0x20\n      add\n      swap2\n      jump(tag_23)\n    tag_24:\n      dup3\n      add\n      swap2\n      swap1\n      0x00\n      mstore\n      keccak256(0x00, 0x20)\n      swap1\n    tag_25:\n      dup2\n      sload\n      dup2\n      mstore\n      swap1\n      0x01\n      add\n      swap1\n      0x20\n      add\n      dup1\n      dup4\n      gt\n      tag_25\n      jumpi\n      dup3\n      swap1\n      sub\n      0x1f\n      and\n      dup3\n      add\n      swap2\n    tag_23:\n      pop\n      pop\n      pop\n      pop\n      pop\n      swap1\n      pop\n      swap2\n      pop\n      swap2\n      pop\n        /* \"006_4\\xe7\\xbb\\x93\\xe6\\x9e\\x84\\xe4\\xbd\\x93.sol\":551:667  function getPhone2() external view returns(uint256,string memory) {... */\n      swap1\n      swap2\n      jump\t// out\n        /* \"006_4\\xe7\\xbb\\x93\\xe6\\x9e\\x84\\xe4\\xbd\\x93.sol\":432:543  function initPhone2() external{... */\n    tag_13:\n        /* \"006_4\\xe7\\xbb\\x93\\xe6\\x9e\\x84\\xe4\\xbd\\x93.sol\":492:497  phone */\n      0x00\n        /* \"006_4\\xe7\\xbb\\x93\\xe6\\x9e\\x84\\xe4\\xbd\\x93.sol\":492:503  phone.price */\n      dup1\n      add\n      sload\n        /* \"006_4\\xe7\\xbb\\x93\\xe6\\x9e\\x84\\xe4\\xbd\\x93.sol\":487:490  500 */\n      0x01f4\n        /* \"006_4\\xe7\\xbb\\x93\\xe6\\x9e\\x84\\xe4\\xbd\\x93.sol\":487:503  500+ phone.price */\n      tag_27\n      swap2\n      swap1\n      tag_16\n      jump\t// in\n    tag_27:\n        /* \"006_4\\xe7\\xbb\\x93\\xe6\\x9e\\x84\\xe4\\xbd\\x93.sol\":473:478  phone */\n      0x00\n        /* \"006_4\\xe7\\xbb\\x93\\xe6\\x9e\\x84\\xe4\\xbd\\x93.sol\":473:484  phone.price */\n      dup1\n      add\n        /* \"006_4\\xe7\\xbb\\x93\\xe6\\x9e\\x84\\xe4\\xbd\\x93.sol\":473:503  phone.price = 500+ phone.price */\n      dup2\n      swap1\n      sstore\n      pop\n        /* \"006_4\\xe7\\xbb\\x93\\xe6\\x9e\\x84\\xe4\\xbd\\x93.sol\":514:535  phone.color = 'white' */\n      mload(0x40)\n      dup1\n      0x40\n      add\n      0x40\n      mstore\n      dup1\n      0x05\n      dup2\n      mstore\n      0x20\n      add\n      0x7768697465000000000000000000000000000000000000000000000000000000\n      dup2\n      mstore\n      pop\n        /* \"006_4\\xe7\\xbb\\x93\\xe6\\x9e\\x84\\xe4\\xbd\\x93.sol\":514:519  phone */\n      0x00\n        /* \"006_4\\xe7\\xbb\\x93\\xe6\\x9e\\x84\\xe4\\xbd\\x93.sol\":514:525  phone.color */\n      0x01\n      add\n        /* \"006_4\\xe7\\xbb\\x93\\xe6\\x9e\\x84\\xe4\\xbd\\x93.sol\":514:535  phone.color = 'white' */\n      swap1\n      dup2\n      tag_28\n      swap2\n      swap1\n      tag_18\n      jump\t// in\n    tag_28:\n      pop\n        /* \"006_4\\xe7\\xbb\\x93\\xe6\\x9e\\x84\\xe4\\xbd\\x93.sol\":432:543  function initPhone2() external{... */\n      jump\t// out\n        /* \"#utility.yul\":7:84   */\n    tag_29:\n        /* \"#utility.yul\":44:51   */\n      0x00\n        /* \"#utility.yul\":73:78   */\n      dup2\n        /* \"#utility.yul\":62:78   */\n      swap1\n      pop\n        /* \"#utility.yul\":7:84   */\n      swap2\n      swap1\n      pop\n      jump\t// out\n        /* \"#utility.yul\":90:208   */\n    tag_30:\n        /* \"#utility.yul\":177:201   */\n      tag_57\n        /* \"#utility.yul\":195:200   */\n      dup2\n        /* \"#utility.yul\":177:201   */\n      tag_29\n      jump\t// in\n    tag_57:\n        /* \"#utility.yul\":172:175   */\n      dup3\n        /* \"#utility.yul\":165:202   */\n      mstore\n        /* \"#utility.yul\":90:208   */\n      pop\n      pop\n      jump\t// out\n        /* \"#utility.yul\":214:313   */\n    tag_31:\n        /* \"#utility.yul\":266:272   */\n      0x00\n        /* \"#utility.yul\":300:305   */\n      dup2\n        /* \"#utility.yul\":294:306   */\n      mload\n        /* \"#utility.yul\":284:306   */\n      swap1\n      pop\n        /* \"#utility.yul\":214:313   */\n      swap2\n      swap1\n      pop\n      jump\t// out\n        /* \"#utility.yul\":319:488   */\n    tag_32:\n        /* \"#utility.yul\":403:414   */\n      0x00\n        /* \"#utility.yul\":437:443   */\n      dup3\n        /* \"#utility.yul\":432:435   */\n      dup3\n        /* \"#utility.yul\":425:444   */\n      mstore\n        /* \"#utility.yul\":477:481   */\n      0x20\n        /* \"#utility.yul\":472:475   */\n      dup3\n        /* \"#utility.yul\":468:482   */\n      add\n        /* \"#utility.yul\":453:482   */\n      swap1\n      pop\n        /* \"#utility.yul\":319:488   */\n      swap3\n      swap2\n      pop\n      pop\n      jump\t// out\n        /* \"#utility.yul\":494:740   */\n    tag_33:\n        /* \"#utility.yul\":575:576   */\n      0x00\n        /* \"#utility.yul\":585:698   */\n    tag_61:\n        /* \"#utility.yul\":599:605   */\n      dup4\n        /* \"#utility.yul\":596:597   */\n      dup2\n        /* \"#utility.yul\":593:606   */\n      lt\n        /* \"#utility.yul\":585:698   */\n      iszero\n      tag_63\n      jumpi\n        /* \"#utility.yul\":684:685   */\n      dup1\n        /* \"#utility.yul\":679:682   */\n      dup3\n        /* \"#utility.yul\":675:686   */\n      add\n        /* \"#utility.yul\":669:687   */\n      mload\n        /* \"#utility.yul\":665:666   */\n      dup2\n        /* \"#utility.yul\":660:663   */\n      dup5\n        /* \"#utility.yul\":656:667   */\n      add\n        /* \"#utility.yul\":649:688   */\n      mstore\n        /* \"#utility.yul\":621:623   */\n      0x20\n        /* \"#utility.yul\":618:619   */\n      dup2\n        /* \"#utility.yul\":614:624   */\n      add\n        /* \"#utility.yul\":609:624   */\n      swap1\n      pop\n        /* \"#utility.yul\":585:698   */\n      jump(tag_61)\n    tag_63:\n        /* \"#utility.yul\":732:733   */\n      0x00\n        /* \"#utility.yul\":723:729   */\n      dup5\n        /* \"#utility.yul\":718:721   */\n      dup5\n        /* \"#utility.yul\":714:730   */\n      add\n        /* \"#utility.yul\":707:734   */\n      mstore\n        /* \"#utility.yul\":556:740   */\n      pop\n        /* \"#utility.yul\":494:740   */\n      pop\n      pop\n      pop\n      jump\t// out\n        /* \"#utility.yul\":746:848   */\n    tag_34:\n        /* \"#utility.yul\":787:793   */\n      0x00\n        /* \"#utility.yul\":838:840   */\n      0x1f\n        /* \"#utility.yul\":834:841   */\n      not\n        /* \"#utility.yul\":829:831   */\n      0x1f\n        /* \"#utility.yul\":822:827   */\n      dup4\n        /* \"#utility.yul\":818:832   */\n      add\n        /* \"#utility.yul\":814:842   */\n      and\n        /* \"#utility.yul\":804:842   */\n      swap1\n      pop\n        /* \"#utility.yul\":746:848   */\n      swap2\n      swap1\n      pop\n      jump\t// out\n        /* \"#utility.yul\":854:1231   */\n    tag_35:\n        /* \"#utility.yul\":942:945   */\n      0x00\n        /* \"#utility.yul\":970:1009   */\n      tag_66\n        /* \"#utility.yul\":1003:1008   */\n      dup3\n        /* \"#utility.yul\":970:1009   */\n      tag_31\n      jump\t// in\n    tag_66:\n        /* \"#utility.yul\":1025:1096   */\n      tag_67\n        /* \"#utility.yul\":1089:1095   */\n      dup2\n        /* \"#utility.yul\":1084:1087   */\n      dup6\n        /* \"#utility.yul\":1025:1096   */\n      tag_32\n      jump\t// in\n    tag_67:\n        /* \"#utility.yul\":1018:1096   */\n      swap4\n      pop\n        /* \"#utility.yul\":1105:1170   */\n      tag_68\n        /* \"#utility.yul\":1163:1169   */\n      dup2\n        /* \"#utility.yul\":1158:1161   */\n      dup6\n        /* \"#utility.yul\":1151:1155   */\n      0x20\n        /* \"#utility.yul\":1144:1149   */\n      dup7\n        /* \"#utility.yul\":1140:1156   */\n      add\n        /* \"#utility.yul\":1105:1170   */\n      tag_33\n      jump\t// in\n    tag_68:\n        /* \"#utility.yul\":1195:1224   */\n      tag_69\n        /* \"#utility.yul\":1217:1223   */\n      dup2\n        /* \"#utility.yul\":1195:1224   */\n      tag_34\n      jump\t// in\n    tag_69:\n        /* \"#utility.yul\":1190:1193   */\n      dup5\n        /* \"#utility.yul\":1186:1225   */\n      add\n        /* \"#utility.yul\":1179:1225   */\n      swap2\n      pop\n        /* \"#utility.yul\":946:1231   */\n      pop\n        /* \"#utility.yul\":854:1231   */\n      swap3\n      swap2\n      pop\n      pop\n      jump\t// out\n        /* \"#utility.yul\":1237:1660   */\n    tag_11:\n        /* \"#utility.yul\":1378:1382   */\n      0x00\n        /* \"#utility.yul\":1416:1418   */\n      0x40\n        /* \"#utility.yul\":1405:1414   */\n      dup3\n        /* \"#utility.yul\":1401:1419   */\n      add\n        /* \"#utility.yul\":1393:1419   */\n      swap1\n      pop\n        /* \"#utility.yul\":1429:1500   */\n      tag_71\n        /* \"#utility.yul\":1497:1498   */\n      0x00\n        /* \"#utility.yul\":1486:1495   */\n      dup4\n        /* \"#utility.yul\":1482:1499   */\n      add\n        /* \"#utility.yul\":1473:1479   */\n      dup6\n        /* \"#utility.yul\":1429:1500   */\n      tag_30\n      jump\t// in\n    tag_71:\n        /* \"#utility.yul\":1547:1556   */\n      dup2\n        /* \"#utility.yul\":1541:1545   */\n      dup2\n        /* \"#utility.yul\":1537:1557   */\n      sub\n        /* \"#utility.yul\":1532:1534   */\n      0x20\n        /* \"#utility.yul\":1521:1530   */\n      dup4\n        /* \"#utility.yul\":1517:1535   */\n      add\n        /* \"#utility.yul\":1510:1558   */\n      mstore\n        /* \"#utility.yul\":1575:1653   */\n      tag_72\n        /* \"#utility.yul\":1648:1652   */\n      dup2\n        /* \"#utility.yul\":1639:1645   */\n      dup5\n        /* \"#utility.yul\":1575:1653   */\n      tag_35\n      jump\t// in\n    tag_72:\n        /* \"#utility.yul\":1567:1653   */\n      swap1\n      pop\n        /* \"#utility.yul\":1237:1660   */\n      swap4\n      swap3\n      pop\n      pop\n      pop\n      jump\t// out\n        /* \"#utility.yul\":1666:1846   */\n    tag_36:\n        /* \"#utility.yul\":1714:1791   */\n      0x4e487b7100000000000000000000000000000000000000000000000000000000\n        /* \"#utility.yul\":1711:1712   */\n      0x00\n        /* \"#utility.yul\":1704:1792   */\n      mstore\n        /* \"#utility.yul\":1811:1815   */\n      0x11\n        /* \"#utility.yul\":1808:1809   */\n      0x04\n        /* \"#utility.yul\":1801:1816   */\n      mstore\n        /* \"#utility.yul\":1835:1839   */\n      0x24\n        /* \"#utility.yul\":1832:1833   */\n      0x00\n        /* \"#utility.yul\":1825:1840   */\n      revert\n        /* \"#utility.yul\":1852:2043   */\n    tag_16:\n        /* \"#utility.yul\":1892:1895   */\n      0x00\n        /* \"#utility.yul\":1911:1931   */\n      tag_75\n        /* \"#utility.yul\":1929:1930   */\n      dup3\n        /* \"#utility.yul\":1911:1931   */\n      tag_29\n      jump\t// in\n    tag_75:\n        /* \"#utility.yul\":1906:1931   */\n      swap2\n      pop\n        /* \"#utility.yul\":1945:1965   */\n      tag_76\n        /* \"#utility.yul\":1963:1964   */\n      dup4\n        /* \"#utility.yul\":1945:1965   */\n      tag_29\n      jump\t// in\n    tag_76:\n        /* \"#utility.yul\":1940:1965   */\n      swap3\n      pop\n        /* \"#utility.yul\":1988:1989   */\n      dup3\n        /* \"#utility.yul\":1985:1986   */\n      dup3\n        /* \"#utility.yul\":1981:1990   */\n      add\n        /* \"#utility.yul\":1974:1990   */\n      swap1\n      pop\n        /* \"#utility.yul\":2009:2012   */\n      dup1\n        /* \"#utility.yul\":2006:2007   */\n      dup3\n        /* \"#utility.yul\":2003:2013   */\n      gt\n        /* \"#utility.yul\":2000:2036   */\n      iszero\n      tag_77\n      jumpi\n        /* \"#utility.yul\":2016:2034   */\n      tag_78\n      tag_36\n      jump\t// in\n    tag_78:\n        /* \"#utility.yul\":2000:2036   */\n    tag_77:\n        /* \"#utility.yul\":1852:2043   */\n      swap3\n      swap2\n      pop\n      pop\n      jump\t// out\n        /* \"#utility.yul\":2049:2229   */\n    tag_37:\n        /* \"#utility.yul\":2097:2174   */\n      0x4e487b7100000000000000000000000000000000000000000000000000000000\n        /* \"#utility.yul\":2094:2095   */\n      0x00\n        /* \"#utility.yul\":2087:2175   */\n      mstore\n        /* \"#utility.yul\":2194:2198   */\n      0x41\n        /* \"#utility.yul\":2191:2192   */\n      0x04\n        /* \"#utility.yul\":2184:2199   */\n      mstore\n        /* \"#utility.yul\":2218:2222   */\n      0x24\n        /* \"#utility.yul\":2215:2216   */\n      0x00\n        /* \"#utility.yul\":2208:2223   */\n      revert\n        /* \"#utility.yul\":2235:2415   */\n    tag_38:\n        /* \"#utility.yul\":2283:2360   */\n      0x4e487b7100000000000000000000000000000000000000000000000000000000\n        /* \"#utility.yul\":2280:2281   */\n      0x00\n        /* \"#utility.yul\":2273:2361   */\n      mstore\n        /* \"#utility.yul\":2380:2384   */\n      0x22\n        /* \"#utility.yul\":2377:2378   */\n      0x04\n        /* \"#utility.yul\":2370:2385   */\n      mstore\n        /* \"#utility.yul\":2404:2408   */\n      0x24\n        /* \"#utility.yul\":2401:2402   */\n      0x00\n        /* \"#utility.yul\":2394:2409   */\n      revert\n        /* \"#utility.yul\":2421:2741   */\n    tag_21:\n        /* \"#utility.yul\":2465:2471   */\n      0x00\n        /* \"#utility.yul\":2502:2503   */\n      0x02\n        /* \"#utility.yul\":2496:2500   */\n      dup3\n        /* \"#utility.yul\":2492:2504   */\n      div\n        /* \"#utility.yul\":2482:2504   */\n      swap1\n      pop\n        /* \"#utility.yul\":2549:2550   */\n      0x01\n        /* \"#utility.yul\":2543:2547   */\n      dup3\n        /* \"#utility.yul\":2539:2551   */\n      and\n        /* \"#utility.yul\":2570:2588   */\n      dup1\n        /* \"#utility.yul\":2560:2641   */\n      tag_82\n      jumpi\n        /* \"#utility.yul\":2626:2630   */\n      0x7f\n        /* \"#utility.yul\":2618:2624   */\n      dup3\n        /* \"#utility.yul\":2614:2631   */\n      and\n        /* \"#utility.yul\":2604:2631   */\n      swap2\n      pop\n        /* \"#utility.yul\":2560:2641   */\n    tag_82:\n        /* \"#utility.yul\":2688:2690   */\n      0x20\n        /* \"#utility.yul\":2680:2686   */\n      dup3\n        /* \"#utility.yul\":2677:2691   */\n      lt\n        /* \"#utility.yul\":2657:2675   */\n      dup2\n        /* \"#utility.yul\":2654:2692   */\n      sub\n        /* \"#utility.yul\":2651:2735   */\n      tag_83\n      jumpi\n        /* \"#utility.yul\":2707:2725   */\n      tag_84\n      tag_38\n      jump\t// in\n    tag_84:\n        /* \"#utility.yul\":2651:2735   */\n    tag_83:\n        /* \"#utility.yul\":2472:2741   */\n      pop\n        /* \"#utility.yul\":2421:2741   */\n      swap2\n      swap1\n      pop\n      jump\t// out\n        /* \"#utility.yul\":2747:2888   */\n    tag_39:\n        /* \"#utility.yul\":2796:2800   */\n      0x00\n        /* \"#utility.yul\":2819:2822   */\n      dup2\n        /* \"#utility.yul\":2811:2822   */\n      swap1\n      pop\n        /* \"#utility.yul\":2842:2845   */\n      dup2\n        /* \"#utility.yul\":2839:2840   */\n      0x00\n        /* \"#utility.yul\":2832:2846   */\n      mstore\n        /* \"#utility.yul\":2876:2880   */\n      0x20\n        /* \"#utility.yul\":2873:2874   */\n      0x00\n        /* \"#utility.yul\":2863:2881   */\n      keccak256\n        /* \"#utility.yul\":2855:2881   */\n      swap1\n      pop\n        /* \"#utility.yul\":2747:2888   */\n      swap2\n      swap1\n      pop\n      jump\t// out\n        /* \"#utility.yul\":2894:2987   */\n    tag_40:\n        /* \"#utility.yul\":2931:2937   */\n      0x00\n        /* \"#utility.yul\":2978:2980   */\n      0x20\n        /* \"#utility.yul\":2973:2975   */\n      0x1f\n        /* \"#utility.yul\":2966:2971   */\n      dup4\n        /* \"#utility.yul\":2962:2976   */\n      add\n        /* \"#utility.yul\":2958:2981   */\n      div\n        /* \"#utility.yul\":2948:2981   */\n      swap1\n      pop\n        /* \"#utility.yul\":2894:2987   */\n      swap2\n      swap1\n      pop\n      jump\t// out\n        /* \"#utility.yul\":2993:3100   */\n    tag_41:\n        /* \"#utility.yul\":3037:3045   */\n      0x00\n        /* \"#utility.yul\":3087:3092   */\n      dup3\n        /* \"#utility.yul\":3081:3085   */\n      dup3\n        /* \"#utility.yul\":3077:3093   */\n      shl\n        /* \"#utility.yul\":3056:3093   */\n      swap1\n      pop\n        /* \"#utility.yul\":2993:3100   */\n      swap3\n      swap2\n      pop\n      pop\n      jump\t// out\n        /* \"#utility.yul\":3106:3499   */\n    tag_42:\n        /* \"#utility.yul\":3175:3181   */\n      0x00\n        /* \"#utility.yul\":3225:3226   */\n      0x08\n        /* \"#utility.yul\":3213:3223   */\n      dup4\n        /* \"#utility.yul\":3209:3227   */\n      mul\n        /* \"#utility.yul\":3248:3345   */\n      tag_89\n        /* \"#utility.yul\":3278:3344   */\n      0xffffffffffffffffffffffffffffffffffffffffffffffffffffffffffffffff\n        /* \"#utility.yul\":3267:3276   */\n      dup3\n        /* \"#utility.yul\":3248:3345   */\n      tag_41\n      jump\t// in\n    tag_89:\n        /* \"#utility.yul\":3366:3405   */\n      tag_90\n        /* \"#utility.yul\":3396:3404   */\n      dup7\n        /* \"#utility.yul\":3385:3394   */\n      dup4\n        /* \"#utility.yul\":3366:3405   */\n      tag_41\n      jump\t// in\n    tag_90:\n        /* \"#utility.yul\":3354:3405   */\n      swap6\n      pop\n        /* \"#utility.yul\":3438:3442   */\n      dup1\n        /* \"#utility.yul\":3434:3443   */\n      not\n        /* \"#utility.yul\":3427:3432   */\n      dup5\n        /* \"#utility.yul\":3423:3444   */\n      and\n        /* \"#utility.yul\":3414:3444   */\n      swap4\n      pop\n        /* \"#utility.yul\":3487:3491   */\n      dup1\n        /* \"#utility.yul\":3477:3485   */\n      dup7\n        /* \"#utility.yul\":3473:3492   */\n      and\n        /* \"#utility.yul\":3466:3471   */\n      dup5\n        /* \"#utility.yul\":3463:3493   */\n      or\n        /* \"#utility.yul\":3453:3493   */\n      swap3\n      pop\n        /* \"#utility.yul\":3182:3499   */\n      pop\n      pop\n        /* \"#utility.yul\":3106:3499   */\n      swap4\n      swap3\n      pop\n      pop\n      pop\n      jump\t// out\n        /* \"#utility.yul\":3505:3565   */\n    tag_43:\n        /* \"#utility.yul\":3533:3536   */\n      0x00\n        /* \"#utility.yul\":3554:3559   */\n      dup2\n        /* \"#utility.yul\":3547:3559   */\n      swap1\n      pop\n        /* \"#utility.yul\":3505:3565   */\n      swap2\n      swap1\n      pop\n      jump\t// out\n        /* \"#utility.yul\":3571:3713   */\n    tag_44:\n        /* \"#utility.yul\":3621:3630   */\n      0x00\n        /* \"#utility.yul\":3654:3707   */\n      tag_93\n        /* \"#utility.yul\":3672:3706   */\n      tag_94\n        /* \"#utility.yul\":3681:3705   */\n      tag_95\n        /* \"#utility.yul\":3699:3704   */\n      dup5\n        /* \"#utility.yul\":3681:3705   */\n      tag_29\n      jump\t// in\n    tag_95:\n        /* \"#utility.yul\":3672:3706   */\n      tag_43\n      jump\t// in\n    tag_94:\n        /* \"#utility.yul\":3654:3707   */\n      tag_29\n      jump\t// in\n    tag_93:\n        /* \"#utility.yul\":3641:3707   */\n      swap1\n      pop\n        /* \"#utility.yul\":3571:3713   */\n      swap2\n      swap1\n      pop\n      jump\t// out\n        /* \"#utility.yul\":3719:3794   */\n    tag_45:\n        /* \"#utility.yul\":3762:3765   */\n      0x00\n        /* \"#utility.yul\":3783:3788   */\n      dup2\n        /* \"#utility.yul\":3776:3788   */\n      swap1\n      pop\n        /* \"#utility.yul\":3719:3794   */\n      swap2\n      swap1\n      pop\n      jump\t// out\n        /* \"#utility.yul\":3800:4069   */\n    tag_46:\n        /* \"#utility.yul\":3910:3949   */\n      tag_98\n        /* \"#utility.yul\":3941:3948   */\n      dup4\n        /* \"#utility.yul\":3910:3949   */\n      tag_44\n      jump\t// in\n    tag_98:\n        /* \"#utility.yul\":3971:4062   */\n      tag_99\n        /* \"#utility.yul\":4020:4061   */\n      tag_100\n        /* \"#utility.yul\":4044:4060   */\n      dup3\n        /* \"#utility.yul\":4020:4061   */\n      tag_45\n      jump\t// in\n    tag_100:\n        /* \"#utility.yul\":4012:4018   */\n      dup5\n        /* \"#utility.yul\":4005:4009   */\n      dup5\n        /* \"#utility.yul\":3999:4010   */\n      sload\n        /* \"#utility.yul\":3971:4062   */\n      tag_42\n      jump\t// in\n    tag_99:\n        /* \"#utility.yul\":3965:3969   */\n      dup3\n        /* \"#utility.yul\":3958:4063   */\n      sstore\n        /* \"#utility.yul\":3876:4069   */\n      pop\n        /* \"#utility.yul\":3800:4069   */\n      pop\n      pop\n      pop\n      jump\t// out\n        /* \"#utility.yul\":4075:4148   */\n    tag_47:\n        /* \"#utility.yul\":4120:4123   */\n      0x00\n        /* \"#utility.yul\":4075:4148   */\n      swap1\n      jump\t// out\n        /* \"#utility.yul\":4154:4343   */\n    tag_48:\n        /* \"#utility.yul\":4231:4263   */\n      tag_103\n      tag_47\n      jump\t// in\n    tag_103:\n        /* \"#utility.yul\":4272:4337   */\n      tag_104\n        /* \"#utility.yul\":4330:4336   */\n      dup2\n        /* \"#utility.yul\":4322:4328   */\n      dup5\n        /* \"#utility.yul\":4316:4320   */\n      dup5\n        /* \"#utility.yul\":4272:4337   */\n      tag_46\n      jump\t// in\n    tag_104:\n        /* \"#utility.yul\":4207:4343   */\n      pop\n        /* \"#utility.yul\":4154:4343   */\n      pop\n      pop\n      jump\t// out\n        /* \"#utility.yul\":4349:4535   */\n    tag_49:\n        /* \"#utility.yul\":4409:4529   */\n    tag_106:\n        /* \"#utility.yul\":4426:4429   */\n      dup2\n        /* \"#utility.yul\":4419:4424   */\n      dup2\n        /* \"#utility.yul\":4416:4430   */\n      lt\n        /* \"#utility.yul\":4409:4529   */\n      iszero\n      tag_108\n      jumpi\n        /* \"#utility.yul\":4480:4519   */\n      tag_109\n        /* \"#utility.yul\":4517:4518   */\n      0x00\n        /* \"#utility.yul\":4510:4515   */\n      dup3\n        /* \"#utility.yul\":4480:4519   */\n      tag_48\n      jump\t// in\n    tag_109:\n        /* \"#utility.yul\":4453:4454   */\n      0x01\n        /* \"#utility.yul\":4446:4451   */\n      dup2\n        /* \"#utility.yul\":4442:4455   */\n      add\n        /* \"#utility.yul\":4433:4455   */\n      swap1\n      pop\n        /* \"#utility.yul\":4409:4529   */\n      jump(tag_106)\n    tag_108:\n        /* \"#utility.yul\":4349:4535   */\n      pop\n      pop\n      jump\t// out\n        /* \"#utility.yul\":4541:5084   */\n    tag_50:\n        /* \"#utility.yul\":4642:4644   */\n      0x1f\n        /* \"#utility.yul\":4637:4640   */\n      dup3\n        /* \"#utility.yul\":4634:4645   */\n      gt\n        /* \"#utility.yul\":4631:5077   */\n      iszero\n      tag_111\n      jumpi\n        /* \"#utility.yul\":4676:4714   */\n      tag_112\n        /* \"#utility.yul\":4708:4713   */\n      dup2\n        /* \"#utility.yul\":4676:4714   */\n      tag_39\n      jump\t// in\n    tag_112:\n        /* \"#utility.yul\":4760:4789   */\n      tag_113\n        /* \"#utility.yul\":4778:4788   */\n      dup5\n        /* \"#utility.yul\":4760:4789   */\n      tag_40\n      jump\t// in\n    tag_113:\n        /* \"#utility.yul\":4750:4758   */\n      dup2\n        /* \"#utility.yul\":4746:4790   */\n      add\n        /* \"#utility.yul\":4943:4945   */\n      0x20\n        /* \"#utility.yul\":4931:4941   */\n      dup6\n        /* \"#utility.yul\":4928:4946   */\n      lt\n        /* \"#utility.yul\":4925:4974   */\n      iszero\n      tag_114\n      jumpi\n        /* \"#utility.yul\":4964:4972   */\n      dup2\n        /* \"#utility.yul\":4949:4972   */\n      swap1\n      pop\n        /* \"#utility.yul\":4925:4974   */\n    tag_114:\n        /* \"#utility.yul\":4987:5067   */\n      tag_115\n        /* \"#utility.yul\":5043:5065   */\n      tag_116\n        /* \"#utility.yul\":5061:5064   */\n      dup6\n        /* \"#utility.yul\":5043:5065   */\n      tag_40\n      jump\t// in\n    tag_116:\n        /* \"#utility.yul\":5033:5041   */\n      dup4\n        /* \"#utility.yul\":5029:5066   */\n      add\n        /* \"#utility.yul\":5016:5027   */\n      dup3\n        /* \"#utility.yul\":4987:5067   */\n      tag_49\n      jump\t// in\n    tag_115:\n        /* \"#utility.yul\":4646:5077   */\n      pop\n      pop\n        /* \"#utility.yul\":4631:5077   */\n    tag_111:\n        /* \"#utility.yul\":4541:5084   */\n      pop\n      pop\n      pop\n      jump\t// out\n        /* \"#utility.yul\":5090:5207   */\n    tag_51:\n        /* \"#utility.yul\":5144:5152   */\n      0x00\n        /* \"#utility.yul\":5194:5199   */\n      dup3\n        /* \"#utility.yul\":5188:5192   */\n      dup3\n        /* \"#utility.yul\":5184:5200   */\n      shr\n        /* \"#utility.yul\":5163:5200   */\n      swap1\n      pop\n        /* \"#utility.yul\":5090:5207   */\n      swap3\n      swap2\n      pop\n      pop\n      jump\t// out\n        /* \"#utility.yul\":5213:5382   */\n    tag_52:\n        /* \"#utility.yul\":5257:5263   */\n      0x00\n        /* \"#utility.yul\":5290:5341   */\n      tag_119\n        /* \"#utility.yul\":5338:5339   */\n      0x00\n        /* \"#utility.yul\":5334:5340   */\n      not\n        /* \"#utility.yul\":5326:5331   */\n      dup5\n        /* \"#utility.yul\":5323:5324   */\n      0x08\n        /* \"#utility.yul\":5319:5332   */\n      mul\n        /* \"#utility.yul\":5290:5341   */\n      tag_51\n      jump\t// in\n    tag_119:\n        /* \"#utility.yul\":5286:5342   */\n      not\n        /* \"#utility.yul\":5371:5375   */\n      dup1\n        /* \"#utility.yul\":5365:5369   */\n      dup4\n        /* \"#utility.yul\":5361:5376   */\n      and\n        /* \"#utility.yul\":5351:5376   */\n      swap2\n      pop\n        /* \"#utility.yul\":5264:5382   */\n      pop\n        /* \"#utility.yul\":5213:5382   */\n      swap3\n      swap2\n      pop\n      pop\n      jump\t// out\n        /* \"#utility.yul\":5387:5682   */\n    tag_53:\n        /* \"#utility.yul\":5463:5467   */\n      0x00\n        /* \"#utility.yul\":5609:5638   */\n      tag_121\n        /* \"#utility.yul\":5634:5637   */\n      dup4\n        /* \"#utility.yul\":5628:5632   */\n      dup4\n        /* \"#utility.yul\":5609:5638   */\n      tag_52\n      jump\t// in\n    tag_121:\n        /* \"#utility.yul\":5601:5638   */\n      swap2\n      pop\n        /* \"#utility.yul\":5671:5674   */\n      dup3\n        /* \"#utility.yul\":5668:5669   */\n      0x02\n        /* \"#utility.yul\":5664:5675   */\n      mul\n        /* \"#utility.yul\":5658:5662   */\n      dup3\n        /* \"#utility.yul\":5655:5676   */\n      or\n        /* \"#utility.yul\":5647:5676   */\n      swap1\n      pop\n        /* \"#utility.yul\":5387:5682   */\n      swap3\n      swap2\n      pop\n      pop\n      jump\t// out\n        /* \"#utility.yul\":5687:7082   */\n    tag_18:\n        /* \"#utility.yul\":5804:5841   */\n      tag_123\n        /* \"#utility.yul\":5837:5840   */\n      dup3\n        /* \"#utility.yul\":5804:5841   */\n      tag_31\n      jump\t// in\n    tag_123:\n        /* \"#utility.yul\":5906:5924   */\n      0xffffffffffffffff\n        /* \"#utility.yul\":5898:5904   */\n      dup2\n        /* \"#utility.yul\":5895:5925   */\n      gt\n        /* \"#utility.yul\":5892:5948   */\n      iszero\n      tag_124\n      jumpi\n        /* \"#utility.yul\":5928:5946   */\n      tag_125\n      tag_37\n      jump\t// in\n    tag_125:\n        /* \"#utility.yul\":5892:5948   */\n    tag_124:\n        /* \"#utility.yul\":5972:6010   */\n      tag_126\n        /* \"#utility.yul\":6004:6008   */\n      dup3\n        /* \"#utility.yul\":5998:6009   */\n      sload\n        /* \"#utility.yul\":5972:6010   */\n      tag_21\n      jump\t// in\n    tag_126:\n        /* \"#utility.yul\":6057:6124   */\n      tag_127\n        /* \"#utility.yul\":6117:6123   */\n      dup3\n        /* \"#utility.yul\":6109:6115   */\n      dup3\n        /* \"#utility.yul\":6103:6107   */\n      dup6\n        /* \"#utility.yul\":6057:6124   */\n      tag_50\n      jump\t// in\n    tag_127:\n        /* \"#utility.yul\":6151:6152   */\n      0x00\n        /* \"#utility.yul\":6175:6179   */\n      0x20\n        /* \"#utility.yul\":6162:6179   */\n      swap1\n      pop\n        /* \"#utility.yul\":6207:6209   */\n      0x1f\n        /* \"#utility.yul\":6199:6205   */\n      dup4\n        /* \"#utility.yul\":6196:6210   */\n      gt\n        /* \"#utility.yul\":6224:6225   */\n      0x01\n        /* \"#utility.yul\":6219:6837   */\n      dup2\n      eq\n      tag_129\n      jumpi\n        /* \"#utility.yul\":6881:6882   */\n      0x00\n        /* \"#utility.yul\":6898:6904   */\n      dup5\n        /* \"#utility.yul\":6895:6972   */\n      iszero\n      tag_130\n      jumpi\n        /* \"#utility.yul\":6947:6956   */\n      dup3\n        /* \"#utility.yul\":6942:6945   */\n      dup8\n        /* \"#utility.yul\":6938:6957   */\n      add\n        /* \"#utility.yul\":6932:6958   */\n      mload\n        /* \"#utility.yul\":6923:6958   */\n      swap1\n      pop\n        /* \"#utility.yul\":6895:6972   */\n    tag_130:\n        /* \"#utility.yul\":6998:7065   */\n      tag_131\n        /* \"#utility.yul\":7058:7064   */\n      dup6\n        /* \"#utility.yul\":7051:7056   */\n      dup3\n        /* \"#utility.yul\":6998:7065   */\n      tag_53\n      jump\t// in\n    tag_131:\n        /* \"#utility.yul\":6992:6996   */\n      dup7\n        /* \"#utility.yul\":6985:7066   */\n      sstore\n        /* \"#utility.yul\":6854:7076   */\n      pop\n        /* \"#utility.yul\":6189:7076   */\n      jump(tag_128)\n        /* \"#utility.yul\":6219:6837   */\n    tag_129:\n        /* \"#utility.yul\":6271:6275   */\n      0x1f\n        /* \"#utility.yul\":6267:6276   */\n      not\n        /* \"#utility.yul\":6259:6265   */\n      dup5\n        /* \"#utility.yul\":6255:6277   */\n      and\n        /* \"#utility.yul\":6305:6342   */\n      tag_132\n        /* \"#utility.yul\":6337:6341   */\n      dup7\n        /* \"#utility.yul\":6305:6342   */\n      tag_39\n      jump\t// in\n    tag_132:\n        /* \"#utility.yul\":6364:6365   */\n      0x00\n        /* \"#utility.yul\":6378:6586   */\n    tag_133:\n        /* \"#utility.yul\":6392:6399   */\n      dup3\n        /* \"#utility.yul\":6389:6390   */\n      dup2\n        /* \"#utility.yul\":6386:6400   */\n      lt\n        /* \"#utility.yul\":6378:6586   */\n      iszero\n      tag_135\n      jumpi\n        /* \"#utility.yul\":6471:6480   */\n      dup5\n        /* \"#utility.yul\":6466:6469   */\n      dup10\n        /* \"#utility.yul\":6462:6481   */\n      add\n        /* \"#utility.yul\":6456:6482   */\n      mload\n        /* \"#utility.yul\":6448:6454   */\n      dup3\n        /* \"#utility.yul\":6441:6483   */\n      sstore\n        /* \"#utility.yul\":6522:6523   */\n      0x01\n        /* \"#utility.yul\":6514:6520   */\n      dup3\n        /* \"#utility.yul\":6510:6524   */\n      add\n        /* \"#utility.yul\":6500:6524   */\n      swap2\n      pop\n        /* \"#utility.yul\":6569:6571   */\n      0x20\n        /* \"#utility.yul\":6558:6567   */\n      dup6\n        /* \"#utility.yul\":6554:6572   */\n      add\n        /* \"#utility.yul\":6541:6572   */\n      swap5\n      pop\n        /* \"#utility.yul\":6415:6419   */\n      0x20\n        /* \"#utility.yul\":6412:6413   */\n      dup2\n        /* \"#utility.yul\":6408:6420   */\n      add\n        /* \"#utility.yul\":6403:6420   */\n      swap1\n      pop\n        /* \"#utility.yul\":6378:6586   */\n      jump(tag_133)\n    tag_135:\n        /* \"#utility.yul\":6614:6620   */\n      dup7\n        /* \"#utility.yul\":6605:6612   */\n      dup4\n        /* \"#utility.yul\":6602:6621   */\n      lt\n        /* \"#utility.yul\":6599:6778   */\n      iszero\n      tag_136\n      jumpi\n        /* \"#utility.yul\":6672:6681   */\n      dup5\n        /* \"#utility.yul\":6667:6670   */\n      dup10\n        /* \"#utility.yul\":6663:6682   */\n      add\n        /* \"#utility.yul\":6657:6683   */\n      mload\n        /* \"#utility.yul\":6715:6763   */\n      tag_137\n        /* \"#utility.yul\":6757:6761   */\n      0x1f\n        /* \"#utility.yul\":6749:6755   */\n      dup10\n        /* \"#utility.yul\":6745:6762   */\n      and\n        /* \"#utility.yul\":6734:6743   */\n      dup3\n        /* \"#utility.yul\":6715:6763   */\n      tag_52\n      jump\t// in\n    tag_137:\n        /* \"#utility.yul\":6707:6713   */\n      dup4\n        /* \"#utility.yul\":6700:6764   */\n      sstore\n        /* \"#utility.yul\":6622:6778   */\n      pop\n        /* \"#utility.yul\":6599:6778   */\n    tag_136:\n        /* \"#utility.yul\":6824:6825   */\n      0x01\n        /* \"#utility.yul\":6820:6821   */\n      0x02\n        /* \"#utility.yul\":6812:6818   */\n      dup9\n        /* \"#utility.yul\":6808:6822   */\n      mul\n        /* \"#utility.yul\":6804:6826   */\n      add\n        /* \"#utility.yul\":6798:6802   */\n      dup9\n        /* \"#utility.yul\":6791:6827   */\n      sstore\n        /* \"#utility.yul\":6226:6837   */\n      pop\n      pop\n      pop\n        /* \"#utility.yul\":6189:7076   */\n    tag_128:\n      pop\n        /* \"#utility.yul\":5779:7082   */\n      pop\n      pop\n      pop\n        /* \"#utility.yul\":5687:7082   */\n      pop\n      pop\n      jump\t// out\n\n    auxdata: 0xa2646970667358221220583d9ad61f0cdbb806cad1fbc1735f7390172466bcb2438e0ec1f2bf800bf2a064736f6c63430008120033\n}\n",
				"bytecode": {
					"linkReferences": {},
					"object": "608060405234801561001057600080fd5b50610664806100206000396000f3fe608060405234801561001057600080fd5b50600436106100415760003560e01c806359a856b71461004657806387da967f14610050578063f06086cf1461006f575b600080fd5b61004e610079565b005b6100586100df565b60405161006692919061028e565b60405180910390f35b610077610181565b005b60008060000154611f4061008d91906102ed565b81600001819055506040518060400160405280600581526020017f77686974650000000000000000000000000000000000000000000000000000008152508160010190816100db919061055c565b5050565b60006060600080015460006001018080546100f99061037f565b80601f01602080910402602001604051908101604052809291908181526020018280546101259061037f565b80156101725780601f1061014757610100808354040283529160200191610172565b820191906000526020600020905b81548152906001019060200180831161015557829003601f168201915b50505050509050915091509091565b60008001546101f461019391906102ed565b60008001819055506040518060400160405280600581526020017f7768697465000000000000000000000000000000000000000000000000000000815250600060010190816101e2919061055c565b50565b6000819050919050565b6101f8816101e5565b82525050565b600081519050919050565b600082825260208201905092915050565b60005b8381101561023857808201518184015260208101905061021d565b60008484015250505050565b6000601f19601f8301169050919050565b6000610260826101fe565b61026a8185610209565b935061027a81856020860161021a565b61028381610244565b840191505092915050565b60006040820190506102a360008301856101ef565b81810360208301526102b58184610255565b90509392505050565b7f4e487b7100000000000000000000000000000000000000000000000000000000600052601160045260246000fd5b60006102f8826101e5565b9150610303836101e5565b925082820190508082111561031b5761031a6102be565b5b92915050565b7f4e487b7100000000000000000000000000000000000000000000000000000000600052604160045260246000fd5b7f4e487b7100000000000000000000000000000000000000000000000000000000600052602260045260246000fd5b6000600282049050600182168061039757607f821691505b6020821081036103aa576103a9610350565b5b50919050565b60008190508160005260206000209050919050565b60006020601f8301049050919050565b600082821b905092915050565b6000600883026104127fffffffffffffffffffffffffffffffffffffffffffffffffffffffffffffffff826103d5565b61041c86836103d5565b95508019841693508086168417925050509392505050565b6000819050919050565b600061045961045461044f846101e5565b610434565b6101e5565b9050919050565b6000819050919050565b6104738361043e565b61048761047f82610460565b8484546103e2565b825550505050565b600090565b61049c61048f565b6104a781848461046a565b505050565b5b818110156104cb576104c0600082610494565b6001810190506104ad565b5050565b601f821115610510576104e1816103b0565b6104ea846103c5565b810160208510156104f9578190505b61050d610505856103c5565b8301826104ac565b50505b505050565b600082821c905092915050565b600061053360001984600802610515565b1980831691505092915050565b600061054c8383610522565b9150826002028217905092915050565b610565826101fe565b67ffffffffffffffff81111561057e5761057d610321565b5b610588825461037f565b6105938282856104cf565b600060209050601f8311600181146105c657600084156105b4578287015190505b6105be8582610540565b865550610626565b601f1984166105d4866103b0565b60005b828110156105fc578489015182556001820191506020850194506020810190506105d7565b868310156106195784890151610615601f891682610522565b8355505b6001600288020188555050505b50505050505056fea2646970667358221220583d9ad61f0cdbb806cad1fbc1735f7390172466bcb2438e0ec1f2bf800bf2a064736f6c63430008120033",
					"opcodes": "PUSH1 0x80 PUSH1 0x40 MSTORE CALLVALUE DUP1 ISZERO PUSH2 0x10 JUMPI PUSH1 0x0 DUP1 REVERT JUMPDEST POP PUSH2 0x664 DUP1 PUSH2 0x20 PUSH1 0x0 CODECOPY PUSH1 0x0 RETURN INVALID PUSH1 0x80 PUSH1 0x40 MSTORE CALLVALUE DUP1 ISZERO PUSH2 0x10 JUMPI PUSH1 0x0 DUP1 REVERT JUMPDEST POP PUSH1 0x4 CALLDATASIZE LT PUSH2 0x41 JUMPI PUSH1 0x0 CALLDATALOAD PUSH1 0xE0 SHR DUP1 PUSH4 0x59A856B7 EQ PUSH2 0x46 JUMPI DUP1 PUSH4 0x87DA967F EQ PUSH2 0x50 JUMPI DUP1 PUSH4 0xF06086CF EQ PUSH2 0x6F JUMPI JUMPDEST PUSH1 0x0 DUP1 REVERT JUMPDEST PUSH2 0x4E PUSH2 0x79 JUMP JUMPDEST STOP JUMPDEST PUSH2 0x58 PUSH2 0xDF JUMP JUMPDEST PUSH1 0x40 MLOAD PUSH2 0x66 SWAP3 SWAP2 SWAP1 PUSH2 0x28E JUMP JUMPDEST PUSH1 0x40 MLOAD DUP1 SWAP2 SUB SWAP1 RETURN JUMPDEST PUSH2 0x77 PUSH2 0x181 JUMP JUMPDEST STOP JUMPDEST PUSH1 0x0 DUP1 PUSH1 0x0 ADD SLOAD PUSH2 0x1F40 PUSH2 0x8D SWAP2 SWAP1 PUSH2 0x2ED JUMP JUMPDEST DUP2 PUSH1 0x0 ADD DUP2 SWAP1 SSTORE POP PUSH1 0x40 MLOAD DUP1 PUSH1 0x40 ADD PUSH1 0x40 MSTORE DUP1 PUSH1 0x5 DUP2 MSTORE PUSH1 0x20 ADD PUSH32 0x7768697465000000000000000000000000000000000000000000000000000000 DUP2 MSTORE POP DUP2 PUSH1 0x1 ADD SWAP1 DUP2 PUSH2 0xDB SWAP2 SWAP1 PUSH2 0x55C JUMP JUMPDEST POP POP JUMP JUMPDEST PUSH1 0x0 PUSH1 0x60 PUSH1 0x0 DUP1 ADD SLOAD PUSH1 0x0 PUSH1 0x1 ADD DUP1 DUP1 SLOAD PUSH2 0xF9 SWAP1 PUSH2 0x37F JUMP JUMPDEST DUP1 PUSH1 0x1F ADD PUSH1 0x20 DUP1 SWAP2 DIV MUL PUSH1 0x20 ADD PUSH1 0x40 MLOAD SWAP1 DUP2 ADD PUSH1 0x40 MSTORE DUP1 SWAP3 SWAP2 SWAP1 DUP2 DUP2 MSTORE PUSH1 0x20 ADD DUP3 DUP1 SLOAD PUSH2 0x125 SWAP1 PUSH2 0x37F JUMP JUMPDEST DUP1 ISZERO PUSH2 0x172 JUMPI DUP1 PUSH1 0x1F LT PUSH2 0x147 JUMPI PUSH2 0x100 DUP1 DUP4 SLOAD DIV MUL DUP4 MSTORE SWAP2 PUSH1 0x20 ADD SWAP2 PUSH2 0x172 JUMP JUMPDEST DUP3 ADD SWAP2 SWAP1 PUSH1 0x0 MSTORE PUSH1 0x20 PUSH1 0x0 KECCAK256 SWAP1 JUMPDEST DUP2 SLOAD DUP2 MSTORE SWAP1 PUSH1 0x1 ADD SWAP1 PUSH1 0x20 ADD DUP1 DUP4 GT PUSH2 0x155 JUMPI DUP3 SWAP1 SUB PUSH1 0x1F AND DUP3 ADD SWAP2 JUMPDEST POP POP POP POP POP SWAP1 POP SWAP2 POP SWAP2 POP SWAP1 SWAP2 JUMP JUMPDEST PUSH1 0x0 DUP1 ADD SLOAD PUSH2 0x1F4 PUSH2 0x193 SWAP2 SWAP1 PUSH2 0x2ED JUMP JUMPDEST PUSH1 0x0 DUP1 ADD DUP2 SWAP1 SSTORE POP PUSH1 0x40 MLOAD DUP1 PUSH1 0x40 ADD PUSH1 0x40 MSTORE DUP1 PUSH1 0x5 DUP2 MSTORE PUSH1 0x20 ADD PUSH32 0x7768697465000000000000000000000000000000000000000000000000000000 DUP2 MSTORE POP PUSH1 0x0 PUSH1 0x1 ADD SWAP1 DUP2 PUSH2 0x1E2 SWAP2 SWAP1 PUSH2 0x55C JUMP JUMPDEST POP JUMP JUMPDEST PUSH1 0x0 DUP2 SWAP1 POP SWAP2 SWAP1 POP JUMP JUMPDEST PUSH2 0x1F8 DUP2 PUSH2 0x1E5 JUMP JUMPDEST DUP3 MSTORE POP POP JUMP JUMPDEST PUSH1 0x0 DUP2 MLOAD SWAP1 POP SWAP2 SWAP1 POP JUMP JUMPDEST PUSH1 0x0 DUP3 DUP3 MSTORE PUSH1 0x20 DUP3 ADD SWAP1 POP SWAP3 SWAP2 POP POP JUMP JUMPDEST PUSH1 0x0 JUMPDEST DUP4 DUP2 LT ISZERO PUSH2 0x238 JUMPI DUP1 DUP3 ADD MLOAD DUP2 DUP5 ADD MSTORE PUSH1 0x20 DUP2 ADD SWAP1 POP PUSH2 0x21D JUMP JUMPDEST PUSH1 0x0 DUP5 DUP5 ADD MSTORE POP POP POP POP JUMP JUMPDEST PUSH1 0x0 PUSH1 0x1F NOT PUSH1 0x1F DUP4 ADD AND SWAP1 POP SWAP2 SWAP1 POP JUMP JUMPDEST PUSH1 0x0 PUSH2 0x260 DUP3 PUSH2 0x1FE JUMP JUMPDEST PUSH2 0x26A DUP2 DUP6 PUSH2 0x209 JUMP JUMPDEST SWAP4 POP PUSH2 0x27A DUP2 DUP6 PUSH1 0x20 DUP7 ADD PUSH2 0x21A JUMP JUMPDEST PUSH2 0x283 DUP2 PUSH2 0x244 JUMP JUMPDEST DUP5 ADD SWAP2 POP POP SWAP3 SWAP2 POP POP JUMP JUMPDEST PUSH1 0x0 PUSH1 0x40 DUP3 ADD SWAP1 POP PUSH2 0x2A3 PUSH1 0x0 DUP4 ADD DUP6 PUSH2 0x1EF JUMP JUMPDEST DUP2 DUP2 SUB PUSH1 0x20 DUP4 ADD MSTORE PUSH2 0x2B5 DUP2 DUP5 PUSH2 0x255 JUMP JUMPDEST SWAP1 POP SWAP4 SWAP3 POP POP POP JUMP JUMPDEST PUSH32 0x4E487B7100000000000000000000000000000000000000000000000000000000 PUSH1 0x0 MSTORE PUSH1 0x11 PUSH1 0x4 MSTORE PUSH1 0x24 PUSH1 0x0 REVERT JUMPDEST PUSH1 0x0 PUSH2 0x2F8 DUP3 PUSH2 0x1E5 JUMP JUMPDEST SWAP2 POP PUSH2 0x303 DUP4 PUSH2 0x1E5 JUMP JUMPDEST SWAP3 POP DUP3 DUP3 ADD SWAP1 POP DUP1 DUP3 GT ISZERO PUSH2 0x31B JUMPI PUSH2 0x31A PUSH2 0x2BE JUMP JUMPDEST JUMPDEST SWAP3 SWAP2 POP POP JUMP JUMPDEST PUSH32 0x4E487B7100000000000000000000000000000000000000000000000000000000 PUSH1 0x0 MSTORE PUSH1 0x41 PUSH1 0x4 MSTORE PUSH1 0x24 PUSH1 0x0 REVERT JUMPDEST PUSH32 0x4E487B7100000000000000000000000000000000000000000000000000000000 PUSH1 0x0 MSTORE PUSH1 0x22 PUSH1 0x4 MSTORE PUSH1 0x24 PUSH1 0x0 REVERT JUMPDEST PUSH1 0x0 PUSH1 0x2 DUP3 DIV SWAP1 POP PUSH1 0x1 DUP3 AND DUP1 PUSH2 0x397 JUMPI PUSH1 0x7F DUP3 AND SWAP2 POP JUMPDEST PUSH1 0x20 DUP3 LT DUP2 SUB PUSH2 0x3AA JUMPI PUSH2 0x3A9 PUSH2 0x350 JUMP JUMPDEST JUMPDEST POP SWAP2 SWAP1 POP JUMP JUMPDEST PUSH1 0x0 DUP2 SWAP1 POP DUP2 PUSH1 0x0 MSTORE PUSH1 0x20 PUSH1 0x0 KECCAK256 SWAP1 POP SWAP2 SWAP1 POP JUMP JUMPDEST PUSH1 0x0 PUSH1 0x20 PUSH1 0x1F DUP4 ADD DIV SWAP1 POP SWAP2 SWAP1 POP JUMP JUMPDEST PUSH1 0x0 DUP3 DUP3 SHL SWAP1 POP SWAP3 SWAP2 POP POP JUMP JUMPDEST PUSH1 0x0 PUSH1 0x8 DUP4 MUL PUSH2 0x412 PUSH32 0xFFFFFFFFFFFFFFFFFFFFFFFFFFFFFFFFFFFFFFFFFFFFFFFFFFFFFFFFFFFFFFFF DUP3 PUSH2 0x3D5 JUMP JUMPDEST PUSH2 0x41C DUP7 DUP4 PUSH2 0x3D5 JUMP JUMPDEST SWAP6 POP DUP1 NOT DUP5 AND SWAP4 POP DUP1 DUP7 AND DUP5 OR SWAP3 POP POP POP SWAP4 SWAP3 POP POP POP JUMP JUMPDEST PUSH1 0x0 DUP2 SWAP1 POP SWAP2 SWAP1 POP JUMP JUMPDEST PUSH1 0x0 PUSH2 0x459 PUSH2 0x454 PUSH2 0x44F DUP5 PUSH2 0x1E5 JUMP JUMPDEST PUSH2 0x434 JUMP JUMPDEST PUSH2 0x1E5 JUMP JUMPDEST SWAP1 POP SWAP2 SWAP1 POP JUMP JUMPDEST PUSH1 0x0 DUP2 SWAP1 POP SWAP2 SWAP1 POP JUMP JUMPDEST PUSH2 0x473 DUP4 PUSH2 0x43E JUMP JUMPDEST PUSH2 0x487 PUSH2 0x47F DUP3 PUSH2 0x460 JUMP JUMPDEST DUP5 DUP5 SLOAD PUSH2 0x3E2 JUMP JUMPDEST DUP3 SSTORE POP POP POP POP JUMP JUMPDEST PUSH1 0x0 SWAP1 JUMP JUMPDEST PUSH2 0x49C PUSH2 0x48F JUMP JUMPDEST PUSH2 0x4A7 DUP2 DUP5 DUP5 PUSH2 0x46A JUMP JUMPDEST POP POP POP JUMP JUMPDEST JUMPDEST DUP2 DUP2 LT ISZERO PUSH2 0x4CB JUMPI PUSH2 0x4C0 PUSH1 0x0 DUP3 PUSH2 0x494 JUMP JUMPDEST PUSH1 0x1 DUP2 ADD SWAP1 POP PUSH2 0x4AD JUMP JUMPDEST POP POP JUMP JUMPDEST PUSH1 0x1F DUP3 GT ISZERO PUSH2 0x510 JUMPI PUSH2 0x4E1 DUP2 PUSH2 0x3B0 JUMP JUMPDEST PUSH2 0x4EA DUP5 PUSH2 0x3C5 JUMP JUMPDEST DUP2 ADD PUSH1 0x20 DUP6 LT ISZERO PUSH2 0x4F9 JUMPI DUP2 SWAP1 POP JUMPDEST PUSH2 0x50D PUSH2 0x505 DUP6 PUSH2 0x3C5 JUMP JUMPDEST DUP4 ADD DUP3 PUSH2 0x4AC JUMP JUMPDEST POP POP JUMPDEST POP POP POP JUMP JUMPDEST PUSH1 0x0 DUP3 DUP3 SHR SWAP1 POP SWAP3 SWAP2 POP POP JUMP JUMPDEST PUSH1 0x0 PUSH2 0x533 PUSH1 0x0 NOT DUP5 PUSH1 0x8 MUL PUSH2 0x515 JUMP JUMPDEST NOT DUP1 DUP4 AND SWAP2 POP POP SWAP3 SWAP2 POP POP JUMP JUMPDEST PUSH1 0x0 PUSH2 0x54C DUP4 DUP4 PUSH2 0x522 JUMP JUMPDEST SWAP2 POP DUP3 PUSH1 0x2 MUL DUP3 OR SWAP1 POP SWAP3 SWAP2 POP POP JUMP JUMPDEST PUSH2 0x565 DUP3 PUSH2 0x1FE JUMP JUMPDEST PUSH8 0xFFFFFFFFFFFFFFFF DUP2 GT ISZERO PUSH2 0x57E JUMPI PUSH2 0x57D PUSH2 0x321 JUMP JUMPDEST JUMPDEST PUSH2 0x588 DUP3 SLOAD PUSH2 0x37F JUMP JUMPDEST PUSH2 0x593 DUP3 DUP3 DUP6 PUSH2 0x4CF JUMP JUMPDEST PUSH1 0x0 PUSH1 0x20 SWAP1 POP PUSH1 0x1F DUP4 GT PUSH1 0x1 DUP2 EQ PUSH2 0x5C6 JUMPI PUSH1 0x0 DUP5 ISZERO PUSH2 0x5B4 JUMPI DUP3 DUP8 ADD MLOAD SWAP1 POP JUMPDEST PUSH2 0x5BE DUP6 DUP3 PUSH2 0x540 JUMP JUMPDEST DUP7 SSTORE POP PUSH2 0x626 JUMP JUMPDEST PUSH1 0x1F NOT DUP5 AND PUSH2 0x5D4 DUP7 PUSH2 0x3B0 JUMP JUMPDEST PUSH1 0x0 JUMPDEST DUP3 DUP2 LT ISZERO PUSH2 0x5FC JUMPI DUP5 DUP10 ADD MLOAD DUP3 SSTORE PUSH1 0x1 DUP3 ADD SWAP2 POP PUSH1 0x20 DUP6 ADD SWAP5 POP PUSH1 0x20 DUP2 ADD SWAP1 POP PUSH2 0x5D7 JUMP JUMPDEST DUP7 DUP4 LT ISZERO PUSH2 0x619 JUMPI DUP5 DUP10 ADD MLOAD PUSH2 0x615 PUSH1 0x1F DUP10 AND DUP3 PUSH2 0x522 JUMP JUMPDEST DUP4 SSTORE POP JUMPDEST PUSH1 0x1 PUSH1 0x2 DUP9 MUL ADD DUP9 SSTORE POP POP POP JUMPDEST POP POP POP POP POP POP JUMP INVALID LOG2 PUSH5 0x6970667358 0x22 SLT KECCAK256 PC RETURNDATASIZE SWAP11 0xD6 0x1F 0xC 0xDB 0xB8 MOD 0xCA 0xD1 0xFB 0xC1 PUSH20 0x5F7390172466BCB2438E0EC1F2BF800BF2A06473 PUSH16 0x6C634300081200330000000000000000 "
				},
				"gasEstimates": {
					"creation": {
						"codeDepositCost": "327200",
						"executionCost": "368",
						"totalCost": "327568"
					},
					"external": {
						"getPhone2()": "infinite",
						"initPhone1()": "infinite",
						"initPhone2()": "infinite"
					}
				},
				"methodIdentifiers": {
					"getPhone2()": "87da967f",
					"initPhone1()": "59a856b7",
					"initPhone2()": "f06086cf"
				}
			},
			"storageLayout": {
				"storage": [
					{
						"astId": 9,
						"contract": "006_4结构体.sol:MyContract",
						"label": "phone",
						"offset": 0,
						"slot": "0",
						"type": "t_struct(Phone)6_storage"
					}
				],
				"types": {
					"t_string_storage": {
						"encoding": "bytes",
						"label": "string",
						"numberOfBytes": "32"
					},
					"t_struct(Phone)6_storage": {
						"encoding": "inplace",
						"label": "struct MyContract.Phone",
						"members": [
							{
								"astId": 3,
								"contract": "006_4结构体.sol:MyContract",
								"label": "price",
								"offset": 0,
								"slot": "0",
								"type": "t_uint256"
							},
							{
								"astId": 5,
								"contract": "006_4结构体.sol:MyContract",
								"label": "color",
								"offset": 0,
								"slot": "1",
								"type": "t_string_storage"
							}
						],
						"numberOfBytes": "64"
					},
					"t_uint256": {
						"encoding": "inplace",
						"label": "uint256",
						"numberOfBytes": "32"
					}
				}
			},
			"userdoc": {
				"kind": "user",
				"methods": {},
				"version": 1
			}
		}
	}
}