{
	"004_函数输出.sol": {
		"func004": {
			"abi": [
				{
					"inputs": [],
					"name": "_number5",
					"outputs": [
						{
							"internalType": "uint256",
							"name": "",
							"type": "uint256"
						}
					],
					"stateMutability": "view",
					"type": "function"
				},
				{
					"inputs": [],
					"name": "readreturn1",
					"outputs": [],
					"stateMutability": "nonpayable",
					"type": "function"
				},
				{
					"inputs": [],
					"name": "readreturn2",
					"outputs": [],
					"stateMutability": "nonpayable",
					"type": "function"
				},
				{
					"inputs": [],
					"name": "returnMultiple",
					"outputs": [
						{
							"internalType": "uint256",
							"name": "",
							"type": "uint256"
						},
						{
							"internalType": "bool",
							"name": "",
							"type": "bool"
						},
						{
							"internalType": "uint256[3]",
							"name": "",
							"type": "uint256[3]"
						}
					],
					"stateMutability": "pure",
					"type": "function"
				},
				{
					"inputs": [],
					"name": "returnNamed",
					"outputs": [
						{
							"internalType": "uint256",
							"name": "_number",
							"type": "uint256"
						},
						{
							"internalType": "bool",
							"name": "_bool",
							"type": "bool"
						},
						{
							"internalType": "uint256[3]",
							"name": "_array",
							"type": "uint256[3]"
						}
					],
					"stateMutability": "pure",
					"type": "function"
				},
				{
					"inputs": [],
					"name": "returnNamed2",
					"outputs": [
						{
							"internalType": "uint256",
							"name": "_number",
							"type": "uint256"
						},
						{
							"internalType": "bool",
							"name": "_bool",
							"type": "bool"
						},
						{
							"internalType": "uint256[3]",
							"name": "_array",
							"type": "uint256[3]"
						}
					],
					"stateMutability": "pure",
					"type": "function"
				}
			],
			"devdoc": {
				"kind": "dev",
				"methods": {},
				"version": 1
			},
			"evm": {
				"assembly": "    /* \"004_\\xe5\\x87\\xbd\\xe6\\x95\\xb0\\xe8\\xbe\\x93\\xe5\\x87\\xba.sol\":58:1043  contract func004{... */\n  mstore(0x40, 0x80)\n    /* \"004_\\xe5\\x87\\xbd\\xe6\\x95\\xb0\\xe8\\xbe\\x93\\xe5\\x87\\xba.sol\":107:110  100 */\n  0x64\n    /* \"004_\\xe5\\x87\\xbd\\xe6\\x95\\xb0\\xe8\\xbe\\x93\\xe5\\x87\\xba.sol\":81:110  uint256 public _number5 = 100 */\n  0x00\n  sstore\n    /* \"004_\\xe5\\x87\\xbd\\xe6\\x95\\xb0\\xe8\\xbe\\x93\\xe5\\x87\\xba.sol\":58:1043  contract func004{... */\n  callvalue\n  dup1\n  iszero\n  tag_1\n  jumpi\n  0x00\n  dup1\n  revert\ntag_1:\n  pop\n  dataSize(sub_0)\n  dup1\n  dataOffset(sub_0)\n  0x00\n  codecopy\n  0x00\n  return\nstop\n\nsub_0: assembly {\n        /* \"004_\\xe5\\x87\\xbd\\xe6\\x95\\xb0\\xe8\\xbe\\x93\\xe5\\x87\\xba.sol\":58:1043  contract func004{... */\n      mstore(0x40, 0x80)\n      callvalue\n      dup1\n      iszero\n      tag_1\n      jumpi\n      0x00\n      dup1\n      revert\n    tag_1:\n      pop\n      jumpi(tag_2, lt(calldatasize, 0x04))\n      shr(0xe0, calldataload(0x00))\n      dup1\n      0x3dece511\n      eq\n      tag_3\n      jumpi\n      dup1\n      0x8552dc08\n      eq\n      tag_4\n      jumpi\n      dup1\n      0xa26a7bca\n      eq\n      tag_5\n      jumpi\n      dup1\n      0xbbd7ba7c\n      eq\n      tag_6\n      jumpi\n      dup1\n      0xd682e445\n      eq\n      tag_7\n      jumpi\n      dup1\n      0xe61e4008\n      eq\n      tag_8\n      jumpi\n    tag_2:\n      0x00\n      dup1\n      revert\n        /* \"004_\\xe5\\x87\\xbd\\xe6\\x95\\xb0\\xe8\\xbe\\x93\\xe5\\x87\\xba.sol\":315:503  function returnNamed() public pure returns(uint256 _number, bool _bool, uint256[3] memory _array){... */\n    tag_3:\n      tag_9\n      tag_10\n      jump\t// in\n    tag_9:\n      mload(0x40)\n      tag_11\n      swap4\n      swap3\n      swap2\n      swap1\n      tag_12\n      jump\t// in\n    tag_11:\n      mload(0x40)\n      dup1\n      swap2\n      sub\n      swap1\n      return\n        /* \"004_\\xe5\\x87\\xbd\\xe6\\x95\\xb0\\xe8\\xbe\\x93\\xe5\\x87\\xba.sol\":556:706  function returnNamed2() public pure returns(uint256 _number, bool _bool, uint256[3] memory _array){... */\n    tag_4:\n      tag_13\n      tag_14\n      jump\t// in\n    tag_13:\n      mload(0x40)\n      tag_15\n      swap4\n      swap3\n      swap2\n      swap1\n      tag_12\n      jump\t// in\n    tag_15:\n      mload(0x40)\n      dup1\n      swap2\n      sub\n      swap1\n      return\n        /* \"004_\\xe5\\x87\\xbd\\xe6\\x95\\xb0\\xe8\\xbe\\x93\\xe5\\x87\\xba.sol\":738:886  function readreturn1() public {... */\n    tag_5:\n      tag_16\n      tag_17\n      jump\t// in\n    tag_16:\n      stop\n        /* \"004_\\xe5\\x87\\xbd\\xe6\\x95\\xb0\\xe8\\xbe\\x93\\xe5\\x87\\xba.sol\":894:1040  function readreturn2() public {... */\n    tag_6:\n      tag_18\n      tag_19\n      jump\t// in\n    tag_18:\n      stop\n        /* \"004_\\xe5\\x87\\xbd\\xe6\\x95\\xb0\\xe8\\xbe\\x93\\xe5\\x87\\xba.sol\":81:110  uint256 public _number5 = 100 */\n    tag_7:\n      tag_20\n      tag_21\n      jump\t// in\n    tag_20:\n      mload(0x40)\n      tag_22\n      swap2\n      swap1\n      tag_23\n      jump\t// in\n    tag_22:\n      mload(0x40)\n      dup1\n      swap2\n      sub\n      swap1\n      return\n        /* \"004_\\xe5\\x87\\xbd\\xe6\\x95\\xb0\\xe8\\xbe\\x93\\xe5\\x87\\xba.sol\":144:283  function returnMultiple() public pure returns(uint256, bool, uint256[3] memory){... */\n    tag_8:\n      tag_24\n      tag_25\n      jump\t// in\n    tag_24:\n      mload(0x40)\n      tag_26\n      swap4\n      swap3\n      swap2\n      swap1\n      tag_12\n      jump\t// in\n    tag_26:\n      mload(0x40)\n      dup1\n      swap2\n      sub\n      swap1\n      return\n        /* \"004_\\xe5\\x87\\xbd\\xe6\\x95\\xb0\\xe8\\xbe\\x93\\xe5\\x87\\xba.sol\":315:503  function returnNamed() public pure returns(uint256 _number, bool _bool, uint256[3] memory _array){... */\n    tag_10:\n        /* \"004_\\xe5\\x87\\xbd\\xe6\\x95\\xb0\\xe8\\xbe\\x93\\xe5\\x87\\xba.sol\":358:373  uint256 _number */\n      0x00\n        /* \"004_\\xe5\\x87\\xbd\\xe6\\x95\\xb0\\xe8\\xbe\\x93\\xe5\\x87\\xba.sol\":375:385  bool _bool */\n      dup1\n        /* \"004_\\xe5\\x87\\xbd\\xe6\\x95\\xb0\\xe8\\xbe\\x93\\xe5\\x87\\xba.sol\":387:411  uint256[3] memory _array */\n      tag_27\n      tag_28\n      jump\t// in\n    tag_27:\n        /* \"004_\\xe5\\x87\\xbd\\xe6\\x95\\xb0\\xe8\\xbe\\x93\\xe5\\x87\\xba.sol\":433:434  2 */\n      0x02\n        /* \"004_\\xe5\\x87\\xbd\\xe6\\x95\\xb0\\xe8\\xbe\\x93\\xe5\\x87\\xba.sol\":423:434  _number = 2 */\n      swap3\n      pop\n        /* \"004_\\xe5\\x87\\xbd\\xe6\\x95\\xb0\\xe8\\xbe\\x93\\xe5\\x87\\xba.sol\":453:458  false */\n      0x00\n        /* \"004_\\xe5\\x87\\xbd\\xe6\\x95\\xb0\\xe8\\xbe\\x93\\xe5\\x87\\xba.sol\":445:458  _bool = false */\n      swap2\n      pop\n        /* \"004_\\xe5\\x87\\xbd\\xe6\\x95\\xb0\\xe8\\xbe\\x93\\xe5\\x87\\xba.sol\":470:495  _array = [uint256(3),2,1] */\n      mload(0x40)\n      dup1\n      0x60\n      add\n      0x40\n      mstore\n      dup1\n        /* \"004_\\xe5\\x87\\xbd\\xe6\\x95\\xb0\\xe8\\xbe\\x93\\xe5\\x87\\xba.sol\":488:489  3 */\n      0x03\n        /* \"004_\\xe5\\x87\\xbd\\xe6\\x95\\xb0\\xe8\\xbe\\x93\\xe5\\x87\\xba.sol\":470:495  _array = [uint256(3),2,1] */\n      dup2\n      mstore\n      0x20\n      add\n        /* \"004_\\xe5\\x87\\xbd\\xe6\\x95\\xb0\\xe8\\xbe\\x93\\xe5\\x87\\xba.sol\":491:492  2 */\n      0x02\n        /* \"004_\\xe5\\x87\\xbd\\xe6\\x95\\xb0\\xe8\\xbe\\x93\\xe5\\x87\\xba.sol\":470:495  _array = [uint256(3),2,1] */\n      dup2\n      mstore\n      0x20\n      add\n        /* \"004_\\xe5\\x87\\xbd\\xe6\\x95\\xb0\\xe8\\xbe\\x93\\xe5\\x87\\xba.sol\":493:494  1 */\n      0x01\n        /* \"004_\\xe5\\x87\\xbd\\xe6\\x95\\xb0\\xe8\\xbe\\x93\\xe5\\x87\\xba.sol\":470:495  _array = [uint256(3),2,1] */\n      dup2\n      mstore\n      pop\n      swap1\n      pop\n        /* \"004_\\xe5\\x87\\xbd\\xe6\\x95\\xb0\\xe8\\xbe\\x93\\xe5\\x87\\xba.sol\":315:503  function returnNamed() public pure returns(uint256 _number, bool _bool, uint256[3] memory _array){... */\n      swap1\n      swap2\n      swap3\n      jump\t// out\n        /* \"004_\\xe5\\x87\\xbd\\xe6\\x95\\xb0\\xe8\\xbe\\x93\\xe5\\x87\\xba.sol\":556:706  function returnNamed2() public pure returns(uint256 _number, bool _bool, uint256[3] memory _array){... */\n    tag_14:\n        /* \"004_\\xe5\\x87\\xbd\\xe6\\x95\\xb0\\xe8\\xbe\\x93\\xe5\\x87\\xba.sol\":600:615  uint256 _number */\n      0x00\n        /* \"004_\\xe5\\x87\\xbd\\xe6\\x95\\xb0\\xe8\\xbe\\x93\\xe5\\x87\\xba.sol\":617:627  bool _bool */\n      dup1\n        /* \"004_\\xe5\\x87\\xbd\\xe6\\x95\\xb0\\xe8\\xbe\\x93\\xe5\\x87\\xba.sol\":629:653  uint256[3] memory _array */\n      tag_30\n      tag_28\n      jump\t// in\n    tag_30:\n        /* \"004_\\xe5\\x87\\xbd\\xe6\\x95\\xb0\\xe8\\xbe\\x93\\xe5\\x87\\xba.sol\":672:673  1 */\n      0x01\n        /* \"004_\\xe5\\x87\\xbd\\xe6\\x95\\xb0\\xe8\\xbe\\x93\\xe5\\x87\\xba.sol\":675:679  true */\n      dup1\n        /* \"004_\\xe5\\x87\\xbd\\xe6\\x95\\xb0\\xe8\\xbe\\x93\\xe5\\x87\\xba.sol\":665:698  return(1, true, [uint256(1),2,5]) */\n      mload(0x40)\n      dup1\n      0x60\n      add\n      0x40\n      mstore\n      dup1\n        /* \"004_\\xe5\\x87\\xbd\\xe6\\x95\\xb0\\xe8\\xbe\\x93\\xe5\\x87\\xba.sol\":690:691  1 */\n      0x01\n        /* \"004_\\xe5\\x87\\xbd\\xe6\\x95\\xb0\\xe8\\xbe\\x93\\xe5\\x87\\xba.sol\":665:698  return(1, true, [uint256(1),2,5]) */\n      dup2\n      mstore\n      0x20\n      add\n        /* \"004_\\xe5\\x87\\xbd\\xe6\\x95\\xb0\\xe8\\xbe\\x93\\xe5\\x87\\xba.sol\":693:694  2 */\n      0x02\n        /* \"004_\\xe5\\x87\\xbd\\xe6\\x95\\xb0\\xe8\\xbe\\x93\\xe5\\x87\\xba.sol\":665:698  return(1, true, [uint256(1),2,5]) */\n      dup2\n      mstore\n      0x20\n      add\n        /* \"004_\\xe5\\x87\\xbd\\xe6\\x95\\xb0\\xe8\\xbe\\x93\\xe5\\x87\\xba.sol\":695:696  5 */\n      0x05\n        /* \"004_\\xe5\\x87\\xbd\\xe6\\x95\\xb0\\xe8\\xbe\\x93\\xe5\\x87\\xba.sol\":665:698  return(1, true, [uint256(1),2,5]) */\n      dup2\n      mstore\n      pop\n      swap3\n      pop\n      swap3\n      pop\n      swap3\n      pop\n        /* \"004_\\xe5\\x87\\xbd\\xe6\\x95\\xb0\\xe8\\xbe\\x93\\xe5\\x87\\xba.sol\":556:706  function returnNamed2() public pure returns(uint256 _number, bool _bool, uint256[3] memory _array){... */\n      swap1\n      swap2\n      swap3\n      jump\t// out\n        /* \"004_\\xe5\\x87\\xbd\\xe6\\x95\\xb0\\xe8\\xbe\\x93\\xe5\\x87\\xba.sol\":738:886  function readreturn1() public {... */\n    tag_17:\n        /* \"004_\\xe5\\x87\\xbd\\xe6\\x95\\xb0\\xe8\\xbe\\x93\\xe5\\x87\\xba.sol\":779:789  bool _bool */\n      0x00\n        /* \"004_\\xe5\\x87\\xbd\\xe6\\x95\\xb0\\xe8\\xbe\\x93\\xe5\\x87\\xba.sol\":800:824  uint256[3] memory _array */\n      tag_33\n      tag_28\n      jump\t// in\n    tag_33:\n        /* \"004_\\xe5\\x87\\xbd\\xe6\\x95\\xb0\\xe8\\xbe\\x93\\xe5\\x87\\xba.sol\":863:876  returnNamed() */\n      tag_34\n        /* \"004_\\xe5\\x87\\xbd\\xe6\\x95\\xb0\\xe8\\xbe\\x93\\xe5\\x87\\xba.sol\":863:874  returnNamed */\n      tag_10\n        /* \"004_\\xe5\\x87\\xbd\\xe6\\x95\\xb0\\xe8\\xbe\\x93\\xe5\\x87\\xba.sol\":863:876  returnNamed() */\n      jump\t// in\n    tag_34:\n        /* \"004_\\xe5\\x87\\xbd\\xe6\\x95\\xb0\\xe8\\xbe\\x93\\xe5\\x87\\xba.sol\":836:844  _number5 */\n      0x00\n      dup1\n        /* \"004_\\xe5\\x87\\xbd\\xe6\\x95\\xb0\\xe8\\xbe\\x93\\xe5\\x87\\xba.sol\":835:876  (_number5, _bool, _array) = returnNamed() */\n      dup3\n      swap6\n      pop\n      dup4\n      swap7\n      pop\n      dup5\n      swap2\n      swap1\n      pop\n      sstore\n      pop\n      pop\n      pop\n        /* \"004_\\xe5\\x87\\xbd\\xe6\\x95\\xb0\\xe8\\xbe\\x93\\xe5\\x87\\xba.sol\":768:886  {... */\n      pop\n      pop\n        /* \"004_\\xe5\\x87\\xbd\\xe6\\x95\\xb0\\xe8\\xbe\\x93\\xe5\\x87\\xba.sol\":738:886  function readreturn1() public {... */\n      jump\t// out\n        /* \"004_\\xe5\\x87\\xbd\\xe6\\x95\\xb0\\xe8\\xbe\\x93\\xe5\\x87\\xba.sol\":894:1040  function readreturn2() public {... */\n    tag_19:\n        /* \"004_\\xe5\\x87\\xbd\\xe6\\x95\\xb0\\xe8\\xbe\\x93\\xe5\\x87\\xba.sol\":935:946  bool _bool2 */\n      0x00\n        /* \"004_\\xe5\\x87\\xbd\\xe6\\x95\\xb0\\xe8\\xbe\\x93\\xe5\\x87\\xba.sol\":957:982  uint256[3] memory _array2 */\n      tag_36\n      tag_28\n      jump\t// in\n    tag_36:\n        /* \"004_\\xe5\\x87\\xbd\\xe6\\x95\\xb0\\xe8\\xbe\\x93\\xe5\\x87\\xba.sol\":1018:1032  returnNamed2() */\n      tag_37\n        /* \"004_\\xe5\\x87\\xbd\\xe6\\x95\\xb0\\xe8\\xbe\\x93\\xe5\\x87\\xba.sol\":1018:1030  returnNamed2 */\n      tag_14\n        /* \"004_\\xe5\\x87\\xbd\\xe6\\x95\\xb0\\xe8\\xbe\\x93\\xe5\\x87\\xba.sol\":1018:1032  returnNamed2() */\n      jump\t// in\n    tag_37:\n        /* \"004_\\xe5\\x87\\xbd\\xe6\\x95\\xb0\\xe8\\xbe\\x93\\xe5\\x87\\xba.sol\":995:1032  (_number5, _bool2, ) = returnNamed2() */\n      pop\n        /* \"004_\\xe5\\x87\\xbd\\xe6\\x95\\xb0\\xe8\\xbe\\x93\\xe5\\x87\\xba.sol\":996:1004  _number5 */\n      0x00\n      dup1\n        /* \"004_\\xe5\\x87\\xbd\\xe6\\x95\\xb0\\xe8\\xbe\\x93\\xe5\\x87\\xba.sol\":995:1032  (_number5, _bool2, ) = returnNamed2() */\n      dup3\n      swap6\n      pop\n      dup4\n      swap2\n      swap1\n      pop\n      sstore\n      pop\n      pop\n        /* \"004_\\xe5\\x87\\xbd\\xe6\\x95\\xb0\\xe8\\xbe\\x93\\xe5\\x87\\xba.sol\":924:1040  {... */\n      pop\n      pop\n        /* \"004_\\xe5\\x87\\xbd\\xe6\\x95\\xb0\\xe8\\xbe\\x93\\xe5\\x87\\xba.sol\":894:1040  function readreturn2() public {... */\n      jump\t// out\n        /* \"004_\\xe5\\x87\\xbd\\xe6\\x95\\xb0\\xe8\\xbe\\x93\\xe5\\x87\\xba.sol\":81:110  uint256 public _number5 = 100 */\n    tag_21:\n      sload(0x00)\n      dup2\n      jump\t// out\n        /* \"004_\\xe5\\x87\\xbd\\xe6\\x95\\xb0\\xe8\\xbe\\x93\\xe5\\x87\\xba.sol\":144:283  function returnMultiple() public pure returns(uint256, bool, uint256[3] memory){... */\n    tag_25:\n        /* \"004_\\xe5\\x87\\xbd\\xe6\\x95\\xb0\\xe8\\xbe\\x93\\xe5\\x87\\xba.sol\":190:197  uint256 */\n      0x00\n        /* \"004_\\xe5\\x87\\xbd\\xe6\\x95\\xb0\\xe8\\xbe\\x93\\xe5\\x87\\xba.sol\":199:203  bool */\n      dup1\n        /* \"004_\\xe5\\x87\\xbd\\xe6\\x95\\xb0\\xe8\\xbe\\x93\\xe5\\x87\\xba.sol\":205:222  uint256[3] memory */\n      tag_38\n      tag_28\n      jump\t// in\n    tag_38:\n        /* \"004_\\xe5\\x87\\xbd\\xe6\\x95\\xb0\\xe8\\xbe\\x93\\xe5\\x87\\xba.sol\":245:246  1 */\n      0x01\n        /* \"004_\\xe5\\x87\\xbd\\xe6\\x95\\xb0\\xe8\\xbe\\x93\\xe5\\x87\\xba.sol\":248:252  true */\n      dup1\n        /* \"004_\\xe5\\x87\\xbd\\xe6\\x95\\xb0\\xe8\\xbe\\x93\\xe5\\x87\\xba.sol\":238:271  return(1, true, [uint256(8),2,5]) */\n      mload(0x40)\n      dup1\n      0x60\n      add\n      0x40\n      mstore\n      dup1\n        /* \"004_\\xe5\\x87\\xbd\\xe6\\x95\\xb0\\xe8\\xbe\\x93\\xe5\\x87\\xba.sol\":263:264  8 */\n      0x08\n        /* \"004_\\xe5\\x87\\xbd\\xe6\\x95\\xb0\\xe8\\xbe\\x93\\xe5\\x87\\xba.sol\":238:271  return(1, true, [uint256(8),2,5]) */\n      dup2\n      mstore\n      0x20\n      add\n        /* \"004_\\xe5\\x87\\xbd\\xe6\\x95\\xb0\\xe8\\xbe\\x93\\xe5\\x87\\xba.sol\":266:267  2 */\n      0x02\n        /* \"004_\\xe5\\x87\\xbd\\xe6\\x95\\xb0\\xe8\\xbe\\x93\\xe5\\x87\\xba.sol\":238:271  return(1, true, [uint256(8),2,5]) */\n      dup2\n      mstore\n      0x20\n      add\n        /* \"004_\\xe5\\x87\\xbd\\xe6\\x95\\xb0\\xe8\\xbe\\x93\\xe5\\x87\\xba.sol\":268:269  5 */\n      0x05\n        /* \"004_\\xe5\\x87\\xbd\\xe6\\x95\\xb0\\xe8\\xbe\\x93\\xe5\\x87\\xba.sol\":238:271  return(1, true, [uint256(8),2,5]) */\n      dup2\n      mstore\n      pop\n      swap3\n      pop\n      swap3\n      pop\n      swap3\n      pop\n        /* \"004_\\xe5\\x87\\xbd\\xe6\\x95\\xb0\\xe8\\xbe\\x93\\xe5\\x87\\xba.sol\":144:283  function returnMultiple() public pure returns(uint256, bool, uint256[3] memory){... */\n      swap1\n      swap2\n      swap3\n      jump\t// out\n    tag_28:\n      mload(0x40)\n      dup1\n      0x60\n      add\n      0x40\n      mstore\n      dup1\n      0x03\n      swap1\n      0x20\n      dup3\n      mul\n      dup1\n      calldatasize\n      dup4\n      calldatacopy\n      dup1\n      dup3\n      add\n      swap2\n      pop\n      pop\n      swap1\n      pop\n      pop\n      swap1\n      jump\t// out\n        /* \"#utility.yul\":7:84   */\n    tag_40:\n        /* \"#utility.yul\":44:51   */\n      0x00\n        /* \"#utility.yul\":73:78   */\n      dup2\n        /* \"#utility.yul\":62:78   */\n      swap1\n      pop\n        /* \"#utility.yul\":7:84   */\n      swap2\n      swap1\n      pop\n      jump\t// out\n        /* \"#utility.yul\":90:208   */\n    tag_41:\n        /* \"#utility.yul\":177:201   */\n      tag_54\n        /* \"#utility.yul\":195:200   */\n      dup2\n        /* \"#utility.yul\":177:201   */\n      tag_40\n      jump\t// in\n    tag_54:\n        /* \"#utility.yul\":172:175   */\n      dup3\n        /* \"#utility.yul\":165:202   */\n      mstore\n        /* \"#utility.yul\":90:208   */\n      pop\n      pop\n      jump\t// out\n        /* \"#utility.yul\":214:304   */\n    tag_42:\n        /* \"#utility.yul\":248:255   */\n      0x00\n        /* \"#utility.yul\":291:296   */\n      dup2\n        /* \"#utility.yul\":284:297   */\n      iszero\n        /* \"#utility.yul\":277:298   */\n      iszero\n        /* \"#utility.yul\":266:298   */\n      swap1\n      pop\n        /* \"#utility.yul\":214:304   */\n      swap2\n      swap1\n      pop\n      jump\t// out\n        /* \"#utility.yul\":310:419   */\n    tag_43:\n        /* \"#utility.yul\":391:412   */\n      tag_57\n        /* \"#utility.yul\":406:411   */\n      dup2\n        /* \"#utility.yul\":391:412   */\n      tag_42\n      jump\t// in\n    tag_57:\n        /* \"#utility.yul\":386:389   */\n      dup3\n        /* \"#utility.yul\":379:413   */\n      mstore\n        /* \"#utility.yul\":310:419   */\n      pop\n      pop\n      jump\t// out\n        /* \"#utility.yul\":425:529   */\n    tag_44:\n        /* \"#utility.yul\":490:496   */\n      0x00\n        /* \"#utility.yul\":518:522   */\n      0x03\n        /* \"#utility.yul\":508:522   */\n      swap1\n      pop\n        /* \"#utility.yul\":425:529   */\n      swap2\n      swap1\n      pop\n      jump\t// out\n        /* \"#utility.yul\":535:678   */\n    tag_45:\n        /* \"#utility.yul\":632:643   */\n      0x00\n        /* \"#utility.yul\":669:672   */\n      dup2\n        /* \"#utility.yul\":654:672   */\n      swap1\n      pop\n        /* \"#utility.yul\":535:678   */\n      swap3\n      swap2\n      pop\n      pop\n      jump\t// out\n        /* \"#utility.yul\":684:782   */\n    tag_46:\n        /* \"#utility.yul\":749:753   */\n      0x00\n        /* \"#utility.yul\":772:775   */\n      dup2\n        /* \"#utility.yul\":764:775   */\n      swap1\n      pop\n        /* \"#utility.yul\":684:782   */\n      swap2\n      swap1\n      pop\n      jump\t// out\n        /* \"#utility.yul\":788:896   */\n    tag_47:\n        /* \"#utility.yul\":865:889   */\n      tag_62\n        /* \"#utility.yul\":883:888   */\n      dup2\n        /* \"#utility.yul\":865:889   */\n      tag_40\n      jump\t// in\n    tag_62:\n        /* \"#utility.yul\":860:863   */\n      dup3\n        /* \"#utility.yul\":853:890   */\n      mstore\n        /* \"#utility.yul\":788:896   */\n      pop\n      pop\n      jump\t// out\n        /* \"#utility.yul\":902:1081   */\n    tag_48:\n        /* \"#utility.yul\":971:981   */\n      0x00\n        /* \"#utility.yul\":992:1038   */\n      tag_64\n        /* \"#utility.yul\":1034:1037   */\n      dup4\n        /* \"#utility.yul\":1026:1032   */\n      dup4\n        /* \"#utility.yul\":992:1038   */\n      tag_47\n      jump\t// in\n    tag_64:\n        /* \"#utility.yul\":1070:1074   */\n      0x20\n        /* \"#utility.yul\":1065:1068   */\n      dup4\n        /* \"#utility.yul\":1061:1075   */\n      add\n        /* \"#utility.yul\":1047:1075   */\n      swap1\n      pop\n        /* \"#utility.yul\":902:1081   */\n      swap3\n      swap2\n      pop\n      pop\n      jump\t// out\n        /* \"#utility.yul\":1087:1198   */\n    tag_49:\n        /* \"#utility.yul\":1155:1159   */\n      0x00\n        /* \"#utility.yul\":1187:1191   */\n      0x20\n        /* \"#utility.yul\":1182:1185   */\n      dup3\n        /* \"#utility.yul\":1178:1192   */\n      add\n        /* \"#utility.yul\":1170:1192   */\n      swap1\n      pop\n        /* \"#utility.yul\":1087:1198   */\n      swap2\n      swap1\n      pop\n      jump\t// out\n        /* \"#utility.yul\":1236:1930   */\n    tag_50:\n        /* \"#utility.yul\":1372:1424   */\n      tag_67\n        /* \"#utility.yul\":1418:1423   */\n      dup2\n        /* \"#utility.yul\":1372:1424   */\n      tag_44\n      jump\t// in\n    tag_67:\n        /* \"#utility.yul\":1440:1524   */\n      tag_68\n        /* \"#utility.yul\":1517:1523   */\n      dup2\n        /* \"#utility.yul\":1512:1515   */\n      dup5\n        /* \"#utility.yul\":1440:1524   */\n      tag_45\n      jump\t// in\n    tag_68:\n        /* \"#utility.yul\":1433:1524   */\n      swap3\n      pop\n        /* \"#utility.yul\":1548:1602   */\n      tag_69\n        /* \"#utility.yul\":1596:1601   */\n      dup3\n        /* \"#utility.yul\":1548:1602   */\n      tag_46\n      jump\t// in\n    tag_69:\n        /* \"#utility.yul\":1625:1632   */\n      dup1\n        /* \"#utility.yul\":1656:1657   */\n      0x00\n        /* \"#utility.yul\":1641:1923   */\n    tag_70:\n        /* \"#utility.yul\":1666:1672   */\n      dup4\n        /* \"#utility.yul\":1663:1664   */\n      dup2\n        /* \"#utility.yul\":1660:1673   */\n      lt\n        /* \"#utility.yul\":1641:1923   */\n      iszero\n      tag_72\n      jumpi\n        /* \"#utility.yul\":1742:1748   */\n      dup2\n        /* \"#utility.yul\":1736:1749   */\n      mload\n        /* \"#utility.yul\":1769:1832   */\n      tag_73\n        /* \"#utility.yul\":1828:1831   */\n      dup8\n        /* \"#utility.yul\":1813:1826   */\n      dup3\n        /* \"#utility.yul\":1769:1832   */\n      tag_48\n      jump\t// in\n    tag_73:\n        /* \"#utility.yul\":1762:1832   */\n      swap7\n      pop\n        /* \"#utility.yul\":1855:1913   */\n      tag_74\n        /* \"#utility.yul\":1906:1912   */\n      dup4\n        /* \"#utility.yul\":1855:1913   */\n      tag_49\n      jump\t// in\n    tag_74:\n        /* \"#utility.yul\":1845:1913   */\n      swap3\n      pop\n        /* \"#utility.yul\":1701:1923   */\n      pop\n        /* \"#utility.yul\":1688:1689   */\n      0x01\n        /* \"#utility.yul\":1685:1686   */\n      dup2\n        /* \"#utility.yul\":1681:1690   */\n      add\n        /* \"#utility.yul\":1676:1690   */\n      swap1\n      pop\n        /* \"#utility.yul\":1641:1923   */\n      jump(tag_70)\n    tag_72:\n        /* \"#utility.yul\":1645:1659   */\n      pop\n        /* \"#utility.yul\":1348:1930   */\n      pop\n      pop\n      pop\n        /* \"#utility.yul\":1236:1930   */\n      pop\n      pop\n      jump\t// out\n        /* \"#utility.yul\":1936:2459   */\n    tag_12:\n        /* \"#utility.yul\":2125:2129   */\n      0x00\n        /* \"#utility.yul\":2163:2166   */\n      0xa0\n        /* \"#utility.yul\":2152:2161   */\n      dup3\n        /* \"#utility.yul\":2148:2167   */\n      add\n        /* \"#utility.yul\":2140:2167   */\n      swap1\n      pop\n        /* \"#utility.yul\":2177:2248   */\n      tag_76\n        /* \"#utility.yul\":2245:2246   */\n      0x00\n        /* \"#utility.yul\":2234:2243   */\n      dup4\n        /* \"#utility.yul\":2230:2247   */\n      add\n        /* \"#utility.yul\":2221:2227   */\n      dup7\n        /* \"#utility.yul\":2177:2248   */\n      tag_41\n      jump\t// in\n    tag_76:\n        /* \"#utility.yul\":2258:2324   */\n      tag_77\n        /* \"#utility.yul\":2320:2322   */\n      0x20\n        /* \"#utility.yul\":2309:2318   */\n      dup4\n        /* \"#utility.yul\":2305:2323   */\n      add\n        /* \"#utility.yul\":2296:2302   */\n      dup6\n        /* \"#utility.yul\":2258:2324   */\n      tag_43\n      jump\t// in\n    tag_77:\n        /* \"#utility.yul\":2334:2452   */\n      tag_78\n        /* \"#utility.yul\":2448:2450   */\n      0x40\n        /* \"#utility.yul\":2437:2446   */\n      dup4\n        /* \"#utility.yul\":2433:2451   */\n      add\n        /* \"#utility.yul\":2424:2430   */\n      dup5\n        /* \"#utility.yul\":2334:2452   */\n      tag_50\n      jump\t// in\n    tag_78:\n        /* \"#utility.yul\":1936:2459   */\n      swap5\n      swap4\n      pop\n      pop\n      pop\n      pop\n      jump\t// out\n        /* \"#utility.yul\":2465:2687   */\n    tag_23:\n        /* \"#utility.yul\":2558:2562   */\n      0x00\n        /* \"#utility.yul\":2596:2598   */\n      0x20\n        /* \"#utility.yul\":2585:2594   */\n      dup3\n        /* \"#utility.yul\":2581:2599   */\n      add\n        /* \"#utility.yul\":2573:2599   */\n      swap1\n      pop\n        /* \"#utility.yul\":2609:2680   */\n      tag_80\n        /* \"#utility.yul\":2677:2678   */\n      0x00\n        /* \"#utility.yul\":2666:2675   */\n      dup4\n        /* \"#utility.yul\":2662:2679   */\n      add\n        /* \"#utility.yul\":2653:2659   */\n      dup5\n        /* \"#utility.yul\":2609:2680   */\n      tag_41\n      jump\t// in\n    tag_80:\n        /* \"#utility.yul\":2465:2687   */\n      swap3\n      swap2\n      pop\n      pop\n      jump\t// out\n\n    auxdata: 0xa26469706673582212206d9e7d4dd71bdbcaac90023e0cf80e7ce28f5fe237f60bc1f17e25e5d377d41764736f6c63430008120033\n}\n",
				"bytecode": {
					"linkReferences": {},
					"object": "6080604052606460005534801561001557600080fd5b50610379806100256000396000f3fe608060405234801561001057600080fd5b50600436106100625760003560e01c80633dece511146100675780638552dc0814610087578063a26a7bca146100a7578063bbd7ba7c146100b1578063d682e445146100bb578063e61e4008146100d9575b600080fd5b61006f6100f9565b60405161007e939291906102f1565b60405180910390f35b61008f610131565b60405161009e939291906102f1565b60405180910390f35b6100af610168565b005b6100b961018f565b005b6100c36101b3565b6040516100d09190610328565b60405180910390f35b6100e16101b9565b6040516100f0939291906102f1565b60405180910390f35b6000806101046101f0565b60029250600091506040518060600160405280600381526020016002815260200160018152509050909192565b60008061013c6101f0565b600180604051806060016040528060018152602001600281526020016005815250925092509250909192565b60006101726101f0565b61017a6100f9565b60008082955083965084919050555050505050565b60006101996101f0565b6101a1610131565b50600080829550839190505550505050565b60005481565b6000806101c46101f0565b600180604051806060016040528060088152602001600281526020016005815250925092509250909192565b6040518060600160405280600390602082028036833780820191505090505090565b6000819050919050565b61022581610212565b82525050565b60008115159050919050565b6102408161022b565b82525050565b600060039050919050565b600081905092915050565b6000819050919050565b61026f81610212565b82525050565b60006102818383610266565b60208301905092915050565b6000602082019050919050565b6102a381610246565b6102ad8184610251565b92506102b88261025c565b8060005b838110156102e95781516102d08782610275565b96506102db8361028d565b9250506001810190506102bc565b505050505050565b600060a082019050610306600083018661021c565b6103136020830185610237565b610320604083018461029a565b949350505050565b600060208201905061033d600083018461021c565b9291505056fea26469706673582212206d9e7d4dd71bdbcaac90023e0cf80e7ce28f5fe237f60bc1f17e25e5d377d41764736f6c63430008120033",
					"opcodes": "PUSH1 0x80 PUSH1 0x40 MSTORE PUSH1 0x64 PUSH1 0x0 SSTORE CALLVALUE DUP1 ISZERO PUSH2 0x15 JUMPI PUSH1 0x0 DUP1 REVERT JUMPDEST POP PUSH2 0x379 DUP1 PUSH2 0x25 PUSH1 0x0 CODECOPY PUSH1 0x0 RETURN INVALID PUSH1 0x80 PUSH1 0x40 MSTORE CALLVALUE DUP1 ISZERO PUSH2 0x10 JUMPI PUSH1 0x0 DUP1 REVERT JUMPDEST POP PUSH1 0x4 CALLDATASIZE LT PUSH2 0x62 JUMPI PUSH1 0x0 CALLDATALOAD PUSH1 0xE0 SHR DUP1 PUSH4 0x3DECE511 EQ PUSH2 0x67 JUMPI DUP1 PUSH4 0x8552DC08 EQ PUSH2 0x87 JUMPI DUP1 PUSH4 0xA26A7BCA EQ PUSH2 0xA7 JUMPI DUP1 PUSH4 0xBBD7BA7C EQ PUSH2 0xB1 JUMPI DUP1 PUSH4 0xD682E445 EQ PUSH2 0xBB JUMPI DUP1 PUSH4 0xE61E4008 EQ PUSH2 0xD9 JUMPI JUMPDEST PUSH1 0x0 DUP1 REVERT JUMPDEST PUSH2 0x6F PUSH2 0xF9 JUMP JUMPDEST PUSH1 0x40 MLOAD PUSH2 0x7E SWAP4 SWAP3 SWAP2 SWAP1 PUSH2 0x2F1 JUMP JUMPDEST PUSH1 0x40 MLOAD DUP1 SWAP2 SUB SWAP1 RETURN JUMPDEST PUSH2 0x8F PUSH2 0x131 JUMP JUMPDEST PUSH1 0x40 MLOAD PUSH2 0x9E SWAP4 SWAP3 SWAP2 SWAP1 PUSH2 0x2F1 JUMP JUMPDEST PUSH1 0x40 MLOAD DUP1 SWAP2 SUB SWAP1 RETURN JUMPDEST PUSH2 0xAF PUSH2 0x168 JUMP JUMPDEST STOP JUMPDEST PUSH2 0xB9 PUSH2 0x18F JUMP JUMPDEST STOP JUMPDEST PUSH2 0xC3 PUSH2 0x1B3 JUMP JUMPDEST PUSH1 0x40 MLOAD PUSH2 0xD0 SWAP2 SWAP1 PUSH2 0x328 JUMP JUMPDEST PUSH1 0x40 MLOAD DUP1 SWAP2 SUB SWAP1 RETURN JUMPDEST PUSH2 0xE1 PUSH2 0x1B9 JUMP JUMPDEST PUSH1 0x40 MLOAD PUSH2 0xF0 SWAP4 SWAP3 SWAP2 SWAP1 PUSH2 0x2F1 JUMP JUMPDEST PUSH1 0x40 MLOAD DUP1 SWAP2 SUB SWAP1 RETURN JUMPDEST PUSH1 0x0 DUP1 PUSH2 0x104 PUSH2 0x1F0 JUMP JUMPDEST PUSH1 0x2 SWAP3 POP PUSH1 0x0 SWAP2 POP PUSH1 0x40 MLOAD DUP1 PUSH1 0x60 ADD PUSH1 0x40 MSTORE DUP1 PUSH1 0x3 DUP2 MSTORE PUSH1 0x20 ADD PUSH1 0x2 DUP2 MSTORE PUSH1 0x20 ADD PUSH1 0x1 DUP2 MSTORE POP SWAP1 POP SWAP1 SWAP2 SWAP3 JUMP JUMPDEST PUSH1 0x0 DUP1 PUSH2 0x13C PUSH2 0x1F0 JUMP JUMPDEST PUSH1 0x1 DUP1 PUSH1 0x40 MLOAD DUP1 PUSH1 0x60 ADD PUSH1 0x40 MSTORE DUP1 PUSH1 0x1 DUP2 MSTORE PUSH1 0x20 ADD PUSH1 0x2 DUP2 MSTORE PUSH1 0x20 ADD PUSH1 0x5 DUP2 MSTORE POP SWAP3 POP SWAP3 POP SWAP3 POP SWAP1 SWAP2 SWAP3 JUMP JUMPDEST PUSH1 0x0 PUSH2 0x172 PUSH2 0x1F0 JUMP JUMPDEST PUSH2 0x17A PUSH2 0xF9 JUMP JUMPDEST PUSH1 0x0 DUP1 DUP3 SWAP6 POP DUP4 SWAP7 POP DUP5 SWAP2 SWAP1 POP SSTORE POP POP POP POP POP JUMP JUMPDEST PUSH1 0x0 PUSH2 0x199 PUSH2 0x1F0 JUMP JUMPDEST PUSH2 0x1A1 PUSH2 0x131 JUMP JUMPDEST POP PUSH1 0x0 DUP1 DUP3 SWAP6 POP DUP4 SWAP2 SWAP1 POP SSTORE POP POP POP POP JUMP JUMPDEST PUSH1 0x0 SLOAD DUP2 JUMP JUMPDEST PUSH1 0x0 DUP1 PUSH2 0x1C4 PUSH2 0x1F0 JUMP JUMPDEST PUSH1 0x1 DUP1 PUSH1 0x40 MLOAD DUP1 PUSH1 0x60 ADD PUSH1 0x40 MSTORE DUP1 PUSH1 0x8 DUP2 MSTORE PUSH1 0x20 ADD PUSH1 0x2 DUP2 MSTORE PUSH1 0x20 ADD PUSH1 0x5 DUP2 MSTORE POP SWAP3 POP SWAP3 POP SWAP3 POP SWAP1 SWAP2 SWAP3 JUMP JUMPDEST PUSH1 0x40 MLOAD DUP1 PUSH1 0x60 ADD PUSH1 0x40 MSTORE DUP1 PUSH1 0x3 SWAP1 PUSH1 0x20 DUP3 MUL DUP1 CALLDATASIZE DUP4 CALLDATACOPY DUP1 DUP3 ADD SWAP2 POP POP SWAP1 POP POP SWAP1 JUMP JUMPDEST PUSH1 0x0 DUP2 SWAP1 POP SWAP2 SWAP1 POP JUMP JUMPDEST PUSH2 0x225 DUP2 PUSH2 0x212 JUMP JUMPDEST DUP3 MSTORE POP POP JUMP JUMPDEST PUSH1 0x0 DUP2 ISZERO ISZERO SWAP1 POP SWAP2 SWAP1 POP JUMP JUMPDEST PUSH2 0x240 DUP2 PUSH2 0x22B JUMP JUMPDEST DUP3 MSTORE POP POP JUMP JUMPDEST PUSH1 0x0 PUSH1 0x3 SWAP1 POP SWAP2 SWAP1 POP JUMP JUMPDEST PUSH1 0x0 DUP2 SWAP1 POP SWAP3 SWAP2 POP POP JUMP JUMPDEST PUSH1 0x0 DUP2 SWAP1 POP SWAP2 SWAP1 POP JUMP JUMPDEST PUSH2 0x26F DUP2 PUSH2 0x212 JUMP JUMPDEST DUP3 MSTORE POP POP JUMP JUMPDEST PUSH1 0x0 PUSH2 0x281 DUP4 DUP4 PUSH2 0x266 JUMP JUMPDEST PUSH1 0x20 DUP4 ADD SWAP1 POP SWAP3 SWAP2 POP POP JUMP JUMPDEST PUSH1 0x0 PUSH1 0x20 DUP3 ADD SWAP1 POP SWAP2 SWAP1 POP JUMP JUMPDEST PUSH2 0x2A3 DUP2 PUSH2 0x246 JUMP JUMPDEST PUSH2 0x2AD DUP2 DUP5 PUSH2 0x251 JUMP JUMPDEST SWAP3 POP PUSH2 0x2B8 DUP3 PUSH2 0x25C JUMP JUMPDEST DUP1 PUSH1 0x0 JUMPDEST DUP4 DUP2 LT ISZERO PUSH2 0x2E9 JUMPI DUP2 MLOAD PUSH2 0x2D0 DUP8 DUP3 PUSH2 0x275 JUMP JUMPDEST SWAP7 POP PUSH2 0x2DB DUP4 PUSH2 0x28D JUMP JUMPDEST SWAP3 POP POP PUSH1 0x1 DUP2 ADD SWAP1 POP PUSH2 0x2BC JUMP JUMPDEST POP POP POP POP POP POP JUMP JUMPDEST PUSH1 0x0 PUSH1 0xA0 DUP3 ADD SWAP1 POP PUSH2 0x306 PUSH1 0x0 DUP4 ADD DUP7 PUSH2 0x21C JUMP JUMPDEST PUSH2 0x313 PUSH1 0x20 DUP4 ADD DUP6 PUSH2 0x237 JUMP JUMPDEST PUSH2 0x320 PUSH1 0x40 DUP4 ADD DUP5 PUSH2 0x29A JUMP JUMPDEST SWAP5 SWAP4 POP POP POP POP JUMP JUMPDEST PUSH1 0x0 PUSH1 0x20 DUP3 ADD SWAP1 POP PUSH2 0x33D PUSH1 0x0 DUP4 ADD DUP5 PUSH2 0x21C JUMP JUMPDEST SWAP3 SWAP2 POP POP JUMP INVALID LOG2 PUSH5 0x6970667358 0x22 SLT KECCAK256 PUSH14 0x9E7D4DD71BDBCAAC90023E0CF80E PUSH29 0xE28F5FE237F60BC1F17E25E5D377D41764736F6C634300081200330000 "
				},
				"gasEstimates": {
					"creation": {
						"codeDepositCost": "177800",
						"executionCost": "22326",
						"totalCost": "200126"
					},
					"external": {
						"_number5()": "2495",
						"readreturn1()": "infinite",
						"readreturn2()": "infinite",
						"returnMultiple()": "infinite",
						"returnNamed()": "infinite",
						"returnNamed2()": "infinite"
					}
				},
				"methodIdentifiers": {
					"_number5()": "d682e445",
					"readreturn1()": "a26a7bca",
					"readreturn2()": "bbd7ba7c",
					"returnMultiple()": "e61e4008",
					"returnNamed()": "3dece511",
					"returnNamed2()": "8552dc08"
				}
			},
			"storageLayout": {
				"storage": [
					{
						"astId": 4,
						"contract": "004_函数输出.sol:func004",
						"label": "_number5",
						"offset": 0,
						"slot": "0",
						"type": "t_uint256"
					}
				],
				"types": {
					"t_uint256": {
						"encoding": "inplace",
						"label": "uint256",
						"numberOfBytes": "32"
					}
				}
			},
			"userdoc": {
				"kind": "user",
				"methods": {},
				"version": 1
			}
		}
	}
}