{
	"data": {
		"bytecode": {
			"linkReferences": {},
			"object": "608060405234801561001057600080fd5b5061027e806100206000396000f3fe608060405234801561001057600080fd5b50600436106100365760003560e01c80634534a4381461003b578063d2406c781461006c575b600080fd5b61005560048036038101906100509190610152565b61009d565b60405161006392919061018e565b60405180910390f35b61008660048036038101906100819190610152565b6100e5565b60405161009492919061018e565b60405180910390f35b600080826100aa846100e5565b9250925060006002826100bd91906101e6565b1480156100d6575060006003826100d491906101e6565b145b6100df57600080fd5b50915091565b60008060006002846100f79190610217565b905060006003856101089190610217565b90508181935093505050915091565b600080fd5b6000819050919050565b61012f8161011c565b811461013a57600080fd5b50565b60008135905061014c81610126565b92915050565b60006020828403121561016857610167610117565b5b60006101768482850161013d565b91505092915050565b6101888161011c565b82525050565b60006040820190506101a3600083018561017f565b6101b0602083018461017f565b9392505050565b7f4e487b7100000000000000000000000000000000000000000000000000000000600052601260045260246000fd5b60006101f18261011c565b91506101fc8361011c565b92508261020c5761020b6101b7565b5b828206905092915050565b60006102228261011c565b915061022d8361011c565b92508261023d5761023c6101b7565b5b82820490509291505056fea2646970667358221220c31e3efdd30fc2d16e54f63c550a1efba95b1303e3a673264e7ca11398df341464736f6c63430008120033",
			"opcodes": "PUSH1 0x80 PUSH1 0x40 MSTORE CALLVALUE DUP1 ISZERO PUSH2 0x10 JUMPI PUSH1 0x0 DUP1 REVERT JUMPDEST POP PUSH2 0x27E DUP1 PUSH2 0x20 PUSH1 0x0 CODECOPY PUSH1 0x0 RETURN INVALID PUSH1 0x80 PUSH1 0x40 MSTORE CALLVALUE DUP1 ISZERO PUSH2 0x10 JUMPI PUSH1 0x0 DUP1 REVERT JUMPDEST POP PUSH1 0x4 CALLDATASIZE LT PUSH2 0x36 JUMPI PUSH1 0x0 CALLDATALOAD PUSH1 0xE0 SHR DUP1 PUSH4 0x4534A438 EQ PUSH2 0x3B JUMPI DUP1 PUSH4 0xD2406C78 EQ PUSH2 0x6C JUMPI JUMPDEST PUSH1 0x0 DUP1 REVERT JUMPDEST PUSH2 0x55 PUSH1 0x4 DUP1 CALLDATASIZE SUB DUP2 ADD SWAP1 PUSH2 0x50 SWAP2 SWAP1 PUSH2 0x152 JUMP JUMPDEST PUSH2 0x9D JUMP JUMPDEST PUSH1 0x40 MLOAD PUSH2 0x63 SWAP3 SWAP2 SWAP1 PUSH2 0x18E JUMP JUMPDEST PUSH1 0x40 MLOAD DUP1 SWAP2 SUB SWAP1 RETURN JUMPDEST PUSH2 0x86 PUSH1 0x4 DUP1 CALLDATASIZE SUB DUP2 ADD SWAP1 PUSH2 0x81 SWAP2 SWAP1 PUSH2 0x152 JUMP JUMPDEST PUSH2 0xE5 JUMP JUMPDEST PUSH1 0x40 MLOAD PUSH2 0x94 SWAP3 SWAP2 SWAP1 PUSH2 0x18E JUMP JUMPDEST PUSH1 0x40 MLOAD DUP1 SWAP2 SUB SWAP1 RETURN JUMPDEST PUSH1 0x0 DUP1 DUP3 PUSH2 0xAA DUP5 PUSH2 0xE5 JUMP JUMPDEST SWAP3 POP SWAP3 POP PUSH1 0x0 PUSH1 0x2 DUP3 PUSH2 0xBD SWAP2 SWAP1 PUSH2 0x1E6 JUMP JUMPDEST EQ DUP1 ISZERO PUSH2 0xD6 JUMPI POP PUSH1 0x0 PUSH1 0x3 DUP3 PUSH2 0xD4 SWAP2 SWAP1 PUSH2 0x1E6 JUMP JUMPDEST EQ JUMPDEST PUSH2 0xDF JUMPI PUSH1 0x0 DUP1 REVERT JUMPDEST POP SWAP2 POP SWAP2 JUMP JUMPDEST PUSH1 0x0 DUP1 PUSH1 0x0 PUSH1 0x2 DUP5 PUSH2 0xF7 SWAP2 SWAP1 PUSH2 0x217 JUMP JUMPDEST SWAP1 POP PUSH1 0x0 PUSH1 0x3 DUP6 PUSH2 0x108 SWAP2 SWAP1 PUSH2 0x217 JUMP JUMPDEST SWAP1 POP DUP2 DUP2 SWAP4 POP SWAP4 POP POP POP SWAP2 POP SWAP2 JUMP JUMPDEST PUSH1 0x0 DUP1 REVERT JUMPDEST PUSH1 0x0 DUP2 SWAP1 POP SWAP2 SWAP1 POP JUMP JUMPDEST PUSH2 0x12F DUP2 PUSH2 0x11C JUMP JUMPDEST DUP2 EQ PUSH2 0x13A JUMPI PUSH1 0x0 DUP1 REVERT JUMPDEST POP JUMP JUMPDEST PUSH1 0x0 DUP2 CALLDATALOAD SWAP1 POP PUSH2 0x14C DUP2 PUSH2 0x126 JUMP JUMPDEST SWAP3 SWAP2 POP POP JUMP JUMPDEST PUSH1 0x0 PUSH1 0x20 DUP3 DUP5 SUB SLT ISZERO PUSH2 0x168 JUMPI PUSH2 0x167 PUSH2 0x117 JUMP JUMPDEST JUMPDEST PUSH1 0x0 PUSH2 0x176 DUP5 DUP3 DUP6 ADD PUSH2 0x13D JUMP JUMPDEST SWAP2 POP POP SWAP3 SWAP2 POP POP JUMP JUMPDEST PUSH2 0x188 DUP2 PUSH2 0x11C JUMP JUMPDEST DUP3 MSTORE POP POP JUMP JUMPDEST PUSH1 0x0 PUSH1 0x40 DUP3 ADD SWAP1 POP PUSH2 0x1A3 PUSH1 0x0 DUP4 ADD DUP6 PUSH2 0x17F JUMP JUMPDEST PUSH2 0x1B0 PUSH1 0x20 DUP4 ADD DUP5 PUSH2 0x17F JUMP JUMPDEST SWAP4 SWAP3 POP POP POP JUMP JUMPDEST PUSH32 0x4E487B7100000000000000000000000000000000000000000000000000000000 PUSH1 0x0 MSTORE PUSH1 0x12 PUSH1 0x4 MSTORE PUSH1 0x24 PUSH1 0x0 REVERT JUMPDEST PUSH1 0x0 PUSH2 0x1F1 DUP3 PUSH2 0x11C JUMP JUMPDEST SWAP2 POP PUSH2 0x1FC DUP4 PUSH2 0x11C JUMP JUMPDEST SWAP3 POP DUP3 PUSH2 0x20C JUMPI PUSH2 0x20B PUSH2 0x1B7 JUMP JUMPDEST JUMPDEST DUP3 DUP3 MOD SWAP1 POP SWAP3 SWAP2 POP POP JUMP JUMPDEST PUSH1 0x0 PUSH2 0x222 DUP3 PUSH2 0x11C JUMP JUMPDEST SWAP2 POP PUSH2 0x22D DUP4 PUSH2 0x11C JUMP JUMPDEST SWAP3 POP DUP3 PUSH2 0x23D JUMPI PUSH2 0x23C PUSH2 0x1B7 JUMP JUMPDEST JUMPDEST DUP3 DUP3 DIV SWAP1 POP SWAP3 SWAP2 POP POP JUMP INVALID LOG2 PUSH5 0x6970667358 0x22 SLT KECCAK256 0xC3 0x1E RETURNDATACOPY REVERT 0xD3 0xF 0xC2 0xD1 PUSH15 0x54F63C550A1EFBA95B1303E3A67326 0x4E PUSH29 0xA11398DF341464736F6C63430008120033000000000000000000000000 "
		},
		"gasEstimates": {
			"creation": {
				"codeDepositCost": "127600",
				"executionCost": "171",
				"totalCost": "127771"
			},
			"external": {
				"getExactDividedBy2And3(uint256)": "infinite",
				"getExactDividedBy2And3WithoutModifier(uint256)": "infinite"
			}
		},
		"methodIdentifiers": {
			"getExactDividedBy2And3(uint256)": "4534a438",
			"getExactDividedBy2And3WithoutModifier(uint256)": "d2406c78"
		}
	},
	"abi": [
		{
			"inputs": [
				{
					"internalType": "uint256",
					"name": "_dividend",
					"type": "uint256"
				}
			],
			"name": "getExactDividedBy2And3",
			"outputs": [
				{
					"internalType": "uint256",
					"name": "",
					"type": "uint256"
				},
				{
					"internalType": "uint256",
					"name": "",
					"type": "uint256"
				}
			],
			"stateMutability": "pure",
			"type": "function"
		},
		{
			"inputs": [
				{
					"internalType": "uint256",
					"name": "_dividend",
					"type": "uint256"
				}
			],
			"name": "getExactDividedBy2And3WithoutModifier",
			"outputs": [
				{
					"internalType": "uint256",
					"name": "",
					"type": "uint256"
				},
				{
					"internalType": "uint256",
					"name": "",
					"type": "uint256"
				}
			],
			"stateMutability": "pure",
			"type": "function"
		}
	]
}